:1000000000ED02206D2F000085E80100592F00004F
:10001000592F0000592F0000592F00000000000048
:10002000000000000000000000000000313000006F
:10003000592F000000000000D12F0000592F0000B0
:10004000FD310000FD310000FD310000FD310000F8
:10005000FD310000FD310000FD310000FD310000E8
:10006000FD310000FD310000FD310000FD310000D8
:10007000FD310000FD310000FD310000FD310000C8
:10008000FD310000FD310000FD310000FD310000B8
:10009000FD310000FD310000FD310000FD310000A8
:1000A000FD310000FD310000FD310000FD31000098
:1000B000FD310000FD310000FD310000FD31000088
:1000C000FD310000FD310000FD310000FD31000078
:1000D000FD310000FD310000FD310000FD31000068
:1000E000FD310000FD310000FD310000FD31000058
:1000F000FD310000FD310000FD310000FD31000048
:100100007BB972B90029BEBF00204FF0004106E064
:1001100008BF00281CBF6FF000414FF0FF3000F017
:1001200057B8ADF1080C6DE904CE002909DB002BAE
:100130001ADB00F057F8DDF804E0DDE9022304B033
:100140007047404261EB4101002B1BDB00F04AF895
:10015000DDF804E0DDE9022304B0404261EB410137
:10016000524263EB43037047524263EB430300F098
:1001700039F8DDF804E0DDE9022304B0404261EB28
:1001800041017047524263EB430300F02BF8DDF866
:1001900004E0DDE9022304B0524263EB43037047FD
:1001A00053B94AB9002908BF00281CBF4FF0FF31DE
:1001B0004FF0FF3000F00CB8ADF1080C6DE904CE43
:1001C00000F010F8DDF804E0DDE9022304B0704728
:1001D000704700BF034613F8012B002AFBD1181A01
:1001E000013870472DE9F04786468C460846089E40
:1001F000154674461946002B40F0C2808542B2FA7B
:1002000082F245D94AB1C2F1200300FA02FC2EFA6B
:1002100003F3954043EA0C0C94404FEA154EA8B204
:10022000BCFBFEF8230C0EFB18CC08FB00F943EADC
:100230000C43994528D9EB1808F1FF3704D29945AA
:1002400002D9A8F102072B44A3EB0903A4B2B3FB24
:10025000FEFC0EFB1C330CFB00F044EA0344A042FE
:1002600014D92C190CF1FF3304D2A04202D9ACF1FD
:1002700002032C44241A43EA07401EB1D440002351
:1002800034607360BDE8F0874746DDE76346F1E719
:1002900092BB431B01214FEA154EAFB2B3FBFEFCEC
:1002A000200C0EFB1C330CFB07F840EA0343984577
:1002B00062D9EB180CF1FF3004D2984502D9ACF1A9
:1002C00002002B44A3EB0803A4B2B3FBFEFC0EFB1D
:1002D0001C330CFB07F744EA0344A7424ED92C1900
:1002E0000CF1FF3304D2A74202D9ACF102032C4433
:1002F000E41B43EA0040C0E7C2F1200320FA03F107
:10030000954090402EFA03F303434FEA154EAFB2E7
:10031000B1FBFEFC0EFB1C10190C0CFB07F841EAAC
:100320000041884504FA02F422D969180CF1FF3023
:1003300004D2884502D9ACF102002944A1EB08019E
:100340009BB2B1FBFEFC0EFB1C110CFB07F743EA52
:1003500001439F420ED9EB180CF1FF3104D29F42AA
:1003600002D9ACF102012B44DB1B41EA004192E7C8
:100370006046E3E76146F7E76046A3E76346B7E711
:10038000834206D916B9002108467BE7C6E900E09A
:10039000F9E7B3FA83F78FB9834201D3724508D8DE
:1003A000BEEB020460EB030301209C461EB9002152
:1003B00068E73846FAE7C6E9004CF8E7C7F1200CD1
:1003C000BB4022FA0CF41C432EFA0CF120FA0CF379
:1003D000B84001434FEA14490EFA07F5B3FBF9F8A8
:1003E0001FFA84FE09FB18300B0C08FB0EFA43EAD7
:1003F00000439A4502FA07F240D9E31808F1FF30AA
:1004000004D29A4502D9A8F102002344A3EB0A03BF
:1004100089B2B3FBF9F809FB183308FB0EFE41EA79
:1004200003418E452CD9611808F1FF3304D28E4563
:1004300002D9A8F10203214443EA0040A0FB02983C
:10044000A1EB0E014145CE46434602D306D14D45B0
:1004500004D2B9EB020E68EB04030138002EA6D0DB
:10046000B5EB0E0261EB030101FA0CFC22FA07F373
:100470004CEA0303F940C6E9003198E74046C5E776
:100480004346D9E701EB4101490010B4FF23B1FB1A
:10049000F3F319449CB2062301F0FF02B0FBF3F121
:1004A00001FB13000138C0B2042896BF084B094B6A
:1004B00053F82030062C07D003EB840153F82400B6
:1004C000496810BC1DF06CBD986910BC704700BF36
:1004D00098750300387603002DE9F04FC44BDFF820
:1004E00014B31B7806228DB0B3FBF2F102FB11337B
:1004F000DBB20193C04B02934FF00008029B5BF804
:10050000045B13F8014B0293019BE62614FB06F6ED
:100510004FF0FF09B6FBF9F6F6B2002B00F0BA80F7
:10052000B34B0D211878B8FBF1F1C9B2FFF7AAFF60
:1005300038226FF07F4107461DF032FD32460146FA
:10054000AE481DF02DFD8C2206463946AC4814FB02
:1005500002F2B2FBF9F2D2B21DF022FDA9498146A6
:10056000282230461DF01CFD4FF0E00A034603939D
:10057000002D7BD030462FF0BFF98DF81400C0F36A
:100580000722C0F307408DF815208DF816000022D1
:100590000599284623F0E2F8019A039B2AB99A4963
:1005A000242230461DF0FCFC034618462FF0A4F927
:1005B000C0F307238DF81800C0F307408DF81930F9
:1005C0008DF81A0006990022284623F0DDF8002253
:1005D0000221284623F0E7F8A921FF2614FB01F1A8
:1005E000B1FBF6F156310022C9B2284623F0C5F816
:1005F00048462FF081F9C0F307238DF81C00C0F3A3
:1006000007408DF81D308DF81E00079900222846FE
:1006100023F0D7F800225146284623F0E1F8384667
:100620002FF06AF9C0F307238DF82000C0F30740CC
:100630008DF821308DF8220008990022284623F0F9
:10064000EBF804EB8401002228464900B1FBF6F1E7
:10065000013123F0D3F8DC2314FB03F1B1FBF6F1F5
:100660001C310022C9B2284623F0E5F808F1FF0842
:1006700040F6F25398457FF441AFDFF890B14FF068
:100680000009634B1A785FFA89F39A4214D80DB0C7
:10069000BDE8F08F32465F495F4FDFF880916FF021
:1006A0007F401DF07DFC5749282206461DF078FC4E
:1006B0004FF0F00A03465AE7594951F82350594977
:1006C000CC5C4FF0AA08FF2114FB08F8B8FBF1F846
:1006D0000199012A18BF02F1FF325FFA88F8002958
:1006E0006ED14D4950484C4F42461DF059FC824650
:1006F0004E485E46002D60D0BE224FF0FF083146C6
:1007000014FB02F2B2FBF8F2D2B21DF049FC2FF05A
:10071000F3F88DF82400C0F30722C0F307408DF8EA
:1007200025208DF8260009990022284623F016F886
:1007300004EB840101EB8101B1FBF8F11A390022CD
:10074000C9B2284623F019F850462FF0D5F8C0F367
:1007500007238DF82800C0F307408DF829308DF865
:100760002A000A990022284623F02BF838462FF059
:10077000C3F8C0F307238DF82C00C0F307408DF8B1
:100780002D308DF82E000B990022284626B223F03A
:1007900043F806EBC60600222846B6FBF8F1043102
:1007A00023F02CF8AF2314FB03F1B1FBF8F148312F
:1007B0000022C9B2284623F03EF809F1010960E79A
:1007C000C3EB0323B3FBF2F1094BC9B21878FFF76F
:1007D00059FE12226FF07F4107461DF0E1FB4246B1
:1007E0000646394612481DF0DBFB8246114881E778
:1007F00095CE022024880020A5CE02202C181100BE
:100800009C7A6E000F070500EDE6E3006BE8FF0041
:100810009ACE022076F1FF0000E1FF003A312E006F
:10082000FC8700209BCE02207A7A7A00050505001D
:100830004E3229000E06040008B50E220948002198
:1008400036F09AFB084A0023136053601381074A6D
:100850001360074B4FF0FF321A60BDE80840FFF706
:100860003BBE00BFA5CE02209BCE02202C870020DD
:10087000000000202DE9F04FDFF85083D44FD54C15
:10088000D54E8DB04FF0000A0B23CAEB0A21B1FB05
:10089000F3F1D24BC9B21878FFF7F4FD48226FF09C
:1008A0007F4105461DF07CFB58F804BB8146BBF137
:1008B000000F37D0D82128461DF095FB2FF01CF8EB
:1008C000C0F307238DF80000C0F307408DF8013016
:1008D0008DF8020000225846009922F03FFF48217F
:1008E00028461DF080FB58F804BC2FF005F8C0F333
:1008F00007238DF80400C0F307408DF805308DF80C
:10090000060001990022584622F05BFF58F8040CBB
:100910000022D22122F031FF58F8040C0022AA2133
:1009200022F05EFFD6F800B0BBF1000F50D00422D9
:100930006FF07F4128461DF033FB2EF0DDFFC0F342
:1009400007238DF80800C0F307408DF809308DF8B3
:100950000A0000225846029922F000FF142128467E
:100960001DF041FBD6F800B02EF0C6FFC0F3072300
:100970008DF80C00C0F307408DF80D308DF80E0097
:1009800003990022584622F0FFFE2846D6F800B010
:100990002EF0B2FFC0F307238DF81000C0F307401C
:1009A0008DF811308DF8120004990022584622F07B
:1009B00033FF306800220A2122F020FF3068002235
:1009C000012122F022FF30680022D22122F033FFE1
:1009D000D4F800B0BBF1000F51D048462EF08CFF88
:1009E000C0F307238DF81400C0F307408DF81530CD
:1009F0008DF8160005995846002222F0AFFE5822C5
:100A0000294648461DF0CCFAD4F800B02EF074FF09
:100A1000C0F307238DF81800C0F307408DF8193094
:100A20008DF81A0006990022584622F0ADFE48467D
:100A3000D4F800B02EF060FFC0F307238DF81C003F
:100A4000C0F307408DF81D308DF81E000799002275
:100A5000584622F0E1FE20680022DC2122F08DFEC3
:100A600020680022082122F0C9FE2068002201210E
:100A700022F0CBFE20680022AA2122F0DCFED7F86B
:100A800000B0BBF1000F33D06C226FF07F412846DD
:100A90001DF086FA2EF030FFC0F307238DF82000FA
:100AA000C0F307408DF821308DF82200089900220C
:100AB000584622F053FE48463D682EF01DFFC0F315
:100AC00007238DF82400C0F307408DF825308DF8FA
:100AD000260009990022284622F09EFE386800224E
:100AE000062122F08BFE38680022AA2122F0A3FE04
:100AF000BAF10B0F05D00AF1010A043704340436A9
:100B0000C2E6324CE06A40B10022114622F06FFE8C
:100B10000022E06A114622F063FE2F4CE06A40B1E9
:100B20000022114622F06AFE0022E06A114622F0FD
:100B300082FE284CE06A40B10022114622F05EFE9F
:100B40000022E06A114622F076FE214CE06A40B1B4
:100B50000022114622F052FE0022E06A114622F0E5
:100B60006AFE1F4D2E6876B31C4C1C212078FFF7BF
:100B700089FC2EF0C1FEC0F307238DF82800C0F3D6
:100B800007408DF829308DF82A0000220A99304656
:100B900022F0E4FD20782D68EB21FFF773FC2EF0A6
:100BA000ABFE8DF82C00C0F30723C0F307408DF88F
:100BB0002E008DF82D300B99002228460DB0BDE88F
:100BC000F04F22F0E1BD0DB0BDE8F08F08890020A4
:100BD00078880020A8880020D888002095CE0220A0
:100BE000608800202DE9F74F1F4B204CDFF88080F4
:100BF000DFF88090204FDFF884A0214DDFF884B02B
:100C000001930026019B57F8040B43F8046B44F84A
:100C1000046B48F8046B49F8046B019348B1012157
:100C200020F087FE002357F8040C1A46052120F017
:100C3000C4FE286840B1012120F07BFE0023286813
:100C40001A46052120F0B9FE5AF8040B20B1DBF852
:100C50000010033920F034FE0B4B9C4205F10405D3
:100C6000D0D103B0BDE8F08F9C870020CC87002056
:100C70006C8700203C870020D888002078880020DE
:100C8000A888002038870020FC87002010B51DF0C0
:100C9000D7F9084BD3E90042041B61EB0202B42CE4
:100CA00072F10002A1BFC3E90001034B01221A70D7
:100CB00010BD00BF9002002099CE022010B51DF09B
:100CC000BFF9084BD3E90042041B61EB0202B42CCC
:100CD00072F10002A1BFC3E90001034B01221A70A7
:100CE00010BD00BF8802002098CE022010B51DF074
:100CF000A7F9084BD3E90042041B61EB0202B42CB4
:100D000072F10002A1BFC3E90001034B01221A7076
:100D100010BD00BF8002002097CE022010B51DF04C
:100D20008FF9084BD3E90042041B61EB0202B42C9B
:100D300072F10002A1BFC3E90001034B01221A7046
:100D400010BD00BF7802002096CE022008B50C4BE3
:100D50001B788BB91DF074F90A4B0B4A1B6812689B
:100D6000C31A9A4238BF9B1A084A28BF0023B3FB14
:100D7000F2F002FB103008BD054B1868ECE700BF2D
:100D800094CE0220288700202087002074AB030027
:100D90002487002038B50B4D0446286828B1214629
:100DA00033F08FFA286821F023F8074D286838B10E
:100DB000214633F086FA2868BDE8384021F018B89B
:100DC00038BD00BF748800207088002070B50E4EBA
:100DD00004463068B0B10D4D2B689BB10C4910F042
:100DE000DFFB0B49286810F0DBFB5CB9306822465A
:100DF000214622F090FC286822462146BDE870403A
:100E000022F089BC70BD00BF74880020708800206B
:100E100037E0010070B51F4E04463068002838D016
:100E20001D4D2B68ABB3ACB1042117F0F9FB28685A
:100E3000042117F0F5FB30680022022122F026FD84
:100E400028680022022122F021FD0020BDE8704028
:100E5000FFF7BCBF032117F0E3FB2868032117F05D
:100E6000DFFB30682246012122F010FD286822466F
:100E7000012122F00BFD3068224641F2504122F060
:100E80001AFD2868224641F2504122F014FD01204B
:100E9000DCE770BD7488002070880020F8B5124E21
:100EA000336803B3114B1B68EBB1FFF74FFF104BD7
:100EB0001C68002C054614DDA0FB0401E7170D4A51
:100EC000002305FB0711FFF76BF901280146B8BFA6
:100ED0000121A142A8BF21463068BDE8F84020F0BA
:100EE00011BD0121F8E7F8BD60880020648800206A
:100EF0003487002074AB030030B51F4B1B6887B0EC
:100F00000446D3B11D4B1B68BBB11D4B1D4D1B7857
:100F1000ABB978B11C4B1D4A0092CDE90332CDE943
:100F200001321B481B4A0593C02111F035FB1848BC
:100F3000FFF730FF4FF0FF332B6007B030BDFFF7F6
:100F400005FF4FF47A73B0FBF3F214B92B689A42A1
:100F5000F3D03C212A60B2FBF1F301FB1322009293
:100F600018210D4A0D4811F017FB0C4807B0BDE8D9
:100F70003040FFF70FBF00BF74880020708800204A
:100F8000B4CE0220040000208C8F0300B88F030031
:100F9000BCCD0220A98F0300C18F03007CCE0220AC
:100FA000014604488368DB690BB1012218476FF0E2
:100FB000570070474C710300014640F2E73080B59E
:100FC00000EBC1304FF47A720023490CFFF7E8F8C8
:100FD000084E094F05460C4633782BB1BB680648CE
:100FE0005B694FF4005198472846214635F0FAFED8
:100FF000F2E700BFB5CE02204C7103002DE9F04F9F
:101000000B48C7B01DF05CF840B10A484FF4B0116E
:101010001CF0A7FF10B9084B01221A70074835F0E1
:1010200082FD78B906481DF054FAFA20FFF7C4FF94
:101030004C7103001C770300B5CE02204C720300F4
:10104000CF8F0300DC481DF03BF8002840F0F5840A
:10105000DA481DF03EFAD8481DF032F8002840F07A
:101060000A85D7481DF035FAD3481DF029F8002825
:1010700040F01F85D3481DF02CFACF481DF020F812
:10108000002840F03485D0481DF023FACF48D04DD9
:101090008368069336A91B6ACE4CDFF83C839847D9
:1010A000BDF8D8302B60BDF8DA30236009F006F8BF
:1010B000D5F800A0D4F800B0BAF1780FABF12C034A
:1010C000C5BF0C22AAF131010622B1FBF2F2182BA6
:1010D0000092B8BF18230393009B0C245C43213477
:1010E000AAEB0404631CA8BF04EBD4744FF0000205
:1010F0004FF0FF01ACBF64100024074622F03DFB17
:10110000B6482EF0F9FBC0F307238DF89000C0F32A
:1011100007408DF891308DF89200002224993846CE
:1011200022F01CFB002138461CF098FF10213846A5
:101130001FF0FBF90021384621F033F80021384632
:1011400021F045F8384606F09BF95A4651460546C7
:1011500020F006FC00221146284620F0C8FB0022A1
:101160001146284622F043FB00221146284622F071
:1011700094FB284600211CF071FF0022FF21284625
:1011800022F0FBFA95482EF0B7FBC0F307238DF849
:101190009C00C0F307408DF89D308DF89E00279984
:1011A0000022284622F0DAFA8D482EF0A5FBC0F383
:1011B00007238DF89800C0F307408DF899308DF81B
:1011C0009A0026992846002222F0DEFA00222846BC
:1011D000012122F0E8FA102128461FF0A6F928463E
:1011E00016F064FA4146064632F0E0FEB8F80620F2
:1011F000B8F8041052084908304632F0D4FD4FF4D4
:101200006171304632F054FD304620F04BFF002231
:10121000BE21304622F048FB284606F031F95A46F6
:101220005146054620F09CFB00221146284620F03E
:101230005EFB00221146284622F0D9FA0022114610
:10124000284622F02AFB00225A21284622F095FA4D
:1012500064482EF051FBC0F307238DF89400C0F3CF
:1012600007408DF895308DF8960000222846259984
:1012700022F074FA284610211FF057F9384606F07C
:10128000FFF8594D2860002801F03B815A4651462D
:1012900020F066FB00222868DFF85091DFF85081CB
:1012A000114620F024FB00222868114622F09FFA04
:1012B00000221146286822F0F0FA4E482E682EF0DF
:1012C0001BFBC0F307238DF88C00C0F307408DF89B
:1012D0008D308DF88E0023993046002222F03EFAA0
:1012E000002211462868444E22F047FA102128684F
:1012F000424D1FF01AF9384616F0DEFDC9F800001D
:10130000384616F0D9FDC8F80000384606F0B8F89F
:101310002860384606F0B4F803463060D9F800007B
:10132000002801F0EE80D8F80020002A01F0E980C2
:101330002A68002A01F0E580002B01F0E2803049A4
:1013400032F0BFFFD9F80000AAF10A0120F0DAFA62
:10135000D9F800002B49002222F08AFAD9F80000BF
:101360000022012122F08BFAD9F80000002202218C
:1013700022F08CFAD9F8003001934FF6F5702EF078
:10138000BBFAC0F307238DF88800C0F307408DF83F
:1013900089308DF88A0022990198002222F052FAB1
:1013A000D9F800000022B42122F05BFA04230122C4
:1013B000D9F8000028E000BF4C710300EA8F030059
:1013C00065900300E4900300639103004C720300F6
:1013D0000C00002008000020247703001203050001
:1013E000260714000E060500688800207488002077
:1013F00070880020784DFF00648800206C880020F1
:101400008C8F0300A87F0300022120F0D6FAD8F8C1
:101410000000D14932F055FFD8F80000AAF10A01C6
:1014200020F070FAD8F80000CC49002222F020FA0F
:10143000D8F800000022012122F021FAD8F800009B
:101440000022022122F022FA6FF07F40D8F80090AB
:101450002EF052FAC0F307238DF88400C0F3074042
:101460008DF885308DF8860021994846002222F0BB
:10147000E9F9D8F800000323AAF11E08002202218E
:1014800020F09BFA28680222414620F069FA1A23CC
:1014900028680022022120F090FA002228681146D4
:1014A00022F0A5F92868002247F6FF7122F0F5F92D
:1014B00028680022B92122F060F9A948D5F80090E7
:1014C0002EF01AFAC0F307238DF88000C0F307400E
:1014D0008DF881308DF8820020990022484622F054
:1014E0003DF94DF2FF60D5F800902EF005FAC0F3FB
:1014F00007238DF87C00C0F307408DF87D308DF810
:101500007E001F990022484622F086F928680022B2
:101510000A2122F073F928680022B42122F08BF905
:101520002868904D10211FF000F88F4B3068C3F8E9
:1015300000800622414620F013FA1E233068002264
:10154000022120F03AFA30680022012122F04FF9FE
:1015500030680022782122F043F90022306847F6F3
:10156000FF7122F09AF9306800211CF077FD00220B
:101570003068B42122F001F9306810211EF0D5FF47
:10158000306805F07DFF2860002800F0BA87062249
:10159000012120F0E5F900231A462868072120F0F0
:1015A0000CFA00221146286822F021F9286800224E
:1015B00047F6FF7122F071F928680022FF2122F01E
:1015C000DCF800222868022122F0EDF828681021BA
:1015D0001EF0ABFF654B039A1A6002EB42126423C4
:1015E00092FBF3F30493039B049A0594033B9B1A29
:1015F0001093009B033311935D4B0C935D4B099348
:101600005D4B0B935D4B08935D4B0A935D4B0793CA
:101610004FF00009384605F033FF0B23C9EB0921D1
:10162000B1FBF3F1584BC9B206461878FEF72AFF12
:1016300020226FF07F4101901CF0B2FC62210290E9
:1016400001981CF0D0FCEB210E9001981CF0CBFC13
:10165000A5210D9001981CF0C6FC0F90002E00F003
:101660005087304605F00CFF0546304605F008FF70
:101670000446304605F004FF8046002D00F0418707
:10168000002C00F03E87002800F03B87079B099A5A
:1016900043F8046B07930A9B009943F8045B0A9391
:1016A000089B43F8044B08930B9B43F8040B0B93E4
:1016B0004FF4045342F8043B09920C9A42F8043B5D
:1016C0000C92324A42F82930314A304642F82930E9
:1016D000039A20F045F905992422304620F007F9B5
:1016E00000221146304622F082F8012130461CF0DB
:1016F000B5FC00220321304622F0CFF80022B921A8
:10170000304622F03AF80D982EF0F6F8C0F3072391
:101710008DF87800C0F307408DF879308DF87A00A5
:101720001E990022304622F019F80022012130468D
:1017300022F05DF800227821304622F051F80F980F
:101740002EF0DAF8C0F307238DF87400C0F30740D9
:101750008DF875301EE000BF8C8F0300A87F03005A
:10176000FFFD2D006088002034870020388700208E
:101770009C870020CC87002078880020A888002043
:10178000D88800200889002095CE02206C87002090
:101790003C8700208DF8760000221D99304622F00B
:1017A00010F8102130461EF0C0FE009B023B194687
:1017B00028460D9320F0A6F80499284620F0B9F8A1
:1017C00000231A460521284620F0F7F8002211468A
:1017D000284622F00CF800220321284622F05DF86A
:1017E0000022FF21284621F0C8FF02982EF084F83D
:1017F000C0F307238DF87000C0F307408DF87130F7
:101800008DF872001C990022284621F0A7FF0E983F
:101810002EF072F8C0F307238DF86C00C0F3074078
:101820008DF86D308DF86E001B990022284621F04E
:10183000ABFF00220121284621F0B5FF01982EF0D0
:101840005BF8C0F307238DF86800C0F307408DF8FC
:1018500069308DF86A001A990022284621F0DCFFD1
:1018600000220A21284621F0C9FF00220121284632
:1018700021F0CBFF0022D221284621F0DCFF1021ED
:1018800028461EF052FE009B2046191F20F03AF811
:101890000499204620F04DF800231A4605212046E1
:1018A00020F08BF800221146204621F0A0FF0022F4
:1018B0000221204621F0F1FF0022A821204621F03C
:1018C0005CFF64226FF07F4102981CF069FB2EF0F0
:1018D00013F8C0F307238DF86400C0F307408DF8B8
:1018E00065308DF8660019990022204621F036FFF8
:1018F00001982EF001F8C0F307238DF86000C0F3C3
:1019000007408DF861308DF862001899002220465A
:1019100021F03AFF00220121204621F044FF7822E5
:101920006FF07F4102981CF03BFB2DF0E5FFC0F308
:1019300007238DF85C00C0F307408DF85D308DF80B
:101940005E0017990022204621F066FF0022082140
:10195000204621F053FF00220121204621F055FFAF
:1019600000229621204621F066FF102120461EF01D
:10197000DCFD0D9940461FF0C5FF032140461FF0D6
:10198000D8FF109A012140461FF0B1FF00221146F6
:10199000404621F02CFF002247F6FF71404621F01F
:1019A0007CFF0022FF21404621F0E7FE96226FF0E7
:1019B0007F4102981CF0F4FA2DF09EFFC0F307233C
:1019C0008DF85800C0F307408DF859308DF85A0053
:1019D00016990022404621F0C1FE02982DF08CFF9E
:1019E000C0F307238DF85400C0F307408DF855303D
:1019F0008DF8560015990022404621F00DFF002277
:101A00000621404621F0FAFE00220121404621F045
:101A1000FCFE00229621404621F00DFF1021404699
:101A20001EF083FDB9F10B0F00F0B080059B119AF9
:101A3000134409F101090593ECE53C484FF480316A
:101A40001CF08FFA10B13A48FFF703BB37481CF07F
:101A50001CFB10B13748FFF7FCBA3748374B4360DF
:101A60004FF400638360FFF79BFA00283FF4F3AA6A
:101A70003348FFF7EEBA33484FF480311CF071FA67
:101A800010B13148FFF7EEBA2E481CF0FEFA10B143
:101A90002E48FFF7E7BA2E482E4B43604FF4805391
:101AA0008360FFF77DFA00283FF4DEAA2A48FFF79B
:101AB000D9BA2A484FF480311CF053FA10B12848A3
:101AC000FFF7D9BA25481CF0E0FA10B12548FFF716
:101AD000D2BA2548254B43604FF080738360FFF7EF
:101AE0005FFA00283FF4C9AA2148FFF7C4BA214889
:101AF0004FF480311CF035FA10B11F48FFF7C4BA1B
:101B00001C481CF0C2FA10B11C48FFF7BDBA1C48B3
:101B10001C4B43604FF000738360FFF741FA0028CD
:101B20003FF4B4AA1848FFF7AFBA00BF1477030018
:101B3000029003001E900300148700208D0C00000B
:101B4000439003000C7703007E9003009B900300FA
:101B500008870020BD0C0000C1900300047703003B
:101B6000FD9003001A910300FC860020ED0C00009C
:101B700040910300FC7603007C91030099910300DF
:101B8000F08600201D0D0000BF91030000221146C9
:101B9000304621F02CFE00221146304621F020FE76
:101BA00000221146284621F029FE0022114628462F
:101BB00021F041FE00221146204621F01FFE0022A6
:101BC0001146204621F037FE00221146404621F002
:101BD00015FE00221146404621F02DFE384605F044
:101BE0004FFC0446002800F08C845A4651461FF0F2
:101BF000B7FE0022114620461FF079FE0022114652
:101C0000204621F0F4FD00221146204621F045FE39
:101C10002DF0A8FEC0F307238DF85000C0F3074055
:101C20008DF851308DF852001499D84D204600227D
:101C300021F094FD00222046642121F09EFD2046E3
:101C400010211EF072FC5C46D14B7A2C18681B796F
:101C50003A90B8BF7A248DF8EC303846A4F12A03C4
:101C6000019305F00DFC2860002800F04A84C94E5D
:101C70002823A4F12A02514633601FF071FE326816
:101C8000286800211FF033FE28680022012121F07E
:101C9000AEFDC1482E682DF02FFEC0F307238DF84E
:101CA000C800C0F307408DF8C9308DF8CA003299DA
:101CB0003046002221F085FD28680022AA2121F06B
:101CC0008FFD002228680A2121F0E7FD2868002105
:101CD0001CF0C4F9B1482E682DF00EFEC0F30723A6
:101CE0008DF8C400C0F307408DF8C5308DF8C600EC
:101CF00031990022304621F031FDA9482E682DF09F
:101D0000FBFDC0F307238DF8C000C0F307408DF83A
:101D1000C1308DF8C20030993046002221F034FDE8
:101D200028680022022121F03EFD28680022F021CF
:101D300021F023FD00202E682DF0DEFDC0F30723E7
:101D40008DF8BC00C0F307408DF8BD308DF8BE00A3
:101D50002F990022304621F05FFD286800220C21D7
:101D600021F04CFD28680022B42121F064FD286890
:101D700010211EF0DAFB2868002120F012FABBF1D6
:101D80009D0FCCBF4A3C06244FF00E08C4BF0E2363
:101D9000B4FBF3F4019B08FB04F8AAF1060508F173
:101DA0001A08A3EB08081C2DB8BF1C25B8F1050FB5
:101DB000CCBF4FEA68084FF00308A31CDFF8E4A18A
:101DC0000093C146714A106805F05AFB0646002888
:101DD00000F09783224629461FF0C2FD4A460321A0
:101DE00030461FF084FD00220221304621F055FDCF
:101DF00000220121304621F0FAFC6B482DF07CFDD9
:101E00008DF8B800C0F30722C0F307408DF8B92061
:101E10008DF8BA002E990022304621F0D2FC002223
:101E2000E021304621F0DCFC60482DF065FD8DF8A6
:101E3000B400C0F30722C0F307408DF8B5208DF839
:101E4000B6002D990022304621F088FC58482DF02C
:101E500053FD8DF8B000C0F30722C0F307408DF8A2
:101E6000B1208DF8B2002C990022304621F08CFC74
:101E700000220221304621F096FC002256213046F5
:101E800021F07BFC4B482DF037FD8DF8AC00C0F302
:101E90000722C0F307408DF8AD208DF8AE002B99D6
:101EA0000022304621F0B8FC00220121304621F00A
:101EB000A5FC00221C21304621F0BDFC102130463B
:101EC0001EF033FB009B4AF8046B99443A4B9A4549
:101ED0007FF478AF38235C43B4F5C87FB2BF0424E5
:101EE0006423B4FBF3F40E2C4FF03C03B8BF0E2474
:101EF0005D436423B5FBF3F3029304EBD4735B10EF
:101F00005B420393002399464FF0000A3AAA1AF85D
:101F100002501D44EDB201350D2D00F29D80049359
:101F2000009B05FB0385039B1D44019B1A1B174B5C
:101F300025EAE57595421868A8BF154605F0A0FA90
:101F40000646002800F0DD82029922461FF008FDB7
:101F50002A46032130461FF0CAFC002202213046E7
:101F600021F09BFC00220121304621F040FC134867
:101F70002DF0C2FC8DF8A800C0F30722C0F3074083
:101F80008DF8A9208DF8AA002A9919E05C88002014
:101F90008875030030870020553025000F060400A7
:101FA0001E0E0A00248800209C7A6E002C18110056
:101FB0000F070500F75E4B005C8800204E322900B9
:101FC0000022304621F0FDFB0022DC21304621F0CA
:101FD00007FC26482DF090FC8DF8A400C0F30722E2
:101FE000C0F307408DF8A5208DF8A600299900229E
:101FF000304621F0B3FB0022E621304621F0BDFB44
:102000001B482DF079FC8DF8A000C0F30722C0F327
:1020100007408DF8A1208DF8A200289900223046B3
:1020200021F0FAFB00220421304621F0E7FB0022D8
:102030004821304621F0FFFB102130461EF075FA92
:10204000B9F1090F98BF0B4A049B9EBF42F8296063
:1020500009F101095FFA89F90AF1010ABAF1050FDC
:102060007FF454AF072B07D007234DE70E0604007B
:10207000FF6C5A00FC870020B74B83F80090B74BE9
:10208000012118681EF09DFCFEF7D6FB384605F0CE
:10209000F7F90446002800F034825A4602211FF066
:1020A0005FFC00231A46082120461FF086FC002210
:1020B0001146204621F09BFB00221146204621F0CC
:1020C000ECFBA7482DF018FCC0F307238DF84C005B
:1020D000C0F307408DF84D308DF84E001399002263
:1020E000204621F03BFB0022FF21204621F045FB4A
:1020F000102120461EF019FAFEF7BCFBFEF7CEFEBB
:102100000020FEF787FE0120FEF7F6FE069B5B68C7
:10211000002B40F0FD811BF093FF924B18601BF0E9
:102120008FFF06460F4604460D468F4B1B7863B162
:102130008D4A002313708D4B187880F001001870C1
:10214000FEF768FE0120FEF7D7FE894B1A78F2B140
:10215000DFF8209200221A7099F800304FF006083C
:102160000133B3FBF8F208FB123389F80030FEF7B5
:1021700081FB99F80030B3FBF8F208FB1233DBB2B5
:102180001C2253437C4A7D48D1581CF0A2F97C4B59
:102190001A78DAB1DFF8EC91DFF8EC814FF0000A41
:1021A00083F800A099F80030002B40F0B48101239F
:1021B00089F800301BF044FFC8F80000FEF712FD5C
:1021C00072481CF086F90120FEF796FE704B1A78D3
:1021D000002A4ED0DFF8BC9199F800B000221A70A6
:1021E0008BF0010A6C4B89F800A000934FF00C08AB
:1021F000009B53F8040B009330B10121BBF1000F99
:1022000000F096811EF091F908F1FF3818F0FF08F0
:10221000EED1624A1068002800F092810121BBF1E2
:10222000000F00F088811EF080F9DFF83081FEF7A2
:1022300003FBD8F8000088B159490FF0B1F9594BA8
:10224000D8F8000019681FF03BFBD8F80000012106
:10225000BAF1000F00F079811EF067F999F80010CB
:10226000514A524B524800290CBF114619461CF0E6
:1022700030F91BF0E5FEB04271EB070300908B468E
:10228000C0F23881844275EB010380F26181041B46
:1022900061EB0505C92C75F1000500DBC8243D4B39
:1022A0001B780193374B1D78019B002B00F0B38105
:1022B000404B4FF4D27218686243B2F57A7F2044E3
:1022C0003D4C186032BF01224FF47A73B2FBF3F237
:1022D0000E2314F8011B914288BF891A03F1FF33C2
:1022E0008CBFC9B2002113F0FF0304F8011CF0D128
:1022F0001949324C0E78D9B28E4200F22B81002D52
:1023000040F05D81FEF722FD2D4B98429CBF1423C7
:10231000B0FBF3F02B4B1A6888BF42F6F86082429C
:1023200000F09B80284E186000250C2303FB0066FC
:102330002C462B46A8462F4628462A4616F8011B4F
:10234000814200F21181B94200F2158141453DD927
:10235000884615463AE000BF9ACE02205C880020ED
:10236000120305002887002099CE0220B4CE022057
:1023700098CE022095CE022054760300FA910300F5
:1023800097CE022094CE02202487002006920300DC
:1023900096CE0220B3CE0220088900206888002053
:1023A0003DE0010030870020CB8F0300FDB50A001F
:1023B0002B9203002C870020A5CE02209BCE02206A
:1023C00073AB0300000000208D4208000132D2B23E
:1023D0000C2AB3D105210D2616FB041416FB031697
:1023E00064211BF016FE0B228246B4FBF2F45C2142
:1023F0005FFA84F93846B6FBF2F6F2B21BF009FE3A
:10240000914507D101360D2E94BF09F1010209F162
:10241000FF32D2B2B54B195D514538BF03F804A065
:10242000995C814238BF9854B14B1E7808F108037B
:10243000BB4212D3522140461BF0EBFD0B21002E74
:1024400000F09E80731E6B43AA4A0533B3FBF1F381
:10245000DBB2D15C814200D2D05400210E223AA8D6
:1024600034F08AFD0023CDE93333ADF8D430A04BEE
:10247000DFF880A21E780321012700233AAD2C4605
:102480001A46184614F801CBBCF1000F07D1DFF84B
:102490005CC21CF800C0944584BFC3B262460130E0
:1024A0000E28EFD133AC0020A04684465FFA80FEB0
:1024B000764500F28A80002A40F096808B490023FE
:1024C00015F8012B02B9CA5401330E2BF8D18949F2
:1024D0000023DAB2964200F29880FDF7FDFFFEF786
:1024E000DDFC0020FEF708FD009B5E1D4BF10007A0
:1024F0001C465D460FF042FD0021422034F072FC84
:1025000013E67D481BF0E5FF4FF4FA70FEF78EBD31
:102510007A489847FFE51BF093FD794AD8F80010F8
:10252000136889F800A05B1A03441360754848E6F5
:102530001EF047FA68E61EF044FAFEF753FB74E615
:10254000BAF1000F3FF471AEF7E71EF03AFA85E6F4
:102550000524A4E621788A423ABF891AC9B200212B
:1025600004F8011B0133C6E6B8461D46074623465C
:10257000084614462AE7B8461D460F46134625E787
:102580000D23052613FB0563B3FBF1F1CBB299458F
:1025900001D09A4208D14D1C0D2D07D8AC4205D070
:1025A000954203D00133DBB2504A52E7002BFBD0F7
:1025B00001398C42F8D09142F6D0013BF3E71A285A
:1025C00082BF514B1A221A6047E718F8019BB9F1F4
:1025D000000F07D11AF80090914582BFDDF804C0C2
:1025E00073464A46013061E703F58C736B44BCF1D6
:1025F000000F07D003F84C7C013911F0FF017FF484
:102600003CAF5BE703F8307CF6E714F8012B02B926
:10261000CA5401335DE715B1FEF7E4FA5FE7FEF750
:1026200095FB3A4B3A493B4E984288BF42F6F860D8
:102630004FF00C0298BF14233AAD98BFB0FBF3F0F3
:10264000642702FB001111F8013B16F8010BDFF8BB
:10265000C8C013FB00F0BCEB002F02F1FF324FEAC1
:102660000023B4BF4FF4C843B3FBF7F312F0FF02EB
:1026700045F8043BE7D13A99264E284F54230125CB
:10268000594328469C464FF0640E0DF58C7808EBB4
:102690008505083355F8305C01EBC5011546725DC0
:1026A00091FBF3F353431C4A9342CCBF4FF4C8430E
:1026B00093FBFEF30C2847F8253031D046A901EBF7
:1026C000800146AB03EB800351F8341C53F8303CD7
:1026D00002460130C0B2C9000C280CFB03114FF0B8
:1026E0000B054FF05C03DAD00546CEE7A5CE0220FD
:1026F0009ACE02209BCE0220E29103004C7203008E
:1027000020870020189203002C87002073AB030061
:102710008D42080081920300631027009C870020EF
:102720004FF430535C434FF47A73B4FBF3F30593E7
:10273000954B964EDFF85882964FDFF84CA2303317
:102740000493954B0193954B0293954B03935AF841
:10275000041B57F8042B8B1A00F1CB804FF4A070A8
:1027600043431B12B3F5006FA8BF4FF40063802BE7
:10277000ACBFD21880329142C0F2CB8047F8042C13
:1027800057F8043C002B80F2C780002347F8043C34
:1027900084234B43642293FBF2F30B44B3F5C84FFD
:1027A0003068A8BF4FF4C8431A1A314600F1BB8005
:1027B0004FF4C37462431212B2F5805FA8BF4FF4A6
:1027C0008052802AACBF801880308342C0F2BB8028
:1027D00030603368002B80F2B8800023336057F8F4
:1027E000043CD8F80020934280F2B6800598121A73
:1027F0009A42B8BF1A46002AC8F8002080F2AE807C
:102800000022C8F800200D6858F8044B1B1206F18E
:1028100004064FEA252500F1B480642B00F3A5805F
:10282000212B00F3A3805F4AD2F800909D424FF025
:102830004802B8BF1D4609FB03F1514344F61F632C
:10284000642DA8BF64259942D8BF022109FB05F574
:1028500002FB05F5C4BF42F2107291FBF2F149454B
:10286000A8BF49469D42C4BF42F2107395FBF3F5E1
:10287000029B1868D8BF02251FF05BF8DDF808C07E
:1028800000235CF8040BCDF808C01A4605211FF0A0
:1028900094F8019B53F8040B019368B1A94549468C
:1028A000A8BF29461FF045F80198002350F8040CF2
:1028B0001A4605211FF081F8039B53F8040B03937C
:1028C00090B1384B1B682112482259435143364A74
:1028D00091FBF2F11944033921EAE1719A1E914208
:1028E000A8BFD91E1EF0ECFF049B53457FF42FAF09
:1028F000F5E56FF0A90043431B12B3F5407FA8BF75
:102900004FF44073552BACBFD21A553A91427FF722
:1029100035AF47F8041C33E7B3F5C84F7FF738AF3E
:102920004FF4C84332E76FF0EF0462431212B2F57E
:10293000106FA8BF4FF41062552AACBF801A5538EB
:1029400083427FF745AF336043E7B3F5C84F7FF766
:1029500046AF4FF4C84341E71A464CE7B2F5C84FBB
:102960007FF751AF4FF4C8424BE764237D22213BF0
:1029700053436422B3FBF2F321339342A8BF1346BF
:1029800051E700234FE700BF9C8700206C870020A1
:102990003C870020CC870020A8880020D888002011
:1029A0007888002038870020F0D8FFFF014B1B6893
:1029B000184700BF10000020014B1860704700BF8F
:1029C0001000002030B585B004460D4610220021CD
:1029D000684634F0D1FA02238DF802302A46044BBF
:1029E0000193214668461BF05FF805B030BD00BF7B
:1029F000AD29000080B505460E46174698461AF0E8
:102A0000E9FC034634F024FBDFF81890044649F84B
:102A10000030424630463946A84754F8090000F0D5
:102A2000C1FA00BF080000002DE9F047058B0446FD
:102A30002807904611D4022905F0070540F0CC8004
:102A400020461BF053FD78B10138218B042811D8A2
:102A5000DFE800F0C2106D85950001290CBF45F03C
:102A6000100545F02005258388F31188BFF36F8F8B
:102A7000BDE8F08701F0070AAA4500F0A58000270D
:102A8000B9463E46A368002B00F0BC8041F0080127
:102A9000218388F31188BFF36F8FA168002900F0AC
:102AA000BA800D68002900F0B680D1F80480334662
:102AB00052462046C047002D76D02B6829461D4639
:102AC000F0E701F007035A1F012A1BD8002221F06A
:102AD0000701062B276889B2C4E9002209D13B46C9
:102AE00003E0628B013262831B68002BF9D141F055
:102AF0000201218320461BF0F9FC00287AD041F026
:102B0000200176E0042B0AD121F0070189B221834C
:102B100020461BF0EBFC10B141F020012183218BFA
:102B200001F0070AAA454FD00027B946AAE7236952
:102B300021F0070141F00601062DD3F80090218312
:102B40002DD1B9F1000F3FD041F00801218388F366
:102B50001188BFF36F8F3A492046C84729E021F01A
:102B60000701236941F0040189B2042DD3F80490D0
:102B70002183E6D000273E464FF0040A82E721F089
:102B80000701236941F0050189B2052DD3F80890AA
:102B90002183D6D000273E464FF0050A72E7002772
:102BA0003E464FF0060A6DE72B4687E7B9F1000F66
:102BB000D1D1EFF31188202383F31288BFF36F8FF5
:102BC000238B23F008032383258BEA062ED525F0DB
:102BD0001003238305F007056669218B002EBFF6DD
:102BE00070AF00232768C4E9003321F0070141F0EA
:102BF00001012183218B01F0070AAA454FF000094A
:102C00007FF440AF002F9CD041F00801218388F36E
:102C10001188BFF36F8F002FC8D03D683946334607
:102C2000524620461BF08EFC2F46F4E7AB067FF59C
:102C30001BAF25F02003238305F0070500E700BF45
:102C400071E50100014B03600020704740770300ED
:102C500030BFFFF7FDBF00BF2DE9F0410B4EDFF89D
:102C6000308006EB0807CC1B054632460949204652
:102C700034F05AF9A01942460021083C34F07CF99E
:102C80002C6707F10800BDE8F08100BF00000000DC
:102C90000400000054750300054B5A699B689A4272
:102CA0001FBF044A536843F080535360704700BF0E
:102CB00080CD022000ED00E070B5264B15469A6AE3
:102CC00012F0100F9A6A14BF1124102412F0080F8A
:102CD0009A6A18BF1224920706460AD5586B9A6A58
:102CE000140634D519B19A6A22F080029A6213242C
:102CF00001E06FF01500174B9A6A12F0010F9A6A03
:102D000018BF142412F0200F9A6A18BF1524D20697
:102D100002D49B6A9B070AD50E4B5B68190506D542
:102D2000314600F025FA10B180F309880224094BDE
:102D30009A6A920642BF5A6A22F400525A629A6A0A
:102D400042F0FF029A6200232B70204670BD6FF0A4
:102D50001500CCE700ED00E0134B9A6A12F0007FFB
:102D60009A6A14BF1E201D2012F0807F9A6A18BF35
:102D70001F2012F4002F9A6A18BF212012F4802F0E
:102D80009A6A18BF222012F4003F9A6A18BF2320C3
:102D900012F4803F9A6A6FEA02426FEA12429A6224
:102DA00018BF2420704700BF00ED00E010B5194B9C
:102DB0000246986A9C6A10F4805F14BF17201620A0
:102DC00014F4006F9C6A18BF1820A40509D5986BED
:102DD000986A000404D51AB19A6A22F400429A62F1
:102DE00019200C4B9A6A12F4806F9A6A18BF1A2045
:102DF000D2050CD49B6A13F4005F18BF1C20054A4F
:102E0000936A43F47F43936200230B7010BD1B2031
:102E1000F5E700BF00ED00E0F0B5484B5B688BB014
:102E20000446C3F30803002585F31188BFF36F8FB1
:102E300002F07F40B0F17F4F11D102F00C00082862
:102E40000DD010074CBF0C4601250022033B8DF826
:102E50000720032B05D8DFE803F0246367602C46C6
:102E6000F3E700239DF80720CAB902AE04F120075A
:102E700020686168324603C20834BC421646F7D166
:102E8000099A002D54D0C2F3080121B96FEA5222E9
:102E90006FEA4222099202A918461BF0E9FC0BB026
:102EA000F0BD264BDA6A9107DBD4DA6A002AD8DB58
:102EB000DA6A5200D5D55A69A16942F480725A6122
:102EC000BFF34F8FBFF36F8F5A6931F8021C22F4A2
:102ED00080725A61BFF34F8FBFF36F8F4DF602724E
:102EE00091420AD09A6AD2B24AB10DF10702012189
:102EF0002046FFF7E1FE0346B4E72368B2E79A6A8B
:102F000012F47F4F05D00DF107010120FFF74EFFAE
:102F1000F1E79B6AB3F5803FA3D3FFF71DFFEAE714
:102F20000DF107020021E3E70DF107010020EDE7B5
:102F300022F4FF7222F00102ACE700BF00ED00E0D6
:102F4000044B5A6942F010025A615A6922F0080291
:102F50005A61704700ED00E0EFF30880EFF309815C
:102F600001B57246FFF758FF01BD00BF0B4880F363
:102F7000088802F079FA202080F3118808484FF47D
:102F80000461401880F30988EFF31480022108439C
:102F900080F31488BFF36F8F00F0B2F800ED0220C9
:102FA00040D30220084B9B6883420BD1EFF305838B
:102FB00043B1064B5A6842F080525A605A6A22F472
:102FC00000425A621AF00CBA80CD022000ED00E0F7
:102FD00014498A684FF030001044EFF3098C80E800
:102FE000F01F202080F31288BFF36F8F0E4F4FF039
:102FF00000664A698A603E60106F0C4C2060506F1A
:103000000023536780F3118804B5104600F014F9CB
:10301000BDE8044002F1300090E8F01F8CF309880D
:103020007047000080CD022004ED00E050890020B0
:103030001EF0040F0CBFEFF30880EFF309808169E5
:1030400011F8021C0229FFD001B572461BF016FCD4
:1030500001BD00BF40B2002807DB044A410901233B
:1030600000F01F00834042F82130704700E100E08B
:1030700040B200280CDB4309064900F01F00203352
:103080000122824041F82320BFF34F8FBFF36F8F9F
:10309000704700BF00E100E0054B420900F01F004F
:1030A00053F82220012303FA00F01040704700BFBC
:1030B00000E100E040B20028A8BF00F1604001F14B
:1030C0000101B8BF064B4FEA4111ACBF00F56140AA
:1030D00000F00F00C9B2B4BF195480F80013704754
:1030E00014ED00E0044B054A23F07F039360BFF327
:1030F0004F8FBFF36F8F70470000000000ED00E0BE
:1031000008B5FFF7EFFF0B4AD2F8883023F47003BD
:10311000C2F88830EFF3148323F0040383F3148898
:10312000BFF36F8F19F0F2F91AF08EFA00F05AF827
:1031300019F030FA00ED00E042F8203C009B42F824
:103140001C3C0A49019B42F8183C029B42F8143C83
:1031500021F001014FF0807342F8043C42F8081C52
:103160000023203A02654367704700BFF52900003D
:10317000094A0346906870B113F1160F006E05D02E
:10318000A0F140029A4205D8834203D2814228BF6F
:10319000002070470020704780CD022008B51546FA
:1031A0000B4A0C4B9060026F1A600E4600F044F818
:1031B0002C4686F309880020034B984720460021BF
:1031C00000220023014C20479BE80100F529000064
:1031D00080CD022050890020014B10221A617047D7
:1031E00000ED00E0044800232021C2180133302BF9
:1031F00082F80013F9D1704700E100E008B5EFF361
:103200000583064A103B02EBC30152F833004968BC
:103210008847BDE80840FFF73FBD00BFCC72030000
:10322000024B034A0348012100F076B80000042055
:103230000000002058770300026E054B403A1A60E8
:10324000044A4021C3E901121846012100F06EB87A
:103250005489002000000B15084AC2F898000B683A
:1032600023F01F03034343F01003C2F89C308B6824
:1032700043F00103C2F8A030704700BF00ED00E04A
:103280002DE9F043DFF8608085B00E461F46044606
:103290004FF00009B14523DA6068D8B13FB1411E53
:1032A00008421BD11F2819D92368194216D1236857
:1032B00001931BF015FBA36803430393D8F89050C8
:1032C000C5F30725D0B2013DA84207D801A9FFF7F1
:1032D000C3FF421C09F101090C34DBE76FF0150252
:1032E000104605B0BDE8F08300ED00E0044B052278
:1032F000C3F89420BFF34F8FBFF36F8F704700BFA9
:1033000000ED00E0BFF35F8F024B0022C3F8942072
:10331000704700BF00ED00E010B5034C0123227898
:10332000FFF7AEFF207010BDB6CE022008B50B4AE5
:1033300000231278FFF7A4FF10F1160F07D0084AF8
:103340000021D2F89030C3F30723984200DB08BD78
:10335000C2F89800C2F8A0100130F2E7B6CE022001
:1033600000ED00E02DE9F043534B544CD3F890307E
:103370002568C3F307239D4285B000F29A80FFF7CA
:10338000C1FF00200C2685421AD14D4C4D4F2570AF
:103390006846FFF757FCDFF82081DFF82C910646DE
:1033A0000025AE4213D1237843490020D1F8902064
:1033B000C2F30722934276DBFFF798FF002042E03A
:1033C000616806FB0011FFF747FF0130DBE700985B
:1033D00000EB05114FEA051CCB683B40B3F5000F2D
:1033E00048D00AD8B3F5001F30D0B3F5800F36D0DF
:1033F000B3F5801F10D00135D3E7B3F1807F42D001
:10340000B3F1007FF7D150F80C3088684A681BF0A0
:1034100067FA40F4802009E050F80C3088684A6868
:103420001BF05EFA40F0885040F43020CDE90123D3
:103430000390D8F890302078C3F30723013B9842DB
:103440002AD96FF0150005B0BDE8F08350F80C30B4
:1034500088684A681BF044FA40EA0900E6E750F839
:103460000C3088684A681BF03BFA40F0C06040F4BA
:103470000030DBE750F80C3088684A681BF030FAFF
:1034800040F08270D2E750F80C3088684A681BF030
:1034900027FA40F08870C9E701A9FFF7DDFE23781D
:1034A00001332370A7E7C1F89830C1F8A0000133B9
:1034B0007CE74FF0FF30C6E700ED00E064770300E3
:1034C000B6CE02200000F0FF0000081108B5024B44
:1034D0001B689847002008BD60890020034B044A00
:1034E0001860937843F0020393707047608900205E
:1034F0001400002008B50649064821F00701C1F173
:10350000005202F580221AF0A5FF002008BD00BF7E
:103510004F740320648900200E4A0123C2F840350D
:103520004FF080424FF08051C2F87835D1F8300129
:10353000082808D1D1F83411052904D80648415C7F
:1035400009B1C2F838364FF080430122C3F8802514
:103550000020704700E001406B760A0020B1034B69
:10356000800143F001031847704700BF90750300C6
:103570007FB50D4D0D4E4FF0FF324FF0FF3301A9D7
:10358000284619F0C7F80028F5D1094CB442F2D208
:10359000236813B1019A934203D1D4E9013101A800
:1035A00098470C34F2E700BF28020020547503004E
:1035B00048750300F0B585B0DDE90C5417461E468A
:1035C000019023469DF828008DF808002C432A46D8
:1035D0008DF80910ADF80A7003960AD0094933F046
:1035E00037FDD1F88040084909588C4204BF0022B9
:1035F0001346064801A919F035F800EAE07005B055
:10360000F0BD00BFB08500200800000028020020A7
:10361000084B70B5C31A0D4607499B100446594321
:10362000064840221BF07AF92B4601462046BDE8A9
:103630007040184784890020B76DDBB60C71030019
:1036400073B50C4C0C4A4023041B00930D460B46EB
:103650000A49A4106143064609481BF08BF9011E74
:1036600005DA30462B4602B0BDE87040184702B07C
:1036700070BD00BF84890020DFE90100B76DDBB6B3
:103680000C71030010B5EFF31184202383F312882B
:10369000BFF36F8F074A136823F00201DB07116045
:1036A00002D401201CF07DF884F31188BFF36F8FE2
:1036B00010BD00BFD4890020002270B5012104464E
:1036C0001046FFF7F7FC0F4802F058F80E4B9842EF
:1036D00015D102F063F826690C4930461AF055FFFF
:1036E00000280BDB012535642469084904F11C001E
:1036F0001AF04BFF002801DBE564002070BD6FF07D
:103700000400FBE7093800000000AD0B84770300DC
:103710001FB500220123CDE90223094ACDF800D0CC
:103720006B46CDF804D01BF053F9002805DB4FF4AD
:1037300080420023684619F04BF905B05DF804FBA0
:10374000FDE9010030B4104B0C2202FB00330146AE
:103750000020D3E90E529863EFF31180202484F304
:103760001288BFF36F8F1C6C04F0C00444F0020495
:103770001C6480F31188BFF36F8F1DB12B46034883
:1037800030BC184730BC7047848900200C7103009E
:1037900010B4EFF31182202383F31288BFF36F8FED
:1037A0001748016841F002040460C80707D482F397
:1037B0001188BFF36F8F012010BC02F001B84FF0E9
:1037C0008041D1F80C04D1F80C14C907EFD5EFF300
:1037D000118083F31288BFF36F8F0A490B6C03F0DB
:1037E000C00343F002030B6480F31188BFF36F8FB3
:1037F00082F31188BFF36F8F002010BCFFF7A2BFC8
:10380000D48900208489002010B1012804D0704799
:10381000034B1B6C5B0701D1FFF794BF704700BFE0
:10382000848900202DE9F0413849BFF35B8F0746BA
:10383000012251E8003F41E800200028F9D1BFF300
:103840005B8F33B9324933484B60CB608A601AF0E2
:10385000AFFE7B1E012B2BD8012F07D14FF08043E9
:10386000D3F81C3403F00303012B21D033F036FAD4
:103870000546F8B9284B1B78E3B14FF0804302228C
:10388000C3F808230646DFF894804FF08044D4F84C
:103890001824D4F81834D20315D503F00303012BF0
:1038A00001D0012F0FD155B386F31188BFF36F8F6D
:1038B000BDE8F081EFF31186202383F31288BFF374
:1038C0006F8F0125DFE7ADB130461AF0FAFFD4F86B
:1038D0001835002BDBD1D4F80421002AD7D0C4F846
:1038E0000431D4F804310123C4F81835C8F8803104
:1038F000A360CCE70021212033F074FAE7E74FF012
:1039000080430222C3F80423D2E700BF808900204D
:1039100070890020A0890020CCCE022000E100E0C8
:1039200008B5074833F0FFF838B10648FFF7D6FD71
:103930000448FFF741F8002008BD6FF01200FBE7D4
:103940008C710300493900000A2838B5074D044638
:1039500004D1AB680D215B6828469847AB680348E3
:103960005B68E1B29847204638BD00BF8C71030008
:10397000EFF31182202383F31288BFF36F8F0A4B7A
:10398000D3F8001161B10021D3F80805C3F8001184
:10399000D3F80031C0B282F31188BFF36F8F704744
:1039A0006FF00A00F7E700BF00D00040F0B5034613
:1039B00010469C7893F803C0EFF31182202585F31D
:1039C0001288BFF36F8F1F7893F801E0E41B04EABD
:1039D0000C04A04288BFA0B23E180CEA06063D4681
:1039E0001E7082F31188BFF36F8F0A188A4216D1B6
:1039F00077450CD1EFF31182202181F31288BFF3B8
:103A00006F8F1978597082F31188BFF36F8F1B790C
:103A1000241AA34222BF064B01221A60F0BD5E1990
:103A20000135767901F8016B05EA0C05DEE700BF88
:103A300000D00040DB432DE9F04713F001050E46AE
:103A4000144604D02248FFF7B1FFBDE8F0879AB3CF
:103A5000EFF31188202383F31288BFF36F8F0D20BB
:103A6000FFF71AFB07460D20FFF702FB88F31188CA
:103A7000BFF36F8FDFF85CA0DFF85C80CAF80051FD
:103A8000DAF800314FF400590123CAF80030254616
:103A9000C8F88091DAF8003183B1FFF769FF031E9F
:103AA000C8F88091F6DB013DADB27355002DF1D120
:103AB00017B10D20FFF7CEFA2046C6E7EFF31180CD
:103AC000202383F31288BFF36F8F1AF0FAFEE1E729
:103AD000F889002000D0004000E100E02DE9F0412D
:103AE000124F0D46144607F1350814B92046BDE8BB
:103AF000F0814FF0FF334FF0FF32384618F068FF87
:103B0000224629464046FFF751FF0646384618F040
:103B10002BFF3EB94FF0FF324FF0FF33044818F04F
:103B200057FFE6E7A41BA4B23544DEE7D88900209E
:103B3000E889002038B5184C01221146204633F0A0
:103B40004AF80122002104F1100033F044F840F259
:103B5000074323874FF0706323620C2384F82430DB
:103B600000250E4B84F83550E586D3F8042522F065
:103B70000102C3F804250121C3F80051D3F8002144
:103B8000C3F804132A4619600D20FFF793FA0D209D
:103B9000FFF760FA284638BDD889002000D00040E1
:103BA00010B5FFF7E5FE002820DB174B93F8222025
:103BB00093F8214093F82310141B31EA0404C0B297
:103BC0000DD193F8372093F8364093F83810141B32
:103BD00031EA04040BD10D4B01225A600EE09C180F
:103BE0000132114084F8250083F8221010BD9C1882
:103BF0000132114084F83A0083F837100448BDE8D8
:103C0000104018F0B1BE00BFD889002000D000409D
:103C1000E8890020F0B516464268107B01F01F04C9
:103C200044EA4014106987B0002872D0B6F5001F2E
:103C300002F1100506D1214628461BF043FE002064
:103C400007B0F0BD01A80027B6F5800F01974760C7
:103C500039D1B3F1007F14BF052304238DF804305C
:103C60000023CDE904030393936823FA01F111F0D3
:103C700001010DF103073ED1B6F1A07F3BD104F065
:103C80001F03620903F5E07328D0012A47D1254AB2
:103C900052F82330DB072ED43A462146284602F05C
:103CA00077F8214B98421CD0029703AA2146284658
:103CB00001F030FF1D4B98422ED1012221462846AB
:103CC00002F0CAF8BBE7B3F1C06F05D0B3F1007FD3
:103CD00014BF01230223C1E70323BFE74FF0A04233
:103CE000D6E73946284602F0B1F8104B9842DBD0AF
:103CF0006FF00B00A4E73A462146284602F048F848
:103D00000A4B9842D1D19DF80310284602F098F84A
:103D1000CBE76FF0850093E76FF0150090E751F85F
:103D20002330FFDE000300500400AD0B0000AD0B9C
:103D3000420970B5034602D0012A17D070BD0D4E5E
:103D4000326951680029F9D003F01F0301250C687E
:103D50009D400029F2D08A682A4002D04B68304644
:103D600098472CB1236821461C46F2E7024EE7E74C
:103D70002346F8E74C7103002C71030038B5456801
:103D80002B69B3B11035284602F050F8044680B9CB
:103D90000146284602F016F8084B98420BD1084914
:103DA0002246284601F0EEFF224605210620FFF7B5
:103DB00081F9002038BD6FF00400FBE70000AD0B77
:103DC000313D00002DE9F043466840F20635D0064B
:103DD000337B87B002EA050554BFC2F340100320CD
:103DE00001F01F07B5F5837F144647EA43178DF8A6
:103DF000030045D00DD8062D16D005D8A5B1022D4B
:103E000040D06FF0150038E0B5F5807FF9D101257D
:103E10000AE040F20222954236D0B5F5407F35D017
:103E2000B5F5007FEDD102250123220303FA01F14C
:103E30002ED57368C3F80815326992BB07F01F03CB
:103E40007F092BD0012F79D13F4A02EB830284F402
:103E50008033D2F80017C3F30043C4F3404444EA6C
:103E6000430421F4E16144EA800421F0070144EABB
:103E700005230B43C2F80037002007B0BDE8F083EC
:103E80000725D1E70425CFE70525CDE70325CBE7B7
:103E9000630344BF7368C3F80C15CDE74FF0A0422D
:103EA000D3E710360DF102023946304601F070FFBB
:103EB00014F4403F80460CD1394630461BF000FDDB
:103EC000224B9845D8D19DF80210304601F0B8FF3A
:103ED000D2E701AB4FF0000903AA39463046CDE9DD
:103EE0000439CDE90199CDF80C9001F013FE174B80
:103EF0009842C1D114F4003315D09DF803308DF8E9
:103F00000E3084F48034C4F300444B4603AA39468F
:103F100030468DF80C508DF80D4001F0B5FE0B4B7E
:103F20009842A9D1CCE7CDE9043303AA0DF10303EC
:103F300039463046039301F0EDFDF0E703F5E073F9
:103F400052F82330FFDE00BF000300500000AD0B2D
:103F500002780B69012A08D0022A08D04AB9064A19
:103F60005A6203F1140018F0FFBC044AF8E7044A4F
:103F7000F6E7044AF4E700BF0000AD0B0100AE0B0A
:103F80000200AE0B0100AD0B2DE9F04FD0F8109000
:103F9000D0F8048085B005460C461746029309F117
:103FA000040A4FF0FF324FF0FF33504618F010FD77
:103FB00009F1140B00230022584618F009FD404671
:103FC00003F0A6F87B1E00260393B74201D8002316
:103FD00022E0039B217AB34283BF237D83F0040355
:103FE000C3F3800300230193029B0093D4E90023D1
:103FF000284600F04DF8034670B94FF48042002384
:10400000584618F0E5FC98B1404603F091F8284670
:1040100000F02CF86FF004034046029303F088F898
:10402000504618F0A1FC029B184605B0BDE8F08F81
:10403000D9F82430034A934204F10C04EAD1013642
:10404000C3E700BF0000AD0B08B5034640688269B6
:1040500000F1080103F018F8034B984214BF6FF009
:104060000F00002008BD00BF0000AD0B08B543687D
:104070001B68D3F80805D3F80C1503F05FF9034B60
:10408000984214BF6FF00F00002008BD0000AD0B78
:104090002DE9F04186B00C4647689DF834801546FE
:1040A000002112220DF106001E4632F065FFBDF818
:1040B00030208DF8052004F0010314F008028DF87B
:1040C00004300296049519D1A10704D4B8F1000F69
:1040D00012D19BB9202201A9384603F045F80A4BBA
:1040E00098420ED00B3398420CBF6FF00F006FF068
:1040F000040006B0BDE8F0814022ECE76FF08500D7
:10410000F7E70020F5E700BF0000AD0BF7B5446806
:1041100005690646E06832F006FD002848D02846CA
:10412000254940F8046B32F0A1FD606900282ED0CB
:10413000217E638BD0F810C0D0F808E0DCF8006076
:10414000DA0754BF43F4D01383F4B013012723F4E8
:1041500080128F40DB074CBF3E43BE43CCF800606B
:10416000DEF800309847002820DB0021A42032F040
:1041700039FE237E60690121994003691B68194259
:1041800083680CBF1B69DB68984700280EDB183575
:104190000A490022284632F0B3FE4FF4A4720023ED
:1041A0002846CDE9002319F029FC002003B0F0BD1A
:1041B0006FF01200FAE700BFD3EE010095EE0100A8
:1041C0002DE9F74F4568EC681834804600270194C4
:1041D0004FF0010B6B68BB4204DC2B7D002B69D1D7
:1041E000002048E00C23D5F808A003FB07F60AEBF3
:1041F00006095AF8060032F096FC00286DD0B9F88E
:1042000006305AF8060099F8041043F48032D0F8CA
:1042100010C0D0F8089013F0010FDCF800300BFA52
:1042200001FE14BF4EEA030323EA0E03CCF800306C
:10423000D9F800309847F0B944F8188C296920461D
:1042400032F040FD2B7D13B101374834C2E7D5F879
:104250000890234A09EB060AA4F114019AF80430E5
:104260000BFA03F344E9042359F806008368DB6979
:1042700023B96FF0570003B0BDE8F08F01229847D3
:104280000028F8DB9AF8041059F806001AF08EFEA0
:1042900004F8080C59F806009AF8041083689E691F
:1042A000002EE6D04FF0C0634FF0A072B047002858
:1042B000CADAE0E72D684FF4004440F2E73000210D
:1042C0004FF47A720023E5FB0401FBF769FF024615
:1042D0000B46019818F068FD82E76FF01200CAE7FC
:1042E000D5EF01007FB50346044653F8185D6968B1
:1042F000CA689B1A114ADB1053438A68D618D058F3
:1043000031791AF053FE031E15DB14F9082C9A427A
:1043100011D004F8083C4FF0FF304FF0FF313289E4
:10432000003BCDE902014FF00101009118BF0123CC
:104330002846FFF73FF904B070BD00BFACAAAAAA97
:10434000036803F01F025B09026004D0012B0348DD
:1043500018BF002070474FF0A04070470003005086
:104360002DE9F04FDFF89491DFF894A185B0154660
:10437000834600EB810140F2FF18594503D100202C
:1043800005B0BDE8F08FDBF800305E04C3F3C32254
:10439000C3F3080400F1AC801B0E19F80270444509
:1043A00008BF4FF0FF34222B00F2A580DFE803F0B6
:1043B00012191F22252B22A3A3A3A33B68A3A3A307
:1043C000A3A3A3A3A3A36B818487A3A3A38A91948C
:1043D000979A9D00C5F80C45601C5ED10BF1040B4B
:1043E000CBE7C5F81445621CF8D000265FE0C5F89D
:1043F0000845F1E7C5F81045F5E7631CC5F8084521
:10440000ECD0002604E0661CC5F80C45E6D0012679
:1044100003A80394FFF794FF039B012202FA03F31E
:10442000C0F80C3508E0C5F80845002FDBD1631C47
:10443000D4D0002632460627DBF80030019303F47F
:104440000040002818BF002203A8009218BF0126D0
:104450000394FFF775FF039C019B009A00EB840017
:10446000C3F3412CD0F800473B0243EA8C031343CB
:1044700004EA0A04234343EA4603C0F80037ADE7E1
:10448000C5F80C45D1E7C5F86045601CDBF8003085
:10449000A4D0C3F30043002BB9D003A80394FFF7C3
:1044A0004FFF039B012606FA03F3C0F80835324696
:1044B000C2E7C5F86445E8E7C5F86845E5E7C5F82B
:1044C0006C45E2E7C5F82445621C87D0002201262E
:1044D000B2E7C5F828457FE7C5F83045F4E7C5F8E9
:1044E0003445F1E7C5F83845EEE7C5F83C4573E7D4
:1044F0006FF0150044E76FF0850041E706770A008A
:10450000F0F8FCFF036803F01F025B09026004D0AF
:10451000012B034818BF002070474FF0A0407047A0
:104520000003005073B50446002201211C20FEF751
:10453000C1FD60682369244A00F1080101F066FEAC
:10454000224B98423CD16568AE6B01AA00213046EF
:104550001AF085FD002805DB019B3268197918687F
:10456000FFF7FEFE002631462B6801F5AC7253F8CA
:104570002230002B0EDB01A80193FFF7C3FF019A45
:10458000D0F80435D34013F001031CBF01238B4046
:104590003343DEB201310429E6D1002301206268F1
:1045A000916A00FA03F232420CBF01220022D203C8
:1045B00021F813200133042BF1D1002002B070BD8B
:1045C0006FF00F00FAE700BF85F001000000AD0BAF
:1045D0002DE9F041044647680D4632F07FFB4FF06D
:1045E000200888B9264B1B7873B1642660681AF0DE
:1045F00002FEF0B901201BF0C6F8013EF6D1002101
:10460000212032F0EFFBF0E7EFF31186314688F31B
:104610001288BFF36F8F60681AF0EDFDA8B986F3BA
:104620001188BFF36F8FEFE786F31188BFF36F8FA9
:10463000E5E7EFF31186314688F31288BFF36F8FF9
:1046400060681AF0D8FD0028EED0BB691D70636861
:10465000BA691B680020C3F844250122C3F8482525
:10466000C3F82001D3F82041C3F85801D3F858010A
:104670009A6081F31188BFF36F8FBDE8F08100BFAE
:10468000CCCE0220F7B50546002201210220FEF71C
:1046900011FD0220FEF7DEFC6A6811681369C1F89B
:1046A0002435137D507D927D03431343C1F86C354F
:1046B0006E68D6E9004313F0010348D02F6907F173
:1046C00008001BF06CF8304B98425AD1387A04F14C
:1046D0000C0204F590711BF058F8387A012707FA9C
:1046E00000F000F0E3FF0823C4F80035B369C4F814
:1046F00044350023C4F84835A760D4F85831002B5E
:10470000FBD00021C4F800156B68DC6801AA2046C4
:104710001AF0A5FC002805DB019B226819791868AE
:10472000FFF71EFE6A6813680821C3F80015117AA6
:1047300051B9D269C3F834250122C3F83825C3F82A
:104740001011D3F810111A60002003B0F0BD082238
:10475000C4F80025B269C4F84425C4F848350123DB
:10476000A360D4F82031002BFBD00023C4F8203103
:10477000D4F820310123E3604FF48073C4F804338C
:10478000BBE76FF00400E0E70000AD0B7FB5054626
:10479000406829698A6C0B6D0ABBABB14C6C8B65A8
:1047A00016461A46C96C0291CDE9004611B3002B9A
:1047B00018BF134600226946039301F021FF0E4BF8
:1047C00098420AD06FF004032C69236304F120009F
:1047D00018F0CAF8002384F85C3004B070BD4C6C4B
:1047E00013B19A4228BF1A46002C8A6514BF164698
:1047F0000026D7E70B46DDE70000AD0B2DE9F04FB3
:1048000089B004690093436801938B880746980434
:104810000E4691462AD44FF0FF324FF0FF3304F199
:10482000100018F0D5F86660D7F81080D7F804A00B
:1048300098F85D3023B1D8F800309E4200F0B28085
:10484000B6F804C01CF4006F17D06FF0850523681C
:1048500013B19B889B0405D40023636004F110000E
:1048600018F082F8284609B0BDE8F08FA369002B44
:10487000D1D163689942CED1D6E71CF0090F02D09E
:104880006FF01505E3E7CCF34513082BF8D1356835
:10489000A34B9D42F4D90AF1080BBBE80F000DF1C0
:1048A0000C0EAEE80F00DBF80030CEF800309D4B68
:1048B0009D4250D99C4B9D4250D99C4B9D4250D912
:1048C0009B4B9D4250D99B4B9D4250D99A4B9D4248
:1048D0002CBF4FF000454FF080451CF0020F0595AE
:1048E0000CF0040346D0002B14BF032302238DF8E1
:1048F0001830CCF300138DF81930DAF80030D3F803
:104900000835591C12D01CF0020F03F01F00CCF325
:1049100040014FEA53134FF0010232D173B3934277
:1049200040F0F680854B8240C3F80C2598F85D3046
:104930002BB1504601F02CFE002388F85D30434631
:104940007F4A03A9504601F0EFFD7E4B984224D0E8
:104950006FF004057BE74FF00075BEE74FF0806510
:10496000BBE74FF00065B8E74FF08055B5E74FF073
:104970000055B2E7003B18BF0123B8E74FF0A04352
:10498000D1E73BB1012B40F0C6806C4B8240C3F8AD
:104990000825CBE74FF0A043F8E7012388F85D3006
:1049A000C8F80060012384F85C30019B596A4A1CF6
:1049B00003D003F128001AF056FDB9F1000F40F0C2
:1049C0008780C4F834900023A36304F1480204F103
:1049D000380104F134001AF044FC009B6064002BA1
:1049E0007FD1E3630023236404F1500204F140010A
:1049F00004F13C001AF035FCE064206800232363D6
:104A000048B183683BB1012108301AF03DFC2368AE
:104A1000186932F083F83846FFF7B8FE0023A06B20
:104A20001A46824266D10022256C1146A94268D1FD
:104A30009342264638BF13464FF4FA5202FB03F561
:104A400056F8203B4FF000081B68B5FBF3F54FF418
:104A5000004CC835414640F2E7304FF47A720023EB
:104A6000E5FB0C01FBF79CFB02460B46304617F0BA
:104A7000AFFF18B9256B15F1740F13D10198C4F865
:104A8000588001F085FD84F85D803F696FF0730503
:104A90003D6307F1200017F067FF87F85C80304620
:104AA00017F0BCFF2368002B3FF4D1AE9A68002AB0
:104AB0003FF4CDAE998811F480567FF4C8AE1869E2
:104AC00032F02CF82068314608301AF0DDFBBEE6E3
:104AD000D9F800306363002B3FF475AFD9F8043088
:104AE00072E7009B1B68E363002B3FF47BAF009BE6
:104AF0005B6878E7616B01EBC201013249680B44E6
:104B00008FE7E06B00EBC1000131406802448DE7A4
:104B1000C1F80C15FFDE0023C3F80835FAE700BF23
:104B200047E801008FD003001FA107003F420F009C
:104B30007F841E00FF083D0000127A000003005031
:104B4000CBF301000000AD0B00F01F0240090DD0B7
:104B500001280ED10A4B03EB82030A4AD3F800075F
:104B6000024042EA8102C3F8002770474FF0A04399
:104B7000F1E702F5E072002353F82230FFDE00BFB8
:104B800000030050F0F8FCFFF0B587B001238DF86A
:104B9000023002238DF804306B4403930F4601ABBF
:104BA0000DF103010024049305460291059401F0E0
:104BB0004DF90C4B984206460FD103AA39462846B8
:104BC00000F0A8FFB0420BD09DF80310284601F07A
:104BD00037F96FF0040007B0F0BD6FF01200FAE78C
:104BE0002046F8E70000AD0B2DE9FF410569D0F83C
:104BF00004802B6D0646A86C002835D1002B53D0BD
:104C0000B8F838406A6CEF6C9C4228BF1C46EB6CCD
:104C100053B1296D41B107F06041B1F1005F03D09C
:104C2000082C6F6E28BF082400926A6CAC651AB11C
:104C3000AA6C002A18BF2246CDE901271BB12B6DB3
:104C4000002B18BF2346002269464046039301F01B
:104C5000C9FF184B984229D06FF00401304604B0C8
:104C6000BDE8F0411AF014BD696CEF6CB8F838403B
:104C70000A46ABB1834228BF03469C4228BF1C466C
:104C80000029C4D001F06043B3F1005FBFD0082C0D
:104C900028BF08242246286E32F046F92A6EB6E76D
:104CA000844228BF0446EBE71946D7E704B0BDE8C5
:104CB000F08100BF0000AD0B2DE9F04F8FB004690B
:104CC0000193436802938B8807469804884691466F
:104CD0002ED44FF0FF324FF0FF3304F1100017F0E5
:104CE00077FEC4F80480D7F804B0D7F810A0DBF83A
:104CF000083003939AF85D3023B1DAF80030984514
:104D000000F0B580B8F804E01EF4006F17D06FF023
:104D10008505236813B19B889B0405D40023636039
:104D200004F1100017F020FE28460FB0BDE8F08F08
:104D3000A369002BCDD163689942CAD1D3E71EF095
:104D4000090F02D06FF01505E3E7CEF34513082BEA
:104D5000F8D1D8F800C0984B9C45F3D90BF10C065C
:104D60000FCE04AD0FC50FCE0FC5039B634528BF03
:104D700063469C4696E80300904B9C4585E80300FB
:104D800017D28F4B9C4514D28E4B9C4511D28E4B23
:104D90009C454CD88D4B9C454BD88D4B9C454AD857
:104DA0008C4B9C4549D88C498C4B8D4A8C4588BF8F
:104DB00013461EF0020F09930EF004033FD0002BA0
:104DC00014BF032302238DF82830CEF300138DF88F
:104DD0002930DBF80030D3F80835591C12D01EF00A
:104DE000020F03F01F00CEF340014FEA53134FF0C0
:104DF00001022BD13BB3934240F0D680794B8240E5
:104E0000C3F80C259AF85D302BB1584601F09CFE92
:104E100000238AF85D303B46734A04A9584601F0E6
:104E20005FFE724B98421DD06FF0040571E7704B26
:104E3000BFE7704BBDE7704BBBE7704BB9E7003B7A
:104E400018BF0123BFE74FF0A043D8E73BB1012BC8
:104E500040F0AD80634B8240C3F80825D2E74FF0A5
:104E6000A043F8E701238AF85D30CAF800800123E7
:104E700084F85C30029B196C4A1C03D003F1440097
:104E80001AF0F1FAB9F1000F68D1C4F83490002398
:104E9000A36304F1480204F1380104F134001AF06C
:104EA0000FFB019B6064002B60D1E363002323644C
:104EB00004F1500204F1400104F13C001AF000FB3F
:104EC00000252A46E0640121204625631AF040FBB4
:104ED0003846FFF789FEA06B2A462B4683424DD108
:104EE0000023256C1946A9424FD19A42264638BF65
:104EF0001A464FF4FA5303FB02F556F8203B4FF0E5
:104F000000081B68B5FBF3F54FF4004CC83541466B
:104F100040F2E7304FF47A720023E5FB0C01FBF717
:104F20003FF902460B46304617F052FD024618B9CB
:104F3000256B15F1740F2FD10298C4F8588001F039
:104F400003FE84F85D806FF0730138461AF0A0FB11
:104F5000304617F063FD6FF07305DAE6D9F80030DC
:104F60006363002B93D0D9F8043091E7019B1B6851
:104F7000E363002B9AD0019B5B6898E7616B01EBC0
:104F8000C301013349680A44A8E7E06B00EBC100A4
:104F9000013140680344A6E7002D3FF4BAAE014654
:104FA00038691AF0D5FAB4E6C1F80C15FFDE002313
:104FB000C3F80835FAE700BF47E801000048E801F8
:104FC0000024F40000127A00FF083D007F841E00D8
:104FD0003F420F001FA107008FD0030048E80100E7
:104FE00090D0030000030050B3F601000000AD0BA9
:104FF00000093D0080841E0040420F0020A10700F0
:1050000070B5012383400E4ABFF35B8FDC4352E847
:10501000001F01EA040542E80056002EF7D1BFF355
:105020005B8F4FF4803282400648C0F80823BFF3FC
:105030005F8FBFF36F8F0B4214BF0120002070BD44
:105040004C8A00200010014070B40E49D1E90034B0
:10505000D01AC31844F1000422F07F46C1E900349D
:10506000A6F50013B3F5400F09D2074B1B681A0AC7
:105070001B069C19054B42F10005C3E9004570BCB5
:1050800018F0BCBBA0040020508A0020A804002017
:1050900011B3BFF35B8F0123104A834052E800CF66
:1050A0004CEA030C42E800C10029F7D1BFF35B8F43
:1050B0000B4A4FF480338340C2F80433094BBFF3EB
:1050C0005B8F1B68BFF35B8FC340DB0742BF064BA0
:1050D0004FF40032C3F80021704700BF4C8A002013
:1050E00000100140488A002000E100E00D4B1868E4
:1050F000010A0006BFF35F8F0B4BD3F80435181875
:1051000041F10001B3F5801F0AD2084BD3E9002317
:10511000904271EB030303D210F1807041F1000162
:10512000704700BF508A002000100140A8040020F2
:105130002DE9F04F85B016461F469DF840A0044665
:10514000FFF75EFF0190FFF7D1FFB04271EB07035D
:1051500054D23E4B301A67EB0101984271F10001C5
:105160004FD23B4B03EB0413D3E902239F4208BF0A
:1051700096425ED037494FF4803804F1500508FA62
:1051800004F8AD00C1F848832046ADB21AF0EAFA3F
:1051900026F07F4B05F1804504F5A87305F58835A9
:1051A000DC464FF003090293029A2CF07F4341F84A
:1051B0002230C1F84483D1F80435274A6FF0020049
:1051C000C01A604420F07F40904232D9286868B10C
:1051D000D1F804350393A3EB0B0020F07F40B0F52A
:1051E000000F26D920461AF0BDFA039BBAF1000F32
:1051F00007D109EB030C09F10109D5E7BAF1000F5A
:1052000009D06FF0150520460199FFF741FF2846A8
:1052100005B0BDE8F08F0123104ABFF35B8FA340B8
:1052200052E8000F184342E800010029F8D1BFF30B
:105230005B8F07490E98230101EB0412C8500F9BA6
:105240005360C2E902670025DDE700BF010080006E
:105250009004002000100140FDFF7F00488A0020DC
:105260007FB51C4C1C4BC4F80833C4F848331B4BA7
:1052700000254FF0FF304FF0FF31C4F80855C3E967
:1052800002014FF48033C4F80433154B02264FF467
:1052900000320121C4F804631120C3F880212A469A
:1052A000FDF708FF1120FDF7D5FE0E4A0123A3608C
:1052B000236013600C4B0D4A0093CDE90155002388
:1052C0002846FFF735FF3046FEF7ACFA284604B013
:1052D00070BD00BF0010014003000F0090040020CB
:1052E00000E100E04C8A002049500000FFFF7F00F1
:1052F0002DE9F7432F4CD4F8043399070BD5D4F894
:10530000043143B12C4A0023C4F80431D4F80431E9
:10531000136801331360D4F80433DA0329D5BFF3DB
:105320005B8F264B53E8002F22F0010143E8001069
:105330000028F7D1BFF35B8FD30702D4D4F84031F4
:10534000BBB10025C4F84051D4F84031FFF7CEFE80
:10535000EFF31182202383F31288BFF36F8F184B72
:10536000D3E90267B042B94106D282F31188BFF394
:105370006F8F03B0BDE8F0834FF0FF384FF0FF3977
:10538000C3E90289D3E900101D604FF48033C4F8EB
:105390004833C4F84051D4F8403182F31188BFF348
:1053A0006F8F0029E5D0009032463B46284688475B
:1053B000DFE700BF00100140508A0020488A00202B
:1053C0009004002030B5431C124C85B005D08442B7
:1053D000A8BF0446012CB8BF0124FFF787FE0E4B7F
:1053E0000C4DD3E90013401AB0F5000F10D222186B
:1053F000AA4228BF2A4652184FF0000007490091E0
:10540000CDE9010043F10003FFF792FE05B030BD86
:105410002A46F0E7FFFF7F00A0040020495000006B
:1054200008B5FFF763FE024B1B68C01A08BD00BF3A
:10543000A00400204FF08053D3F83021082A06D171
:10544000D3F83431052B02D8024AD05C70470020D3
:10545000704700BF49770A00024AD2F80034002B97
:10546000FBD0704700E0014010B54FF08053D3F8F7
:105470003021082A4ED14FF080420021C2F80C1191
:10548000C2F81011C2F8381502F54042D3F80414DE
:10549000C2F82015D3F80814C2F82415D3F80C1458
:1054A000C2F82815D3F81014C2F82C15D3F8141428
:1054B000C2F83015D3F81814C2F83415D3F81C14F8
:1054C000C2F84015D3F82014C2F84415D3F82414B8
:1054D000C2F84815D3F82814C2F84C15D3F82C1488
:1054E000C2F85015D3F83014C2F85415D3F8341458
:1054F000C2F86015D3F83814C2F86415D3F83C1418
:10550000C2F86815D3F84014C2F86C15D3F84434C7
:10551000C2F87035FFF78EFF18B13A4B3A4AC3F81C
:105520008C26FFF787FF18B1384BFB22C3F81825EC
:10553000FFF780FF70B14FF080414FF08053D1F8FA
:10554000E42ED3F8583222F00F0203F00F03134376
:10555000C1F8E43EFFF76EFF20B12D4B4FF400720F
:10556000C3F840264FF08053D3F83031082B1AD1BE
:105570004FF08043D3F80024D20744BF6FF00102FC
:10558000C3F800244FF08053D3F83431052B02D8F0
:10559000204AD35C3BB14FF01023D3F808224FF0E0
:1055A0008043C3F858254FF01023D3F80022002A77
:1055B00003DBD3F80432002B22DA174901234FF022
:1055C0001020C1F804351224FFF746FFC0F800424E
:1055D000FFF742FFC0F80442FFF73EFF0023C1F887
:1055E0000435FFF739FFBFF34F8F0C490C4BCA68E6
:1055F00002F4E0621343CB60BFF34F8F00BFFDE7BF
:1056000010BD00BF005000404881030000F0004082
:105610000090024043770A0000E0014000ED00E006
:105620000400FA0530B50468CCB1BFF35B8FB4FA5F
:1056300084F3C3F11F03DBB201229A4024EA020281
:1056400050E8005FA54204D140E8002CBCF1000FF7
:10565000F6D1BFF35B8FE6D102480B7030BD024834
:10566000FCE700BF0000AD0B0200AD0B10B50368F6
:10567000CB40DB0714D401238B400268BFF35B8F60
:1056800043EA020150E8004F944204D140E8001C74
:10569000BCF1000FF6D1BFF35B8FEED1014810BD16
:1056A0000148FCE70000AD0B0400AD0B014BC3F853
:1056B0000405704700F00140F7B50546F8B1012830
:1056C0001BD104224FF4807301464FF08040034405
:1056D0000244C0F808130026012111601E608D42AB
:1056E0001B688DF8071008BF0DF1070642F2107411
:1056F0004FF0804745B1012D28D003B0F0BD0C22FA
:105700004FF482730221E0E7D7F8183403F48033B2
:105710003EB9002BF1D001201AF035F8013CF3D14D
:10572000EBE7D7F8182402F003023260002BE4D034
:105730009DF80700012803D11AF025F8013CD9D1C2
:10574000012DDAD10C4B00225A71D6E7D7F80C3470
:1057500003F480333EB9002BF4D001201AF013F883
:10576000013CF3D1EEE7D7F80C2402F001023270CD
:10577000002BDDD1E6E700BF548A0020044B1A79E4
:1057800022B9012218609A80024870470248704787
:10579000548A00200000AD0B0C00AD0B08B5074B80
:1057A0001B682BB10020FDF777FC08B9FDF752FC10
:1057B0004FF080430022C3F8182508BD548A00200A
:1057C00010B510B1012843D010BD4FF08043D3F87D
:1057D0001814D3F81824C80321D502F00303012BB1
:1057E00004D013B10020FFF767FF00234FF0804281
:1057F0000220C2F8183508224FF4827303F1804367
:105800000021196002F180421C6801241460154ACD
:1058100012680AB34FF08043C3F80403D4E7D3F807
:105820001424D107E1D5D3F81C249207DAD40D4A09
:1058300012681AB10222C3F80423C5E7D3F8042181
:10584000002AFBD00022C3F80421D3F80431BBE7BF
:1058500000224FF48073D1E71A68002AFCD0196047
:105860001B68B1E7548A0020F8B54FF080431C4E06
:10587000D3F804430125002704B9F8BDB4FA84F035
:10588000C0F11F00830003F580739BB203F18043D6
:1058900005FA00F2196892B224EA02040029EBD05A
:1058A0001F601B684FF08043012AC3F8082305D00E
:1058B000022A08D03368C0B29847DDE77379002B1D
:1058C000DAD17271F6E7D3F81814D3F818148907EF
:1058D000F0D1C3F81855C3F804239D60CCE700BF8E
:1058E000548A0020036803F01F025B09026004D0A1
:1058F000012B034818BF002070474FF0A0407047AD
:1059000000030050034A430900F01F00D35C184411
:10591000C0B270474F770A0070B50546FFF7F2FF37
:105920000C4C08300E4634F81030DA0508D5C3F3B5
:10593000432304EBC302284654F833305268984797
:10594000A3682BB1E26831462846BDE8704018478D
:1059500070BD00BF1401002008B5FFF7D3FF034B53
:10596000083033F81000400B08BD00BF14010020C0
:1059700008B5FFF7C7FF034B083033F81000C0F33A
:10598000400008BD1401002008B5FFF7BBFF034B22
:10599000083033F81000C0F3401008BD1401002097
:1059A000034611F0010010B5CCB20DD1A207C4F32B
:1059B000400012D5094AD2F820055860C2F82005E7
:1059C000003818BF012008E04FF0A041D1F8202591
:1059D0001A60C1F82025002AE8D010BD000300504D
:1059E00010B5FFF78FFF124A083032F81030D90592
:1059F0001CD5C3F3432123F4F85322F8103002F1ED
:105A00000E04002034F8023F13F4807F03D0C3F368
:105A1000432399420AD001303028F3D1002342F8C1
:105A200031300448BDE81040FFF720BE10BD00BF74
:105A3000140100208C010020F0B50546002004462A
:105A4000012607468C420BD1114BD3F87C2132B191
:105A50000022C3F87C21D3F87C3140F00040F0BD37
:105A6000E3B29B0003F580729B0806FA03F31D4224
:105A70000BD002F1804202F5C042D2F800C0BCF166
:105A8000000F02D01760126818430134DAE700BF34
:105A900000600040F7B506460846FFF733FF194F90
:105AA00000F108050C4637F81530DB0727D53046DE
:105AB00019F0E2FE2046FFF767FF40B12046FFF7EE
:105AC0004BFF316800F5A270002341F820302046DA
:105AD000FFF786FF002301A827F815300194FFF790
