:1000000040ED0220A5260000ADDF01009126000092
:1000100091260000912600009126000000000000BB
:100020000000000000000000000000006927000040
:100030009126000000000000092700009126000022
:100040003529000035290000352900003529000038
:100050003529000035290000352900003529000028
:100060003529000035290000352900003529000018
:100070003529000035290000352900003529000008
:1000800035290000352900003529000035290000F8
:1000900035290000352900003529000035290000E8
:1000A00035290000352900003529000035290000D8
:1000B00035290000352900003529000035290000C8
:1000C00035290000352900003529000035290000B8
:1000D00035290000352900003529000035290000A8
:1000E0003529000035290000352900003529000098
:1000F0003529000035290000352900003529000088
:100100007BB972B90029BEBF00204FF0004106E064
:1001100008BF00281CBF6FF000414FF0FF3000F017
:1001200057B8ADF1080C6DE904CE002909DB002BAE
:100130001ADB00F057F8DDF804E0DDE9022304B033
:100140007047404261EB4101002B1BDB00F04AF895
:10015000DDF804E0DDE9022304B0404261EB410137
:10016000524263EB43037047524263EB430300F098
:1001700039F8DDF804E0DDE9022304B0404261EB28
:1001800041017047524263EB430300F02BF8DDF866
:1001900004E0DDE9022304B0524263EB43037047FD
:1001A00053B94AB9002908BF00281CBF4FF0FF31DE
:1001B0004FF0FF3000F00CB8ADF1080C6DE904CE43
:1001C00000F010F8DDF804E0DDE9022304B0704728
:1001D000704700BF034613F8012B002AFBD1181A01
:1001E000013870472DE9F04786468C460846089E40
:1001F000154674461946002B40F0C2808542B2FA7B
:1002000082F245D94AB1C2F1200300FA02FC2EFA6B
:1002100003F3954043EA0C0C94404FEA154EA8B204
:10022000BCFBFEF8230C0EFB18CC08FB00F943EADC
:100230000C43994528D9EB1808F1FF3704D29945AA
:1002400002D9A8F102072B44A3EB0903A4B2B3FB24
:10025000FEFC0EFB1C330CFB00F044EA0344A042FE
:1002600014D92C190CF1FF3304D2A04202D9ACF1FD
:1002700002032C44241A43EA07401EB1D440002351
:1002800034607360BDE8F0874746DDE76346F1E719
:1002900092BB431B01214FEA154EAFB2B3FBFEFCEC
:1002A000200C0EFB1C330CFB07F840EA0343984577
:1002B00062D9EB180CF1FF3004D2984502D9ACF1A9
:1002C00002002B44A3EB0803A4B2B3FBFEFC0EFB1D
:1002D0001C330CFB07F744EA0344A7424ED92C1900
:1002E0000CF1FF3304D2A74202D9ACF102032C4433
:1002F000E41B43EA0040C0E7C2F1200320FA03F107
:10030000954090402EFA03F303434FEA154EAFB2E7
:10031000B1FBFEFC0EFB1C10190C0CFB07F841EAAC
:100320000041884504FA02F422D969180CF1FF3023
:1003300004D2884502D9ACF102002944A1EB08019E
:100340009BB2B1FBFEFC0EFB1C110CFB07F743EA52
:1003500001439F420ED9EB180CF1FF3104D29F42AA
:1003600002D9ACF102012B44DB1B41EA004192E7C8
:100370006046E3E76146F7E76046A3E76346B7E711
:10038000834206D916B9002108467BE7C6E900E09A
:10039000F9E7B3FA83F78FB9834201D3724508D8DE
:1003A000BEEB020460EB030301209C461EB9002152
:1003B00068E73846FAE7C6E9004CF8E7C7F1200CD1
:1003C000BB4022FA0CF41C432EFA0CF120FA0CF379
:1003D000B84001434FEA14490EFA07F5B3FBF9F8A8
:1003E0001FFA84FE09FB18300B0C08FB0EFA43EAD7
:1003F00000439A4502FA07F240D9E31808F1FF30AA
:1004000004D29A4502D9A8F102002344A3EB0A03BF
:1004100089B2B3FBF9F809FB183308FB0EFE41EA79
:1004200003418E452CD9611808F1FF3304D28E4563
:1004300002D9A8F10203214443EA0040A0FB02983C
:10044000A1EB0E014145CE46434602D306D14D45B0
:1004500004D2B9EB020E68EB04030138002EA6D0DB
:10046000B5EB0E0261EB030101FA0CFC22FA07F373
:100470004CEA0303F940C6E9003198E74046C5E776
:100480004346D9E700F003000138C0B201EB410157
:1004900002284FEA410110B44FF0FF03B1FBF3F320
:1004A0009CB2194496BF094B094B53F82030062CD7
:1004B00001F0FF0207D003EB840153F824004968E0
:1004C00010BC1DF015B9986910BC7047286D030069
:1004D000886D03002DE9F04F93B00023DFF888A367
:1004E000DFF88883E24FE34DE34E01930B22019B3B
:1004F000B3FBF2F1E14BC9B21878FFF7C3FF482212
:100500006FF07F4104461DF0F3F85AF804BB8146B2
:10051000BBF1000F37D0D82120461DF00CF92EF08A
:10052000A3FDC0F307238DF80C00C0F307408DF83E
:100530000D308DF80E0000225846039922F0A2FCDF
:10054000482120461DF0F7F85AF804BC2EF08CFD27
:10055000C0F307238DF81000C0F307408DF8113069
:100560008DF8120004990022584622F0BEFC5AF879
:10057000040C0022D22122F094FC5AF8040C002230
:10058000AA2122F0C1FCD6F800B0BBF1000F50D078
:1005900004226FF07F4120461DF0AAF82EF064FD82
:1005A000C0F307238DF81400C0F307408DF8153011
:1005B0008DF8160000225846059922F063FC14219C
:1005C00020461DF0B8F8D6F800B02EF04DFDC0F36F
:1005D00007238DF81800C0F307408DF819308DF807
:1005E0001A0006990022584622F062FC2046D6F8EE
:1005F00000B02EF039FDC0F307238DF81C00C0F3C6
:1006000007408DF81D308DF81E00079900225846CE
:1006100022F096FC30680022122122F083FC306820
:100620000022032122F085FC30680022FF2122F005
:1006300096FCD5F800B0BBF1000F51D048462EF023
:1006400013FDC0F307238DF82000C0F307408DF899
:1006500021308DF8220008995846002222F012FC21
:100660005822214648461DF043F8D5F800B02EF038
:10067000FBFCC0F307238DF82400C0F307408DF87E
:1006800025308DF8260009990022584622F010FCEA
:100690004846D5F800B02EF0E7FCC0F307238DF8EC
:1006A0002800C0F307408DF829308DF82A000A99F8
:1006B0000022584622F044FC28680022DC2122F067
:1006C000F0FB28680022102122F02CFC2868002270
:1006D000022122F02EFC28680022F02122F03FFCAB
:1006E000D7F800B0BBF1000F34D06C226FF07F411F
:1006F00020461CF0FDFF2EF0B7FCC0F307238DF859
:100700002C00C0F307408DF82D308DF82E000B998A
:100710000022584622F0B6FB4846D7F800B02EF02B
:10072000A3FCC0F307238DF83000C0F307408DF819
:1007300031308DF832000C990022584622F000FC2E
:10074000386800220A2122F0EDFB38680022E621F9
:1007500022F005FCD8F80090B9F1000F23D0204614
:100760002EF082FCC0F307238DF83400C0F307405D
:100770008DF835308DF836000D990022484622F06C
:1007800003FCD8F800000022032122F0EFFBD8F888
:1007900000000022012122F0F0FBD8F80000002226
:1007A000FF2122F000FC019BFF330193019A40F6E8
:1007B000F4339A4208F1040807F1040705F104052F
:1007C00006F104067FF492AE2D4C25685DB32B4EE6
:1007D0001C213078FFF756FE2EF046FCC0F30723AD
:1007E0008DF83800C0F307408DF839308DF83A00A5
:1007F00000220E99284622F045FBEB213078246830
:10080000FFF740FE2EF030FC8DF83C00C0F30723CC
:10081000C0F307408DF83E008DF83D300F9900225F
:10082000204622F045FB174C2768002F4ED0134B73
:1008300080211878FFF726FE3C226FF07F410646A4
:100840001CF056FF054630462EF00EFCC0F3072381
:100850008DF84130C0F307438DF842308DF84000E9
:100860001099002238460FE090890020D08800209F
:100870000089002030890020608900201ECF0220DE
:10088000F48700200C88002022F02FFB28462668E1
:100890002EF0EAFBC0F307238DF84400C0F30740B5
:1008A0008DF845308DF8460011993046002222F02F
:1008B00047FB20680022082122F034FB2068002238
:1008C000822113B0BDE8F04F22F049BB13B0BDE860
:1008D000F08F00BF10B51CF047FF084BD3E9004272
:1008E000041B61EB0202B42C72F10002A1BFC3E948
:1008F0000001034B01221A7010BD00BF90020020BE
:1009000022CF022010B51CF02FFF084BD3E9004284
:10091000041B61EB0202B42C72F10002A1BFC3E917
:100920000001034B01221A7010BD00BF8802002095
:1009300021CF022010B51CF017FF084BD3E900426D
:10094000041B61EB0202B42C72F10002A1BFC3E9E7
:100950000001034B01221A7010BD00BF800200206D
:1009600020CF022010B51CF0FFFE084BD3E9004257
:10097000041B61EB0202B42C72F10002A1BFC3E9B7
:100980000001034B01221A7010BD00BF7802002045
:100990001FCF022008B50C4B1B788BB91CF0E4FE6E
:1009A0000A4B0B4A1B681268C31A9A4238BF9B1A3B
:1009B000084A28BF0023B3FBF2F002FB103008BD49
:1009C000054B1868ECE700BF1CCF022028870020E9
:1009D000208700202CF204002487002038B50B4D1E
:1009E0000446286828B1214633F023F8286820F00F
:1009F00093FD074D286838B1214633F01AF828686E
:100A0000BDE8384020F088BD38BD00BF0888002010
:100A1000048800202DE9F04F514B1B78012B85B045
:100A200040F090804F4B504A1B6812682C3B934219
:100A300003EBD375A8BF1346002B1C46B8BFDC1CC4
:100A400002EBD2776D10A410EF2B4FEA670705F188
:100A50002A0504EB440678DDB610282293FBF2F950
:100A6000DFF80881D8F8000048B16200114620F094
:100A70000BFBD8F800002A1B391B20F0CCFA3C4BAA
:100A80000293DFF8F0803C4BDFF8F0B0DFF8F0A025
:100A90003C49019358F8043BDDF808C05BF8040BAF
:100AA0003CF902EBCDF808C01B12642BA8BF6423ED
:100AB00023EAE3734FEA202C9C45B8BF9C46BCF167
:100AC000640FD4BFC3EB0C00C3F1640010EB400013
:100AD00048BF03303AF9022B03EBA00373436420B1
:100AE00093FBF0F31046604348BF00F2FF3007EB82
:100AF000A0204B44086070466043234448BF00F286
:100B0000FF305A4348BF02F2FF3207EBA2228A604D
:100B10007246534348BF03F2FF3305EBA323CB6078
:100B2000019B05EBA020486053F8040B019320B112
:100B30000222039133F008F90399134B434501F165
:100B40001001A7D105B0BDE8F08F4F2ECCBFB61075
:100B50001426782B4FF00609B8BF1E2480E700BF8B
:100B60001DCF022004000020080000200C88002077
:100B700048840300C4870020D088002064870020B8
:100B80006084030010880020F48700202DE9F74FCF
:100B9000204B214CDFF88480DFF88490214FDFF870
:100BA00088A0224DDFF888B001930026019B57F8FA
:100BB000040B43F8046B44F8046B48F8046B49F8E1
:100BC000046B019348B1012120F047FA002357F844
:100BD000040C1A46052120F084FA286840B101214E
:100BE00020F03BFA002328681A46052120F079FA04
:100BF0005AF8040B20B1DBF80010033920F0F4F9A7
:100C00000C4B9C4205F10405D0D103B0BDE8F04F78
:100C1000FFF700BF94870020C4870020648700206E
:100C2000348700206089002000890020308900205E
:100C300030870020F4870020F8B51A4B1A4F1B4E5E
:100C4000187004460C2557F8040BF8B10121A4B123
:100C50001FF04BFA3068F0B9013D15F0FF0506F1C1
:100C60000406F0D1124B186818B10121BCB11EF076
:100C7000F0FFBDE8F840FFF7CDBE1EF0EAFF306898
:100C80000028E9D001211FF030FAE5E7306800289C
:100C9000E2D0002CF6D001211EF0DBFFDCE71FF0D4
:100CA00024FAE6E71DCF022090890020D08800209A
:100CB0000C88002070B50E4E04463068B0B10D4D62
:100CC0002B689BB10C4910F007F80B49286810F00D
:100CD00003F85CB930682246214622F0B0F8286853
:100CE00022462146BDE8704022F0A9B870BD00BF81
:100CF000088800200488002063D7010070B51F4ECB
:100D000004463068002838D01D4D2B68ABB3ACB119
:100D1000042117F021F82868042117F01DF8306825
:100D20000022022122F06AF928680022022122F022
:100D300065F90020BDE87040FFF7BCBF032117F044
:100D40000BF82868032117F007F8306822460121C4
:100D500022F054F928682246012122F04FF9306828
:100D6000224641F2504122F05EF92868224641F2C3
:100D7000504122F058F90120DCE770BD08880020BE
:100D800004880020F8B5124E336803B3114B1B687A
:100D9000EBB1FFF7FFFD104B1C68002C054614DD7E
:100DA000A0FB0401E7170D4A002305FB0711FFF71D
:100DB000F7F901280146B8BF0121A142A8BF214689
:100DC0003068BDE8F84020F031B90121F8E7F8BDFE
:100DD000F4870020F88700202C8700202CF20400E4
:100DE00030B51F4B1B6887B00446D3B11D4B1B6841
:100DF000BBB11D4B1D4D1B78ABB978B11C4B1D4AC7
:100E00000092CDE90332CDE901321B481B4A05931C
:100E1000C02110F05DFF1848FFF7E0FD4FF0FF33F1
:100E20002B6007B030BDFFF7B5FD4FF47A73B0FB10
:100E3000F3F214B92B689A42F3D03C212A60B2FB3A
:100E4000F1F301FB1322009218210D4A0D4810F016
:100E50003FFF0C4807B0BDE83040FFF7BFBD00BF03
:100E6000088800200488002023CF022000000020F2
:100E7000D4860300F186030044CE0220E2860300FC
:100E8000FA86030004CF0220014604488368DB6928
:100E90000BB1012218476FF057007047DC68030060
:100EA000014640F2E73080B500EBC1304FF47A7272
:100EB0000023490CFFF774F9084E094F05460C460C
:100EC00033782BB1BB6806485B694FF400519847F3
:100ED0002846214635F04FFBF2E700BF24CF022021
:100EE000DC6803002DE9F04F0B48B7B01CF07CFC28
:100EF00040B10A484FF4B0111CF0DBFB10B9084BAD
:100F000001221A70074835F0D7F978B906481CF065
:100F100074FEFA20FFF7C4FFDC680300346E0300A0
:100F200024CF0220DC69030010870300D3481CF0A3
:100F30005BFC002840F02986D1481CF05EFECF48BB
:100F40001CF052FC002840F03E86CE481CF055FEB6
:100F5000CA481CF049FC002840F08C86CA481CF0A6
:100F60004CFEC6481CF040FC002840F0A186C74853
:100F70001CF043FEC648C74D8368069326A91B6A2A
:100F8000C54CC64E9847BDF898302B60BDF89A30D6
:100F9000236008F02FFCD5F80090D4F800B0B9F128
:100FA000780FABF12C03C5BF0C22A9F13101062249
:100FB000B1FBF2F2182BB8BF1823FF2102920022D6
:100FC0008046039321F06DFFB5482EF04DF8C0F335
:100FD00007238DF88800C0F307408DF889308DF81D
:100FE0008A0000222299404621F04CFF0021404611
:100FF0001CF0C8FB404605F0DFFD5A464946044652
:1010000020F042F800221146204620F004F8002289
:101010001146204621F07FFF00221146204621F094
:10102000F4FF204600211CF0ADFB0022FF212046EA
:1010300021F037FF9A482EF017F8C0F307238DF8F8
:101040009400C0F307408DF895308DF896002599EF
:101050000022204621F016FF92482EF005F8C0F33A
:1010600007238DF89000C0F307408DF891308DF87C
:10107000920024992046002221F01AFF00222046E7
:10108000012121F024FF102120461EF0E2FD204620
:1010900015F0A8FE3146054632F040FBF288B188D3
:1010A00052084908284632F036FA4FF46171284652
:1010B00032F0B6F9284620F089FB0022BE212846EE
:1010C00021F0AAFF204605F077FD5A46494604461E
:1010D0001FF0DAFF0022114620461FF09CFF00227D
:1010E0001146204621F017FF00221146204621F02C
:1010F0008CFF00225A21204621F0D3FE6A482DF0B1
:10110000B3FFC0F307238DF88C00C0F307408DF8C0
:101110008D308DF88E0000222046239921F0B2FEFA
:10112000204610211EF095FD404605F045FD5F4C20
:101130002060002800F0DA855A4649461FF0A4FFD7
:10114000002220685A4F5B4E11461FF064FF0022B8
:101150002068114621F0DFFE00221146206821F0B0
:1011600054FF554825682DF07FFFC0F307238DF805
:101170008400C0F307408DF885308DF886002199F2
:101180002846002221F07EFE0022114620684B4DA9
:1011900021F087FE10212068494C1EF05AFD404680
:1011A00016F026FA3860404616F022FA30604046C3
:1011B00005F002FD2060404605F0FEFC0346286075
:1011C0003868002800F092853268002A00F08E8589
:1011D0002268002A00F08A85002B00F087853949B3
:1011E000A9F10A0A32F025FC386851461FF01EFFAB
:1011F00038683549002221F0F3FE386800220121C9
:1012000021F0F5FE38680022022121F0F7FE3B684C
:1012100000934FF6F5702DF027FFC0F307238DF8EC
:101220008000C0F307408DF881308DF8820020994E
:101230000098002221F0BEFE38680022B42121F07F
:10124000C8FE04230122386802211FF04AFF3068DB
:101250001C4932F0EEFB306851461FF0E7FE306863
:101260001949002221F0BCFE30680022012121F042
:10127000BEFE30680022022128E000BFDC680300C7
:101280002B870300A687030025880300A48803009A
:10129000DC69030008000020040000203C6E03000D
:1012A00012030500260714000E060500FC87002027
:1012B0000888002004880020784DFF00F88700206F
:1012C00000880020D4860300C076030021F096FE3B
:1012D0006FF07F4037682DF0C7FEC0F307238DF80D
:1012E0007C00C0F307408DF87D308DF87E001F999B
:1012F0003846002221F05EFE30680323A9F11E0665
:10130000002202211FF0EDFE2068022231461FF06C
:10131000BBFE1A232068002202211FF0E2FE0022F9
:101320002068114621F0F7FD2068002247F6FF7182
:1013300021F06BFE20680022B92121F0B2FDD148D6
:1013400027682DF091FEC0F307238DF87800C0F3D5
:1013500007408DF879308DF87A001E9900223846C2
:1013600021F090FD4DF2FF6027682DF07DFEC0F367
:1013700007238DF87400C0F307408DF875308DF8A1
:1013800076001D990022384621F0DAFD20680022FF
:101390000A2121F0C7FD20680022B42121F0DFFDE1
:1013A0002068B94C10211EF054FCB84B28681E6010
:1013B000062231461FF068FE1E2328680022022103
:1013C0001FF08FFE28680022012121F0A4FD28686B
:1013D0000022782121F098FD0022286847F6FF714D
:1013E00021F013FE286800211CF0CCF900222868A7
:1013F000B42121F056FD286810211EF02AFC28682F
:1014000005F0DAFB2060002800F07084062201213C
:101410001FF03AFE00231A46206807211FF061FEE4
:1014200000221146206821F076FD2068002247F650
:10143000FF7121F0EAFD20680022FF2121F031FD3B
:1014400000222068022121F042FD206810211EF0B8
:1014500000FC8F4B039A1A6002EB4212642392FB4A
:10146000F3F30493039B049A033B9B1A1093894B59
:101470000793029B03331193874B0C93874B0B937A
:10148000874B0A93874B0993874B0893082305934F
:101490004FF0000A404605F08FFB0B23CAEB0A21F0
:1014A000B1FBF3F1814BC9B206461878FEF7EAFFAB
:1014B00020226FF07F4100901CF01AF96221019008
:1014C00000981CF038F9EB210D9000981CF033F9CE
:1014D000A5210E9000981CF02EF90F90002E00F020
:1014E0000584304605F068FB0546304605F064FB90
:1014F0000446304605F060FB0746002D00F0F683F9
:10150000002C00F0F383002800F0F083079B0B9A77
:1015100043F8046B0793089B43F8045B0893099B0B
:1015200043F8044B09930A9B43F8040B0A934FF4C6
:10153000045342F8043B0B920C9A42F8043B0C9281
:101540005B4A42F82A305B4A304642F82A30DDE9ED
:1015500002121FF099FD3046059924221FF05BFD11
:1015600000221146304621F0D6FC304601211CF005
:1015700009F930460022032121F047FD0022B9215C
:10158000304621F08EFC0E982DF06EFDC0F307233F
:101590008DF87000C0F307408DF871308DF872003F
:1015A0001C993046002221F06DFC304600220121BA
:1015B00021F0B1FC00227821304621F0A5FC0F98E3
:1015C0002DF052FDC0F307238DF86C00C0F30740E7
:1015D0008DF86D308DF86E00002230461B9921F099
:1015E00084FC304610211EF034FB029B9E1E3146C7
:1015F00028461FF01BFD049928461FF02EFD0023EE
:101600001A46052128461FF06CFD00221146284687
:1016100021F081FC00220321284621F0F6FC002263
:10162000FF21284621F03DFC01982DF01DFDC0F35F
:1016300007238DF86800C0F307408DF869308DF8F6
:101640006A001A990022284621F01CFC0D982DF002
:101650000BFDC0F307238DF86400C0F307408DF83D
:1016600065308DF8660019990022284621F020FC8B
:1016700000220121284621F02AFC00982DF0F4FCDC
:101680001AE000BFFFFD2D00F48700202C8700200A
:10169000308700209089002094870020C487002094
:1016A0000089002030890020608900201ECF0220A0
:1016B0006487002034870020C0F307238DF8600082
:1016C000C0F307408DF861308DF862001899002250
:1016D000284621F035FC00220E21284621F022FC6C
:1016E00000220221284621F024FC0022E62128467F
:1016F00021F035FC102128461EF0ABFA029B204653
:10170000191F1FF093FC049920461FF0A6FC00232C
:101710001A46052120461FF0E4FC0022114620460F
:1017200021F0F9FB00220221204621F06EFC00226C
:10173000A821204621F0B5FB64226FF07F4101987B
:101740001BF0D6FF2DF090FCC0F307238DF85C0052
:10175000C0F307408DF85D308DF85E0017990022C8
:10176000204621F08FFB00982DF07EFCC0F307236C
:101770008DF85800C0F307408DF859308DF85A00A5
:1017800016990022204621F093FB002201212046D9
:1017900021F09DFB78226FF07F4101981BF0A8FF9C
:1017A0002DF062FCC0F307238DF85400C0F307400E
:1017B0008DF855308DF8560015990022204621F0FD
:1017C000BFFB00220C21204621F0ACFB00220121AE
:1017D000204621F0AEFB0022A021204621F0BFFBD5
:1017E000102120461EF035FA314638461FF01EFC07
:1017F000032138461FF031FC109A012138461FF0B2
:101800000AFC00221146384621F085FB002247F6EB
:10181000FF71384621F0F9FB0022FF21384621F004
:1018200040FB96226FF07F4101981BF061FF2DF085
:101830001BFCC0F307238DF85000C0F307408DF860
:1018400051308DF8520014990022384621F01AFBCD
:1018500001982DF009FCC0F307238DF84C00C0F36C
:1018600007408DF84D308DF84E0013990022384610
:1018700021F066FB00220821384621F053FB0022AC
:101880000121384621F055FB0022AA21384621F0DB
:1018900066FB102138461EF0DCF9059B119A0AF10F
:1018A000010A1344BAF10C0F05937FF4F3AD4046DF
:1018B00005F082F9CC4C2060002800F0178200224D
:1018C000114621F0EEFA2068DFF820A30022022161
:1018D00021F021FB20680022DC2121F015FB20688B
:1018E000002247F6FF7121F090FB206800220821BA
:1018F00021F018FB20680022012121F01AFB20684A
:101900000022822121F02BFB2068B94C10211EF00F
:10191000A0F909EBD9760BEBDB7576106D1004F1AD
:101920003007404616F02CFF44F8040B002800F066
:10193000DD815A4649461FF0A7FB0022114654F8A4
:10194000040C1FF068FB0022114654F8040C21F02F
:10195000A8FA0022114654F8040C21F0DCFA54F8DD
:10196000040C0022032121F001FB54F8040C002296
:10197000012121F002FB002254F8040CFF2121F088
:1019800012FB54F8040C10211EF063F9CAE900653B
:10199000CAE90265514654F8040C022232F0D4F927
:1019A000A7420AF1100ABCD1404605F005F90446E9
:1019B000002800F09B815A4649461FF065FB002233
:1019C000114620461FF027FB00221146204621F039
:1019D000A2FA00221146204621F017FB2DF07AFBD7
:1019E000C0F307238DF84800C0F307408DF8493055
:1019F0008DF84A0012990022204621F043FA002275
:101A00006421204621F04DFA102120461EF021F9D4
:101A1000FEF760FDFFF7B6F90020FFF76FF9012030
:101A2000FFF7DEF90020FFF707F9069B5B68002B44
:101A300040F063811BF098FE6E4B18601BF094FE23
:101A400005460F4604460E466B4B1B7863B16A4A47
:101A500000231370694B187880F001001870FFF7AD
:101A60004DF90120FFF7BCF9654B1A78BAB1DFF8E0
:101A7000948100221A7098F80030013303F00303B8
:101A800088F80030FEF726FD98F800305E481C22EA
:101A900003F0030353435D4AD1581CF0AEF85C4B8E
:101AA0001A78DAB1DFF86C91DFF86C814FF0000A38
:101AB00083F800A099F80030002B40F02181012329
:101AC00089F800301BF050FEC8F80000FFF75EF800
:101AD00052481CF092F80120FFF782F9504B1A7817
:101AE000BAB1DFF8408198F800000130002200F020
:101AF00001001A7088F80000FFF79EF898F80010AF
:101B0000494A4A4B4A48012914BF114619461CF05C
:101B100074F81BF029FEA84271EB070383468A463E
:101B20002CDB844276EB010380F2F780041B61EB2F
:101B30000606C92C76F100064FF43053A8BFC8241E
:101B40005C434FF47A73B4FBF3F30493314B1B788B
:101B5000002B00F0E480FFF719F8FFF713F90020DD
:101B6000FFF73EF92F4B1B78012B14BF05250C25E1
:101B700015EB0B054AF100075C4656460FF09AFD3F
:101B80000021422034F0F7FC5EE72A484FF4803110
:101B90001BF08FFD10B12848FFF7CFB925481BF087
:101BA00008FE10B12548FFF7C8B92548254B43600A
:101BB0004FF400638360FFF767F900283FF4BFA983
:101BC0002148FFF7BAB921484FF480311BF071FD6D
:101BD00010B11F48FFF7BAB91C481BF0EAFDD8B393
:101BE0001C48FFF7B3B900BF0C8800201088002004
:101BF000D08800202887002022CF022023CF022077
:101C000021CF02201ECF02204F890300A46D0300C4
:101C100020CF02201CCF0220248700205B890300F4
:101C20001FCF02201DCF02200B8703000487030073
:101C3000808903002C6E0300438703005F87030045
:101C400014870020D508000084870300246E030059
:101C5000BF870300DC8703006448654B43604FF493
:101C600080538360FFF710F900283FF471A96148A1
:101C7000FFF76CB960484FF480311BF01AFD10B1CA
:101C80005E48FFF76CB95C481BF093FD10B15C48EF
:101C9000FFF765B95B485C4B43604FF0807383602E
:101CA000FFF7F2F800283FF45CA95848FFF757B94E
:101CB00057484FF480311BF0FCFC10B15548FFF73A
:101CC00057B953481BF075FD10B15348FFF750B991
:101CD0005248534B43604FF000738360FFF7D4F8D2
:101CE00000283FF447A94F48FFF742B94E481BF080
:101CF00084FF4FF4FA70FFF70DB94C48984799E606
:101D00001BF032FD4A4AD8F80010136889F800A089
:101D10005B1A034413604748DBE6382315E7FEF7F8
:101D200039FE454B4549464C984288BF43F64E70B4
:101D30004FF00C0298BF14232AAD98BFB0FBF3F00C
:101D4000264602FB0011642711F8013B14F8010B31
:101D5000DFF8F0C013FB00F0BCEB002F02F1FF3204
:101D60004FEA0023B4BF4FF4C843B3FBF7F312F0BC
:101D7000FF0245F8043BE7D12A99334D542301244F
:101D8000594320461F464FF0640C0DF1D80E0EEB60
:101D90008404083354F8304C01EBC4011446325D1E
:101DA00091FBF3F35343274A9342CCBF4FF4C8430C
:101DB00093FBFCF30C2845F8243047D036A901EBFF
:101DC000800136AB03EB800351F8341C53F8303CF0
:101DD00002460130C0B2C9000C2807FB03114FF0C6
:101DE0000B044FF05C03DAD00446CEE708870020EE
:101DF00005090000028803001C6E03003E880300F2
:101E00005B880300FC860020350900008188030000
:101E1000146E0300C2880300E4880300F0860020EB
:101E2000650900000F89030037890300DC6903009E
:101E3000208700206D8903002BF20400C6390800BA
:101E4000BA89030063102700948700209B4B9C4EA7
:101E5000DFF87082DFF870929C4F303306939C4B12
:101E600000939C4B0293954B0393039B57F8042BD1
:101E700053F8041B03938B1A00F1D5804FF4A07024
:101E800043431B12B3F5006FA8BF4FF40063802BD0
:101E9000ACBFD21880329142C0F2D58047F8042CF2
:101EA00057F8043C002B80F2D180002347F8043C13
:101EB00084234B43642293FBF2F30B44B3F5C84FE6
:101EC0003068A8BF4FF4C8431A1A314600F1C580E4
:101ED0004FF4C37462431212B2F5805FA8BF4FF48F
:101EE0008052802AACBF801880308342C0F2C58007
:101EF00030603368002B80F2C2800023336057F8D3
:101F0000043CD8F80020934280F2C0800498121A52
:101F10009A42B8BF1A46002AC8F8002080F2B8805A
:101F20000022C8F800200D6858F8042B05921B12F7
:101F300006F104064FEA252500F1BD80642B00F36D
:101F4000AE80212B00F3AC80634A9D421468B8BF79
:101F50001D46642D04FB03F14FF0480244F61F6355
:101F600002FB01F1A8BF64256543994202FB05F518
:101F7000C4BF42F2107391FBF3F144F61F63D8BF64
:101F800002219D42C4BF42F2107395FBF3F5534BFF
:101F90001B780193D8BF0225002B34D1A142A8BFE2
:101FA0002146D9F800001FF058F8019BD9F800002D
:101FB0001A4605211FF095F8009B186860B1AC42E5
:101FC0002146A8BF29461FF048F8019B00981A46F1
:101FD000006805211FF085F8029B186898B13E4BF8
:101FE000059A1B6811125943482251433C4A91FB00
:101FF000F2F11944033921EAE1719A1E9142A8BF16
:10200000D91E1EF0F1FF029B039A04330293009B3A
:1020100004330093069B934209F104097FF425AF32
:10202000FEF7F8FC99E56FF0A90043431B12B3F5E6
:10203000407FA8BF4FF44073552BACBFD21A553A1E
:1020400091427FF72BAF47F8041C29E7B3F5C84F3F
:102050007FF72EAF4FF4C84328E76FF0EF046243D9
:102060001212B2F5106FA8BF4FF41062552AACBF20
:10207000801A553883427FF73BAF336039E7B3F5B9
:10208000C84F7FF73CAF4FF4C84337E71A4642E7E3
:10209000B2F5C84F7FF747AF4FF4C84241E764231A
:1020A0007D22213B53436422B3FBF2F3213393425D
:1020B000A8BF134648E7002346E700BF94870020E7
:1020C000648700203487002060890020C4870020B6
:1020D0003089002000890020308700201DCF022099
:1020E000F0D8FFFF014B1B68184700BF0C00002011
:1020F000014B1860704700BF0C00002030B585B060
:1021000004460D4610220021684634F0FEFA0223F0
:102110008DF802302A46044B0193214668461BF095
:102120006BF805B030BD00BFE520000080B5054666
:102130000E46174698461AF0F5FC034634F050FB5D
:10214000DFF81890044649F80030424630463946D8
:10215000A84754F8090000F0C1FA00BF08000000C9
:102160002DE9F047058B04462807904611D4022933
:1021700005F0070540F0CC8020461BF04BFD78B100
:102180000138218B042811D8DFE800F0C2106D85DA
:10219000950001290CBF45F0100545F02005258369
:1021A00088F31188BFF36F8FBDE8F08701F0070A4D
:1021B000AA4500F0A5800027B9463E46A368002B3B
:1021C00000F0BC8041F00801218388F31188BFF33F
:1021D0006F8FA168002900F0BA800D68002900F017
:1021E000B680D1F80480334652462046C047002DC1
:1021F00076D02B6829461D46F0E701F007035A1FE9
:10220000012A1BD8002221F00701062B276889B27A
:10221000C4E9002209D13B4603E0628B01326283AC
:102220001B68002BF9D141F00201218320461BF0ED
:10223000F1FC00287AD041F0200176E0042B0AD18D
:1022400021F0070189B2218320461BF0E3FC10B185
:1022500041F020012183218B01F0070AAA454FD0CC
:102260000027B946AAE7236921F0070141F00601DA
:10227000062DD3F8009021832DD1B9F1000F3FD066
:1022800041F00801218388F31188BFF36F8F3A4929
:102290002046C84729E021F00701236941F00401E5
:1022A00089B2042DD3F804902183E6D000273E465E
:1022B0004FF0040A82E721F00701236941F005018C
:1022C00089B2052DD3F808902183D6D000273E4649
:1022D0004FF0050A72E700273E464FF0060A6DE709
:1022E0002B4687E7B9F1000FD1D1EFF311882023F6
:1022F00083F31288BFF36F8F238B23F008032383AC
:10230000258BEA062ED525F01003238305F007055B
:102310006669218B002EBFF670AF00232768C4E9E1
:10232000003321F0070141F001012183218B01F0ED
:10233000070AAA454FF000097FF440AF002F9CD058
:1023400041F00801218388F31188BFF36F8F002FBC
:10235000C8D03D6839463346524620461BF086FCBD
:102360002F46F4E7AB067FF51BAF25F02003238350
:1023700005F0070500E700BF99DC0100014B036091
:1023800000207047586E030030BFFFF7FDBF00BF4D
:102390002DE9F0410B4EDFF8308006EB0807CC1B2F
:1023A000054632460949204634F087F9A0194246CD
:1023B0000021083C34F0A9F92C6707F10800BDE8BA
:1023C000F08100BF0000000004000000E46C030086
:1023D000054B5A699B689A421FBF044A536843F0F1
:1023E00080535360704700BF08CE022000ED00E02C
:1023F00070B5264B15469A6A12F0100F9A6A14BFF0
:102400001124102412F0080F9A6A18BF12249207A0
:1024100006460AD5586B9A6A140634D519B19A6AD9
:1024200022F080029A62132401E06FF01500174B2E
:102430009A6A12F0010F9A6A18BF142412F0200F42
:102440009A6A18BF1524D20602D49B6A9B070AD544
:102450000E4B5B68190506D5314600F025FA10B120
:1024600080F309880224094B9A6A920642BF5A6A8D
:1024700022F400525A629A6A42F0FF029A620023E2
:102480002B70204670BD6FF01500CCE700ED00E02A
:10249000134B9A6A12F0007F9A6A14BF1E201D2007
:1024A00012F0807F9A6A18BF1F2012F4002F9A6AD8
:1024B00018BF212012F4802F9A6A18BF222012F42C
:1024C000003F9A6A18BF232012F4803F9A6A6FEA8D
:1024D00002426FEA12429A6218BF2420704700BF7E
:1024E00000ED00E010B5194B0246986A9C6A10F4A2
:1024F000805F14BF1720162014F4006F9C6A18BF69
:102500001820A40509D5986B986A000404D51AB15F
:102510009A6A22F400429A6219200C4B9A6A12F4C9
:10252000806F9A6A18BF1A20D2050CD49B6A13F4E4
:10253000005F18BF1C20054A936A43F47F439362EF
:1025400000230B7010BD1B20F5E700BF00ED00E07D
:10255000F0B5484B5B688BB00446C3F30803002515
:1025600085F31188BFF36F8F02F07F40B0F17F4F8A
:1025700011D102F00C0008280DD010074CBF0C46FA
:1025800001250022033B8DF80720032B05D8DFE847
:1025900003F0246367602C46F3E700239DF80720CF
:1025A000CAB902AE04F1200720686168324603C24E
:1025B0000834BC421646F7D1099A002D54D0C2F314
:1025C000080121B96FEA52226FEA4222099202A958
:1025D00018461BF0E1FC0BB0F0BD264BDA6A910700
:1025E000DBD4DA6A002AD8DBDA6A5200D5D55A6918
:1025F000A16942F480725A61BFF34F8FBFF36F8FAE
:102600005A6931F8021C22F480725A61BFF34F8F6D
:10261000BFF36F8F4DF6027291420AD09A6AD2B21E
:102620004AB10DF1070201212046FFF7E1FE034602
:10263000B4E72368B2E79A6A12F47F4F05D00DF130
:1026400007010120FFF74EFFF1E79B6AB3F5803FDA
:10265000A3D3FFF71DFFEAE70DF107020021E3E72F
:102660000DF107010020EDE722F4FF7222F00102D4
:10267000ACE700BF00ED00E0044B5A6942F01002E5
:102680005A615A6922F008025A61704700ED00E071
:10269000EFF30880EFF3098101B57246FFF758FFA9
:1026A00001BD00BF0B4880F3088802F079FA2020B2
:1026B00080F3118808484FF40461401880F30988BA
:1026C000EFF314800221084380F31488BFF36F8F67
:1026D00000F0B2F840ED022080D30220084B9B6846
:1026E00083420BD1EFF3058343B1064B5A6842F0A6
:1026F00080525A605A6A22F400425A621AF018BA9A
:1027000008CE022000ED00E014498A684FF0300046
:102710001044EFF3098C80E8F01F202080F312882A
:10272000BFF36F8F0E4F4FF000664A698A603E60BC
:10273000106F0C4C2060506F0023536780F311889A
:1027400004B5104600F014F9BDE8044002F1300071
:1027500090E8F01F8CF309887047000008CE022033
:1027600004ED00E0D88900201EF0040F0CBFEFF349
:102770000880EFF30980816911F8021C0229FFD05B
:1027800001B572461BF00EFC01BD00BF40B200282F
:1027900007DB044A4109012300F01F00834042F88F
:1027A0002130704700E100E040B200280CDB430913
:1027B000064900F01F0020330122824041F8232007
:1027C000BFF34F8FBFF36F8F704700BF00E100E092
:1027D000054B420900F01F0053F82220012303FAA1
:1027E00000F01040704700BF00E100E040B2002858
:1027F000A8BF00F1604001F10101B8BF064B4FEAEC
:102800004111ACBF00F5614000F00F00C9B2B4BF88
:10281000195480F80013704714ED00E0044B054A8A
:1028200023F07F039360BFF34F8FBFF36F8F704729
:102830000000000000ED00E008B5FFF7EFFF0B4AD5
:10284000D2F8883023F47003C2F88830EFF3148391
:1028500023F0040383F31488BFF36F8F19F0FEF99C
:102860001AF09AFA00F05AF819F03CFA00ED00E07C
:1028700042F8203C009B42F81C3C0A49019B42F86C
:10288000183C029B42F8143C21F001014FF0807388
:1028900042F8043C42F8081C0023203A02654367D2
:1028A000704700BF2D210000094A0346906870B1AF
:1028B00013F1160F006E05D0A0F140029A4205D820
:1028C000834203D2814228BF002070470020704716
:1028D00008CE022008B515460B4A0C4B9060026FDB
:1028E0001A600E4600F044F82C4686F30988002052
:1028F000034B98472046002100220023014C20472B
:10290000C3DF01002D21000008CE0220D88900205D
:10291000014B10221A61704700ED00E004480023CB
:102920002021C2180133302B82F80013F9D17047EF
:1029300000E100E008B5EFF30583064A103B02EB27
:10294000C30152F8330049688847BDE80840FFF7E3
:102950003FBD00BF5C6A0300024B034A03480121EC
:1029600000F076B80000042000000020706E030024
:10297000026E054B403A1A60044A4021C3E9011235
:102980001846012100F06EB8DC89002000000B150C
:10299000084AC2F898000B6823F01F03034343F072
:1029A0001003C2F89C308B6843F00103C2F8A030DA
:1029B000704700BF00ED00E02DE9F043DFF86080D4
:1029C00085B00E461F4604464FF00009B14523DA94
:1029D0006068D8B13FB1411E08421BD11F2819D9E8
:1029E0002368194216D1236801931BF00DFBA368DD
:1029F00003430393D8F89050C5F30725D0B2013DA7
:102A0000A84207D801A9FFF7C3FF421C09F1010939
:102A10000C34DBE76FF01502104605B0BDE8F0831B
:102A200000ED00E0044B0522C3F89420BFF34F8F64
:102A3000BFF36F8F704700BF00ED00E0BFF35F8F03
:102A4000024B0022C3F89420704700BF00ED00E065
:102A500010B5034C01232278FFF7AEFF207010BDA4
:102A600025CF022008B50B4A00231278FFF7A4FFF8
:102A700010F1160F07D0084A0021D2F89030C3F3A6
:102A80000723984200DB08BDC2F89800C2F8A010E6
:102A90000130F2E725CF022000ED00E02DE9F04300
:102AA000534B544CD3F890302568C3F307239D4211
:102AB00085B000F29A80FFF7C1FF00200C26854206
:102AC0001AD14D4C4D4F25706846FFF757FCDFF883
:102AD0002081DFF82C9106460025AE4213D12378E1
:102AE00043490020D1F89020C2F30722934276DBBD
:102AF000FFF798FF002042E0616806FB0011FFF736
:102B000047FF0130DBE7009800EB05114FEA051C99
:102B1000CB683B40B3F5000F48D00AD8B3F5001F8F
:102B200030D0B3F5800F36D0B3F5801F10D001350B
:102B3000D3E7B3F1807F42D0B3F1007FF7D150F8F3
:102B40000C3088684A681BF05FFA40F4802009E086
:102B500050F80C3088684A681BF056FA40F08850EC
:102B600040F43020CDE901230390D8F8903020784C
:102B7000C3F30723013B98422AD96FF0150005B033
:102B8000BDE8F08350F80C3088684A681BF03CFAC6
:102B900040EA0900E6E750F80C3088684A681BF004
:102BA00033FA40F0C06040F40030DBE750F80C30FE
:102BB00088684A681BF028FA40F08270D2E750F823
:102BC0000C3088684A681BF01FFA40F08870C9E72B
:102BD00001A9FFF7DDFE237801332370A7E7C1F8D1
:102BE0009830C1F8A00001337CE74FF0FF30C6E712
:102BF00000ED00E07C6E030025CF02200000F0FF16
:102C00000000081108B5024B1B689847002008BD5A
:102C1000E8890020034B044A1860937843F00203CC
:102C200093707047E88900201000002008B506491D
:102C3000064821F00701C1F1005202F580221AF086
:102C40009DFF002008BD00BF8F740320EC89002089
:102C50000E4A0123C2F840354FF080424FF08051B8
:102C6000C2F87835D1F83001082808D1D1F83411EC
:102C7000052904D80648415C09B1C2F838364FF03E
:102C800080430122C3F880250020704700E0014006
:102C9000AC310B0020B1034B800143F00103184716
:102CA000704700BF206D03007FB50D4D0D4E4FF0F6
:102CB000FF324FF0FF3301A9284619F0D3F800285E
:102CC000F5D1094CB442F2D2236813B1019A934270
:102CD00003D1D4E9013101A898470C34F2E700BFD1
:102CE00024020020E46C0300D86C0300F0B585B02A
:102CF000DDE90C5417461E46019023469DF8280036
:102D00008DF808002C432A468DF80910ADF80A709A
:102D100003960AD0094933F063FDD1F88040084991
:102D200009588C4204BF00221346064801A919F035
:102D300041F800EAE07005B0F0BD00BFB0850020AA
:102D40000800000024020020084B70B5C31A0D468D
:102D500007499B1004465943064840221BF072F96C
:102D60002B4601462046BDE8704018470C8A0020DB
:102D7000B76DDBB69C68030073B50C4C0C4A40235E
:102D8000041B00930D460B460A49A41061430646F6
:102D900009481BF083F9011E05DA30462B4602B0C4
:102DA000BDE87040184702B070BD00BF0C8A00201B
:102DB00007E10100B76DDBB69C68030010B5EFF3C7
:102DC0001184202383F31288BFF36F8F074A13689F
:102DD00023F00201DB07116002D401201CF075F81A
:102DE00084F31188BFF36F8F10BD00BF5C8A002091
:102DF000002270B5012104461046FFF7F7FC0F488A
:102E000002F058F80E4B984215D102F063F826698B
:102E10000C4930461AF04DFF00280BDB01253564C4
:102E20002469084904F11C001AF043FF002801DB63
:102E3000E564002070BD6FF00400FBE7412F000047
:102E40000000AD0B9C6E03001FB500220123CDE9ED
:102E50000223094ACDF800D06B46CDF804D01BF010
:102E60004BF9002805DB4FF480420023684619F037
:102E700057F905B05DF804FB25E1010030B4104BB3
:102E80000C2202FB003301460020D3E90E52986366
:102E9000EFF31180202484F31288BFF36F8F1C6C32
:102EA00004F0C00444F002041C6480F31188BFF3F2
:102EB0006F8F1DB12B46034830BC184730BC70479C
:102EC0000C8A00209C68030010B4EFF311822023C9
:102ED00083F31288BFF36F8F1748016841F0020433
:102EE0000460C80707D482F31188BFF36F8F0120F5
:102EF00010BC02F001B84FF08041D1F80C04D1F8B9
:102F00000C14C907EFD5EFF3118083F31288BFF3D8
:102F10006F8F0A490B6C03F0C00343F002030B648C
:102F200080F31188BFF36F8F82F31188BFF36F8F27
:102F3000002010BCFFF7A2BF5C8A00200C8A002092
:102F400010B1012804D07047034B1B6C5B0701D103
:102F5000FFF794BF704700BF0C8A00202DE9F041B5
:102F60003849BFF35B8F0746012251E8003F41E833
:102F700000200028F9D1BFF35B8F33B932493348C1
:102F80004B60CB608A601AF0A7FE7B1E012B2BD80A
:102F9000012F07D14FF08043D3F81C3403F0030313
:102FA000012B21D033F063FA0546F8B9284B1B7882
:102FB000E3B14FF080430222C3F808230646DFF84E
:102FC00094804FF08044D4F81824D4F81834D203F5
:102FD00015D503F00303012B01D0012F0FD155B3F9
:102FE00086F31188BFF36F8FBDE8F081EFF3118690
:102FF000202383F31288BFF36F8F0125DFE7ADB184
:1030000030461AF0F2FFD4F81835002BDBD1D4F893
:103010000421002AD7D0C4F80431D4F804310123A4
:10302000C4F81835C8F88031A360CCE7002121200E
:1030300033F0A1FAE7E74FF080430222C3F80423FC
:10304000D2E700BF088A0020F8890020288A0020E3
:103050003BCF022000E100E008B5074833F02CF92F
:1030600038B10648FFF7D6FD0448FFF741F80020C5
:1030700008BD6FF01200FBE71C69030081300000FF
:103080000A2838B5074D044604D1AB680D215B68AA
:1030900028469847AB6803485B68E1B298472046EA
:1030A00038BD00BF1C690300EFF31182202383F3B6
:1030B0001288BFF36F8F0A4BD3F8001161B1002162
:1030C000D3F80805C3F80011D3F80031C0B282F379
:1030D0001188BFF36F8F70476FF00A00F7E700BFEA
:1030E00000D00040F0B5034610469C7893F803C02A
:1030F000EFF31182202585F31288BFF36F8F1F78BD
:1031000093F801E0E41B04EA0C04A04288BFA0B2DB
:103110003E180CEA06063D461E7082F31188BFF386
:103120006F8F0A188A4216D177450CD1EFF31182BE
:10313000202181F31288BFF36F8F1978597082F3C1
:103140001188BFF36F8F1B79241AA34222BF064B4D
:1031500001221A60F0BD5E190135767901F8016B24
:1031600005EA0C05DEE700BF00D00040DB432DE997
:10317000F04713F001050E46144604D02248FFF72D
:10318000B1FFBDE8F0879AB3EFF31188202383F3F2
:103190001288BFF36F8F0D20FFF71AFB07460D2033
:1031A000FFF702FB88F31188BFF36F8FDFF85CA095
:1031B000DFF85C80CAF80051DAF800314FF40059AA
:1031C0000123CAF800302546C8F88091DAF80031AA
:1031D00083B1FFF769FF031EC8F88091F6DB013D5C
:1031E000ADB27355002DF1D117B10D20FFF7CEFA16
:1031F0002046C6E7EFF31180202383F31288BFF344
:103200006F8F1AF0F2FEE1E7808A002000D00040C4
:1032100000E100E02DE9F041124F0D46144607F1A0
:10322000350814B92046BDE8F0814FF0FF334FF068
:10323000FF32384618F074FF224629464046FFF711
:1032400051FF0646384618F037FF3EB94FF0FF32BF
:103250004FF0FF33044818F063FFE6E7A41BA4B265
:103260003544DEE7608A0020708A002038B5184CAB
:1032700001221146204633F077F80122002104F1A3
:10328000100033F071F840F2074323874FF070636A
:1032900023620C2384F8243000250E4B84F835502B
:1032A000E586D3F8042522F00102C3F804250121A4
:1032B000C3F80051D3F80021C3F804132A4619605B
:1032C0000D20FFF793FA0D20FFF760FA284638BD6E
:1032D000608A002000D0004010B5FFF7E5FE00280E
:1032E00020DB174B93F8222093F8214093F823100A
:1032F000141B31EA0404C0B20DD193F8372093F8BF
:10330000364093F83810141B31EA04040BD10D4BEE
:1033100001225A600EE09C180132114084F8250009
:1033200083F8221010BD9C180132114084F83A0035
:1033300083F837100448BDE8104018F0BDBE00BF48
:10334000608A002000D00040708A0020F0B5164648
:103350004268107B01F01F0444EA4014106987B0F2
:10336000002872D0B6F5001F02F1100506D12146E3
:1033700028461BF03BFE002007B0F0BD01A8002747
:10338000B6F5800F0197476039D1B3F1007F14BFC4
:10339000052304238DF804300023CDE904030393AF
:1033A000936823FA01F111F001010DF103073ED1F9
:1033B000B6F1A07F3BD104F01F03620903F5E0736F
:1033C00028D0012A47D1254A52F82330DB072ED4D2
:1033D0003A462146284602F077F8214B98421CD005
:1033E000029703AA2146284601F030FF1D4B984260
:1033F0002ED101222146284602F0CAF8BBE7B3F1DC
:10340000C06F05D0B3F1007F14BF01230223C1E7D1
:103410000323BFE74FF0A042D6E73946284602F023
:10342000B1F8104B9842DBD06FF00B00A4E73A469E
:103430002146284602F048F80A4B9842D1D19DF81F
:103440000310284602F098F8CBE76FF0850093E769
:103450006FF0150090E751F82330FFDE00030050B5
:103460000400AD0B0000AD0B420970B5034602D05D
:10347000012A17D070BD0D4E326951680029F9D06C
:1034800003F01F0301250C689D400029F2D08A68D3
:103490002A4002D04B68304698472CB12368214619
:1034A0001C46F2E7024EE7E72346F8E7DC68030034
:1034B000BC68030038B545682B69B3B110352846A0
:1034C00002F050F8044680B90146284602F016F88A
:1034D000084B98420BD108492246284601F0EEFFDE
:1034E000224605210620FFF781F9002038BD6FF044
:1034F0000400FBE70000AD0B693400002DE9F04348
:10350000466840F20635D006337B87B002EA0505EF
:1035100054BFC2F34010032001F01F07B5F5837FAD
:10352000144647EA43178DF8030045D00DD8062D01
:1035300016D005D8A5B1022D40D06FF0150038E0A7
:10354000B5F5807FF9D101250AE040F202229542CB
:1035500036D0B5F5407F35D0B5F5007FEDD10225E9
:103560000123220303FA01F12ED57368C3F808156D
:10357000326992BB07F01F037F092BD0012F79D14D
:103580003F4A02EB830284F48033D2F80017C3F37E
:103590000043C4F3404444EA430421F4E16144EAB3
:1035A000800421F0070144EA05230B43C2F80037E9
:1035B000002007B0BDE8F0830725D1E70425CFE759
:1035C0000525CDE70325CBE7630344BF7368C3F844
:1035D0000C15CDE74FF0A042D3E710360DF10202F3
:1035E0003946304601F070FF14F4403F80460CD15C
:1035F000394630461BF0F8FC224B9845D8D19DF84F
:103600000210304601F0B8FFD2E701AB4FF00009DD
:1036100003AA39463046CDE90439CDE90199CDF800
:103620000C9001F013FE174B9842C1D114F40033F3
:1036300015D09DF803308DF80E3084F48034C4F337
:1036400000444B4603AA394630468DF80C508DF89D
:103650000D4001F0B5FE0B4B9842A9D1CCE7CDE966
:10366000043303AA0DF1030339463046039301F0F6
:10367000EDFDF0E703F5E07352F82330FFDE00BF05
:10368000000300500000AD0B02780B69012A08D03E
:10369000022A08D04AB9064A5A6203F1140018F007
:1036A0000BBD044AF8E7044AF6E7044AF4E700BF12
:1036B0000000AD0B0100AE0B0200AE0B0100AD0B24
:1036C0002DE9F04FD0F81090D0F8048085B0054671
:1036D0000C461746029309F1040A4FF0FF324FF0EF
:1036E000FF33504618F01CFD09F1140B0023002293
:1036F000584618F015FD404603F0A6F87B1E00263C
:103700000393B74201D8002322E0039B217AB342FE
:1037100083BF237D83F00403C3F38003002301935D
:10372000029B0093D4E90023284600F04DF803469D
:1037300070B94FF480420023584618F0F1FC98B15C
:10374000404603F091F8284600F02CF86FF004038F
:103750004046029303F088F8504618F0ADFC029BF7
:10376000184605B0BDE8F08FD9F82430034A9342DB
:1037700004F10C04EAD10136C3E700BF0000AD0B31
:1037800008B503464068826900F1080103F018F8A3
:10379000034B984214BF6FF00F00002008BD00BF1C
:1037A0000000AD0B08B543681B68D3F80805D3F8D3
:1037B0000C1503F05FF9034B984214BF6FF00F0034
:1037C000002008BD0000AD0B2DE9F04186B00C468D
:1037D00047689DF834801546002112220DF106003D
:1037E0001E4632F092FFBDF830208DF8052004F01F
:1037F000010314F008028DF804300296049519D1E3
:10380000A10704D4B8F1000F12D19BB9202201A95D
:10381000384603F045F80A4B98420ED00B339842D5
:103820000CBF6FF00F006FF0040006B0BDE8F08130
:103830004022ECE76FF08500F7E70020F5E700BFD6
:103840000000AD0BF7B5446805690646E06832F044
:1038500033FD002848D02846254940F8046B32F053
:10386000CEFD606900282ED0217E638BD0F810C079
:10387000D0F808E0DCF80060DA0754BF43F4D01356
:1038800083F4B013012723F480128F40DB074CBF71
:103890003E43BE43CCF80060DEF800309847002875
:1038A00020DB0021A42032F066FE237E6069012126
:1038B000994003691B68194283680CBF1B69DB6868
:1038C000984700280EDB18350A490022284632F0B6
:1038D000E0FE4FF4A47200232846CDE9002319F03E
:1038E00035FC002003B0F0BD6FF01200FAE700BF16
:1038F000FBE50100BDE501002DE9F74F4568EC68E7
:1039000018348046002701944FF0010B6B68BB42CE
:1039100004DC2B7D002B69D1002048E00C23D5F876
:1039200008A003FB07F60AEB06095AF8060032F076
:10393000C3FC00286DD0B9F806305AF8060099F893
:10394000041043F48032D0F810C0D0F8089013F07F
:10395000010FDCF800300BFA01FE14BF4EEA03033E
:1039600023EA0E03CCF80030D9F800309847F0B9BC
:1039700044F8188C2969204632F06DFD2B7D13B177
:1039800001374834C2E7D5F80890234A09EB060A04
:10399000A4F114019AF804300BFA03F344E9042368
:1039A00059F806008368DB6923B96FF0570003B04C
:1039B000BDE8F08F012298470028F8DB9AF8041040
:1039C00059F806001AF086FE04F8080C59F80600AB
:1039D0009AF8041083689E69002EE6D04FF0C06309
:1039E0004FF0A072B0470028CADAE0E72D684FF424
:1039F000004440F2E73000214FF47A720023E5FBE7
:103A00000401FCF7CDFB02460B46019818F074FD4B
:103A100082E76FF01200CAE7FDE601007FB50346BA
:103A2000044653F8185D6968CA689B1A114ADB108E
:103A300053438A68D618D05831791AF04BFE031ECA
:103A400015DB14F9082C9A4211D004F8083C4FF009
:103A5000FF304FF0FF313289003BCDE902014FF0DA
:103A60000101009118BF01232846FFF73FF904B078
:103A700070BD00BFACAAAAAA036803F01F025B09CD
:103A8000026004D0012B034818BF002070474FF09C
:103A9000A0407047000300502DE9F04FDFF89491EB
:103AA000DFF894A185B01546834600EB810140F212
:103AB000FF18594503D1002005B0BDE8F08FDBF8B1
:103AC00000305E04C3F3C322C3F3080400F1AC80EA
:103AD0001B0E19F80270444508BF4FF0FF34222B2B
:103AE00000F2A580DFE803F012191F22252B22A384
:103AF000A3A3A33B68A3A3A3A3A3A3A3A3A36B8193
:103B00008487A3A3A38A9194979A9D00C5F80C4536
:103B1000601C5ED10BF1040BCBE7C5F81445621CA9
:103B2000F8D000265FE0C5F80845F1E7C5F8104574
:103B3000F5E7631CC5F80845ECD0002604E0661CD8
:103B4000C5F80C45E6D0012603A80394FFF794FFBF
:103B5000039B012202FA03F3C0F80C3508E0C5F814
:103B60000845002FDBD1631CD4D00026324606273F
:103B7000DBF80030019303F40040002818BF002256
:103B800003A8009218BF01260394FFF775FF039C5A
:103B9000019B009A00EB8400C3F3412CD0F800474E
:103BA0003B0243EA8C03134304EA0A04234343EA37
:103BB0004603C0F80037ADE7C5F80C45D1E7C5F8B6
:103BC0006045601CDBF80030A4D0C3F30043002B39
:103BD000B9D003A80394FFF74FFF039B012606FA11
:103BE00003F3C0F808353246C2E7C5F86445E8E794
:103BF000C5F86845E5E7C5F86C45E2E7C5F8244532
:103C0000621C87D000220126B2E7C5F828457FE76D
:103C1000C5F83045F4E7C5F83445F1E7C5F838454F
:103C2000EEE7C5F83C4573E76FF0150044E76FF029
:103C3000850041E747320B00F0F8FCFF036803F012
:103C40001F025B09026004D0012B034818BF00204B
:103C500070474FF0A04070470003005073B5044612
:103C6000002201211C20FEF7C1FD60682369244A5F
:103C700000F1080101F066FE224B98423CD16568D4
:103C8000AE6B01AA002130461AF07DFD002805DB4D
:103C9000019B326819791868FFF7FEFE002631464D
:103CA0002B6801F5AC7253F82230002B0EDB01A813
:103CB0000193FFF7C3FF019AD0F80435D34013F006
:103CC00001031CBF01238B403343DEB201310429C1
:103CD000E6D1002301206268916A00FA03F23242C1
:103CE0000CBF01220022D20321F813200133042B40
:103CF000F1D1002002B070BD6FF00F00FAE700BFF5
:103D0000ADE701000000AD0B2DE9F0410446476826
:103D10000D4632F0ACFB4FF0200888B9264B1B78DB
:103D200073B1642660681AF0FAFDF0B901201BF047
:103D3000BEF8013EF6D10021212032F01CFCF0E754
:103D4000EFF31186314688F31288BFF36F8F6068F6
:103D50001AF0E5FDA8B986F31188BFF36F8FEFE77E
:103D600086F31188BFF36F8FE5E7EFF311863146D5
:103D700088F31288BFF36F8F60681AF0D0FD0028B7
:103D8000EED0BB691D706368BA691B680020C3F878
:103D900044250122C3F84825C3F82001D3F8204167
:103DA000C3F85801D3F858019A6081F31188BFF322
:103DB0006F8FBDE8F08100BF3BCF0220F7B505460D
:103DC000002201210220FEF711FD0220FEF7DEFC99
:103DD0006A6811681369C1F82435137D507D927D9E
:103DE00003431343C1F86C356E68D6E9004313F002
:103DF000010348D02F6907F108001BF064F8304B2D
:103E000098425AD1387A04F10C0204F590711BF0F3
:103E100050F8387A012707FA00F000F0E3FF082392
:103E2000C4F80035B369C4F844350023C4F84835F4
:103E3000A760D4F85831002BFBD00021C4F800153E
:103E40006B68DC6801AA20461AF09DFC002805DB9F
:103E5000019B226819791868FFF71EFE6A681368CB
:103E60000821C3F80015117A51B9D269C3F8342575
:103E70000122C3F83825C3F81011D3F810111A60C5
:103E8000002003B0F0BD0822C4F80025B269C4F8D0
:103E90004425C4F848350123A360D4F82031002B11
:103EA000FBD00023C4F82031D4F820310123E36093
:103EB0004FF48073C4F80433BBE76FF00400E0E70D
:103EC0000000AD0B7FB50546406829698A6C0B6D13
:103ED0000ABBABB14C6C8B6516461A46C96C029195
:103EE000CDE9004611B3002B18BF134600226946E6
:103EF000039301F021FF0E4B98420AD06FF00403A8
:103F00002C69236304F1200018F0D6F8002384F80C
:103F10005C3004B070BD4C6C13B19A4228BF1A4695
:103F2000002C8A6514BF16460026D7E70B46DDE74E
:103F30000000AD0B2DE9F04F89B004690093436890
:103F400001938B88074698040E4691462AD44FF079
:103F5000FF324FF0FF3304F1100018F0E1F8666013
:103F6000D7F81080D7F804A098F85D3023B1D8F8BE
:103F700000309E4200F0B280B6F804C01CF4006F1E
:103F800017D06FF08505236813B19B889B0405D477
:103F90000023636004F1100018F08EF8284609B081
:103FA000BDE8F08FA369002BD1D163689942CED1CF
:103FB000D6E71CF0090F02D06FF01505E3E7CCF34C
:103FC0004513082BF8D13568A34B9D42F4D90AF16B
:103FD000080BBBE80F000DF10C0EAEE80F00DBF88C
:103FE0000030CEF800309D4B9D4250D99C4B9D42F5
:103FF00050D99C4B9D4250D99B4B9D4250D99B4BD5
:104000009D4250D99A4B9D422CBF4FF000454FF036
:1040100080451CF0020F05950CF0040346D0002BE0
:1040200014BF032302238DF81830CCF300138DF84E
:104030001930DAF80030D3F80835591C12D01CF0CA
:10404000020F03F01F00CCF340014FEA53134FF06F
:10405000010232D173B3934240F0F680854B824027
:10406000C3F80C2598F85D302BB1504601F02CFEBA
:10407000002388F85D3043467F4A03A9504601F08B
:10408000EFFD7E4B984224D06FF004057BE74FF0A4
:104090000075BEE74FF08065BBE74FF00065B8E7FD
:1040A0004FF08055B5E74FF00055B2E7003B18BF21
:1040B0000123B8E74FF0A043D1E73BB1012B40F01B
:1040C000C6806C4B8240C3F80825CBE74FF0A04375
:1040D000F8E7012388F85D30C8F80060012384F810
:1040E0005C30019B596A4A1C03D003F128001AF086
:1040F0004EFDB9F1000F40F08780C4F834900023E2
:10410000A36304F1480204F1380104F134001AF009
:104110003CFC009B6064002B7FD1E363002323649D
:1041200004F1500204F1400104F13C001AF02DFCAE
:10413000E06420680023236348B183683BB1012118
:1041400008301AF035FC2368186932F0B0F83846A8
:10415000FFF7B8FE0023A06B1A46824266D1002208
:10416000256C1146A94268D19342264638BF1346B2
:104170004FF4FA5202FB03F556F8203B4FF00008CB
:104180001B68B5FBF3F54FF4004CC835414640F2CF
:10419000E7304FF47A720023E5FB0C01FCF700F8DE
:1041A00002460B46304617F0BBFF18B9256B15F1D8
:1041B000740F13D10198C4F8588001F085FD84F87C
:1041C0005D803F696FF073053D6307F1200017F0D4
:1041D00073FF87F85C80304617F0C8FF2368002B18
:1041E0003FF4D1AE9A68002A3FF4CDAE998811F41D
:1041F00080567FF4C8AE186932F059F8206831460D
:1042000008301AF0D5FBBEE6D9F800306363002B06
:104210003FF475AFD9F8043072E7009B1B68E36385
:10422000002B3FF47BAF009B5B6878E7616B01EB91
:10423000C201013249680B448FE7E06B00EBC1001B
:104240000131406802448DE7C1F80C15FFDE002300
:10425000C3F80835FAE700BF47E801008FD0030034
:104260001FA107003F420F007F841E00FF083D0092
:1042700000127A0000030050F3EA01000000AD0BC9
:1042800000F01F0240090DD001280ED10A4B03EBAC
:1042900082030A4AD3F80007024042EA8102C3F8C7
:1042A000002770474FF0A043F1E702F5E0720023CA
:1042B00053F82230FFDE00BF00030050F0F8FCFF8F
:1042C000F0B587B001238DF8023002238DF8043059
:1042D0006B4403930F4601AB0DF1030100240493DB
:1042E00005460291059401F04DF90C4B98420646A3
:1042F0000FD103AA3946284600F0A8FFB0420BD0E0
:104300009DF80310284601F037F96FF0040007B05C
:10431000F0BD6FF01200FAE72046F8E70000AD0BA1
:104320002DE9FF410569D0F804802B6D0646A86C85
:10433000002835D1002B53D0B8F838406A6CEF6CA8
:104340009C4228BF1C46EB6C53B1296D41B107F06C
:104350006041B1F1005F03D0082C6F6E28BF0824C4
:1043600000926A6CAC651AB1AA6C002A18BF22468A
:10437000CDE901271BB12B6D002B18BF234600226E
:1043800069464046039301F0C9FF184B984229D073
:104390006FF00401304604B0BDE8F0411AF00CBDE6
:1043A000696CEF6CB8F838400A46ABB1834228BF5D
:1043B00003469C4228BF1C460029C4D001F060433C
:1043C000B3F1005FBFD0082C28BF08242246286E16
:1043D00032F073F92A6EB6E7844228BF0446EBE751
:1043E0001946D7E704B0BDE8F08100BF0000AD0B6F
:1043F0002DE9F04F8FB004690193436802938B88D5
:1044000007469804884691462ED44FF0FF324FF06D
:10441000FF3304F1100017F083FEC4F80480D7F8CE
:1044200004B0D7F810A0DBF8083003939AF85D3099
:1044300023B1DAF80030984500F0B580B8F804E010
:104440001EF4006F17D06FF08505236813B19B88A9
:104450009B0405D40023636004F1100017F02CFEC8
:1044600028460FB0BDE8F08FA369002BCDD163685B
:104470009942CAD1D3E71EF0090F02D06FF015059B
:10448000E3E7CEF34513082BF8D1D8F800C0984BDA
:104490009C45F3D90BF10C060FCE04AD0FC50FCE22
:1044A0000FC5039B634528BF63469C4696E80300FF
:1044B000904B9C4585E8030017D28F4B9C4514D246
:1044C0008E4B9C4511D28E4B9C454CD88D4B9C45B8
:1044D0004BD88D4B9C454AD88C4B9C4549D88C4930
:1044E0008C4B8D4A8C4588BF13461EF0020F0993F2
:1044F0000EF004033FD0002B14BF032302238DF8DA
:104500002830CEF300138DF82930DBF80030D3F8D3
:104510000835591C12D01EF0020F03F01F00CEF315
:1045200040014FEA53134FF001022BD13BB39342AA
:1045300040F0D680794B8240C3F80C259AF85D3064
:104540002BB1584601F09CFE00238AF85D303B46B3
:10455000734A04A9584601F05FFE724B98421DD081
:104560006FF0040571E7704BBFE7704BBDE7704B10
:10457000BBE7704BB9E7003B18BF0123BFE74FF023
:10458000A043D8E73BB1012B40F0AD80634B8240A4
:10459000C3F80825D2E74FF0A043F8E701238AF8D3
:1045A0005D30CAF80080012384F85C30029B196CEE
:1045B0004A1C03D003F144001AF0E9FAB9F1000FE4
:1045C00068D1C4F834900023A36304F1480204F1D5
:1045D000380104F134001AF007FB019B6064002BE2
:1045E00060D1E3630023236404F1500204F140012D
:1045F00004F13C001AF0F8FA00252A46E064012193
:10460000204625631AF038FB3846FFF789FEA06B79
:104610002A462B4683424DD10023256C1946A942D8
:104620004FD19A42264638BF1A464FF4FA5303FB3D
:1046300002F556F8203B4FF000081B68B5FBF3F578
:104640004FF4004CC835414640F2E7304FF47A72DF
:104650000023E5FB0C01FBF7A3FD02460B463046A9
:1046600017F05EFD024618B9256B15F1740F2FD1B6
:104670000298C4F8588001F003FE84F85D806FF062
:10468000730138461AF098FB304617F06FFD6FF053
:104690007305DAE6D9F800306363002B93D0D9F8BC
:1046A000043091E7019B1B68E363002B9AD0019BC8
:1046B0005B6898E7616B01EBC301013349680A4409
:1046C000A8E7E06B00EBC100013140680344A6E7B6
:1046D000002D3FF4BAAE014638691AF0CDFAB4E6BF
:1046E000C1F80C15FFDE0023C3F80835FAE700BF58
:1046F00047E801000048E8010024F40000127A00B5
:10470000FF083D007F841E003F420F001FA10700ED
:104710008FD0030048E8010090D003000003005050
:10472000DBED01000000AD0B00093D0080841E00A0
:1047300040420F0020A1070070B5012383400E4ABC
:10474000BFF35B8FDC4352E8001F01EA040542E837
:104750000056002EF7D1BFF35B8F4FF480328240BA
:104760000648C0F80823BFF35F8FBFF36F8F0B427B
:1047700014BF0120002070BDD48A00200010014029
:1047800070B40E49D1E90034D01AC31844F10004C2
:1047900022F07F46C1E90034A6F50013B3F5400FBF
:1047A00009D2074B1B681A0A1B069C19054B42F1DC
:1047B0000005C3E9004570BC18F0C8BBA004002088
:1047C000D88A0020A804002011B3BFF35B8F012317
:1047D000104A834052E800CF4CEA030C42E800C183
:1047E0000029F7D1BFF35B8F0B4A4FF4803383402E
:1047F000C2F80433094BBFF35B8F1B68BFF35B8FB9
:10480000C340DB0742BF064B4FF40032C3F8002120
:10481000704700BFD48A002000100140D08A0020D9
:1048200000E100E00D4B1868010A0006BFF35F8F3E
:104830000B4BD3F80435181841F10001B3F5801F74
:104840000AD2084BD3E90023904271EB030303D251
:1048500010F1807041F10001704700BFD88A00203C
:1048600000100140A80400202DE9F04F85B0164645
:104870001F469DF840A00446FFF75EFF0190FFF73A
:10488000D1FFB04271EB070354D23E4B301A67EBB5
:104890000101984271F100014FD23B4B03EB04132D
:1048A000D3E902239F4208BF96425ED037494FF4B6
:1048B000803804F1500508FA04F8AD00C1F84883C7
:1048C0002046ADB21AF0E2FA26F07F4B05F18045A2
:1048D00004F5A87305F58835DC464FF0030902930B
:1048E000029A2CF07F4341F82230C1F84483D1F87A
:1048F0000435274A6FF00200C01A604420F07F4060
:10490000904232D9286868B1D1F804350393A3EBFB
:104910000B0020F07F40B0F5000F26D920461AF09A
:10492000B5FA039BBAF1000F07D109EB030C09F1AB
:104930000109D5E7BAF1000F09D06FF0150520463F
:104940000199FFF741FF284605B0BDE8F08F01232C
:10495000104ABFF35B8FA34052E8000F184342E8B0
:1049600000010029F8D1BFF35B8F07490E9823019E
:1049700001EB0412C8500F9B5360C2E90267002587
:10498000DDE700BF0100800090040020001001401E
:10499000FDFF7F00D08A00207FB51C4C1C4BC4F863
:1049A0000833C4F848331B4B00254FF0FF304FF05D
:1049B000FF31C4F80855C3E902014FF48033C4F84D
:1049C0000433154B02264FF400320121C4F804636E
:1049D0001120C3F880212A46FDF708FF1120FDF7BA
:1049E000D5FE0E4A0123A360236013600C4B0D4AD1
:1049F0000093CDE9015500232846FFF735FF3046E7
:104A0000FEF7ACFA284604B070BD00BF00100140AC
:104A100003000F009004002000E100E0D48A002091
:104A200081470000FFFF7F002DE9F7432F4CD4F8AA
:104A3000043399070BD5D4F8043143B12C4A002331
:104A4000C4F80431D4F80431136801331360D4F886
:104A50000433DA0329D5BFF35B8F264B53E8002FCD
:104A600022F0010143E800100028F7D1BFF35B8F6B
:104A7000D30702D4D4F84031BBB10025C4F840516B
:104A8000D4F84031FFF7CEFEEFF31182202383F3F9
:104A90001288BFF36F8F184BD3E90267B042B94158
:104AA00006D282F31188BFF36F8F03B0BDE8F083A5
:104AB0004FF0FF384FF0FF39C3E90289D3E9001006
:104AC0001D604FF48033C4F84833C4F84051D4F823
:104AD000403182F31188BFF36F8F0029E5D0009039
:104AE00032463B4628468847DFE700BF00100140BA
:104AF000D88A0020D08A00209004002030B5431CC2
:104B0000124C85B005D08442A8BF0446012CB8BF22
:104B10000124FFF787FE0E4B0C4DD3E90013401A1A
:104B2000B0F5000F10D22218AA4228BF2A46521808
:104B30004FF0000007490091CDE9010043F1000367
:104B4000FFF792FE05B030BD2A46F0E7FFFF7F0079
:104B5000A00400208147000008B5FFF763FE024B68
:104B60001B68C01A08BD00BFA00400204FF080538E
:104B7000D3F83021082A06D1D3F83431052B02D8D6
:104B8000024AD05C70470020704700BF8A320B0099
:104B9000024AD2F80034002BFBD0704700E00140FD
:104BA00010B54FF08053D3F83021082A4ED14FF082
:104BB00080420021C2F80C11C2F81011C2F8381559
:104BC00002F54042D3F80414C2F82015D3F80814B3
:104BD000C2F82415D3F80C14C2F82815D3F8101411
:104BE000C2F82C15D3F81414C2F83015D3F81814E1
:104BF000C2F83415D3F81C14C2F84015D3F82014A9
:104C0000C2F84415D3F82414C2F84815D3F8281470
:104C1000C2F84C15D3F82C14C2F85015D3F8301440
:104C2000C2F85415D3F83414C2F86015D3F8381408
:104C3000C2F86415D3F83C14C2F86815D3F84014D0
:104C4000C2F86C15D3F84434C2F87035FFF78EFF04
:104C500018B13A4B3A4AC3F88C26FFF787FF18B1D0
:104C6000384BFB22C3F81825FFF780FF70B14FF0D7
:104C700080414FF08053D1F8E42ED3F8583222F01F
:104C80000F0203F00F031343C1F8E43EFFF76EFF7A
:104C900020B12D4B4FF40072C3F840264FF08053E3
:104CA000D3F83031082B1AD14FF08043D3F80024C9
:104CB000D20744BF6FF00102C3F800244FF08053C5
:104CC000D3F83431052B02D8204AD35C3BB14FF0E6
:104CD0001023D3F808224FF08043C3F858254FF033
:104CE0001023D3F80022002A03DBD3F80432002B70
:104CF00022DA174901234FF01020C1F8043512249D
:104D0000FFF746FFC0F80042FFF742FFC0F8044239
:104D1000FFF73EFF0023C1F80435FFF739FFBFF36B
:104D20004F8F0C490C4BCA6802F4E0621343CB600E
:104D3000BFF34F8F00BFFDE710BD00BF0050004024
:104D40004881030000F000400090024084320B00D4
:104D500000E0014000ED00E00400FA0530B5046811
:104D6000CCB1BFF35B8FB4FA84F3C3F11F03DBB2A2
:104D700001229A4024EA020250E8005FA54204D1D1
:104D800040E8002CBCF1000FF6D1BFF35B8FE6D1F9
:104D900002480B7030BD0248FCE700BF0000AD0BBD
:104DA0000200AD0B10B50368CB40DB0714D4012320
:104DB0008B400268BFF35B8F43EA020150E8004F6B
:104DC000944204D140E8001CBCF1000FF6D1BFF3BF
:104DD0005B8FEED1014810BD0148FCE70000AD0B30
:104DE0000400AD0B014BC3F80405704700F001400F
:104DF000F7B50546F8B101281BD104224FF48073A2
:104E000001464FF0804003440244C0F808130026D6
:104E1000012111601E608D421B688DF8071008BFCC
:104E20000DF1070642F210744FF0804745B1012D95
:104E300028D003B0F0BD0C224FF482730221E0E7CA
:104E4000D7F8183403F480333EB9002BF1D0012099
:104E50001AF02DF8013CF3D1EBE7D7F8182402F053
:104E600003023260002BE4D09DF80700012803D133
:104E70001AF01DF8013CD9D1012DDAD10C4B0022DA
:104E80005A71D6E7D7F80C3403F480333EB9002BBF
:104E9000F4D001201AF00BF8013CF3D1EEE7D7F87B
:104EA0000C2402F001023270002BDDD1E6E700BFD6
:104EB000DC8A0020044B1A7922B9012218609A80FA
:104EC0000248704702487047DC8A00200000AD0BA2
:104ED0000C00AD0B08B5074B1B682BB10020FDF78C
:104EE00077FC08B9FDF752FC4FF080430022C3F86D
:104EF000182508BDDC8A002010B510B1012843D068
:104F000010BD4FF08043D3F81814D3F81824C80309
:104F100021D502F00303012B04D013B10020FFF7C9
:104F200067FF00234FF080420220C2F818350822A4
:104F30004FF4827303F180430021196002F1804233
:104F40001C6801241460154A12680AB34FF08043AC
:104F5000C3F80403D4E7D3F81424D107E1D5D3F878
:104F60001C249207DAD40D4A12681AB10222C3F83F
:104F70000423C5E7D3F80421002AFBD00022C3F89C
:104F80000421D3F80431BBE700224FF48073D1E74A
:104F90001A68002AFCD019601B68B1E7DC8A00207F
:104FA000F8B54FF080431C4ED3F804430125002789
:104FB00004B9F8BDB4FA84F0C0F11F00830003F512
:104FC00080739BB203F1804305FA00F2196892B234
:104FD00024EA02040029EBD01F601B684FF08043D5
:104FE000012AC3F8082305D0022A08D03368C0B2CA
:104FF0009847DDE77379002BDAD17271F6E7D3F8C1
:105000001814D3F818148907F0D1C3F81855C3F849
:1050100004239D60CCE700BFDC8A0020036803F016
:105020001F025B09026004D0012B034818BF002057
:1050300070474FF0A040704700030050034A4309F7
:1050400000F01F00D35C1844C0B2704790320B00D0
:1050500070B50546FFF7F2FF0C4C08300E4634F8E9
:105060001030DA0508D5C3F3432304EBC302284606
:1050700054F8333052689847A3682BB1E268314640
:105080002846BDE87040184770BD00BF10010020E1
:1050900008B5FFF7D3FF034B083033F81000400B7F
:1050A00008BD00BF1001002008B5FFF7C7FF034B84
:1050B000083033F81000C0F3400008BD1001002094
:1050C00008B5FFF7BBFF034B083033F81000C0F3FF
:1050D000401008BD10010020034611F0010010B57A
:1050E000CCB20DD1A207C4F3400012D5094AD2F8C0
:1050F00020055860C2F82005003818BF012008E0DC
:105100004FF0A041D1F820251A60C1F82025002ACF
:10511000E8D010BD0003005010B5FFF78FFF124A12
:10512000083032F81030D9051CD5C3F3432123F4DD
:10513000F85322F8103002F10E04002034F8023F38
:1051400013F4807F03D0C3F3432399420AD0013084
:105150003028F3D1002342F831300448BDE8104034
:10516000FFF720BE10BD00BF100100208801002005
:10517000F0B5054600200446012607468C420BD1B7
:10518000114BD3F87C2132B10022C3F87C21D3F833
:105190007C3140F00040F0BDE3B29B0003F580722B
:1051A0009B0806FA03F31D420BD002F1804202F580
:1051B000C042D2F800C0BCF1000F02D017601268E4
:1051C00018430134DAE700BF00600040F7B5064637
:1051D0000846FFF733FF194F00F108050C4637F872
:1051E0001530DB0727D5304619F0DAFE2046FFF7E9
:1051F00067FF40B12046FFF74BFF316800F5A27012
:10520000002341F820302046FFF786FF002301A845
:1052100027F815300194FFF701FF019B00EB830095
:10522000074BD0F80027134043F00203C0F80037C3
:10523000044803B0F0BD0448FBE700BF10010020A4
:10524000F0F8FCFF0000AD0B0400AD0B2DE9FF41B1
:10525000164680460846FFF7F1FE0D4631680446C3
:1052600009B32846FFF720FF18B12846FFF728FFAB
:1052700010BB0023CDE900338DF80E308DF80F30D0
:105280000DF10F020B4628460DF10E0119F01FFE1D
:10529000474A04F1080132F8113023F0020343F0C9
:1052A000010322F81130736863B328461F785968E8
:1052B000FFF7FAFE10B1D1B13E4826E03C4A04F1B6
:1052C000080032F8103023F02003DB04DB0C22F856
:1052D000103061B1032FEFD87168496891F800C0B0
:1052E000D8F80010A7B90CF5A27C41F82C70304A10
:1052F00004F1080132F8113023F01C0343EA87035C
:1053000022F81130B3684BBB2B4804B0BDE8F081E4
:1053100001EB8C0143EA4C33D1F810E52EF0030E7B
:10532000C1F810E5D8F8001001EB8C0E43F0200313
:10533000DEF8101522F8103021F44F3121F44071BD
:10534000CEF810152902DEF8108501F47C5141EAEF
:10535000074141EA0801CEF81015C8E7D3E9006714
:105360002846FFF7D9FE002ECED0114DD5E90023F7
:10537000964203D19F4201D1002209E00F480DF16E
:105380000F01FFF7EBFC0C4B9842BED19DF80F20AC
:1053900045F8326005EBC20308345F6035F814301D
:1053A00043EA422343F4807325F81430ACE700BF8E
:1053B000100100200400AD0B0000AD0B880100209F
:1053C0002DE9F0430C4685B08046204611461E4626
:1053D000FFF734FE054629B32046FFF765FE18B9EE
:1053E0002046FFF76DFE18BB314F05F1080937F86D
:1053F000193013F01C0F02D04B78012B18D0012369
:105400008DF80F300023CDE900134A1C8B1C204679
:105410000DF10F0119F05BFD37F8193043F003036C
:1054200027F81930002E41D02046FFF73DFE18B96D
:10543000204805B0BDE8F08396F800C0D8F80030E9
:105440001B4F0CF5A272002143F8221005F108024F
:1054500037F8121021F02001C904C90C27F81210E6
:1054600075781DB3D8F80000B67800EB8C002D04D9
:10547000D0F8103523F4991323F4F853C0F81035FD
:10548000230203F47C5305F440353605D0F810E5CB
:105490002B4306F4801641EA4C31334341F020019E
:1054A00043EA0E0327F81210C0F810350248C0E78F
:1054B000100100200400AD0B0000AD0B014BC3E94F
:1054C000021270471001002010B508461446FFF77D
:1054D000F7FD50B10846FFF7B1FD054B083033F832
:1054E000103004485B0B237010BD0348FCE700BF7D
:1054F000100100200000AD0B0400AD0B70B5164D7F
:1055000095F8804006462CBB2146602205F110002C
:1055100031F0FBF830682E6F21468E420ED1002309
:10552000C0F87C31D0F87C3140F30730FDF72EF91C
:1055300001230A4885F88030AB6770BDCBB29B0071
:1055400003F580727C2B08BF845001F1010108BF74
:105550008358E2E70248F0E7100100200000AD0B9D
:105560000C00AD0B034B93F88000003818BF0120EE
:10557000704700BF100100200148FFF713BC00BFB7
:10558000840100200148FFF7E9BB00BF840100202F
:1055900073B503681646D3F80423002AA8BF4FF05A
:1055A00000420546A8BFC3F8042308460C46FFF78F
:1055B00087FD00B30846FFF777FD0146D8B92046BE
:1055C000FFF766FD04B2A40004F580720346286864
:1055D0008150296882582144D1F8102542F00102F7
:1055E000C1F810252EB12968012202FA03F3C1F88F
:1055F000043302B070BD2046FFF720FD0F4B08308A
:1056000033F81030C3F38203042B12D0052B12D0D1
:1056100001A80194FFF702FD019AD0F81035D3409C
:1056200003F00103991C204602B0BDE8704019F058
:1056300097BC0321F7E70221F5E700BF1001002026
:105640002DE9F04F694BDFF8A891D3F80403D9F89E
:105650007010C0B289B040F00040FFF789FD051E10
:105660002EDACA4600235AF87C1F06A8CDE9063375
:10567000FFF732FD5F4B01930DF118084FF0000B5F
:10568000019A12F8013B0192DA0803F007031AF8B5
:10569000022022FA03F3DA071BD408F10408BBF155
:1056A000000F13D000214FF00040FFF761FDD9F843
:1056B0007C1006A8FFF710FD0028DBD125F000457F
:1056C0000124002D79D109B0BDE8F08F4FF0010B16
:1056D000D6E7494B5B440293D8F800100029DCD090
:1056E000029B91FAA1F11C78B1FA81F141EA4414CC
:1056F0002046FFF7A3FC0830059439F81070C8085D
:10570000BB0818F80020039301F00701012303FAF6
:1057100001F122EA010208F8002005A8FFF77EFC4B
:10572000059A039B02F5E072C7F3820650F8222027
:105730005B073746C2F3014224D520463946D6B22C
:10574000FFF786FC05A80594FFF768FC059B03F5A9
:10575000E07350F82330C3F301439E4207D1002188
:10576000204619F0FDFB3146204619F0F9FB05A84B
:105770000594FFF753FC059B012202FA03F3C0F8DE
:105780002035A9E7022A0CD10321204619F0E8FBB5
:1057900006F00503012BEAD139462046FFF758FCF5
:1057A000E5E702212046039219F0DAFB032EF3D03D
:1057B000039A032ADBD1022EEDE795FAA5F3B3FA9B
:1057C00083F304FA03F29B0003F1804303F5C04323
:1057D00025EA0205D3F81005D3F81015C0F305200B
:1057E000C1F30141FFF734FC6BE700BF00600040EC
:1057F00010010020A0320B00A0320B00014601482E
:10580000FFF7ACBA94010020036803F01F025B09A4
:10581000026004D0012B034818BF002070474FF0EE
:10582000A04070470003005070B505790A4C14235E
:105830006B43E618E35833B90068022119F010FCF5
:1058400008B101233372142303FB0544207A023884
:1058500018BF012070BD00BFE48A00202DE9F34786
:105860000B7F04466BBBDFF8D8900D1F01F11006CB
:1058700001F10C08012755F804AFBAF1FF3F1CD025
:105880003378CDF804A001A8002B50D0FFF7BCFF5F
:10589000019B07FA03F3C0F8083501A8CDF804A06E
:1058A000FFF7B2FF019B00EB8300D0F8003703EA5B
:1058B000090343F00303C0F80037A84506F10106C9
:1058C000D9D191F81DC00D8B4F7D8E7D8A7EC87E0B
:1058D0002368BCF1000F0BD1D1E9008ED1E902C1E0
:1058E000C3F86085C3F864E5C3F868C5C3F86C15F0
:1058F00042EA0022C3F80C75C3F80465C3F80855E2
:10590000C3F8102520680023C0F81031D0F810210A
:10591000C0F80831D0F80821C0F80C31D0F80C31AB
:1059200040F3073002B0BDE8F047FCF72FBFFFF7A8
:105930006BFF019B07FA03F3C0F80C35ADE700BF1E
:10594000F0F8FCFF2DE9F04190F804800D4C14268E
:1059500006FB08F6A71997F808C0BCF1000F0ED196
:10596000A2517B6019B10B7F3B74FFF777FF1423C3
:1059700003FB0844044801232372BDE8F081034877
:10598000FBE700BFE48A00200000AD0B0C00AD0B6C
:1059900070B40C460179266815461A461A4B01EB7D
:1059A000810103EB81010368C3F82065A688C3F871
:1059B0002465A668C3F82865E668C3F82C65036803
:1059C0002668C3F84065A688C3F84465A668C3F88E
:1059D0004865E468C3F84C45046805F0010303EB2F
:1059E0005505C4F81455D4070CD412F0020403D0A2
:1059F000002B14BF082404240568C5F8004270BCBD
:105A000019F0F9BA1024F7E7E48A002038B50368E2
:105A100005790022C3F800220368012204465A6077
:105A200071B12046FFF700FF0028FAD0236800225A
:105A3000C3F80025054B142202FB053301221A721C
:105A40002046BDE83840FFF7EFBE00BFE48A0020E3
:105A500010B5B2211A4819F003FBC106044608D557
:105A6000184BDA68520704D51A6812B15968012038
:105A70009047A00608D5134BDA68110704D51A68B9
:105A800012B1596802209047220608D50D4BD868FC
:105A900010F0100003D11A680AB159689047A307A3
:105AA0000DD5074B0022C3F80025064B01221A72C0
:105AB0001A6822B1BDE8104059680320104710BD94
:105AC00000C00140E48A0020036803F01F025B0964
:105AD000026004D0012B034818BF002070474FF02C
