:1000000000ED0220152C000009E50100012C000084
:10001000012C0000012C0000012C00000000000059
:10002000000000000000000000000000D92C0000CB
:10003000012C000000000000792C0000012C0000C1
:10004000A52E0000A52E0000A52E0000A52E000064
:10005000A52E0000A52E0000A52E0000A52E000054
:10006000A52E0000A52E0000A52E0000A52E000044
:10007000A52E0000A52E0000A52E0000A52E000034
:10008000A52E0000A52E0000A52E0000A52E000024
:10009000A52E0000A52E0000A52E0000A52E000014
:1000A000A52E0000A52E0000A52E0000A52E000004
:1000B000A52E0000A52E0000A52E0000A52E0000F4
:1000C000A52E0000A52E0000A52E0000A52E0000E4
:1000D000A52E0000A52E0000A52E0000A52E0000D4
:1000E000A52E0000A52E0000A52E0000A52E0000C4
:1000F000A52E0000A52E0000A52E0000A52E0000B4
:100100007BB972B90029BEBF00204FF0004106E064
:1001100008BF00281CBF6FF000414FF0FF3000F017
:1001200057B8ADF1080C6DE904CE002909DB002BAE
:100130001ADB00F057F8DDF804E0DDE9022304B033
:100140007047404261EB4101002B1BDB00F04AF895
:10015000DDF804E0DDE9022304B0404261EB410137
:10016000524263EB43037047524263EB430300F098
:1001700039F8DDF804E0DDE9022304B0404261EB28
:1001800041017047524263EB430300F02BF8DDF866
:1001900004E0DDE9022304B0524263EB43037047FD
:1001A00053B94AB9002908BF00281CBF4FF0FF31DE
:1001B0004FF0FF3000F00CB8ADF1080C6DE904CE43
:1001C00000F010F8DDF804E0DDE9022304B0704728
:1001D000704700BF034613F8012B002AFBD1181A01
:1001E000013870472DE9F04786468C460846089E40
:1001F000154674461946002B40F0C2808542B2FA7B
:1002000082F245D94AB1C2F1200300FA02FC2EFA6B
:1002100003F3954043EA0C0C94404FEA154EA8B204
:10022000BCFBFEF8230C0EFB18CC08FB00F943EADC
:100230000C43994528D9EB1808F1FF3704D29945AA
:1002400002D9A8F102072B44A3EB0903A4B2B3FB24
:10025000FEFC0EFB1C330CFB00F044EA0344A042FE
:1002600014D92C190CF1FF3304D2A04202D9ACF1FD
:1002700002032C44241A43EA07401EB1D440002351
:1002800034607360BDE8F0874746DDE76346F1E719
:1002900092BB431B01214FEA154EAFB2B3FBFEFCEC
:1002A000200C0EFB1C330CFB07F840EA0343984577
:1002B00062D9EB180CF1FF3004D2984502D9ACF1A9
:1002C00002002B44A3EB0803A4B2B3FBFEFC0EFB1D
:1002D0001C330CFB07F744EA0344A7424ED92C1900
:1002E0000CF1FF3304D2A74202D9ACF102032C4433
:1002F000E41B43EA0040C0E7C2F1200320FA03F107
:10030000954090402EFA03F303434FEA154EAFB2E7
:10031000B1FBFEFC0EFB1C10190C0CFB07F841EAAC
:100320000041884504FA02F422D969180CF1FF3023
:1003300004D2884502D9ACF102002944A1EB08019E
:100340009BB2B1FBFEFC0EFB1C110CFB07F743EA52
:1003500001439F420ED9EB180CF1FF3104D29F42AA
:1003600002D9ACF102012B44DB1B41EA004192E7C8
:100370006046E3E76146F7E76046A3E76346B7E711
:10038000834206D916B9002108467BE7C6E900E09A
:10039000F9E7B3FA83F78FB9834201D3724508D8DE
:1003A000BEEB020460EB030301209C461EB9002152
:1003B00068E73846FAE7C6E9004CF8E7C7F1200CD1
:1003C000BB4022FA0CF41C432EFA0CF120FA0CF379
:1003D000B84001434FEA14490EFA07F5B3FBF9F8A8
:1003E0001FFA84FE09FB18300B0C08FB0EFA43EAD7
:1003F00000439A4502FA07F240D9E31808F1FF30AA
:1004000004D29A4502D9A8F102002344A3EB0A03BF
:1004100089B2B3FBF9F809FB183308FB0EFE41EA79
:1004200003418E452CD9611808F1FF3304D28E4563
:1004300002D9A8F10203214443EA0040A0FB02983C
:10044000A1EB0E014145CE46434602D306D14D45B0
:1004500004D2B9EB020E68EB04030138002EA6D0DB
:10046000B5EB0E0261EB030101FA0CFC22FA07F373
:100470004CEA0303F940C6E9003198E74046C5E776
:100480004346D9E701EB4101490010B4FF23B1FB1A
:10049000F3F319449CB2062301F0FF02B0FBF3F121
:1004A00001FB13000138C0B2042896BF084B094B6A
:1004B00053F82030062C07D003EB840153F82400B6
:1004C000496810BC1DF0C0BB986910BC704700BFE4
:1004D00018720300B8720300034B04491A680448F9
:1004E00001FB020018607047040000200D6619002F
:1004F0005FF36E3C2DE9F04FDFF804A2DFF80492C1
:10050000DFF804B287B000265AF8045B002D6AD0E9
:100510009BF8000099F800400D21B6FBF1F1C9B23B
:10052000FFF7B0FF30226FF07F4180461DF08CFB5B
:10053000B4220146FF27754814FB02F2B2FBF7F222
:10054000D2B21DF081FB2FF019F88DF80000C0F336
:100550000722C0F307408DF801208DF802000099B2
:100560000022284622F03CFF6E224146684814FBD8
:1005700002F2B2FBF7F2D2B21DF066FB2EF0FEFFE4
:100580008DF80400C0F30722C0F307408DF8052062
:100590008DF8060001990022284622F054FF4046BB
:1005A0002EF0ECFF8DF80800C0F30722C0F30740DF
:1005B0008DF809208DF80A0002990022284622F0C1
:1005C0006DFF00222846E100B1FBF7F1013122F076
:1005D00057FFAA2214FB02F12846B1FBF7F10022D3
:1005E000C9B222F06AFFFF3640F6F252964209F194
:1005F000010989D1474FDFF8209100263B78F1B2FD
:100600008B4202D807B0BDE8F08F59F82150012B7A
:1006100018BF03F1FF33002D70D0404A545CC1EB8A
:100620000121B1FBF3F1384BC9B21878FFF72AFF6B
:1006300018226FF07F4183461DF006FBD22201464F
:100640004FF0FF0A364814FB02F2B2FBFAF2D2B2C4
:100650001DF0FAFA2EF092FFC0F307238DF80C007C
:10066000C0F307408DF80D308DF80E00039900227D
:10067000284622F0B5FE04EB84025946294852016F
:10068000B2FBFAF2D2B21DF0DFFA2EF077FF8DF84E
:100690001000C0F30722C0F307408DF811208DF839
:1006A000120004990022284622F0CDFE58462EF072
:1006B00065FF8DF81400C0F30722C0F307408DF8E2
:1006C00015208DF816000599002228460FFA84F8A7
:1006D00022F0E4FE002228464FEAC801B1FBFAF1FD
:1006E000043122F0CDFEAA2314FB03F1B1FBFAF191
:1006F0003C310022C9B2284622F0DFFE01367DE7F8
:1007000024880020A5CE022095CE0220FFFAF80012
:10071000C7B5AE009ACE0220FC8700209BCE0220F7
:1007200028100B004627200008B50E22064800219D
:1007300036F064FA054B00221A605A601A81BDE84F
:100740000840FFF7D7BE00BFA5CE02209BCE0220F7
:100750002DE9F04FDFF85083D44FD54CD54E8DB0F6
:100760004FF0000A0B23CAEB0A21B1FBF3F1D24B85
:10077000C9B21878FFF786FE48226FF07F41054620
:100780001DF062FA58F804BB8146BBF1000F37D068
:10079000D82128461DF07BFA2EF0F0FEC0F3072387
:1007A0008DF80000C0F307408DF801308DF802008D
:1007B00000225846009922F013FE482128461DF0D9
:1007C00066FA58F804BC2EF0D9FEC0F307238DF862
:1007D0000400C0F307408DF805308DF8060001993C
:1007E0000022584622F02FFE58F8040C0022D22195
:1007F00022F005FE58F8040C0022AA2122F032FE55
:10080000D6F800B0BBF1000F50D004226FF07F414A
:1008100028461DF019FA2EF0B1FEC0F307238DF81B
:100820000800C0F307408DF809308DF80A00002257
:100830005846029922F0D4FD142128461DF027FACB
:10084000D6F800B02EF09AFEC0F307238DF80C0006
:10085000C0F307408DF80D308DF80E00039900228B
:10086000584622F0D3FD2846D6F800B02EF086FE7A
:10087000C0F307238DF81000C0F307408DF8113046
:100880008DF8120004990022584622F007FE3068C5
:1008900000220A2122F0F4FD30680022012122F01A
:1008A000F6FD30680022D22122F007FED4F800B015
:1008B000BBF1000F51D048462EF060FEC0F3072375
:1008C0008DF81400C0F307408DF815308DF8160030
:1008D00005995846002222F083FD582229464846B1
:1008E0001DF0B2F9D4F800B02EF048FEC0F3072393
:1008F0008DF81800C0F307408DF819308DF81A00F4
:1009000006990022584622F081FD4846D4F800B0EE
:100910002EF034FEC0F307238DF81C00C0F307400F
:100920008DF81D308DF81E0007990022584622F0E0
:10093000B5FD20680022DC2122F061FD2068002244
:10094000082122F09DFD20680022012122F09FFD58
:1009500020680022AA2122F0B0FDD7F800B0BBF138
:10096000000F33D06C226FF07F4128461DF06CF9E8
:100970002EF004FEC0F307238DF82000C0F30740DB
:100980008DF821308DF8220008990022584622F077
:1009900027FD48463D682EF0F1FDC0F307238DF892
:1009A0002400C0F307408DF825308DF82600099902
:1009B0000022284622F072FD38680022062122F02B
:1009C0005FFD38680022AA2122F077FDBAF10B0FF3
:1009D00005D00AF1010A043704340436C2E6324C69
:1009E000E06A40B10022114622F043FD0022E06A95
:1009F000114622F037FD2F4CE06A40B1002211462B
:100A000022F03EFD0022E06A114622F056FD284CFD
:100A1000E06A40B10022114622F032FD0022E06A75
:100A2000114622F04AFD214CE06A40B100221146F5
:100A300022F026FD0022E06A114622F03EFD1F4D05
:100A40002E6876B31C4C1C212078FFF71BFD2EF07E
:100A500095FDC0F307238DF82800C0F307408DF8FB
:100A600029308DF82A0000220A99304622F0B8FC7D
:100A700020782D68EB21FFF705FD2EF07FFD8DF826
:100A80002C00C0F30723C0F307408DF82E008DF82B
:100A90002D300B99002228460DB0BDE8F04F22F012
:100AA000B5BC0DB0BDE8F08F088900207888002023
:100AB000A8880020D888002095CE022060880020D9
:100AC0002DE9F74F1F4B204CDFF88080DFF8809036
:100AD000204FDFF884A0214DDFF884B00193002679
:100AE000019B57F8040B43F8046B44F8046B48F877
:100AF000046B49F8046B019348B1012120F05BFDC0
:100B0000002357F8040C1A46052120F098FD2868A8
:100B100040B1012120F04FFD002328681A4605212D
:100B200020F08DFD5AF8040B20B1DBF800100339DA
:100B300020F008FD0B4B9C4205F10405D0D103B019
:100B4000BDE8F08F9C870020CC8700206C870020B8
:100B50003C870020D888002078880020A8880020C2
:100B600038870020FC87002010B51DF0ABF8084B3B
:100B7000D3E90042041B61EB0202B42C72F10002C3
:100B8000A1BFC3E90001034B01221A7010BD00BFD1
:100B90009002002099CE022010B51DF093F8084B6A
:100BA000D3E90042041B61EB0202B42C72F1000293
:100BB000A1BFC3E90001034B01221A7010BD00BFA1
:100BC0008802002098CE022010B51DF07BF8084B5B
:100BD000D3E90042041B61EB0202B42C72F1000263
:100BE000A1BFC3E90001034B01221A7010BD00BF71
:100BF0008002002097CE022010B51DF063F8084B4C
:100C0000D3E90042041B61EB0202B42C72F1000232
:100C1000A1BFC3E90001034B01221A7010BD00BF40
:100C20007802002096CE022008B50C4B1B788BB9B9
:100C30001DF048F80A4B0B4A1B681268C31A9A4207
:100C400038BF9B1A084A28BF0023B3FBF2F002FB0F
:100C5000103008BD054B1868ECE700BF94CE0220A9
:100C600028870020208700202CF204002487002001
:100C700038B50B4D0446286828B1214633F063F996
:100C8000286820F0F7FE074D286838B1214633F078
:100C90005AF92868BDE8384020F0ECBE38BD00BFE6
:100CA000748800207088002070B50E4E04463068AD
:100CB000B0B10D4D2B689BB10C4910F0C5FA0B4932
:100CC000286810F0C1FA5CB930682246214622F04B
:100CD00064FB286822462146BDE8704022F05DBBD7
:100CE00070BD00BF7488002070880020BBDC01004C
:100CF00070B51F4E04463068002838D01D4D2B6853
:100D0000ABB3ACB1042117F0DFFA2868042117F067
:100D1000DBFA30680022022122F0FAFB2868002268
:100D2000022122F0F5FB0020BDE87040FFF7BCBFB8
:100D3000032117F0C9FA2868032117F0C5FA3068B3
:100D40002246012122F0E4FB28682246012122F0FC
:100D5000DFFB3068224641F2504122F0EEFB28686A
:100D6000224641F2504122F0E8FB0120DCE770BD51
:100D70007488002070880020F8B5124E336803B3E1
:100D8000114B1B68EBB1FFF74FFF104B1C68002C99
:100D9000054614DDA0FB0401E7170D4A002305FBFF
:100DA0000711FFF7FDF901280146B8BF0121A14253
:100DB000A8BF21463068BDE8F84020F0E5BB01211E
:100DC000F8E7F8BD608800206488002034870020A0
:100DD0002CF2040030B51F4B1B6887B00446D3B11A
:100DE0001D4B1B68BBB11D4B1D4D1B78ABB978B1BA
:100DF0001C4B1D4A0092CDE90332CDE901321B485C
:100E00001B4A0593C02111F01BFA1848FFF730FF69
:100E10004FF0FF332B6007B030BDFFF705FF4FF4F5
:100E20007A73B0FBF3F214B92B689A42F3D03C21E9
:100E30002A60B2FBF1F301FB1322009218210D4A44
:100E40000D4811F0FDF90C4807B0BDE83040FFF740
:100E50000FBF00BF7488002070880020B4CE02202D
:100E6000000000200C8C0300298C0300BCCD022064
:100E70001A8C0300328C03007CCE02200146044809
:100E80008368DB690BB1012218476FF05700704788
:100E9000D06D0300014640F2E73080B500EBC13071
:100EA0004FF47A720023490CFFF77AF9084E094F84
:100EB00005460C4633782BB1BB6806485B694FF496
:100EC000005198472846214635F0CEFDF2E700BF95
:100ED000B5CE0220D06D03002DE9F04F0B48C1B014
:100EE0001CF030FF40B10A484FF4B0111CF08DFEE9
:100EF00010B9084B01221A70074835F056FC78B932
:100F000006481DF028F9FA20FFF7C4FFD06D030052
:100F10009C730300B5CE0220D06E0300408C03000A
:100F2000D6481CF00FFF002840F0E684D4481DF09E
:100F300012F9D2481CF006FF002840F0FB84D1488B
:100F40001DF009F9CD481CF0FDFE002840F0108589
:100F5000CD481DF000F9C9481CF0F4FE002840F00F
:100F60002585CA481DF0F7F8C948CA4D836808931B
:100F700030A91B6AC84CC94F9847BDF8C0302B60D8
:100F8000BDF8C230236008F0EDFED5F800B023684C
:100F90000093BBF1780FA3F12C03C5BF0C22ABF17A
:100FA00031010622B1FBF2F2182B0192B8BF1823CF
:100FB0000393019B0C245C432134ABEB0404621CBF
:100FC000A8BF04EBD4744FF000024FF0FF01ACBF98
:100FD00064100024824622F012FAB1482EF0CEFAB4
:100FE000C0F307238DF89000C0F307408DF89130CF
:100FF0008DF8920000222499504622F0F1F9002148
:1010000050461CF06DFE102150461FF0D0F8002114
:10101000504620F008FF0021504620F01AFF5046AD
:1010200006F082F8009A5946054620F0DBFA0022C5
:101030001146284620F09DFA00221146284622F04B
:1010400018FA00221146284622F069FA28460021A3
:101050001CF046FE0022FF21284622F0D0F99048DD
:101060002EF08CFAC0F307238DF89C00C0F30740E4
:101070008DF89D308DF89E0027990022284622F099
:10108000AFF988482EF07AFAC0F307238DF898005C
:10109000C0F307408DF899308DF89A0026992846BC
:1010A000002222F0B3F900222846012122F0BDF9E6
:1010B000102128461FF07BF8284616F04BF93946D8
:1010C000064632F0B5FDFA88B9885208490830461C
:1010D00032F0ABFC4FF46171304632F02BFC3046FD
:1010E00020F022FE0022BE21304622F01FFA2846C0
:1010F00006F01AF8009A5946054620F073FA0022C5
:101100001146284620F035FA00221146284622F0E2
:10111000B0F900221146284622F001FA00225A2195
:10112000284622F06CF960482EF028FAC0F3072315
:101130008DF89400C0F307408DF895308DF8960037
:1011400000222846259922F04BF9284610211FF04D
:101150002EF8504605F0E8FF544D2860002800F0B6
:10116000B387009ADFF84881524F594620F03AFA87
:1011700000222868114620F0FCF900222868114658
:1011800022F077F900221146286822F0C8F94A486F
:101190002E682EF0F3F9C0F307238DF88C00C0F30E
:1011A00007408DF88D308DF88E002399304600224F
:1011B00022F016F9002211462868404E22F01FF94D
:1011C000102128683E4D1EF0F2FF504616F0C8FC74
:1011D000C8F80000504616F0C3FC3860504605F0D1
:1011E000A3FF2860504605F09FFF03463060D8F803
:1011F0000000002800F068873A68002A00F0648741
:101200002A68002A00F06087002B00F05D872D49D6
:10121000ABF10A0932F097FED8F80000494620F0F9
:10122000B3F9D8F800002849002222F063F9D8F871
:1012300000000022012122F064F9D8F80000002209
:10124000022122F065F9D8F8003002934FF6F570CC
:101250002EF094F9C0F307238DF88800C0F30740FF
:101260008DF889308DF88A0022990298002222F0A8
:101270002BF9D8F800000022B42127E0D06D03003C
:101280005B8C0300D68C0300558D0300D48D0300C6
:10129000D06E03000C00002008000020A47303009F
:1012A00012030500260714000E06050068880020BA
:1012B0007488002070880020784DFF00648800202A
:1012C0006C8800200C8C0300287C030022F00BF9B2
:1012D00004230122D8F80000022120F0B0F9386878
:1012E000CF4932F030FE3868494620F04DF9386871
:1012F000CC49002222F0FEF838680022012122F0B9
:1013000000F938680022022122F002F96FF07F40D4
:10131000D7F800802EF032F9C0F307238DF884004F
:10132000C0F307408DF885308DF88600219940463E
:10133000002222F0C9F838680323ABF11E0700220F
:10134000022120F07CF928680222394620F04AF96F
:101350001A2328680022022120F071F9002228684F
:10136000114622F086F82868002247F6FF7122F025
:10137000D6F828680022B92122F041F8AA48D5F809
:1013800000802EF0FBF8C0F307238DF88000C0F337
:1013900007408DF881308DF8820020990022404668
:1013A00022F01EF84DF2FF60D5F800802EF0E6F82E
:1013B000C0F307238DF87C00C0F307408DF87D3023
:1013C0008DF87E001F990022404622F067F82868B9
:1013D00000220A2122F054F828680022B42122F0C9
:1013E0006CF82868914D10211EF0E1FE904B30689A
:1013F0001F600622394620F0F5F81E2330680022CF
:10140000022120F01CF930680022012122F031F87D
:1014100030680022782122F025F80022306847F653
:10142000FF7122F07CF8306800211CF059FC00228A
:101430003068B42121F0E3FF306810211EF0B7FEC0
:10144000306805F071FE2860002800F03D86062215
:10145000012120F0C7F800231A462868072120F050
:10146000EEF800221146286822F003F828680022CE
:1014700047F6FF7122F053F828680022FF2121F07F
:10148000BEFF00222868022121F0CFFF286810212A
:101490001EF08DFE674B039A1A6002EB4212642322
:1014A00092FBF3F30493039B049A0594033B9B1A6A
:1014B0001093019B033311935F4B06935F4B0C9387
:1014C0005F4B09935F4B0B935F4B07935F4B0A9303
:1014D0004FF00009504605F027FE0B23C9EB092108
:1014E000B1FBF3F15A4BC9B206461878FEF7CAFFB2
:1014F00020226FF07F4180461CF0A6FB6221029003
:1015000040461CF0C4FBEB210E9040461CF0BFFB94
:10151000A5210D9040461CF0BAFB0F90002E00F064
:10152000D385304605F000FE0546304605F0FCFD4B
:101530000446304605F0F8FD0746002D00F0C4854E
:10154000002C00F0C185002800F0BE850A9B0C9A93
:1015500043F8046B0A93079B019943F8045B0793D4
:101560000B9B43F8044B0B93099B43F8040B099323
:101570004FF4045342F8043B0C92069A42F8043BA1
:101580000692344A42F82930334A304642F829302C
:10159000039A20F027F80599242230461FF0E9FF2E
:1015A00000221146304621F064FF012130461CF034
:1015B00097FB00220321304621F0B1FF0022B92120
:1015C000304621F01CFF0D982DF0D8FFC0F3072303
:1015D0008DF87800C0F307408DF879308DF87A00E7
:1015E0001E990022304621F0FBFE002201213046E8
:1015F00021F03FFF00227821304621F033FF0F9881
:101600002DF0BCFFC0F307238DF87400C0F3074032
:101610008DF875308DF8760000221D9930461DE05A
:101620000C8C0300287C0300FFFD2D006088002047
:1016300034870020388700209C870020CC8700203A
:1016400078880020A8880020D888002008890020F9
:1016500095CE02206C8700203C87002021F0F3FE0D
:10166000102130461EF0A3FD019B023B194628467F
:101670000D931FF089FF049928461FF09CFF00235B
:101680001A46052128461FF0DAFF00221146284697
:1016900021F0EFFE00220321284621F040FF002226
:1016A000FF21284621F0ABFE02982DF067FFC0F322
:1016B00007238DF87000C0F307408DF871308DF866
:1016C00072001C990022284621F08AFE0E982DF007
:1016D00055FFC0F307238DF86C00C0F307408DF869
:1016E0006D308DF86E001B990022284621F08EFE89
:1016F00000220121284621F098FE40462DF03EFFB1
:10170000C0F307238DF86800C0F307408DF86930F7
:101710008DF86A001A990022284621F0BFFE0022A7
:101720000A21284621F0ACFE00220121284621F0A2
:10173000AEFE0022D221284621F0BFFE102128460D
:101740001EF035FD019B2046191F1FF01DFF049957
:1017500020461FF030FF00231A46052120461FF0C7
:101760006EFF00221146204621F083FE0022022156
:10177000204621F0D4FE0022A821204621F03FFE81
:1017800064226FF07F4102981CF05EFA2DF0F6FEA5
:10179000C0F307238DF86400C0F307408DF865306F
:1017A0008DF8660019990022204621F019FE404666
:1017B0002DF0E4FEC0F307238DF86000C0F307406E
:1017C0008DF861308DF8620018990022204621F0D2
:1017D0001DFE00220121204621F027FE78226FF015
:1017E0007F4102981CF030FA2DF0C8FEC0F30723A9
:1017F0008DF85C00C0F307408DF85D308DF85E0019
:1018000017990022204621F049FE00220821204697
:1018100021F036FE00220121204621F038FE002270
:101820009621204621F049FE102120461EF0BFFCE3
:101830000D9938461FF0A8FE032138461FF0BBFE65
:10184000109A012138461FF094FE002211463846B6
:1018500021F00FFE002247F6FF71384621F05FFEAF
:101860000022FF21384621F0CAFD96226FF07F4109
:1018700002981CF0E9F92DF081FEC0F307238DF8E2
:101880005800C0F307408DF859308DF85A0016996A
:101890000022384621F0A4FD02982DF06FFEC0F31F
:1018A00007238DF85400C0F307408DF855308DF8AC
:1018B000560015990022384621F0F0FD002206213D
:1018C000384621F0DDFD00220121384621F0DFFD00
:1018D00000229621384621F0F0FD102138461EF0F6
:1018E00066FCB9F10B0F00F0AF80059B119A134411
:1018F00009F101090593EDE53B484FF480311CF0F7
:1019000084F910B13948FFF712BB37481CF0FFF9D2
:1019100010B13748FFF70BBB3648374B43604FF4E5
:1019200000638360FFF7AAFA00283FF402AB334854
:10193000FFF7FDBA32484FF480311CF066F910B160
:101940003048FFF7FDBA2E481CF0E1F910B12E48DF
:10195000FFF7F6BA2D482E4B43604FF48053836057
:10196000FFF78CFA00283FF4EDAA2A48FFF7E8BAFF
:1019700029484FF480311CF048F910B12748FFF78F
:10198000E8BA25481CF0C3F910B12548FFF7E1BAC1
:101990002448254B43604FF080738360FFF76EFA55
:1019A00000283FF4D8AA2148FFF7D3BA20484FF4C3
:1019B00080311CF02AF910B11E48FFF7D3BA1C4839
:1019C0001CF0A5F910B11C48FFF7CCBA1B481C4B02
:1019D00043604FF000738360FFF750FA00283FF434
:1019E000C3AA1848FFF7BEBA94730300738C0300B0
:1019F0008F8C030014870020690B0000B48C030057
:101A00008C730300EF8C03000C8D0300088700200B
:101A1000990B0000328D0300847303006E8D030068
:101A20008B8D0300FC860020C90B0000B18D0300E4
:101A30007C730300ED8D03000A8E0300F086002006
:101A4000F90B0000308E030000221146304621F0D1
:101A500010FD00221146304621F004FD00221146FF
:101A6000284621F00DFD00221146284621F025FDD3
:101A700000221146204621F003FD00221146204697
:101A800021F01BFD00221146384621F0F9FC00220E
:101A90001146384621F011FD504605F045FB04463D
:101AA000002800F01183009A59461FF09BFD002288
:101AB000114620461FF05DFD00221146204621F010
:101AC000D8FC00221146204621F029FD2DF08CFD86
:101AD000C0F307238DF85000C0F307408DF8513054
:101AE0008DF8520014990022204621F079FC002242
:101AF0006421204621F083FC102120461EF057FB74
:101B0000D24B18681B798DF8D430009B349003EBCE
:101B1000431641F6C7139E425046CABF642342266D
:101B200096FBF3F605F000FBC94BABF10C05186012
:101B3000002800F0C982009BC64A0099C64FC44CD9
:101B40009B1B023B002B136001F10201BCBF002371
:101B500013603960324629461FF044FD3A68206818
:101B600006211FF006FD00220121206821F081FCE2
:101B7000BA4827682DF002FDC0F307238DF8BC009A
:101B8000C0F307408DF8BD308DF8BE002F99384660
:101B9000002221F058FC20680022B42121F062FCD0
:101BA000002220680A2121F0BAFC002120681CF0E4
:101BB00097F8AB4827682DF0E1FCC0F307238DF8B8
:101BC000B800C0F307408DF8B9308DF8BA002E99EF
:101BD0003846002221F004FC0022DC21206821F09C
:101BE0000EFC002027682DF0C9FCC0F307238DF8F8
:101BF000B400C0F307408DF8B5308DF8B6002D99CC
:101C00000022384621F04AFC206800220C2121F0F5
:101C100037FC00222068B42121F04FFC20681021FD
:101C20001EF0C5FA2068002120F0FDF8BBF1850FF9
:101C3000A6F10E0640F32E810E23ABF13204B4FB65
:101C4000F3F463431A33ED1A05EBD5770B2D4FEA06
:101C50006707D8BF0627DFF80CB2A31C01930BF16E
:101C60003809B8467A4B186805F05EFA0546002830
:101C700000F02A82324621461FF0B4FC4146092278
:101C800028461FF076FC00220221284621F047FC5E
:101C900000220121284621F0ECFB73482DF06EFC58
:101CA0008DF8B000C0F30722C0F307408DF8B120D3
:101CB0008DF8B2002C990022284621F0C4FB0022A6
:101CC000AF21284621F0CEFB6FF07F402DF056FC6F
:101CD0008DF8AC00C0F30722C0F307408DF8AD20AB
:101CE0008DF8AE002B990022284621F079FB0022C6
:101CF000E621284621F083FB00221146284621F0E8
:101D0000BFFB102128461EF052FA4BF8045B019BE2
:101D1000D9459844A6D138235C43B4F5C87FAABFFF
:101D200064230424B4FBF3F43A235E436423B6FB38
:101D3000F3F3029304EBD4735B105B424FF0000BA0
:101D40000393D8464FF0000934AB19F803605E44A2
:101D5000F6B201360D2E00F29180019B03FB067650
:101D6000039B1E443A4B186805F0DEF9054600282F
:101D700000F0AA81029A21461FF034FC0922314664
:101D800028461FF0F6FB00220221284621F0C7FB5F
:101D900000220121284621F06CFB34482DF0EEFB97
:101DA000C0F307238DF8A800C0F307408DF8A930D1
:101DB0008DF8AA002A990022284621F044FB00222F
:101DC000DC21284621F04EFB29482DF0D7FBC0F33B
:101DD00007238DF8A400C0F307408DF8A5308DF8D7
:101DE000A60029990022284621F0FAFA0022FA21B9
:101DF000284621F004FB1F482DF0C0FBC0F3072349
:101E00008DF8A000C0F307408DF8A1308DF8A20036
:101E100028990022284621F041FB0022062128466D
:101E200021F02EFB00225021284621F046FB1021F4
:101E300028461EF0BCF9B8F1090F9FBF0E4B43F8BE
:101E4000285008F101085FFA88F817E008720300CB
:101E50005C880020308700202C8700204A2E2A0032
:101E6000140A070024880020C6B9B40042221F00CB
:101E700028100B00FF6C5A00FC87002009F10109B3
:101E8000B9F1050F7FF460AFBBF1070F05D04FF03C
:101E9000070B57E706242746DDE69E4B83F80080B4
:101EA0009D4B012118681EF0CEFBFEF73DFC50460D
:101EB00005F03AF90446002800F00681009A022154
:101EC0001FF090FB00231A46082120461FF0B7FBA5
:101ED00000221146204621F0CCFA0022114620466D
:101EE00021F01DFB8D482DF049FBC0F307238DF831
:101EF0004C00C0F307408DF84D308DF84E0013991B
:101F00000022204621F06CFA0022FF21204621F019
:101F100076FA102120461EF04AF9FEF719FCFEF76A
:101F20002BFF0020FEF7E4FE0120FEF753FF089B85
:101F30005B68002B40F0CF801BF0C4FE784B18602C
:101F40001BF0C0FE06460F4604460D46754B1B7837
:101F500063B1744A00231370734B187880F001004A
:101F60001870FEF7C5FE0120FEF734FF6F4B1A789C
:101F7000F2B1DFF8BC9100221A7099F800304FF0EE
:101F800006080133B3FBF8F208FB123389F800307E
:101F9000FEF7DEFB99F80030B3FBF8F208FB1233D2
:101FA000DBB21C225343634A6348D1581CF0D3F878
:101FB000624B1A78DAB1DFF88891DFF888814FF048
:101FC000000A83F800A099F80030002B40F08680CA
:101FD000012389F800301BF075FEC8F80000FEF7F9
:101FE0006FFD59481CF0B7F80120FEF7F3FE574B80
:101FF0001A78002A4CD0DFF8588198F800A04FF0EA
:10200000000B83F800B08AF00109524B88F8009069
:102010000093009B53F8040B009328B10121BAF1FF
:10202000000F68D01EF0C3F80BF1010B5FFA8BFBB9
:10203000BBF10C0FEDD1484A1068002863D0012194
:10204000BAF1000F5AD01EF0B2F8DFF8CCA0FEF7BC
:102050006BFBDAF8000080B140490FF0F5F8404B17
:10206000DAF8000019681FF06DFADAF800000121B3
:10207000B9F1000F4BD01EF09AF898F80010394AC9
:10208000394B3A4800290CBF114619461CF063F839
:102090001BF018FEB0420B46BB41CDE90001C0F277
:1020A000AE802B4B84420A4675EB02021B7867DB3D
:1020B000002B40F0AB800525214B1B78002B00F056
:1020C0000F81FEF7FDFC8EE029481CF044F84FF428
:1020D000FA70FEF719BF274898472DE71BF0F2FD6D
:1020E000254AD8F80010136889F800A05B1A034449
:1020F0001360224876E71EF0A6FA95E71EF0A3FAD1
:10210000FEF7DEFCA1E7B9F1000F9ED0F8E71EF064
:102110009AFAB2E79ACE02205C88002012030500EA
:102120002887002099CE0220B4CE022098CE02202B
:1021300095CE0220D47203006B8E030097CE02204E
:1021400094CE022024870020778E030096CE0220B2
:10215000B3CE02200889002068880020C1DC01007D
:10216000308700203C8C030076760B009C8E0300A9
:10217000538E0300D06E030020870020898E030059
:10218000009A141B019A62EB0505C92C75F1000534
:10219000A8BFC8242546002B8ED04FF482735C4321
:1021A000B4F57A7F32D34FF47A73B4FBF3F47F49FA
:1021B000002211F8013B0132A34288BF1B1BD2B29F
:1021C0008CBFDBB200230E2A01F8013CF1D1784B21
:1021D00078491D780022D3B29D4219D8764B1B78DE
:1021E00003B3FEF787F9FEF7C7FD0020FEF7F2FD07
:1021F000009B009C5E1D019B43F100071D460FF0F4
:1022000011FD0021422034F02FFC9FE60124CEE78F
:102210000B789C423ABF1B1BDBB2002301F8013B49
:102220000132D8E7FEF758F900F00104FEF754F93F
:10223000030714BF0134023400267E274FF00E0836
:10224000FEF74AF9B0FBF7FA07FB1A0A5FFA8AFAB7
:10225000AAF17E0310F4407F83465FFA83F900D130
:10226000C5B9FEF739F9514BB0FBF8F202FB180083
:102270001A5C4A4530D30D2800F1010327D00BF03A
:10228000300BBBF1300F22D10AF1600A474A5FFAE6
:102290008AFA17E0FEF720F94649B0FBF5F202FB97
:1022A00015000E2211F800C0CC4538BF01F800908F
:1022B0004243B2FBF5F20D2A09D80AF1540A3B4B0E
:1022C0005FFA8AFAD15C514538BF02F803A00136A3
:1022D000F3B29C42B4D884E7344B03F80090CAE7C9
:1022E000FEF7A2FC354B3649364E984296BF142372
:1022F00043F64E70B0FBF3F00C2303FB001134AC3B
:102300000023642711F8012B16F8010BDFF8B8C081
:1023100012FB00F00133BCEB002FDBB24FEA0022CE
:10232000B4BF4FF4C842B2FBF7F20C2B44F8042BB5
:10233000E8D1349A234E254F542301245A430020D8
:1023400021469C464FF0640E0DF5807808EB84041E
:10235000083354F8304C02EBC402044692FBF3F30A
:10236000325D5343184A9342CCBF4FF4C84393FBAA
:10237000FEF30C2947F824302AD040AA02EB810250
:1023800040AB03EB810352F8342C53F8303C084641
:102390000131C9B2D2000C290CFB03224FF00B040F
:1023A0004FF05C03DAD00C46CEE700BFA5CE02208A
:1023B0009ACE02209BCE022094CE02202BF2040063
:1023C000FE3E0800F28E0300631027009C87002069
:1023D0004FF430535D434FF47A73B5FBF3F304933A
:1023E000934B944EDFF85082DFF850B2944FDFF8F1
:1023F00040A230330593934B0293934B03935AF8C7
:10240000041B57F8042B8B1A00F1C8804FF4A070FE
:1024100043431B12B3F5006FA8BF4FF40063802B3A
:10242000ACBFD21880329142C0F2C88047F8042C69
:1024300057F8043C002B80F2C480002347F8043C8A
:1024400084234B43642293FBF2F30B44B3F5C84F50
:102450003068A8BF4FF4C8431A1A314600F1B8805B
:102460004FF4C37462431212B2F5805FA8BF4FF4F9
:102470008052802AACBF801880308342C0F2B8807E
:1024800030603368002B80F2B5800023336057F84A
:10249000043CD8F80020934280F2B3800498121ACA
:1024A0009A42B8BF1A46002AC8F8002080F2AB80D2
:1024B0000022C8F800200D6858F8044B1B1206F1E2
:1024C00004064FEA252500F1B180642B00F3A280B9
:1024D000212B00F3A0805D4AD2F800909D424FF07E
:1024E0004802B8BF1D4609FB03F1514344F61F6380
:1024F000642DA8BF64259942D8BF022109FB05F5C8
:1025000002FB05F5C4BF42F2107291FBF2F149459E
:10251000A8BF49469D42C4BF42F2107395FBF3F534
:10252000029B1868D8BF02251FF045F8DDF808C0E7
:1025300000235CF8040BCDF808C01A4605211FF0F3
:102540007EF85BF8040B60B1A9454946A8BF29464F
:102550001FF031F800235BF8040C1A4605211FF028
:102560006EF8039B53F8040B039390B1374B1B6831
:102570002112482259435143354A91FBF2F1194443
:10258000033921EAE1719A1E9142A8BFD91E1EF0BB
:10259000D9FF059B53457FF432AF24E66FF0A900C5
:1025A00043431B12B3F5407FA8BF4FF44073552B34
:1025B000ACBFD21A553A91427FF738AF47F8041CA6
:1025C00036E7B3F5C84F7FF73BAF4FF4C84335E765
:1025D0006FF0EF0462431212B2F5106FA8BF4FF410
:1025E0001062552AACBF801A553883427FF748AF36
:1025F000336046E7B3F5C84F7FF749AF4FF4C843A0
:1026000044E71A464FE7B2F5C84F7FF754AF4FF48F
:10261000C8424EE764237D22213B53436422B3FB2F
:10262000F2F321339342A8BF134654E7002352E745
:102630009C8700206C8700203C870020A888002011
:10264000CC870020D8880020788800203887002098
:10265000F0D8FFFF014B1B68184700BF1000002097
:10266000014B1860704700BF1000002030B585B0E6
:1026700004460D4610220021684634F0BFFA0223BA
:102680008DF802302A46044B0193214668461BF020
:102690005FF805B030BD00BF5526000080B5054687
:1026A0000E46174698461AF0E9FC034634F012FB32
:1026B000DFF81890044649F8003042463046394663
:1026C000A84754F8090000F0C1FA00BF0800000054
:1026D0002DE9F047058B04462807904611D40229BE
:1026E00005F0070540F0CC8020461BF041FD78B195
:1026F0000138218B042811D8DFE800F0C2106D8565
:10270000950001290CBF45F0100545F020052583F3
:1027100088F31188BFF36F8FBDE8F08701F0070AD7
:10272000AA4500F0A5800027B9463E46A368002BC5
:1027300000F0BC8041F00801218388F31188BFF3C9
:102740006F8FA168002900F0BA800D68002900F0A1
:10275000B680D1F80480334652462046C047002D4B
:1027600076D02B6829461D46F0E701F007035A1F73
:10277000012A1BD8002221F00701062B276889B205
:10278000C4E9002209D13B4603E0628B0132628337
:102790001B68002BF9D141F00201218320461BF078
:1027A000E7FC00287AD041F0200176E0042B0AD122
:1027B00021F0070189B2218320461BF0D9FC10B11A
:1027C00041F020012183218B01F0070AAA454FD057
:1027D0000027B946AAE7236921F0070141F0060165
:1027E000062DD3F8009021832DD1B9F1000F3FD0F1
:1027F00041F00801218388F31188BFF36F8F3A49B4
:102800002046C84729E021F00701236941F004016F
:1028100089B2042DD3F804902183E6D000273E46E8
:102820004FF0040A82E721F00701236941F0050116
:1028300089B2052DD3F808902183D6D000273E46D3
:102840004FF0050A72E700273E464FF0060A6DE793
:102850002B4687E7B9F1000FD1D1EFF31188202380
:1028600083F31288BFF36F8F238B23F00803238336
:10287000258BEA062ED525F01003238305F00705E6
:102880006669218B002EBFF670AF00232768C4E96C
:10289000003321F0070141F001012183218B01F078
:1028A000070AAA454FF000097FF440AF002F9CD0E3
:1028B00041F00801218388F31188BFF36F8F002F47
:1028C000C8D03D6839463346524620461BF07CFC52
:1028D0002F46F4E7AB067FF51BAF25F020032383DB
:1028E00005F0070500E700BFF5E10100014B0360BB
:1028F00000207047C073030030BFFFF7FDBF00BF6B
:102900002DE9F0410B4EDFF8308006EB0807CC1BB9
:10291000054632460949204634F048F9A019424696
:102920000021083C34F06AF92C6707F10800BDE883
:10293000F08100BF0000000004000000D47103001B
:10294000054B5A699B689A421FBF044A536843F07B
:1029500080535360704700BF80CD022000ED00E03F
:1029600070B5264B15469A6A12F0100F9A6A14BF7A
:102970001124102412F0080F9A6A18BF122492072B
:1029800006460AD5586B9A6A140634D519B19A6A64
:1029900022F080029A62132401E06FF01500174BB9
:1029A0009A6A12F0010F9A6A18BF142412F0200FCD
:1029B0009A6A18BF1524D20602D49B6A9B070AD5CF
:1029C0000E4B5B68190506D5314600F025FA10B1AB
:1029D00080F309880224094B9A6A920642BF5A6A18
:1029E00022F400525A629A6A42F0FF029A6200236D
:1029F0002B70204670BD6FF01500CCE700ED00E0B5
:102A0000134B9A6A12F0007F9A6A14BF1E201D2091
:102A100012F0807F9A6A18BF1F2012F4002F9A6A62
:102A200018BF212012F4802F9A6A18BF222012F4B6
:102A3000003F9A6A18BF232012F4803F9A6A6FEA17
:102A400002426FEA12429A6218BF2420704700BF08
:102A500000ED00E010B5194B0246986A9C6A10F42C
:102A6000805F14BF1720162014F4006F9C6A18BFF3
:102A70001820A40509D5986B986A000404D51AB1EA
:102A80009A6A22F400429A6219200C4B9A6A12F454
:102A9000806F9A6A18BF1A20D2050CD49B6A13F46F
:102AA000005F18BF1C20054A936A43F47F4393627A
:102AB00000230B7010BD1B20F5E700BF00ED00E008
:102AC000F0B5484B5B688BB00446C3F308030025A0
:102AD00085F31188BFF36F8F02F07F40B0F17F4F15
:102AE00011D102F00C0008280DD010074CBF0C4685
:102AF00001250022033B8DF80720032B05D8DFE8D2
:102B000003F0246367602C46F3E700239DF8072059
:102B1000CAB902AE04F1200720686168324603C2D8
:102B20000834BC421646F7D1099A002D54D0C2F39E
:102B3000080121B96FEA52226FEA4222099202A9E2
:102B400018461BF0D7FC0BB0F0BD264BDA6A910794
:102B5000DBD4DA6A002AD8DBDA6A5200D5D55A69A2
:102B6000A16942F480725A61BFF34F8FBFF36F8F38
:102B70005A6931F8021C22F480725A61BFF34F8FF8
:102B8000BFF36F8F4DF6027291420AD09A6AD2B2A9
:102B90004AB10DF1070201212046FFF7E1FE03468D
:102BA000B4E72368B2E79A6A12F47F4F05D00DF1BB
:102BB00007010120FFF74EFFF1E79B6AB3F5803F65
:102BC000A3D3FFF71DFFEAE70DF107020021E3E7BA
:102BD0000DF107010020EDE722F4FF7222F001025F
:102BE000ACE700BF00ED00E0044B5A6942F0100270
:102BF0005A615A6922F008025A61704700ED00E0FC
:102C0000EFF30880EFF3098101B57246FFF758FF33
:102C100001BD00BF0B4880F3088802F079FA20203C
:102C200080F3118808484FF40461401880F3098844
:102C3000EFF314800221084380F31488BFF36F8FF1
:102C400000F0B2F800ED022040D30220084B9B6850
:102C500083420BD1EFF3058343B1064B5A6842F030
:102C600080525A605A6A22F400425A621AF00CBA30
:102C700080CD022000ED00E014498A684FF030005A
:102C80001044EFF3098C80E8F01F202080F31288B5
:102C9000BFF36F8F0E4F4FF000664A698A603E6047
:102CA000106F0C4C2060506F0023536780F3118825
:102CB00004B5104600F014F9BDE8044002F13000FC
:102CC00090E8F01F8CF309887047000080CD022047
:102CD00004ED00E0508900201EF0040F0CBFEFF35C
:102CE0000880EFF30980816911F8021C0229FFD0E6
:102CF00001B572461BF004FC01BD00BF40B20028C4
:102D000007DB044A4109012300F01F00834042F819
:102D10002130704700E100E040B200280CDB43099D
:102D2000064900F01F0020330122824041F8232091
:102D3000BFF34F8FBFF36F8F704700BF00E100E01C
:102D4000054B420900F01F0053F82220012303FA2B
:102D500000F01040704700BF00E100E040B20028E2
:102D6000A8BF00F1604001F10101B8BF064B4FEA76
:102D70004111ACBF00F5614000F00F00C9B2B4BF13
:102D8000195480F80013704714ED00E0044B054A15
:102D900023F07F039360BFF34F8FBFF36F8F7047B4
:102DA0000000000000ED00E008B5FFF7EFFF0B4A60
:102DB000D2F8883023F47003C2F88830EFF314831C
:102DC00023F0040383F31488BFF36F8F19F0F2F933
:102DD0001AF08EFA00F05AF819F030FA00ED00E01F
:102DE00042F8203C009B42F81C3C0A49019B42F8F7
:102DF000183C029B42F8143C21F001014FF0807313
:102E000042F8043C42F8081C0023203A026543675C
:102E1000704700BF9D260000094A0346906870B1C4
:102E200013F1160F006E05D0A0F140029A4205D8AA
:102E3000834203D2814228BF0020704700207047A0
:102E400080CD022008B515460B4A0C4B9060026FEE
:102E50001A600E4600F044F82C4686F309880020DC
:102E6000034B98472046002100220023014C2047B5
:102E70001FE501009D26000080CD02205089002022
:102E8000014B10221A61704700ED00E00448002356
:102E90002021C2180133302B82F80013F9D170477A
:102EA00000E100E008B5EFF30583064A103B02EBB2
:102EB000C30152F8330049688847BDE80840FFF76E
:102EC0003FBD00BF506F0300024B034A034801217E
:102ED00000F076B80000042000000020D873030042
:102EE000026E054B403A1A60044A4021C3E90112C0
:102EF0001846012100F06EB85489002000000B151F
:102F0000084AC2F898000B6823F01F03034343F0FC
:102F10001003C2F89C308B6843F00103C2F8A03064
:102F2000704700BF00ED00E02DE9F043DFF860805E
:102F300085B00E461F4604464FF00009B14523DA1E
:102F40006068D8B13FB1411E08421BD11F2819D972
:102F50002368194216D1236801931BF003FBA36871
:102F600003430393D8F89050C5F30725D0B2013D31
:102F7000A84207D801A9FFF7C3FF421C09F10109C4
:102F80000C34DBE76FF01502104605B0BDE8F083A6
:102F900000ED00E0044B0522C3F89420BFF34F8FEF
:102FA000BFF36F8F704700BF00ED00E0BFF35F8F8E
:102FB000024B0022C3F89420704700BF00ED00E0F0
:102FC00010B5034C01232278FFF7AEFF207010BD2F
:102FD000B6CE022008B50B4A00231278FFF7A4FFF3
:102FE00010F1160F07D0084A0021D2F89030C3F331
:102FF0000723984200DB08BDC2F89800C2F8A01071
:103000000130F2E7B6CE022000ED00E02DE9F043FA
:10301000534B544CD3F890302568C3F307239D429B
:1030200085B000F29A80FFF7C1FF00200C26854290
:103030001AD14D4C4D4F25706846FFF757FCDFF80D
:103040002081DFF82C9106460025AE4213D123786B
:1030500043490020D1F89020C2F30722934276DB47
:10306000FFF798FF002042E0616806FB0011FFF7C0
:1030700047FF0130DBE7009800EB05114FEA051C24
:10308000CB683B40B3F5000F48D00AD8B3F5001F1A
:1030900030D0B3F5800F36D0B3F5801F10D0013596
:1030A000D3E7B3F1807F42D0B3F1007FF7D150F87E
:1030B0000C3088684A681BF055FA40F4802009E01B
:1030C00050F80C3088684A681BF04CFA40F0885081
:1030D00040F43020CDE901230390D8F890302078D7
:1030E000C3F30723013B98422AD96FF0150005B0BE
:1030F000BDE8F08350F80C3088684A681BF032FA5B
:1031000040EA0900E6E750F80C3088684A681BF08E
:1031100029FA40F0C06040F40030DBE750F80C3092
:1031200088684A681BF01EFA40F08270D2E750F8B7
:103130000C3088684A681BF015FA40F08870C9E7BF
:1031400001A9FFF7DDFE237801332370A7E7C1F85B
:103150009830C1F8A00001337CE74FF0FF30C6E79C
:1031600000ED00E0E4730300B6CE02200000F0FFA3
:103170000000081108B5024B1B689847002008BDE5
:1031800060890020034B044A1860937843F00203DF
:1031900093707047608900201400002008B506492C
:1031A000064821F00701C1F1005202F580221AF011
:1031B00093FF002008BD00BF4F74032064890020E6
:1031C0000E4A0123C2F840354FF080424FF0805143
:1031D000C2F87835D1F83001082808D1D1F8341177
:1031E000052904D80648415C09B1C2F838364FF0C9
:1031F00080430122C3F880250020704700E0014091
:10320000E4360B0020B1034B800143F00103184763
:10321000704700BF107203007FB50D4D0D4E4FF08B
:10322000FF324FF0FF3301A9284619F0C7F80028F4
:10323000F5D1094CB442F2D2236813B1019A9342FA
:1032400003D1D4E9013101A898470C34F2E700BF5B
:1032500028020020D4710300C8710300F0B585B0C6
:10326000DDE90C5417461E46019023469DF82800C0
:103270008DF808002C432A468DF80910ADF80A7025
:1032800003960AD0094933F025FDD1F8804008495A
:1032900009588C4204BF00221346064801A919F0C0
:1032A00035F800EAE07005B0F0BD00BFB085002041
:1032B0000800000028020020084B70B5C31A0D4614
:1032C00007499B1004465943064840221BF068F901
:1032D0002B4601462046BDE87040184784890020EF
:1032E000B76DDBB6906D030073B50C4C0C4A4023F0
:1032F000041B00930D460B460A49A4106143064681
:1033000009481BF079F9011E05DA30462B4602B058
:10331000BDE87040184702B070BD00BF848900202E
:1033200063E60100B76DDBB6906D030010B5EFF3F7
:103330001184202383F31288BFF36F8F074A136829
:1033400023F00201DB07116002D401201CF06BF8AE
:1033500084F31188BFF36F8F10BD00BFD4890020A4
:10336000002270B5012104461046FFF7F7FC0F4814
:1033700002F058F80E4B984215D102F063F8266916
:103380000C4930461AF043FF00280BDB0125356459
:103390002469084904F11C001AF039FF002801DBF8
:1033A000E564002070BD6FF00400FBE7B13400005D
:1033B0000000AD0B047403001FB500220123CDE90A
:1033C0000223094ACDF800D06B46CDF804D01BF09B
:1033D00041F9002805DB4FF480420023684619F0CC
:1033E0004BF905B05DF804FB81E6010030B4104BE9
:1033F0000C2202FB003301460020D3E90E529863F1
:10340000EFF31180202484F31288BFF36F8F1C6CBC
:1034100004F0C00444F002041C6480F31188BFF37C
:103420006F8F1DB12B46034830BC184730BC704726
:1034300084890020906D030010B4EFF311822023E3
:1034400083F31288BFF36F8F1748016841F00204BD
:103450000460C80707D482F31188BFF36F8F01207F
:1034600010BC02F001B84FF08041D1F80C04D1F843
:103470000C14C907EFD5EFF3118083F31288BFF363
:103480006F8F0A490B6C03F0C00343F002030B6417
:1034900080F31188BFF36F8F82F31188BFF36F8FB2
:1034A000002010BCFFF7A2BFD4890020848900202F
:1034B00010B1012804D07047034B1B6C5B0701D18E
:1034C000FFF794BF704700BF848900202DE9F041C9
:1034D0003849BFF35B8F0746012251E8003F41E8BE
:1034E00000200028F9D1BFF35B8F33B9324933484C
:1034F0004B60CB608A601AF09DFE7B1E012B2BD89F
:10350000012F07D14FF08043D3F81C3403F003039D
:10351000012B21D033F024FA0546F8B9284B1B784B
:10352000E3B14FF080430222C3F808230646DFF8D8
:1035300094804FF08044D4F81824D4F81834D2037F
:1035400015D503F00303012B01D0012F0FD155B383
:1035500086F31188BFF36F8FBDE8F081EFF311861A
:10356000202383F31288BFF36F8F0125DFE7ADB10E
:1035700030461AF0E8FFD4F81835002BDBD1D4F828
:103580000421002AD7D0C4F80431D4F8043101232F
:10359000C4F81835C8F88031A360CCE70021212099
:1035A00033F062FAE7E74FF080430222C3F80423C6
:1035B000D2E700BF8089002070890020A089002008
:1035C000CCCE022000E100E008B5074833F0EDF86A
:1035D00038B10648FFF7D6FD0448FFF741F8002050
:1035E00008BD6FF01200FBE7106E0300F13500001C
:1035F0000A2838B5074D044604D1AB680D215B6835
:1036000028469847AB6803485B68E1B29847204674
:1036100038BD00BF106E0300EFF31182202383F347
:103620001288BFF36F8F0A4BD3F8001161B10021EC
:10363000D3F80805C3F80011D3F80031C0B282F303
:103640001188BFF36F8F70476FF00A00F7E700BF74
:1036500000D00040F0B5034610469C7893F803C0B4
:10366000EFF31182202585F31288BFF36F8F1F7847
:1036700093F801E0E41B04EA0C04A04288BFA0B266
:103680003E180CEA06063D461E7082F31188BFF311
:103690006F8F0A188A4216D177450CD1EFF3118249
:1036A000202181F31288BFF36F8F1978597082F34C
:1036B0001188BFF36F8F1B79241AA34222BF064BD8
:1036C00001221A60F0BD5E190135767901F8016BAF
:1036D00005EA0C05DEE700BF00D00040DB432DE922
:1036E000F04713F001050E46144604D02248FFF7B8
:1036F000B1FFBDE8F0879AB3EFF31188202383F37D
:103700001288BFF36F8F0D20FFF71AFB07460D20BD
:10371000FFF702FB88F31188BFF36F8FDFF85CA01F
:10372000DFF85C80CAF80051DAF800314FF4005934
:103730000123CAF800302546C8F88091DAF8003134
:1037400083B1FFF769FF031EC8F88091F6DB013DE6
:10375000ADB27355002DF1D117B10D20FFF7CEFAA0
:103760002046C6E7EFF31180202383F31288BFF3CE
:103770006F8F1AF0E8FEE1E7F889002000D00040E2
:1037800000E100E02DE9F041124F0D46144607F12B
:10379000350814B92046BDE8F0814FF0FF334FF0F3
:1037A000FF32384618F068FF224629464046FFF7A8
:1037B00051FF0646384618F02BFF3EB94FF0FF3256
:1037C0004FF0FF33044818F057FFE6E7A41BA4B2FC
:1037D0003544DEE7D8890020E889002038B5184C48
:1037E00001221146204633F038F80122002104F16D
:1037F000100033F032F840F2074323874FF0706334
:1038000023620C2384F8243000250E4B84F83550B5
:10381000E586D3F8042522F00102C3F8042501212E
:10382000C3F80051D3F80021C3F804132A461960E5
:103830000D20FFF793FA0D20FFF760FA284638BDF8
:10384000D889002000D0004010B5FFF7E5FE002821
:1038500020DB174B93F8222093F8214093F8231094
:10386000141B31EA0404C0B20DD193F8372093F849
:10387000364093F83810141B31EA04040BD10D4B79
:1038800001225A600EE09C180132114084F8250094
:1038900083F8221010BD9C180132114084F83A00C0
:1038A00083F837100448BDE8104018F0B1BE00BFDF
:1038B000D889002000D00040E8890020F0B51646E5
:1038C0004268107B01F01F0444EA4014106987B07D
:1038D000002872D0B6F5001F02F1100506D121466E
:1038E00028461BF031FE002007B0F0BD01A80027DC
:1038F000B6F5800F0197476039D1B3F1007F14BF4F
:10390000052304238DF804300023CDE90403039339
:10391000936823FA01F111F001010DF103073ED183
:10392000B6F1A07F3BD104F01F03620903F5E073F9
:1039300028D0012A47D1254A52F82330DB072ED45C
:103940003A462146284602F077F8214B98421CD08F
:10395000029703AA2146284601F030FF1D4B9842EA
:103960002ED101222146284602F0CAF8BBE7B3F166
:10397000C06F05D0B3F1007F14BF01230223C1E75C
:103980000323BFE74FF0A042D6E73946284602F0AE
:10399000B1F8104B9842DBD06FF00B00A4E73A4629
:1039A0002146284602F048F80A4B9842D1D19DF8AA
:1039B0000310284602F098F8CBE76FF0850093E7F4
:1039C0006FF0150090E751F82330FFDE0003005040
:1039D0000400AD0B0000AD0B420970B5034602D0E8
:1039E000012A17D070BD0D4E326951680029F9D0F7
:1039F00003F01F0301250C689D400029F2D08A685E
:103A00002A4002D04B68304698472CB123682146A3
:103A10001C46F2E7024EE7E72346F8E7D06D0300C5
:103A2000B06D030038B545682B69B3B11035284631
:103A300002F050F8044680B90146284602F016F814
:103A4000084B98420BD108492246284601F0EEFF68
:103A5000224605210620FFF781F9002038BD6FF0CE
:103A60000400FBE70000AD0BD93900002DE9F0435D
:103A7000466840F20635D006337B87B002EA05057A
:103A800054BFC2F34010032001F01F07B5F5837F38
:103A9000144647EA43178DF8030045D00DD8062D8C
:103AA00016D005D8A5B1022D40D06FF0150038E032
:103AB000B5F5807FF9D101250AE040F20222954256
:103AC00036D0B5F5407F35D0B5F5007FEDD1022574
:103AD0000123220303FA01F12ED57368C3F80815F8
:103AE000326992BB07F01F037F092BD0012F79D1D8
:103AF0003F4A02EB830284F48033D2F80017C3F309
:103B00000043C4F3404444EA430421F4E16144EA3D
:103B1000800421F0070144EA05230B43C2F8003773
:103B2000002007B0BDE8F0830725D1E70425CFE7E3
:103B30000525CDE70325CBE7630344BF7368C3F8CE
:103B40000C15CDE74FF0A042D3E710360DF102027D
:103B50003946304601F070FF14F4403F80460CD1E6
:103B6000394630461BF0EEFC224B9845D8D19DF8E3
:103B70000210304601F0B8FFD2E701AB4FF0000968
:103B800003AA39463046CDE90439CDE90199CDF88B
:103B90000C9001F013FE174B9842C1D114F400337E
:103BA00015D09DF803308DF80E3084F48034C4F3C2
:103BB00000444B4603AA394630468DF80C508DF828
:103BC0000D4001F0B5FE0B4B9842A9D1CCE7CDE9F1
:103BD000043303AA0DF1030339463046039301F081
:103BE000EDFDF0E703F5E07352F82330FFDE00BF90
:103BF000000300500000AD0B02780B69012A08D0C9
:103C0000022A08D04AB9064A5A6203F1140018F091
:103C1000FFBC044AF8E7044AF6E7044AF4E700BFA9
:103C20000000AD0B0100AE0B0200AE0B0100AD0BAE
:103C30002DE9F04FD0F81090D0F8048085B00546FB
:103C40000C461746029309F1040A4FF0FF324FF079
:103C5000FF33504618F010FD09F1140B0023002229
:103C6000584618F009FD404603F0A6F87B1E0026D2
:103C70000393B74201D8002322E0039B217AB34289
:103C800083BF237D83F00403C3F3800300230193E8
:103C9000029B0093D4E90023284600F04DF8034628
:103CA00070B94FF480420023584618F0E5FC98B1F3
:103CB000404603F091F8284600F02CF86FF004031A
:103CC0004046029303F088F8504618F0A1FC029B8E
:103CD000184605B0BDE8F08FD9F82430034A934266
:103CE00004F10C04EAD10136C3E700BF0000AD0BBC
:103CF00008B503464068826900F1080103F018F82E
:103D0000034B984214BF6FF00F00002008BD00BFA6
:103D10000000AD0B08B543681B68D3F80805D3F85D
:103D20000C1503F05FF9034B984214BF6FF00F00BE
:103D3000002008BD0000AD0B2DE9F04186B00C4617
:103D400047689DF834801546002112220DF10600C7
:103D50001E4632F053FFBDF830208DF8052004F0E8
:103D6000010314F008028DF804300296049519D16D
:103D7000A10704D4B8F1000F12D19BB9202201A9E8
:103D8000384603F045F80A4B98420ED00B33984260
:103D90000CBF6FF00F006FF0040006B0BDE8F081BB
:103DA0004022ECE76FF08500F7E70020F5E700BF61
:103DB0000000AD0BF7B5446805690646E06832F0CF
:103DC000F4FC002848D02846254940F8046B32F01E
:103DD0008FFD606900282ED0217E638BD0F810C043
:103DE000D0F808E0DCF80060DA0754BF43F4D013E1
:103DF00083F4B013012723F480128F40DB074CBFFC
:103E00003E43BE43CCF80060DEF8003098470028FF
:103E100020DB0021A42032F027FE237E60690121EF
:103E2000994003691B68194283680CBF1B69DB68F2
:103E3000984700280EDB18350A490022284632F040
:103E4000A1FE4FF4A47200232846CDE9002319F007
:103E500029FC002003B0F0BD6FF01200FAE700BFAC
:103E600057EB010019EB01002DE9F74F4568EC68AD
:103E700018348046002701944FF0010B6B68BB4259
:103E800004DC2B7D002B69D1002048E00C23D5F801
:103E900008A003FB07F60AEB06095AF8060032F001
:103EA00084FC00286DD0B9F806305AF8060099F85D
:103EB000041043F48032D0F810C0D0F8089013F00A
:103EC000010FDCF800300BFA01FE14BF4EEA0303C9
:103ED00023EA0E03CCF80030D9F800309847F0B947
:103EE00044F8188C2969204632F02EFD2B7D13B141
:103EF00001374834C2E7D5F80890234A09EB060A8F
:103F0000A4F114019AF804300BFA03F344E90423F2
:103F100059F806008368DB6923B96FF0570003B0D6
:103F2000BDE8F08F012298470028F8DB9AF80410CA
:103F300059F806001AF07CFE04F8080C59F806003F
:103F40009AF8041083689E69002EE6D04FF0C06393
:103F50004FF0A072B0470028CADAE0E72D684FF4AE
:103F6000004440F2E73000214FF47A720023E5FB71
:103F70000401FCF715F902460B46019818F068FD9C
:103F800082E76FF01200CAE759EC01007FB50346E3
:103F9000044653F8185D6968CA689B1A114ADB1019
:103FA00053438A68D618D05831791AF041FE031E5F
:103FB00015DB14F9082C9A4211D004F8083C4FF094
:103FC000FF304FF0FF313289003BCDE902014FF065
:103FD0000101009118BF01232846FFF73FF904B003
:103FE00070BD00BFACAAAAAA036803F01F025B0958
:103FF000026004D0012B034818BF002070474FF027
:10400000A0407047000300502DE9F04FDFF8949175
:10401000DFF894A185B01546834600EB810140F29C
:10402000FF18594503D1002005B0BDE8F08FDBF83B
:1040300000305E04C3F3C322C3F3080400F1AC8074
:104040001B0E19F80270444508BF4FF0FF34222BB5
:1040500000F2A580DFE803F012191F22252B22A30E
:10406000A3A3A33B68A3A3A3A3A3A3A3A3A36B811D
:104070008487A3A3A38A9194979A9D00C5F80C45C1
:10408000601C5ED10BF1040BCBE7C5F81445621C34
:10409000F8D000265FE0C5F80845F1E7C5F81045FF
:1040A000F5E7631CC5F80845ECD0002604E0661C63
:1040B000C5F80C45E6D0012603A80394FFF794FF4A
:1040C000039B012202FA03F3C0F80C3508E0C5F89F
:1040D0000845002FDBD1631CD4D0002632460627CA
:1040E000DBF80030019303F40040002818BF0022E1
:1040F00003A8009218BF01260394FFF775FF039CE5
:10410000019B009A00EB8400C3F3412CD0F80047D8
:104110003B0243EA8C03134304EA0A04234343EAC1
:104120004603C0F80037ADE7C5F80C45D1E7C5F840
:104130006045601CDBF80030A4D0C3F30043002BC3
:10414000B9D003A80394FFF74FFF039B012606FA9B
:1041500003F3C0F808353246C2E7C5F86445E8E71E
:10416000C5F86845E5E7C5F86C45E2E7C5F82445BC
:10417000621C87D000220126B2E7C5F828457FE7F8
:10418000C5F83045F4E7C5F83445F1E7C5F83845DA
:10419000EEE7C5F83C4573E76FF0150044E76FF0B4
:1041A000850041E77F370B00F0F8FCFF036803F060
:1041B0001F025B09026004D0012B034818BF0020D6
:1041C00070474FF0A04070470003005073B504469D
:1041D000002201211C20FEF7C1FD60682369244AEA
:1041E00000F1080101F066FE224B98423CD165685F
:1041F000AE6B01AA002130461AF073FD002805DBE2
:10420000019B326819791868FFF7FEFE00263146D7
:104210002B6801F5AC7253F82230002B0EDB01A89D
:104220000193FFF7C3FF019AD0F80435D34013F090
:1042300001031CBF01238B403343DEB2013104294B
:10424000E6D1002301206268916A00FA03F232424B
:104250000CBF01220022D20321F813200133042BCA
:10426000F1D1002002B070BD6FF00F00FAE700BF7F
:1042700009ED01000000AD0B2DE9F041044647684F
:104280000D4632F06DFB4FF0200888B9264B1B78A5
:1042900073B1642660681AF0F0FDF0B901201BF0DC
:1042A000B4F8013EF6D10021212032F0DDFBF0E729
:1042B000EFF31186314688F31288BFF36F8F606881
:1042C0001AF0DBFDA8B986F31188BFF36F8FEFE713
:1042D00086F31188BFF36F8FE5E7EFF31186314660
:1042E00088F31288BFF36F8F60681AF0C6FD00284C
:1042F000EED0BB691D706368BA691B680020C3F803
:1043000044250122C3F84825C3F82001D3F82041F1
:10431000C3F85801D3F858019A6081F31188BFF3AC
:104320006F8FBDE8F08100BFCCCE0220F7B5054607
:10433000002201210220FEF711FD0220FEF7DEFC23
:104340006A6811681369C1F82435137D507D927D28
:1043500003431343C1F86C356E68D6E9004313F08C
:10436000010348D02F6907F108001BF05AF8304BC1
:1043700098425AD1387A04F10C0204F590711BF07E
:1043800046F8387A012707FA00F000F0E3FF082327
:10439000C4F80035B369C4F844350023C4F848357F
:1043A000A760D4F85831002BFBD00021C4F80015C9
:1043B0006B68DC6801AA20461AF093FC002805DB34
:1043C000019B226819791868FFF71EFE6A68136856
:1043D0000821C3F80015117A51B9D269C3F8342500
:1043E0000122C3F83825C3F81011D3F810111A6050
:1043F000002003B0F0BD0822C4F80025B269C4F85B
:104400004425C4F848350123A360D4F82031002B9B
:10441000FBD00023C4F82031D4F820310123E3601D
:104420004FF48073C4F80433BBE76FF00400E0E797
:104430000000AD0B7FB50546406829698A6C0B6D9D
:104440000ABBABB14C6C8B6516461A46C96C02911F
:10445000CDE9004611B3002B18BF13460022694670
:10446000039301F021FF0E4B98420AD06FF0040332
:104470002C69236304F1200018F0CAF8002384F8A3
:104480005C3004B070BD4C6C13B19A4228BF1A4620
:10449000002C8A6514BF16460026D7E70B46DDE7D9
:1044A0000000AD0B2DE9F04F89B00469009343681B
:1044B00001938B88074698040E4691462AD44FF004
:1044C000FF324FF0FF3304F1100018F0D5F86660AA
:1044D000D7F81080D7F804A098F85D3023B1D8F849
:1044E00000309E4200F0B280B6F804C01CF4006FA9
:1044F00017D06FF08505236813B19B889B0405D402
:104500000023636004F1100018F082F8284609B017
:10451000BDE8F08FA369002BD1D163689942CED159
:10452000D6E71CF0090F02D06FF01505E3E7CCF3D6
:104530004513082BF8D13568A34B9D42F4D90AF1F5
:10454000080BBBE80F000DF10C0EAEE80F00DBF816
:104550000030CEF800309D4B9D4250D99C4B9D427F
:1045600050D99C4B9D4250D99B4B9D4250D99B4B5F
:104570009D4250D99A4B9D422CBF4FF000454FF0C1
:1045800080451CF0020F05950CF0040346D0002B6B
:1045900014BF032302238DF81830CCF300138DF8D9
:1045A0001930DAF80030D3F80835591C12D01CF055
:1045B000020F03F01F00CCF340014FEA53134FF0FA
:1045C000010232D173B3934240F0F680854B8240B2
:1045D000C3F80C2598F85D302BB1504601F02CFE45
:1045E000002388F85D3043467F4A03A9504601F016
:1045F000EFFD7E4B984224D06FF004057BE74FF02F
:104600000075BEE74FF08065BBE74FF00065B8E787
:104610004FF08055B5E74FF00055B2E7003B18BFAB
:104620000123B8E74FF0A043D1E73BB1012B40F0A5
:10463000C6806C4B8240C3F80825CBE74FF0A043FF
:10464000F8E7012388F85D30C8F80060012384F89A
:104650005C30019B596A4A1C03D003F128001AF010
:1046600044FDB9F1000F40F08780C4F83490002376
:10467000A36304F1480204F1380104F134001AF094
:1046800032FC009B6064002B7FD1E3630023236432
:1046900004F1500204F1400104F13C001AF023FC43
:1046A000E06420680023236348B183683BB10121A3
:1046B00008301AF02BFC2368186932F071F838467C
:1046C000FFF7B8FE0023A06B1A46824266D1002293
:1046D000256C1146A94268D19342264638BF13463D
:1046E0004FF4FA5202FB03F556F8203B4FF0000856
:1046F0001B68B5FBF3F54FF4004CC835414640F25A
:10470000E7304FF47A720023E5FB0C01FBF748FD1C
:1047100002460B46304617F0AFFF18B9256B15F16E
:10472000740F13D10198C4F8588001F085FD84F806
:104730005D803F696FF073053D6307F1200017F05E
:1047400067FF87F85C80304617F0BCFF2368002BBA
:104750003FF4D1AE9A68002A3FF4CDAE998811F4A7
:1047600080567FF4C8AE186932F01AF820683146D6
:1047700008301AF0CBFBBEE6D9F800306363002B9B
:104780003FF475AFD9F8043072E7009B1B68E36310
:10479000002B3FF47BAF009B5B6878E7616B01EB1C
:1047A000C201013249680B448FE7E06B00EBC100A6
:1047B0000131406802448DE7C1F80C15FFDE00238B
:1047C000C3F80835FAE700BF47E801008FD00300BF
:1047D0001FA107003F420F007F841E00FF083D001D
:1047E00000127A00000300504FF001000000AD0BF2
:1047F00000F01F0240090DD001280ED10A4B03EB37
:1048000082030A4AD3F80007024042EA8102C3F851
:10481000002770474FF0A043F1E702F5E072002354
:1048200053F82230FFDE00BF00030050F0F8FCFF19
:10483000F0B587B001238DF8023002238DF80430E3
:104840006B4403930F4601AB0DF103010024049365
:1048500005460291059401F04DF90C4B984206462D
:104860000FD103AA3946284600F0A8FFB0420BD06A
:104870009DF80310284601F037F96FF0040007B0E7
:10488000F0BD6FF01200FAE72046F8E70000AD0B2C
:104890002DE9FF410569D0F804802B6D0646A86C10
:1048A000002835D1002B53D0B8F838406A6CEF6C33
:1048B0009C4228BF1C46EB6C53B1296D41B107F0F7
:1048C0006041B1F1005F03D0082C6F6E28BF08244F
:1048D00000926A6CAC651AB1AA6C002A18BF224615
:1048E000CDE901271BB12B6D002B18BF23460022F9
:1048F00069464046039301F0C9FF184B984229D0FE
:104900006FF00401304604B0BDE8F0411AF002BD7A
:10491000696CEF6CB8F838400A46ABB1834228BFE7
:1049200003469C4228BF1C460029C4D001F06043C6
:10493000B3F1005FBFD0082C28BF08242246286EA0
:1049400032F034F92A6EB6E7844228BF0446EBE71A
:104950001946D7E704B0BDE8F08100BF0000AD0BF9
:104960002DE9F04F8FB004690193436802938B885F
:1049700007469804884691462ED44FF0FF324FF0F8
:10498000FF3304F1100017F077FEC4F80480D7F865
:1049900004B0D7F810A0DBF8083003939AF85D3024
:1049A00023B1DAF80030984500F0B580B8F804E09B
:1049B0001EF4006F17D06FF08505236813B19B8834
:1049C0009B0405D40023636004F1100017F020FE5F
:1049D00028460FB0BDE8F08FA369002BCDD16368E6
:1049E0009942CAD1D3E71EF0090F02D06FF0150526
:1049F000E3E7CEF34513082BF8D1D8F800C0984B65
:104A00009C45F3D90BF10C060FCE04AD0FC50FCEAC
:104A10000FC5039B634528BF63469C4696E8030089
:104A2000904B9C4585E8030017D28F4B9C4514D2D0
:104A30008E4B9C4511D28E4B9C454CD88D4B9C4542
:104A40004BD88D4B9C454AD88C4B9C4549D88C49BA
:104A50008C4B8D4A8C4588BF13461EF0020F09937C
:104A60000EF004033FD0002B14BF032302238DF864
:104A70002830CEF300138DF82930DBF80030D3F85E
:104A80000835591C12D01EF0020F03F01F00CEF3A0
:104A900040014FEA53134FF001022BD13BB3934235
:104AA00040F0D680794B8240C3F80C259AF85D30EF
:104AB0002BB1584601F09CFE00238AF85D303B463E
:104AC000734A04A9584601F05FFE724B98421DD00C
:104AD0006FF0040571E7704BBFE7704BBDE7704B9B
:104AE000BBE7704BB9E7003B18BF0123BFE74FF0AE
:104AF000A043D8E73BB1012B40F0AD80634B82402F
:104B0000C3F80825D2E74FF0A043F8E701238AF85D
:104B10005D30CAF80080012384F85C30029B196C78
:104B20004A1C03D003F144001AF0DFFAB9F1000F78
:104B300068D1C4F834900023A36304F1480204F15F
:104B4000380104F134001AF0FDFA019B6064002B77
:104B500060D1E3630023236404F1500204F14001B7
:104B600004F13C001AF0EEFA00252A46E064012127
:104B7000204625631AF02EFB3846FFF789FEA06B0E
:104B80002A462B4683424DD10023256C1946A94263
:104B90004FD19A42264638BF1A464FF4FA5303FBC8
:104BA00002F556F8203B4FF000081B68B5FBF3F503
:104BB0004FF4004CC835414640F2E7304FF47A726A
:104BC0000023E5FB0C01FBF7EBFA02460B463046EF
:104BD00017F052FD024618B9256B15F1740F2FD14D
:104BE0000298C4F8588001F003FE84F85D806FF0ED
:104BF000730138461AF08EFB304617F063FD6FF0F4
:104C00007305DAE6D9F800306363002B93D0D9F846
:104C1000043091E7019B1B68E363002B9AD0019B52
:104C20005B6898E7616B01EBC301013349680A4493
:104C3000A8E7E06B00EBC100013140680344A6E740
:104C4000002D3FF4BAAE014638691AF0C3FAB4E653
:104C5000C1F80C15FFDE0023C3F80835FAE700BFE2
:104C600047E801000048E8010024F40000127A003F
:104C7000FF083D007F841E003F420F001FA1070078
:104C80008FD0030048E8010090D0030000030050DB
:104C900037F301000000AD0B00093D0080841E00C9
:104CA00040420F0020A1070070B5012383400E4A47
:104CB000BFF35B8FDC4352E8001F01EA040542E8C2
:104CC0000056002EF7D1BFF35B8F4FF48032824045
:104CD0000648C0F80823BFF35F8FBFF36F8F0B4206
:104CE00014BF0120002070BD4C8A0020001001403C
:104CF00070B40E49D1E90034D01AC31844F100044D
:104D000022F07F46C1E90034A6F50013B3F5400F49
:104D100009D2074B1B681A0A1B069C19054B42F166
:104D20000005C3E9004570BC18F0BCBBA00400201E
:104D3000508A0020A804002011B3BFF35B8F012329
:104D4000104A834052E800CF4CEA030C42E800C10D
:104D50000029F7D1BFF35B8F0B4A4FF480338340B8
:104D6000C2F80433094BBFF35B8F1B68BFF35B8F43
:104D7000C340DB0742BF064B4FF40032C3F80021AB
:104D8000704700BF4C8A002000100140488A002074
:104D900000E100E00D4B1868010A0006BFF35F8FC9
:104DA0000B4BD3F80435181841F10001B3F5801FFF
:104DB0000AD2084BD3E90023904271EB030303D2DC
:104DC00010F1807041F10001704700BF508A00204F
:104DD00000100140A80400202DE9F04F85B01646D0
:104DE0001F469DF840A00446FFF75EFF0190FFF7C5
:104DF000D1FFB04271EB070354D23E4B301A67EB40
:104E00000101984271F100014FD23B4B03EB0413B7
:104E1000D3E902239F4208BF96425ED037494FF440
:104E2000803804F1500508FA04F8AD00C1F8488351
:104E30002046ADB21AF0D8FA26F07F4B05F1804536
:104E400004F5A87305F58835DC464FF00309029395
:104E5000029A2CF07F4341F82230C1F84483D1F804
:104E60000435274A6FF00200C01A604420F07F40EA
:104E7000904232D9286868B1D1F804350393A3EB86
:104E80000B0020F07F40B0F5000F26D920461AF025
:104E9000ABFA039BBAF1000F07D109EB030C09F140
:104EA0000109D5E7BAF1000F09D06FF015052046CA
:104EB0000199FFF741FF284605B0BDE8F08F0123B7
:104EC000104ABFF35B8FA34052E8000F184342E83B
:104ED00000010029F8D1BFF35B8F07490E98230129
:104EE00001EB0412C8500F9B5360C2E90267002512
:104EF000DDE700BF010080009004002000100140A9
:104F0000FDFF7F00488A00207FB51C4C1C4BC4F875
:104F10000833C4F848331B4B00254FF0FF304FF0E7
:104F2000FF31C4F80855C3E902014FF48033C4F8D7
:104F30000433154B02264FF400320121C4F80463F8
:104F40001120C3F880212A46FDF708FF1120FDF744
:104F5000D5FE0E4A0123A360236013600C4B0D4A5B
:104F60000093CDE9015500232846FFF735FF304671
:104F7000FEF7ACFA284604B070BD00BF0010014037
:104F800003000F009004002000E100E04C8A0020A4
:104F9000F14C0000FFFF7F002DE9F7432F4CD4F8C0
:104FA000043399070BD5D4F8043143B12C4A0023BC
:104FB000C4F80431D4F80431136801331360D4F811
:104FC0000433DA0329D5BFF35B8F264B53E8002F58
:104FD00022F0010143E800100028F7D1BFF35B8FF6
:104FE000D30702D4D4F84031BBB10025C4F84051F6
:104FF000D4F84031FFF7CEFEEFF31182202383F384
:105000001288BFF36F8F184BD3E90267B042B941E2
:1050100006D282F31188BFF36F8F03B0BDE8F0832F
:105020004FF0FF384FF0FF39C3E90289D3E9001090
:105030001D604FF48033C4F84833C4F84051D4F8AD
:10504000403182F31188BFF36F8F0029E5D00090C3
:1050500032463B4628468847DFE700BF0010014044
:10506000508A0020488A00209004002030B5431C5C
:10507000124C85B005D08442A8BF0446012CB8BFAD
:105080000124FFF787FE0E4B0C4DD3E90013401AA5
:10509000B0F5000F10D22218AA4228BF2A46521893
:1050A0004FF0000007490091CDE9010043F10003F2
:1050B000FFF792FE05B030BD2A46F0E7FFFF7F0004
:1050C000A0040020F14C000008B5FFF763FE024B7E
:1050D0001B68C01A08BD00BFA00400204FF0805319
:1050E000D3F83021082A06D1D3F83431052B02D861
:1050F000024AD05C70470020704700BFC2370B00E7
:10510000024AD2F80034002BFBD0704700E0014087
:1051100010B54FF08053D3F83021082A4ED14FF00C
:1051200080420021C2F80C11C2F81011C2F83815E3
:1051300002F54042D3F80414C2F82015D3F808143D
:10514000C2F82415D3F80C14C2F82815D3F810149B
:10515000C2F82C15D3F81414C2F83015D3F818146B
:10516000C2F83415D3F81C14C2F84015D3F8201433
:10517000C2F84415D3F82414C2F84815D3F82814FB
:10518000C2F84C15D3F82C14C2F85015D3F83014CB
:10519000C2F85415D3F83414C2F86015D3F8381493
:1051A000C2F86415D3F83C14C2F86815D3F840145B
:1051B000C2F86C15D3F84434C2F87035FFF78EFF8F
:1051C00018B13A4B3A4AC3F88C26FFF787FF18B15B
:1051D000384BFB22C3F81825FFF780FF70B14FF062
:1051E00080414FF08053D1F8E42ED3F8583222F0AA
:1051F0000F0203F00F031343C1F8E43EFFF76EFF05
:1052000020B12D4B4FF40072C3F840264FF080536D
:10521000D3F83031082B1AD14FF08043D3F8002453
:10522000D20744BF6FF00102C3F800244FF080534F
:10523000D3F83431052B02D8204AD35C3BB14FF070
:105240001023D3F808224FF08043C3F858254FF0BD
:105250001023D3F80022002A03DBD3F80432002BFA
:1052600022DA174901234FF01020C1F80435122427
:10527000FFF746FFC0F80042FFF742FFC0F80442C4
:10528000FFF73EFF0023C1F80435FFF739FFBFF3F6
:105290004F8F0C490C4BCA6802F4E0621343CB6099
:1052A000BFF34F8F00BFFDE710BD00BF00500040AF
:1052B0004881030000F0004000900240BC370B0022
:1052C00000E0014000ED00E00400FA0530B504689C
:1052D000CCB1BFF35B8FB4FA84F3C3F11F03DBB22D
:1052E00001229A4024EA020250E8005FA54204D15C
:1052F00040E8002CBCF1000FF6D1BFF35B8FE6D184
:1053000002480B7030BD0248FCE700BF0000AD0B47
:105310000200AD0B10B50368CB40DB0714D40123AA
:105320008B400268BFF35B8F43EA020150E8004FF5
:10533000944204D140E8001CBCF1000FF6D1BFF349
:105340005B8FEED1014810BD0148FCE70000AD0BBA
:105350000400AD0B014BC3F80405704700F0014099
:10536000F7B50546F8B101281BD104224FF480732C
:1053700001464FF0804003440244C0F80813002661
:10538000012111601E608D421B688DF8071008BF57
:105390000DF1070642F210744FF0804745B1012D20
:1053A00028D003B0F0BD0C224FF482730221E0E755
:1053B000D7F8183403F480333EB9002BF1D0012024
:1053C0001AF023F8013CF3D1EBE7D7F8182402F0E8
:1053D00003023260002BE4D09DF80700012803D1BE
:1053E0001AF013F8013CD9D1012DDAD10C4B00226F
:1053F0005A71D6E7D7F80C3403F480333EB9002B4A
:10540000F4D001201AF001F8013CF3D1EEE7D7F80F
:105410000C2402F001023270002BDDD1E6E700BF60
:10542000548A0020044B1A7922B9012218609A800C
:105430000248704702487047548A00200000AD0BB4
:105440000C00AD0B08B5074B1B682BB10020FDF716
:1054500077FC08B9FDF752FC4FF080430022C3F8F7
:10546000182508BD548A002010B510B1012843D07A
:1054700010BD4FF08043D3F81814D3F81824C80394
:1054800021D502F00303012B04D013B10020FFF754
:1054900067FF00234FF080420220C2F8183508222F
:1054A0004FF4827303F180430021196002F18042BE
:1054B0001C6801241460154A12680AB34FF0804337
:1054C000C3F80403D4E7D3F81424D107E1D5D3F803
:1054D0001C249207DAD40D4A12681AB10222C3F8CA
:1054E0000423C5E7D3F80421002AFBD00022C3F827
:1054F0000421D3F80431BBE700224FF48073D1E7D5
:105500001A68002AFCD019601B68B1E7548A002091
:10551000F8B54FF080431C4ED3F804430125002713
:1055200004B9F8BDB4FA84F0C0F11F00830003F59C
:1055300080739BB203F1804305FA00F2196892B2BE
:1055400024EA02040029EBD01F601B684FF080435F
:10555000012AC3F8082305D0022A08D03368C0B254
:105560009847DDE77379002BDAD17271F6E7D3F84B
:105570001814D3F818148907F0D1C3F81855C3F8D4
:1055800004239D60CCE700BF548A0020036803F029
:105590001F025B09026004D0012B034818BF0020E2
:1055A00070474FF0A040704700030050034A430982
:1055B00000F01F00D35C1844C0B27047C8370B001E
:1055C00070B50546FFF7F2FF0C4C08300E4634F874
:1055D0001030DA0508D5C3F3432304EBC302284691
:1055E00054F8333052689847A3682BB1E2683146CB
:1055F0002846BDE87040184770BD00BF1401002068
:1056000008B5FFF7D3FF034B083033F81000400B09
:1056100008BD00BF1401002008B5FFF7C7FF034B0A
:10562000083033F81000C0F3400008BD140100201A
:1056300008B5FFF7BBFF034B083033F81000C0F389
:10564000401008BD14010020034611F0010010B500
:10565000CCB20DD1A207C4F3400012D5094AD2F84A
:1056600020055860C2F82005003818BF012008E066
:105670004FF0A041D1F820251A60C1F82025002A5A
:10568000E8D010BD0003005010B5FFF78FFF124A9D
:10569000083032F81030D9051CD5C3F3432123F468
:1056A000F85322F8103002F10E04002034F8023FC3
:1056B00013F4807F03D0C3F3432399420AD001300F
:1056C0003028F3D1002342F831300448BDE81040BF
:1056D000FFF720BE10BD00BF140100208C01002088
:1056E000F0B5054600200446012607468C420BD142
:1056F000114BD3F87C2132B10022C3F87C21D3F8BE
:105700007C3140F00040F0BDE3B29B0003F58072B5
:105710009B0806FA03F31D420BD002F1804202F50A
:10572000C042D2F800C0BCF1000F02D0176012686E
:1057300018430134DAE700BF00600040F7B50646C1
:105740000846FFF733FF194F00F108050C4637F8FC
:105750001530DB0727D5304619F0D0FE2046FFF77D
:1057600067FF40B12046FFF74BFF316800F5A2709C
:10577000002341F820302046FFF786FF002301A8D0
:1057800027F815300194FFF701FF019B00EB830020
:10579000074BD0F80027134043F00203C0F800374E
:1057A000044803B0F0BD0448FBE700BF140100202B
:1057B000F0F8FCFF0000AD0B0400AD0B2DE9FF413C
:1057C000164680460846FFF7F1FE0D46316804464E
:1057D00009B32846FFF720FF18B12846FFF728FF36
:1057E00010BB0023CDE900338DF80E308DF80F305B
:1057F0000DF10F020B4628460DF10E0119F015FEB2
:10580000474A04F1080132F8113023F0020343F053
:10581000010322F81130736863B328461F78596872
:10582000FFF7FAFE10B1D1B13E4826E03C4A04F140
:10583000080032F8103023F02003DB04DB0C22F8E0
:10584000103061B1032FEFD87168496891F800C03A
:10585000D8F80010A7B90CF5A27C41F82C70304A9A
:1058600004F1080132F8113023F01C0343EA8703E6
:1058700022F81130B3684BBB2B4804B0BDE8F0816F
:1058800001EB8C0143EA4C33D1F810E52EF0030E06
:10589000C1F810E5D8F8001001EB8C0E43F020039E
:1058A000DEF8101522F8103021F44F3121F4407148
:1058B000CEF810152902DEF8108501F47C5141EA7A
:1058C000074141EA0801CEF81015C8E7D3E900679F
:1058D0002846FFF7D9FE002ECED0114DD5E9002382
:1058E000964203D19F4201D1002209E00F480DF1F9
:1058F0000F01FFF7EBFC0C4B9842BED19DF80F2037
:1059000045F8326005EBC20308345F6035F81430A7
:1059100043EA422343F4807325F81430ACE700BF18
:10592000140100200400AD0B0000AD0B8C01002021
:105930002DE9F0430C4685B08046204611461E46B0
:10594000FFF734FE054629B32046FFF765FE18B978
:105950002046FFF76DFE18BB314F05F1080937F8F7
:10596000193013F01C0F02D04B78012B18D00123F3
:105970008DF80F300023CDE900134A1C8B1C204604
:105980000DF10F0119F051FD37F8193043F0030301
:1059900027F81930002E41D02046FFF73DFE18B9F8
:1059A000204805B0BDE8F08396F800C0D8F8003074
:1059B0001B4F0CF5A272002143F8221005F10802DA
:1059C00037F8121021F02001C904C90C27F8121071
:1059D00075781DB3D8F80000B67800EB8C002D0464
:1059E000D0F8103523F4991323F4F853C0F8103588
:1059F000230203F47C5305F440353605D0F810E556
:105A00002B4306F4801641EA4C31334341F0200128
:105A100043EA0E0327F81210C0F810350248C0E719
:105A2000140100200400AD0B0000AD0B014BC3E9D5
:105A3000021270471401002010B508461446FFF703
:105A4000F7FD50B10846FFF7B1FD054B083033F8BC
:105A5000103004485B0B237010BD0348FCE700BF07
:105A6000140100200000AD0B0400AD0B70B5164D05
:105A700095F8804006462CBB2146602205F11000B7
:105A800031F0BCF830682E6F21468E420ED10023D3
:105A9000C0F87C31D0F87C3140F30730FDF72EF9A7
:105AA00001230A4885F88030AB6770BDCBB29B00FC
:105AB00003F580727C2B08BF845001F1010108BFFF
:105AC0008358E2E70248F0E7140100200000AD0B24
:105AD0000C00AD0B034B93F88000003818BF012079
