:1000000080EC02203D28000031E101002928000099
:1000100029280000292800002928000000000000ED
:1000200000000000000000000000000001290000A6
:100030002928000000000000A12800002928000055
:10004000CD2A0000CD2A0000CD2A0000CD2A0000D4
:10005000CD2A0000CD2A0000CD2A0000CD2A0000C4
:10006000CD2A0000CD2A0000CD2A0000CD2A0000B4
:10007000CD2A0000CD2A0000CD2A0000CD2A0000A4
:10008000CD2A0000CD2A0000CD2A0000CD2A000094
:10009000CD2A0000CD2A0000CD2A0000CD2A000084
:1000A000CD2A0000CD2A0000CD2A0000CD2A000074
:1000B000CD2A0000CD2A0000CD2A0000CD2A000064
:1000C000CD2A0000CD2A0000CD2A0000CD2A000054
:1000D000CD2A0000CD2A0000CD2A0000CD2A000044
:1000E000CD2A0000CD2A0000CD2A0000CD2A000034
:1000F000CD2A0000CD2A0000CD2A0000CD2A000024
:100100007BB972B90029BEBF00204FF0004106E064
:1001100008BF00281CBF6FF000414FF0FF3000F017
:1001200057B8ADF1080C6DE904CE002909DB002BAE
:100130001ADB00F057F8DDF804E0DDE9022304B033
:100140007047404261EB4101002B1BDB00F04AF895
:10015000DDF804E0DDE9022304B0404261EB410137
:10016000524263EB43037047524263EB430300F098
:1001700039F8DDF804E0DDE9022304B0404261EB28
:1001800041017047524263EB430300F02BF8DDF866
:1001900004E0DDE9022304B0524263EB43037047FD
:1001A00053B94AB9002908BF00281CBF4FF0FF31DE
:1001B0004FF0FF3000F00CB8ADF1080C6DE904CE43
:1001C00000F010F8DDF804E0DDE9022304B0704728
:1001D000704700BF034613F8012B002AFBD1181A01
:1001E000013870472DE9F04786468C460846089E40
:1001F000154674461946002B40F0C2808542B2FA7B
:1002000082F245D94AB1C2F1200300FA02FC2EFA6B
:1002100003F3954043EA0C0C94404FEA154EA8B204
:10022000BCFBFEF8230C0EFB18CC08FB00F943EADC
:100230000C43994528D9EB1808F1FF3704D29945AA
:1002400002D9A8F102072B44A3EB0903A4B2B3FB24
:10025000FEFC0EFB1C330CFB00F044EA0344A042FE
:1002600014D92C190CF1FF3304D2A04202D9ACF1FD
:1002700002032C44241A43EA07401EB1D440002351
:1002800034607360BDE8F0874746DDE76346F1E719
:1002900092BB431B01214FEA154EAFB2B3FBFEFCEC
:1002A000200C0EFB1C330CFB07F840EA0343984577
:1002B00062D9EB180CF1FF3004D2984502D9ACF1A9
:1002C00002002B44A3EB0803A4B2B3FBFEFC0EFB1D
:1002D0001C330CFB07F744EA0344A7424ED92C1900
:1002E0000CF1FF3304D2A74202D9ACF102032C4433
:1002F000E41B43EA0040C0E7C2F1200320FA03F107
:10030000954090402EFA03F303434FEA154EAFB2E7
:10031000B1FBFEFC0EFB1C10190C0CFB07F841EAAC
:100320000041884504FA02F422D969180CF1FF3023
:1003300004D2884502D9ACF102002944A1EB08019E
:100340009BB2B1FBFEFC0EFB1C110CFB07F743EA52
:1003500001439F420ED9EB180CF1FF3104D29F42AA
:1003600002D9ACF102012B44DB1B41EA004192E7C8
:100370006046E3E76146F7E76046A3E76346B7E711
:10038000834206D916B9002108467BE7C6E900E09A
:10039000F9E7B3FA83F78FB9834201D3724508D8DE
:1003A000BEEB020460EB030301209C461EB9002152
:1003B00068E73846FAE7C6E9004CF8E7C7F1200CD1
:1003C000BB4022FA0CF41C432EFA0CF120FA0CF379
:1003D000B84001434FEA14490EFA07F5B3FBF9F8A8
:1003E0001FFA84FE09FB18300B0C08FB0EFA43EAD7
:1003F00000439A4502FA07F240D9E31808F1FF30AA
:1004000004D29A4502D9A8F102002344A3EB0A03BF
:1004100089B2B3FBF9F809FB183308FB0EFE41EA79
:1004200003418E452CD9611808F1FF3304D28E4563
:1004300002D9A8F10203214443EA0040A0FB02983C
:10044000A1EB0E014145CE46434602D306D14D45B0
:1004500004D2B9EB020E68EB04030138002EA6D0DB
:10046000B5EB0E0261EB030101FA0CFC22FA07F373
:100470004CEA0303F940C6E9003198E74046C5E776
:100480004346D9E701EB4101490010B4FF23B1FB1A
:10049000F3F319449CB2062301F0FF02B0FBF3F121
:1004A00001FB13000138C0B2042896BF084B094B6A
:1004B00053F82030062C07D003EB840153F82400B6
:1004C000496810BC1DF0D4B9986910BC704700BFD2
:1004D000386E0300D86E03002DE9F04FDFF850832B
:1004E000D44FD54CD54E8DB04FF0000A0B23CAEB3C
:1004F0000A21B1FBF3F1D24BC9B21878FFF7C2FF62
:1005000048226FF07F4105461DF0B2F958F804BB50
:100510008146BBF1000F37D0D82128461DF0CBF91A
:100520002EF040FEC0F307238DF80000C0F3074013
:100530008DF801308DF8020000225846009922F013
:1005400063FD482128461DF0B6F958F804BC2EF08A
:1005500029FEC0F307238DF80400C0F307408DF88F
:1005600005308DF8060001990022584622F07FFDE3
:1005700058F8040C0022D22122F055FD58F8040C42
:100580000022AA2122F082FDD6F800B0BBF1000FB4
:1005900050D004226FF07F4128461DF069F92EF0FB
:1005A00001FEC0F307238DF80800C0F307408DF863
:1005B00009308DF80A0000225846029922F024FDE5
:1005C000142128461DF077F9D6F800B02EF0EAFD88
:1005D000C0F307238DF80C00C0F307408DF80D30F1
:1005E0008DF80E0003990022584622F023FD28467C
:1005F000D6F800B02EF0D6FDC0F307238DF810001A
:10060000C0F307408DF811308DF8120004990022D4
:10061000584622F057FD306800220A2122F044FD9E
:1006200030680022012122F046FD30680022D221EC
:1006300022F057FDD4F800B0BBF1000F51D048466E
:100640002EF0B0FDC0F307238DF81400C0F307406F
:100650008DF815308DF8160005995846002222F0C5
:10066000D3FC5822294648461DF002F9D4F800B0C0
:100670002EF098FDC0F307238DF81800C0F3074053
:100680008DF819308DF81A0006990022584622F08C
:10069000D1FC4846D4F800B02EF084FDC0F3072307
:1006A0008DF81C00C0F307408DF81D308DF81E003A
:1006B00007990022584622F005FD20680022DC211F
:1006C00022F0B1FC20680022082122F0EDFC206815
:1006D0000022012122F0EFFC20680022AA2122F052
:1006E00000FDD7F800B0BBF1000F33D06C226FF0E3
:1006F0007F4128461DF0BCF82EF054FDC0F30723BF
:100700008DF82000C0F307408DF821308DF82200CD
:1007100008990022584622F077FC48463D682EF0A2
:1007200041FDC0F307238DF82400C0F307408DF886
:1007300025308DF8260009990022284622F0C2FCB7
:1007400038680022062122F0AFFC38680022AA2176
:1007500022F0C7FCBAF10B0F05D00AF1010A0437E9
:1007600004340436C2E6324CE06A40B1002211463D
:1007700022F093FC0022E06A114622F087FC2F4C05
:10078000E06A40B10022114622F08EFC0022E06AAD
:10079000114622F0A6FC284CE06A40B10022114626
:1007A00022F082FC0022E06A114622F09AFC214CE1
:1007B000E06A40B10022114622F076FC0022E06A95
:1007C000114622F08EFC1F4D2E6876B31C4C1C2166
:1007D0002078FFF757FE2EF0E5FCC0F307238DF8D5
:1007E0002800C0F307408DF829308DF82A00002238
:1007F0000A99304622F008FC20782D68EB21FFF79B
:1008000041FE2EF0CFFC8DF82C00C0F30723C0F37F
:1008100007408DF82E008DF82D300B9900222846C8
:100820000DB0BDE8F04F22F005BC0DB0BDE8F08F73
:10083000A888002018880020488800207888002098
:1008400035CE0220008800202DE9F74F1F4B204CA9
:10085000DFF88080DFF88090204FDFF884A0214D02
:10086000DFF884B001930026019B57F8040B43F88E
:10087000046B44F8046B48F8046B49F8046B01936B
:1008800048B1012120F0ABFC002357F8040C1A46B4
:10089000052120F0E8FC286840B1012120F09FFCF0
:1008A000002328681A46052120F0DDFC5AF8040BC5
:1008B00020B1DBF80010033920F058FC0B4B9C42B0
:1008C00005F10405D0D103B0BDE8F08F9C8700206E
:1008D000CC8700206C8700203C870020788800208F
:1008E000188800204888002038870020FC870020D6
:1008F00010B51CF0FBFF084BD3E90042041B61EB71
:100900000202B42C72F10002A1BFC3E90001034B43
:1009100001221A7010BD00BF9002002039CE0220C3
:1009200010B51CF0E3FF084BD3E90042041B61EB58
:100930000202B42C72F10002A1BFC3E90001034B13
:1009400001221A7010BD00BF8802002038CE02209C
:1009500010B51CF0CBFF084BD3E90042041B61EB40
:100960000202B42C72F10002A1BFC3E90001034BE3
:1009700001221A7010BD00BF8002002037CE022075
:1009800010B51CF0B3FF084BD3E90042041B61EB28
:100990000202B42C72F10002A1BFC3E90001034BB3
:1009A00001221A7010BD00BF7802002036CE02204E
:1009B00008B50C4B1B788BB91CF098FF0A4B0B4AFF
:1009C0001B681268C31A9A4238BF9B1A084A28BF8C
:1009D0000023B3FBF2F002FB103008BD054B186892
:1009E000ECE700BF34CE02202887002020870020BB
:1009F0002CF204002487002038B50B4D04462868EB
:100A000028B1214633F0B3F8286820F047FE074D9F
:100A1000286838B1214633F0AAF82868BDE8384084
:100A200020F03CBE38BD00BF148800201088002094
:100A300070B50E4E04463068B0B10D4D2B689BB1B9
:100A40000C4910F015FA0B49286810F011FA5CB93E
:100A500030682246214622F0B4FA28682246214610
:100A6000BDE8704022F0ADBA70BD00BF1488002010
:100A700010880020E3D8010070B51F4E044630688E
:100A8000002838D01D4D2B68ABB3ACB1042117F052
:100A90002FFA2868042117F02BFA3068002202216F
:100AA00022F04AFB28680022022122F045FB0020A8
:100AB000BDE87040FFF7BCBF032117F019FA2868A2
:100AC000032117F015FA30682246012122F034FB89
:100AD00028682246012122F02FFB3068224641F28D
:100AE000504122F03EFB2868224641F2504122F05C
:100AF00038FB0120DCE770BD14880020108800203E
:100B0000F8B5124E336803B3114B1B68EBB1FFF716
:100B10004FFF104B1C68002C054614DDA0FB0401A0
:100B2000E7170D4A002305FB0711FFF739FB0128E2
:100B30000146B8BF0121A142A8BF21463068BDE8E7
:100B4000F84020F035BB0121F8E7F8BD008800200F
:100B500004880020348700202CF2040030B51F4B9D
:100B60001B6887B00446D3B11D4B1B68BBB11D4B3E
:100B70001D4D1B78ABB978B11C4B1D4A0092CDE9D5
:100B80000332CDE901321B481B4A0593C02111F005
:100B90006BF91848FFF730FF4FF0FF332B6007B0B9
:100BA00030BDFFF705FF4FF47A73B0FBF3F214B9D1
:100BB0002B689A42F3D03C212A60B2FBF1F301FB8F
:100BC0001322009218210D4A0D4811F04DF90C48DE
:100BD00007B0BDE83040FFF70FBF00BF148800200A
:100BE000108800203BCE0220000000202C8803004B
:100BF000498803005CCD02203A8803005288030034
:100C00001CCE0220014604488368DB690BB1012237
:100C100018476FF057007047F8690300014640F22B
:100C2000E73080B500EBC1304FF47A720023490CF5
:100C3000FFF7B6FA084E094F05460C4633782BB13C
:100C4000BB6806485B694FF4005198472846214627
:100C500035F01EFDF2E700BF3CCE0220F86903002C
:100C60002DE9F04F0B48C1B01CF080FE40B10A489E
:100C70004FF4B0111CF0DDFD10B9084B01221A70C1
:100C8000074835F0A6FB78B906481DF078F8FA2039
:100C9000FFF7C4FFF8690300BC6F03003CCE0220DD
:100CA000F86A030060880300DC481CF05FFE00283F
:100CB00040F0F584DA481DF062F8D8481CF056FE82
:100CC000002840F00A85D7481DF059F8D3481CF099
:100CD0004DFE002840F01F85D3481DF050F8CF4846
:100CE0001CF044FE002840F03485D0481DF047F841
:100CF000CF48D04D83680B9330A91B6ACE4CDFF8E8
:100D00003C839847BDF8C0302B60BDF8C2302360EB
:100D100008F03CFED5F800A0D4F800B0BAF1780F86
:100D2000ABF12C03C5BF0C22AAF131010622B1FBA5
:100D3000F2F2182B0092B8BF18230393009B0C24E7
:100D40005C432134AAEB0404631CA8BF04EBD474F5
:100D50004FF000024FF0FF01ACBF641000240746C3
:100D600022F061F9B6482EF01DFAC0F307238DF882
:100D70009000C0F307408DF891308DF8920000226A
:100D80002499384622F040F9002138461CF0BCFD79
:100D9000102138461FF01FF80021384620F057FE7A
:100DA0000021384620F069FE384605F0D1FF5A464A
:100DB0005146054620F02AFA00221146284620F026
:100DC000ECF900221146284622F067F9002211466C
:100DD000284622F0B8F9284600211CF095FD002293
:100DE000FF21284622F01FF995482EF0DBF9C0F3C9
:100DF00007238DF89C00C0F307408DF89D308DF8D7
:100E00009E0027990022284622F0FEF88D482EF0F9
:100E1000C9F9C0F307238DF89800C0F307408DF897
:100E200099308DF89A0026992846002222F002F97E
:100E300000222846012122F00CF9102128461EF03C
:100E4000CAFF284616F09AF84146064632F004FDDD
:100E5000B8F80620B8F8041052084908304632F0B5
:100E6000F8FB4FF46171304632F078FB304620F0E9
:100E70006FFD0022BE21304622F06CF9284605F0B5
:100E800067FF5A465146054620F0C0F90022114638
:100E9000284620F082F900221146284622F0FDF86B
:100EA00000221146284622F04EF900225A212846F7
:100EB00022F0B9F864482EF075F9C0F307238DF8D5
:100EC0009400C0F307408DF895308DF8960000220D
:100ED0002846259922F098F8284610211EF07BFF1D
:100EE000384605F035FF594D2860002800F0BC87D2
:100EF0005A46514620F08AF900222868DFF85091BE
:100F0000DFF85081114620F048F900222868114688
:100F100022F0C3F800221146286822F014F94E4846
:100F20002E682EF03FF9C0F307238DF88C00C0F334
:100F300007408DF88D308DF88E00239930460022C1
:100F400022F062F8002211462868444E22F06BF825
:100F500010212868424D1EF03EFF384616F014FC62
:100F6000C9F80000384616F00FFCC8F800003846F3
:100F700005F0EEFE2860384605F0EAFE03463060D4
:100F8000D9F80000002800F06F87D8F80020002A68
:100F900000F06A872A68002A00F06687002B00F0BC
:100FA0006387304932F0E3FDD9F80000AAF10A0165
:100FB00020F0FEF8D9F800002B49002222F0AEF80C
:100FC000D9F800000022012122F0AFF8D9F8000082
:100FD0000022022122F0B0F8D9F8003001934FF638
:100FE000F5702EF0DFF8C0F307238DF88800C0F30A
:100FF00007408DF889308DF88A00229901980022E7
:1010000022F076F8D9F800000022B42122F07FF80F
:1010100004230122D9F8000028E000BFF86903008A
:101020007B880300F688030075890300F4890300B8
:10103000F86A03000800002004000020C46F0300C9
:1010400012030500260714000E060500088800207C
:101050001488002010880020784DFF0004880020AC
:101060000C8800202C88030048780300022120F01F
:10107000FAF8D8F80000D14932F079FDD8F800002C
:10108000AAF10A0120F094F8D8F80000CC49002217
:1010900022F044F8D8F800000022012122F045F89F
:1010A000D8F800000022022122F046F86FF07F40BD
:1010B000D8F800902EF076F8C0F307238DF884005E
:1010C000C0F307408DF885308DF886002199484699
:1010D000002222F00DF8D8F800000323AAF11E0820
:1010E0000022022120F0BFF828680222414620F0A9
:1010F0008DF81A2328680022022120F0B4F800227B
:101100002868114621F0C9FF2868002247F6FF71C0
:1011100022F019F828680022B92121F084FFA9489B
:10112000D5F800902EF03EF8C0F307238DF880002C
:10113000C0F307408DF881308DF88200209900229D
:10114000484621F061FF4DF2FF60D5F800902EF087
:1011500029F8C0F307238DF87C00C0F307408DF811
:101160007D308DF87E001F990022484621F0AAFFAD
:10117000286800220A2121F097FF28680022B42164
:1011800021F0AFFF2868904D10211EF024FE8F4BF8
:101190003068C3F800800622414620F037F81E234D
:1011A00030680022022120F05EF830680022012120
:1011B00021F073FF30680022782121F067FF0022C0
:1011C000306847F6FF7121F0BEFF306800211CF047
:1011D0009BFB00223068B42121F025FF30681021EC
:1011E0001EF0F9FD306805F0B3FD2860002800F01E
:1011F0003B860622012120F009F800231A462868C0
:10120000072120F030F800221146286821F045FF20
:101210002868002247F6FF7121F095FF2868002218
:10122000FF2121F000FF00222868022121F011FF98
:10123000286810211EF0CFFD654B039A1A6002EB5F
:101240004212642392FBF3F30493039B049A0594E4
:10125000033B9B1A1093009B033311935D4B089340
:101260005D4B0C935D4B06935D4B07935D4B099370
:101270005D4B0A934FF00009384605F069FD0B23DA
:10128000C9EB0921B1FBF3F1584BC9B206461878F6
:10129000FFF7F8F820226FF07F4101901CF0E8FA88
:1012A0006221029001981CF006FBEB210E90019840
:1012B0001CF001FBA5210D9001981CF0FCFA0F9089
:1012C000002E00F0D185304605F042FD054630463F
:1012D00005F03EFD0446304605F03AFD8046002DFF
:1012E00000F0C285002C00F0BF85002800F0BC850E
:1012F0000A9B0C9A43F8046B0A93099B009943F8E4
:10130000045B0993079B43F8044B0793069B43F840
:10131000040B06934FF4045342F8043B0C92089AD2
:1013200042F8043B0892324A42F82930314A3046AA
:1013300042F82930039A1FF069FF059924223046AC
:101340001FF02BFF00221146304621F0A6FE01219E
:1013500030461CF0D9FA00220321304621F0F3FE7A
:101360000022B921304621F05EFE0D982DF01AFFC3
:10137000C0F307238DF87800C0F307408DF879306B
:101380008DF87A001E990022304621F03DFE0022A1
:101390000121304621F081FE00227821304621F0E3
:1013A00075FE0F982DF0FEFEC0F307238DF8740034
:1013B000C0F307408DF875301EE000BF2C88030095
:1013C00048780300FFFD2D000088002034870020AE
:1013D000388700209C870020CC87002018880020B8
:1013E0004888002078880020A888002035CE022078
:1013F0006C8700203C8700208DF8760000221D9924
:10140000304621F034FE102130461EF0E4FC009BF3
:10141000023B194628460D931FF0CAFE0499284640
:101420001FF0DDFE00231A46052128461FF01BFF92
:1014300000221146284621F030FE002203212846D2
:1014400021F081FE0022FF21284621F0ECFD0298C8
:101450002DF0A8FEC0F307238DF87000C0F30740FD
:101460008DF871308DF872001C990022284621F009
:10147000CBFD0E982DF096FEC0F307238DF86C007F
:10148000C0F307408DF86D308DF86E001B99002277
:10149000284621F0CFFD00220121284621F0D9FD68
:1014A00001982DF07FFEC0F307238DF86800C0F38C
:1014B00007408DF869308DF86A001A990022284695
:1014C00021F000FE00220A21284621F0EDFD002235
:1014D0000121284621F0EFFD0022D221284621F0EB
:1014E00000FE102128461EF076FC009B2046191FA6
:1014F0001FF05EFE049920461FF071FE00231A467D
:10150000052120461FF0AFFE00221146204621F0A3
:10151000C4FD00220221204621F015FE0022A82150
:10152000204621F080FD64226FF07F4102981CF07C
:101530009FF92DF037FEC0F307238DF86400C0F348
:1015400007408DF865308DF8660019990022204615
:1015500021F05AFD01982DF025FEC0F307238DF8E8
:101560006000C0F307408DF861308DF86200189973
:101570000022204621F05EFD00220121204621F0BC
:1015800068FD78226FF07F4102981CF071F92DF010
:1015900009FEC0F307238DF85C00C0F307408DF807
:1015A0005D308DF85E0017990022204621F08AFDFB
:1015B00000220821204621F077FD0022012120464B
:1015C00021F079FD00229621204621F08AFD10218C
:1015D00020461EF000FC0D9940461FF0E9FD032156
:1015E00040461FF0FCFD109A012140461FF0D5FD3A
:1015F00000221146404621F050FD002247F6FF71BF
:10160000404621F0A0FD0022FF21404621F00BFDC5
:1016100096226FF07F4102981CF02AF92DF0C2FD4E
:10162000C0F307238DF85800C0F307408DF85930F8
:101630008DF85A0016990022404621F0E5FC0298E8
:101640002DF0B0FDC0F307238DF85400C0F3074020
:101650008DF855308DF8560015990022404621F03E
:1016600031FD00220621404621F01EFD002201210D
:10167000404621F020FD00229621404621F031FD18
:10168000102140461EF0A7FBB9F10B0F00F0B0800F
:10169000059B119A134409F101090593ECE53C48B7
:1016A0004FF480311CF0C5F810B13A48FFF703BB86
:1016B00037481CF040F910B13748FFF7FCBA3748FB
:1016C000374B43604FF400638360FFF79BFA0028B9
:1016D0003FF4F3AA3348FFF7EEBA33484FF48031B2
:1016E0001CF0A7F810B13148FFF7EEBA2E481CF0F5
:1016F00022F910B12E48FFF7E7BA2E482E4B43606F
:101700004FF480538360FFF77DFA00283FF4DEAA90
:101710002A48FFF7D9BA2A484FF480311CF089F8DB
:1017200010B12848FFF7D9BA25481CF004F910B1C8
:101730002548FFF7D2BA2548254B43604FF0807308
:101740008360FFF75FFA00283FF4C9AA2148FFF73A
:10175000C4BA21484FF480311CF06BF810B11F4817
:10176000FFF7C4BA1C481CF0E6F810B11C48FFF79C
:10177000BDBA1C481C4B43604FF000738360FFF7F9
:1017800041FA00283FF4B4AA1848FFF7AFBA00BFE7
:10179000B46F030093880300AF8803001487002010
:1017A000F1080000D4880300AC6F03000F89030028
:1017B0002C890300088700202109000052890300BA
:1017C000A46F03008E890300AB890300FC86002010
:1017D00051090000D18903009C6F03000D8A0300AA
:1017E0002A8A0300F086002081090000508A030045
:1017F00000221146304621F050FC002211463046AE
:1018000021F044FC00221146284621F04DFC002224
:101810001146284621F065FC00221146204621F0A1
:1018200043FC00221146204621F05BFC00221146B9
:10183000404621F039FC00221146404621F051FC7F
:10184000384605F085FA0446002800F00D835A4614
:1018500051461FF0DBFC0022114620461FF09DFC84
:1018600000221146204621F018FC00221146204695
:1018700021F069FC2DF0CCFCC0F307238DF850005B
:10188000C0F307408DF851308DF8520014990022B2
:10189000204621F0B9FB00226421204621F0C3FB41
:1018A000102120461EF097FAD44B18681B798DF84A
:1018B000D4300BEB4B1541F6C7139D42349038469C
:1018C000CABF64234FF0420895FBF3F805F040FAD5
:1018D000CB4BAAF10C061860002800F0C582ABEBD8
:1018E0000803023BC74AC84DC54C1360002BB8BF64
:1018F00000230BF10201B8BF136029604246314654
:101900001FF084FC2A68206806211FF046FC002294
:101910000121206821F0C1FBBC4825682DF042FC64
:10192000C0F307238DF8BC00C0F307408DF8BD302D
:101930008DF8BE002F992846002221F098FB2068E0
:101940000022B42121F0A2FB002220680A2121F00C
:10195000FAFB002120681BF0D7FFAD4825682DF069
:1019600021FCC0F307238DF8B800C0F307408DF8C1
:10197000B9308DF8BA002E992846002221F044FB98
:101980000022DC21206821F04EFB002025682DF08C
:1019900009FCC0F307238DF8B400C0F307408DF8AD
:1019A000B5308DF8B6002D992846002221F08AFB2B
:1019B000206800220C2121F077FB00222068B4214E
:1019C00021F08FFB206810211EF005FA206800210D
:1019D00020F03DF8BAF1850FA8F10E0540F30A8119
:1019E0000E22AAF13203B3FBF2F462431A32B61AA2
:1019F00006EBD6780B2E4FEA6808D8BF4FF00608E2
:101A0000A31C0093C2464FF00E097D4B186805F0E9
:101A10009FF90646002800F027822A4621461FF03B
:101A2000F5FB5146092230461FF0B7FB0022022188
:101A3000304621F088FB00220121304621F02DFBA9
:101A400074482DF0AFFB8DF8B000C0F30722C0F34F
:101A500007408DF8B1208DF8B2002C990022304655
:101A600021F005FB0022AF21304621F00FFB6FF083
:101A70007F402DF097FB8DF8AC00C0F30722C0F338
:101A800007408DF8AD208DF8AE002B99002230462E
:101A900021F0BAFA0022E621304621F0C4FA0022F1
:101AA0001146304621F000FB102130461EF093F91C
:101AB00009F1FF39009B19F0FF099A44A5D138229A
:101AC0005443B4F5C87FB2BF04246423B4FBF3F4D9
:101AD00004EBD4793A234FEA69095D436423B5FBEB
:101AE000F3F30193C9F1000302934FF000094FF0A3
:101AF000000A34AA424B1AF8026018684E44F6B243
:101B000001360D2E6BD8009B06FB0386029B1E44FC
:101B100005F01EF90546002800F0A681019A21462D
:101B20001FF074FB0922314628461FF036FB0022C5
:101B30000221284621F007FB00220121284621F03E
:101B4000ACFA35482DF02EFB8DF8A800C0F3072223
:101B5000C0F307408DF8A9208DF8AA002A99002229
:101B6000284621F084FA0022DC21284621F08EFA52
:101B70002A482DF017FB8DF8A400C0F30722C0F30C
:101B800007408DF8A5208DF8A60029990022284647
:101B900021F03AFA0022FA21284621F044FA20489E
:101BA0002DF000FB8DF8A000C0F30722C0F3074022
:101BB0008DF8A1208DF8A20028990022284621F056
:101BC00081FA00220621284621F06EFA502128468B
:101BD000002221F086FA102128461EF0FCF80AF1B6
:101BE000010ABAF1050F84D1B9F1070F1AD04FF0ED
:101BF00007097CE70624A04602E700BF286E030021
:101C0000FC870020308700202C8700204A2E2A00E5
:101C1000140A0700C6B9B40042221F0028100B00A6
:101C2000FF6C5A00A44B012118681EF020FB3846B7
:101C300005F08EF80446002800F016815A4602216D
:101C40001FF0E4FA00231A46082120461FF00BFB80
:101C500000221146204621F020FA0022114620469B
:101C600021F071FA95482DF09DFAC0F307238DF805
:101C70004C00C0F307408DF84D308DF84E0013999D
:101C80000022204621F0C0F90022FF21204621F049
:101C9000CAF9102120461EF09EF8FEF71DFCFEF743
:101CA0002FFF0020FEF7E8FE0120FEF757FF0B9BF9
:101CB0005B68002B40F0DF801BF018FE804B186043
:101CC0001BF014FE0746884604460D467D4B1B78E4
:101CD00063B17C4A002313707B4B187880F00100BD
:101CE0001870FEF7C9FE0120FEF738FF774B1A780F
:101CF000EAB1DFF8DC9100221A7099F8003006266C
:101D00000133B3FBF6F206FB123389F80030FEF71D
:101D1000E3FB99F80030B3FBF6F206FB1233DBB2BB
:101D20001C2253436B4A6C48D1581CF028F86B4B6B
:101D30001A78CAB1DFF8A8916A4E4FF0000A83F80A
:101D400000A099F80030002B40F09880012389F81A
:101D500000301BF0CBFD3060FEF776FD62481CF0D2
:101D60000EF80120FEF7FAFE604B1A78002A48D0E0
:101D70005F4E96F800A04FF0000B83F800B08AF099
:101D800001095C4B86F800900093009B53F8040B0C
:101D9000009328B10121BAF1000F7BD01EF01BF88F
:101DA0000BF1010B5FFA8BFBBBF10C0FEDD1524A2B
:101DB0001068002876D00121BAF1000F6DD01EF016
:101DC0000AF8DFF8F4A0DAF8000080B14B490FF010
:101DD0004FF84B4BDAF8000019681FF0C7F9DAF832
:101DE00000000121B9F1000F60D01DF0F4FF31783F
:101DF000444A454B454800290CBF114619461BF083
:101E0000BEFF1BF073FDB84271EB080306468B461C
:101E100023DB844275EB01034BDA041B61EB050500
:101E2000C92C75F100054FF43053A8BFC8245C439A
:101E30004FF47A73B4FBF3F30293294B1B78002B16
:101E40006ED0FEF701FDFEF75BFE0020FEF786FE7A
:101E5000771D4BF1000834465D460FF0F7FC00217A
:101E6000422034F015FC31E729481BF088FF4FF47D
:101E7000FA70FEF70DBF274898471DE71BF036FDA7
:101E8000254A3168136889F800A05B1A034413607F
:101E9000224864E71EF0EBF982E71EF0E8F9FEF74E
:101EA000D3FC8EE7B9F1000F8BD0F8E71EF0DFF915
:101EB0009DE73823C0E700BFFC8700201203050020
:101EC0002887002039CE02203BCE022038CE0220C7
:101ED00035CE0220F46E03008B8A030037CE022039
:101EE00034CE022024870020978A030036CE0220B9
:101EF0003ACE0220A888002008880020E9D80100F6
:101F0000308700205C88030096720B00BC8A0300B7
:101F1000738A0300F86A030020870020A98A03005F
:101F2000FEF746FDC74BC849C84D984296BF1423DB
:101F300043F64E70B0FBF3F00C2303FB001134ACFE
:101F40000023642711F8012B15F8010BDFF800C3FB
:101F500012FB00F00133BCEB002FDBB24FEA002292
:101F6000B4BF4FF4C842B2FBF7F20C2B44F8042B79
:101F7000E8D1349AB54DB74F542301245A43002079
:101F800021469C464FF0640E0DF5807808EB8404E2
:101F9000083354F8304C02EBC402044692FBF3F3CE
:101FA0002A5D5343AA4A9342CCBF4FF4C84393FBE4
:101FB000FEF30C2947F8243017D040AA02EB810227
:101FC00040AB03EB810352F8342C53F8303C084605
:101FD0000131C9B2D2000C290CFB03224FF00B04D3
:101FE0004FF05C03DAD00C46CEE79A4B9A4FDFF8FD
:101FF0006C92DFF86CA2DFF86C82303305939A4B59
:1020000000939A4B0393934B0193019B58F8042B35
:1020100053F8041B01938B1A00F1CC804FF4A0708D
:1020200043431B12B3F5006FA8BF4FF40063802B2E
:10203000ACBFD21880329142C0F2CC8048F8042C58
:1020400058F8043C002B80F2C880002348F8043C78
:1020500084234B43642293FBF2F30B44B3F5C84F44
:102060003868A8BF4FF4C8431A1A394600F1BC803B
:102070004FF4C37462431212B2F5805FA8BF4FF4ED
:102080008052802AACBF801880308342C0F2BC806E
:1020900038603B68002B80F2B98000233B6058F821
:1020A000043CD9F80020934280F2B7800298121ABB
:1020B0009A42B8BF1A46002AC9F8002080F2AF80C1
:1020C0000022C9F800200D6859F8042B04921B1255
:1020D00007F104074FEA252500F1CE80642B00F3B9
:1020E000A580212B00F3A380614A14689D424FF024
:1020F0004802B8BF1D4604FB03F1514344F61F6379
:10210000642DA8BF64259942D8BF022104FB05F5C0
:1021100002FB05F5C4BF42F2107291FBF2F1A1423D
:10212000A8BF21469D42C4BF42F2107395FBF3F550
:10213000009B1868D8BF02251FF051F8DDF800C0D9
:1021400000235CF8040BCDF800C01A4605211FF0EF
:102150008AF8DAF8000060B1AC422146A8BF2946EF
:102160001FF03DF80023DAF800001A4605211FF0A1
:102170007AF8039B53F8040B039398B13C4B049AF1
:102180001B6811125943482251433A4A91FBF2F11C
:102190001944033921EAE1719A1E9142A8BFD91E60
:1021A0001EF0E4FF059B019A93420AF1040A7FF4B2
:1021B0002CAF48E66FF0A90043431B12B3F5407FF4
:1021C000A8BF4FF44073552BACBFD21A553A914279
:1021D0007FF734AF48F8041C32E7B3F5C84F7FF7F8
:1021E00037AF4FF4C84331E76FF0EF046243121288
:1021F000B2F5106FA8BF4FF41062552AACBF801A19
:10220000553883427FF744AF3B6042E7B3F5C84F90
:102210007FF745AF4FF4C84340E71A464BE7B2F5A6
:10222000C84F7FF750AF4FF4C8424AE764237D227E
:10223000213B53436422B3FBF2F321339342A8BF03
:10224000134651E72BF204001E3B0800128B0300DB
:10225000631027009C8700206C8700203C870020AB
:1022600048880020CC87002078880020188800202B
:1022700038870020F0D8FFFF002335E7014B1B68AB
:10228000184700BF0C000020014B1860704700BFCA
:102290000C00002030B585B004460D461022002108
:1022A000684634F0BFFA02238DF802302A46044B08
:1022B0000193214668461BF05FF805B030BD00BFB2
:1022C0007D22000080B505460E46174698461AF056
:1022D000E9FC034634F012FBDFF81890044649F895
:1022E0000030424630463946A84754F8090000F00D
:1022F000C1FA00BF080000002DE9F047058B044635
:102300002807904611D4022905F0070540F0CC803B
:1023100020461BF041FD78B10138218B042811D8EB
:10232000DFE800F0C2106D85950001290CBF45F073
:10233000100545F02005258388F31188BFF36F8FC2
:10234000BDE8F08701F0070AAA4500F0A580002744
:10235000B9463E46A368002B00F0BC8041F008015E
:10236000218388F31188BFF36F8FA168002900F0E3
:10237000BA800D68002900F0B680D1F80480334699
:1023800052462046C047002D76D02B6829461D4670
:10239000F0E701F007035A1F012A1BD8002221F0A1
:1023A0000701062B276889B2C4E9002209D13B4600
:1023B00003E0628B013262831B68002BF9D141F08C
:1023C0000201218320461BF0E7FC00287AD041F06F
:1023D000200176E0042B0AD121F0070189B2218384
:1023E00020461BF0D9FC10B141F020012183218B44
:1023F00001F0070AAA454FD00027B946AAE723698A
:1024000021F0070141F00601062DD3F80090218349
:102410002DD1B9F1000F3FD041F00801218388F39D
:102420001188BFF36F8F3A492046C84729E021F051
:102430000701236941F0040189B2042DD3F8049007
:102440002183E6D000273E464FF0040A82E721F0C0
:102450000701236941F0050189B2052DD3F80890E1
:102460002183D6D000273E464FF0050A72E70027A9
:102470003E464FF0060A6DE72B4687E7B9F1000F9D
:10248000D1D1EFF31188202383F31288BFF36F8F2C
:10249000238B23F008032383258BEA062ED525F012
:1024A0001003238305F007056669218B002EBFF614
:1024B00070AF00232768C4E9003321F0070141F021
:1024C00001012183218B01F0070AAA454FF0000981
:1024D0007FF440AF002F9CD041F00801218388F3A6
:1024E0001188BFF36F8F002FC8D03D68394633463F
:1024F000524620461BF07CFC2F46F4E7AB067FF5E6
:102500001BAF25F02003238305F0070500E700BF7C
:102510001DDE0100014B036000207047E06F0300E7
:1025200030BFFFF7FDBF00BF2DE9F0410B4EDFF8D4
:10253000308006EB0807CC1B054632460949204689
:1025400034F048F9A01942460021083C34F06AF9F9
:102550002C6707F10800BDE8F08100BF0000000013
:1025600004000000FC6D0300054B5A699B689A4209
:102570001FBF044A536843F080535360704700BF45
:1025800020CD022000ED00E070B5264B15469A6A7A
:1025900012F0100F9A6A14BF1124102412F0080FC1
:1025A0009A6A18BF1224920706460AD5586B9A6A8F
:1025B000140634D519B19A6A22F080029A62132463
:1025C00001E06FF01500174B9A6A12F0010F9A6A3A
:1025D00018BF142412F0200F9A6A18BF1524D206CF
:1025E00002D49B6A9B070AD50E4B5B68190506D57A
:1025F000314600F025FA10B180F309880224094B16
:102600009A6A920642BF5A6A22F400525A629A6A41
:1026100042F0FF029A6200232B70204670BD6FF0DB
:102620001500CCE700ED00E0134B9A6A12F0007F32
:102630009A6A14BF1E201D2012F0807F9A6A18BF6C
:102640001F2012F4002F9A6A18BF212012F4802F45
:102650009A6A18BF222012F4003F9A6A18BF2320FA
:1026600012F4803F9A6A6FEA02426FEA12429A625B
:1026700018BF2420704700BF00ED00E010B5194BD3
:102680000246986A9C6A10F4805F14BF17201620D7
:1026900014F4006F9C6A18BF1820A40509D5986B24
:1026A000986A000404D51AB19A6A22F400429A6228
:1026B00019200C4B9A6A12F4806F9A6A18BF1A207C
:1026C000D2050CD49B6A13F4005F18BF1C20054A86
:1026D000936A43F47F43936200230B7010BD1B2069
:1026E000F5E700BF00ED00E0F0B5484B5B688BB04C
:1026F0000446C3F30803002585F31188BFF36F8FE9
:1027000002F07F40B0F17F4F11D102F00C00082899
:102710000DD010074CBF0C4601250022033B8DF85D
:102720000720032B05D8DFE803F0246367602C46FD
:10273000F3E700239DF80720CAB902AE04F1200791
:1027400020686168324603C20834BC421646F7D19D
:10275000099A002D54D0C2F3080121B96FEA522220
:102760006FEA4222099202A918461BF0D7FC0BB06F
:10277000F0BD264BDA6A9107DBD4DA6A002AD8DB8F
:10278000DA6A5200D5D55A69A16942F480725A6159
:10279000BFF34F8FBFF36F8F5A6931F8021C22F4D9
:1027A00080725A61BFF34F8FBFF36F8F4DF6027285
:1027B00091420AD09A6AD2B24AB10DF107020121C0
:1027C0002046FFF7E1FE0346B4E72368B2E79A6AC2
:1027D00012F47F4F05D00DF107010120FFF74EFFE6
:1027E000F1E79B6AB3F5803FA3D3FFF71DFFEAE74C
:1027F0000DF107020021E3E70DF107010020EDE7ED
:1028000022F4FF7222F00102ACE700BF00ED00E00D
:10281000044B5A6942F010025A615A6922F00802C8
:102820005A61704700ED00E0EFF30880EFF3098193
:1028300001B57246FFF758FF01BD00BF0B4880F39A
:10284000088802F079FA202080F3118808484FF4B4
:102850000461401880F30988EFF3148002210843D3
:1028600080F31488BFF36F8F00F0B2F880EC022081
:10287000C0D20220084B9B6883420BD1EFF3058343
:1028800043B1064B5A6842F080525A605A6A22F4A9
:1028900000425A621AF00CBA20CD022000ED00E08E
:1028A00014498A684FF030001044EFF3098C80E837
:1028B000F01F202080F31288BFF36F8F0E4F4FF070
:1028C00000664A698A603E60106F0C4C2060506F51
:1028D0000023536780F3118804B5104600F014F903
:1028E000BDE8044002F1300090E8F01F8CF3098845
:1028F0007047000020CD022004ED00E0F0880020A9
:102900001EF0040F0CBFEFF30880EFF3098081691C
:1029100011F8021C0229FFD001B572461BF004FC1D
:1029200001BD00BF40B2002807DB044A4109012372
:1029300000F01F00834042F82130704700E100E0C2
:1029400040B200280CDB4309064900F01F00203389
:102950000122824041F82320BFF34F8FBFF36F8FD6
:10296000704700BF00E100E0054B420900F01F0086
:1029700053F82220012303FA00F01040704700BFF3
:1029800000E100E040B20028A8BF00F1604001F182
:102990000101B8BF064B4FEA4111ACBF00F56140E1
:1029A00000F00F00C9B2B4BF195480F8001370478B
:1029B00014ED00E0044B054A23F07F039360BFF35E
:1029C0004F8FBFF36F8F70470000000000ED00E0F5
:1029D00008B5FFF7EFFF0B4AD2F8883023F47003F5
:1029E000C2F88830EFF3148323F0040383F31488D0
:1029F000BFF36F8F19F0F2F91AF08EFA00F05AF85F
:102A000019F030FA00ED00E042F8203C009B42F85B
:102A10001C3C0A49019B42F8183C029B42F8143CBA
:102A200021F001014FF0807342F8043C42F8081C89
:102A30000023203A02654367704700BFC5220000AB
:102A4000094A0346906870B113F1160F006E05D065
:102A5000A0F140029A4205D8834203D2814228BFA6
:102A6000002070470020704720CD022008B5154691
:102A70000B4A0C4B9060026F1A600E4600F044F84F
:102A80002C4686F309880020034B984720460021F6
:102A900000220023014C204747E10100C52200002D
:102AA00020CD0220F0880020014B10221A617047CF
:102AB00000ED00E0044800232021C2180133302B30
:102AC00082F80013F9D1704700E100E008B5EFF398
:102AD0000583064A103B02EBC30152F833004968F4
:102AE0008847BDE80840FFF73FBD00BF786B030093
:102AF000024B034A0348012100F076B8000004208D
:102B000000000020F86F0300026E054B403A1A6087
:102B1000044A4021C3E901121846012100F06EB8B1
:102B2000F488002000000B15084AC2F898000B68D2
:102B300023F01F03034343F01003C2F89C308B685B
:102B400043F00103C2F8A030704700BF00ED00E081
:102B50002DE9F043DFF8608085B00E461F4604463D
:102B60004FF00009B14523DA6068D8B13FB1411E8A
:102B700008421BD11F2819D92368194216D123688E
:102B800001931BF003FBA36803430393D8F8905011
:102B9000C5F30725D0B2013DA84207D801A9FFF728
:102BA000C3FF421C09F101090C34DBE76FF0150289
:102BB000104605B0BDE8F08300ED00E0044B0522AF
:102BC000C3F89420BFF34F8FBFF36F8F704700BFE0
:102BD00000ED00E0BFF35F8F024B0022C3F89420AA
:102BE000704700BF00ED00E010B5034C01232278D0
:102BF000FFF7AEFF207010BD3DCE022008B50B4A96
:102C000000231278FFF7A4FF10F1160F07D0084A2F
:102C10000021D2F89030C3F30723984200DB08BDAF
:102C2000C2F89800C2F8A0100130F2E73DCE0220B1
:102C300000ED00E02DE9F043534B544CD3F89030B5
:102C40002568C3F307239D4285B000F29A80FFF701
:102C5000C1FF00200C2685421AD14D4C4D4F2570E6
:102C60006846FFF757FCDFF82081DFF82C91064615
:102C70000025AE4213D1237843490020D1F890209B
:102C8000C2F30722934276DBFFF798FF002042E071
:102C9000616806FB0011FFF747FF0130DBE7009892
:102CA00000EB05114FEA051CCB683B40B3F5000F64
:102CB00048D00AD8B3F5001F30D0B3F5800F36D016
:102CC000B3F5801F10D00135D3E7B3F1807F42D038
:102CD000B3F1007FF7D150F80C3088684A681BF0D8
:102CE00055FA40F4802009E050F80C3088684A68B2
:102CF0001BF04CFA40F0885040F43020CDE901231D
:102D00000390D8F890302078C3F30723013B984212
:102D10002AD96FF0150005B0BDE8F08350F80C30EB
:102D200088684A681BF032FA40EA0900E6E750F882
:102D30000C3088684A681BF029FA40F0C06040F403
:102D40000030DBE750F80C3088684A681BF01EFA48
:102D500040F08270D2E750F80C3088684A681BF067
:102D600015FA40F08870C9E701A9FFF7DDFE237866
:102D700001332370A7E7C1F89830C1F8A0000133F0
:102D80007CE74FF0FF30C6E700ED00E00470030081
:102D90003DCE02200000F0FF0000081108B5024BF4
:102DA0001B689847002008BD00890020034B044A97
:102DB0001860937843F002039370704700890020F5
:102DC0001000002008B50649064821F00701C1F1AE
:102DD000005202F580221AF093FF002008BD00BFC8
:102DE000CF730320048900200E4A0123C2F8403526
:102DF0004FF080424FF08051C2F87835D1F8300161
:102E0000082808D1D1F83411052904D80648415CB6
:102E100009B1C2F838364FF080430122C3F880254B
:102E20000020704700E0014004330B0020B1034B49
:102E3000800143F001031847704700BF306E030064
:102E40007FB50D4D0D4E4FF0FF324FF0FF3301A90E
:102E5000284619F0C7F80028F5D1094CB442F2D23F
:102E6000236813B1019A934203D1D4E9013101A837
:102E700098470C34F2E700BF24020020FC6D0300E9
:102E8000F06D0300F0B585B0DDE90C5417461E4621
:102E9000019023469DF828008DF808002C432A460F
:102EA0008DF80910ADF80A7003960AD0094933F07D
:102EB00025FDD1F88040084909588C4204BF002202
:102EC0001346064801A919F035F800EAE07005B08C
:102ED000F0BD00BFB08500200800000024020020E3
:102EE000084B70B5C31A0D4607499B100446594359
:102EF000064840221BF068F92B4601462046BDE8F3
:102F00007040184724890020B76DDBB6B86903000C
:102F100073B50C4C0C4A4023041B00930D460B4622
:102F20000A49A4106143064609481BF079F9011EBD
:102F300005DA30462B4602B0BDE87040184702B0B3
:102F400070BD00BF248900208BE20100B76DDBB6A5
:102F5000B869030010B5EFF31184202383F31288BE
:102F6000BFF36F8F074A136823F00201DB0711607C
:102F700002D401201CF06BF884F31188BFF36F8F2B
:102F800010BD00BF74890020002270B501210446E5
:102F90001046FFF7F7FC0F4802F058F80E4B984226
:102FA00015D102F063F826690C4930461AF043FF48
:102FB00000280BDB012535642469084904F11C0055
:102FC0001AF039FF002801DBE564002070BD6FF0C6
:102FD0000400FBE7D93000000000AD0B24700300B3
:102FE0001FB500220123CDE90223094ACDF800D004
:102FF0006B46CDF804D01BF041F9002805DB4FF4F7
:1030000080420023684619F04BF905B05DF804FBD7
:10301000A9E2010030B4104B0C2202FB0033014640
:103020000020D3E90E529863EFF31180202484F33B
:103030001288BFF36F8F1C6C04F0C00444F00204CC
:103040001C6480F31188BFF36F8F1DB12B460348BA
:1030500030BC184730BC704724890020B869030091
:1030600010B4EFF31182202383F31288BFF36F8F24
:103070001748016841F002040460C80707D482F3CE
:103080001188BFF36F8F012010BC02F001B84FF020
:103090008041D1F80C04D1F80C14C907EFD5EFF337
:1030A000118083F31288BFF36F8F0A490B6C03F012
:1030B000C00343F002030B6480F31188BFF36F8FEA
:1030C00082F31188BFF36F8F002010BCFFF7A2BFFF
:1030D000748900202489002010B1012804D0704791
:1030E000034B1B6C5B0701D1FFF794BF704700BF18
:1030F000248900202DE9F0413849BFF35B8F074652
:10310000012251E8003F41E800200028F9D1BFF337
:103110005B8F33B9324933484B60CB608A601AF019
:103120009DFE7B1E012B2BD8012F07D14FF0804332
:10313000D3F81C3403F00303012B21D033F024FA1D
:103140000546F8B9284B1B78E3B14FF080430222C3
:10315000C3F808230646DFF894804FF08044D4F883
:103160001824D4F81834D20315D503F00303012B27
:1031700001D0012F0FD155B386F31188BFF36F8FA4
:10318000BDE8F081EFF31186202383F31288BFF3AB
:103190006F8F0125DFE7ADB130461AF0E8FFD4F8B4
:1031A0001835002BDBD1D4F80421002AD7D0C4F87D
:1031B0000431D4F804310123C4F81835C8F880313B
:1031C000A360CCE70021212033F062FAE7E74FF05B
:1031D00080430222C3F80423D2E700BF20890020E5
:1031E000108900204089002053CE022000E100E039
:1031F00008B5074833F0EDF838B10648FFF7D6FDBB
:103200000448FFF741F8002008BD6FF01200FBE70B
:10321000386A0300193200000A2838B5074D044601
:1032200004D1AB680D215B6828469847AB6803481A
:103230005B68E1B29847204638BD00BF386A03009A
:10324000EFF31182202383F31288BFF36F8F0A4BB1
:10325000D3F8001161B10021D3F80805C3F80011BB
:10326000D3F80031C0B282F31188BFF36F8F70477B
:103270006FF00A00F7E700BF00D00040F0B503464A
:1032800010469C7893F803C0EFF31182202585F354
:103290001288BFF36F8F1F7893F801E0E41B04EAF4
:1032A0000C04A04288BFA0B23E180CEA06063D46B8
:1032B0001E7082F31188BFF36F8F0A188A4216D1ED
:1032C00077450CD1EFF31182202181F31288BFF3EF
:1032D0006F8F1978597082F31188BFF36F8F1B7944
:1032E000241AA34222BF064B01221A60F0BD5E19C8
:1032F0000135767901F8016B05EA0C05DEE700BFC0
:1033000000D00040DB432DE9F04713F001050E46E5
:10331000144604D02248FFF7B1FFBDE8F0879AB306
:10332000EFF31188202383F31288BFF36F8F0D20F2
:10333000FFF71AFB07460D20FFF702FB88F3118801
:10334000BFF36F8FDFF85CA0DFF85C80CAF8005134
:10335000DAF800314FF400590123CAF8003025464D
:10336000C8F88091DAF8003183B1FFF769FF031ED6
:10337000C8F88091F6DB013DADB27355002DF1D157
:1033800017B10D20FFF7CEFA2046C6E7EFF3118004
:10339000202383F31288BFF36F8F1AF0E8FEE1E772
:1033A0009889002000D0004000E100E02DE9F041C4
:1033B000124F0D46144607F1350814B92046BDE8F2
:1033C000F0814FF0FF334FF0FF32384618F068FFBE
:1033D000224629464046FFF751FF0646384618F078
:1033E0002BFF3EB94FF0FF324FF0FF33044818F087
:1033F00057FFE6E7A41BA4B23544DEE77889002036
:103400008889002038B5184C01221146204633F037
:1034100038F80122002104F1100033F032F840F2B4
:10342000074323874FF0706323620C2384F8243012
:1034300000250E4B84F83550E586D3F8042522F09C
:103440000102C3F804250121C3F80051D3F800217B
:10345000C3F804132A4619600D20FFF793FA0D20D4
:10346000FFF760FA284638BD7889002000D0004078
:1034700010B5FFF7E5FE002820DB174B93F822205C
:1034800093F8214093F82310141B31EA0404C0B2CE
:103490000DD193F8372093F8364093F83810141B69
:1034A00031EA04040BD10D4B01225A600EE09C1846
:1034B0000132114084F8250083F8221010BD9C18B9
:1034C0000132114084F83A0083F837100448BDE80F
:1034D000104018F0B1BE00BF7889002000D0004035
:1034E00088890020F0B516464268107B01F01F0461
:1034F00044EA4014106987B0002872D0B6F5001F66
:1035000002F1100506D1214628461BF031FE0020AD
:1035100007B0F0BD01A80027B6F5800F01974760FE
:1035200039D1B3F1007F14BF052304238DF8043093
:103530000023CDE904030393936823FA01F111F00A
:1035400001010DF103073ED1B6F1A07F3BD104F09C
:103550001F03620903F5E07328D0012A47D1254AE9
:1035600052F82330DB072ED43A462146284602F093
:1035700077F8214B98421CD0029703AA214628468F
:1035800001F030FF1D4B98422ED1012221462846E2
:1035900002F0CAF8BBE7B3F1C06F05D0B3F1007F0A
:1035A00014BF01230223C1E70323BFE74FF0A0426A
:1035B000D6E73946284602F0B1F8104B9842DBD0E6
:1035C0006FF00B00A4E73A462146284602F048F87F
:1035D0000A4B9842D1D19DF80310284602F098F882
:1035E000CBE76FF0850093E76FF0150090E751F897
:1035F0002330FFDE000300500400AD0B0000AD0BD4
:10360000420970B5034602D0012A17D070BD0D4E95
:10361000326951680029F9D003F01F0301250C68B5
:103620009D400029F2D08A682A4002D04B6830467B
:1036300098472CB1236821461C46F2E7024EE7E783
:103640002346F8E7F8690300D869030038B54568F0
:103650002B69B3B11035284602F050F8044680B902
:103660000146284602F016F8084B98420BD108494B
:103670002246284601F0EEFF224605210620FFF7EC
:1036800081F9002038BD6FF00400FBE70000AD0BAE
:10369000013600002DE9F043466840F20635D006B9
:1036A000337B87B002EA050554BFC2F34010032004
:1036B00001F01F07B5F5837F144647EA43178DF8DD
:1036C000030045D00DD8062D16D005D8A5B1022D82
:1036D00040D06FF0150038E0B5F5807FF9D10125B5
:1036E0000AE040F20222954236D0B5F5407F35D04F
:1036F000B5F5007FEDD102250123220303FA01F184
:103700002ED57368C3F80815326992BB07F01F0302
:103710007F092BD0012F79D13F4A02EB830284F439
:103720008033D2F80017C3F30043C4F3404444EAA3
:10373000430421F4E16144EA800421F0070144EAF2
:1037400005230B43C2F80037002007B0BDE8F08323
:103750000725D1E70425CFE70525CDE70325CBE7EE
:10376000630344BF7368C3F80C15CDE74FF0A04264
:10377000D3E710360DF102023946304601F070FFF2
:1037800014F4403F80460CD1394630461BF0EEFC25
:10379000224B9845D8D19DF80210304601F0B8FF71
:1037A000D2E701AB4FF0000903AA39463046CDE914
:1037B0000439CDE90199CDF80C9001F013FE174BB7
:1037C0009842C1D114F4003315D09DF803308DF820
:1037D0000E3084F48034C4F300444B4603AA3946C7
:1037E00030468DF80C508DF80D4001F0B5FE0B4BB6
:1037F0009842A9D1CCE7CDE9043303AA0DF1030324
:1038000039463046039301F0EDFDF0E703F5E07330
:1038100052F82330FFDE00BF000300500000AD0B64
:1038200002780B69012A08D0022A08D04AB9064A50
:103830005A6203F1140018F0FFBC044AF8E7044A86
:10384000F6E7044AF4E700BF0000AD0B0100AE0B41
:103850000200AE0B0100AD0B2DE9F04FD0F8109037
:10386000D0F8048085B005460C461746029309F14E
:10387000040A4FF0FF324FF0FF33504618F010FDAE
:1038800009F1140B00230022584618F009FD4046A8
:1038900003F0A6F87B1E00260393B74201D800234D
:1038A00022E0039B217AB34283BF237D83F004038C
:1038B000C3F3800300230193029B0093D4E9002308
:1038C000284600F04DF8034670B94FF480420023BB
:1038D000584618F0E5FC98B1404603F091F82846A8
:1038E00000F02CF86FF004034046029303F088F8D0
:1038F000504618F0A1FC029B184605B0BDE8F08FB9
:10390000D9F82430034A934204F10C04EAD1013679
:10391000C3E700BF0000AD0B08B5034640688269ED
:1039200000F1080103F018F8034B984214BF6FF040
:103930000F00002008BD00BF0000AD0B08B54368B4
:103940001B68D3F80805D3F80C1503F05FF9034B97
:10395000984214BF6FF00F00002008BD0000AD0BAF
:103960002DE9F04186B00C4647689DF83480154635
:10397000002112220DF106001E4632F053FFBDF861
:1039800030208DF8052004F0010314F008028DF8B2
:1039900004300296049519D1A10704D4B8F1000FA0
:1039A00012D19BB9202201A9384603F045F80A4BF1
:1039B00098420ED00B3398420CBF6FF00F006FF09F
:1039C000040006B0BDE8F0814022ECE76FF085000E
:1039D000F7E70020F5E700BF0000AD0BF7B544683E
:1039E00005690646E06832F0F4FC002848D0284615
:1039F000254940F8046B32F08FFD606900282ED015
:103A0000217E638BD0F810C0D0F808E0DCF80060AD
:103A1000DA0754BF43F4D01383F4B013012723F41F
:103A200080128F40DB074CBF3E43BE43CCF80060A2
:103A3000DEF800309847002820DB0021A42032F077
:103A400027FE237E60690121994003691B681942A2
:103A500083680CBF1B69DB68984700280EDB1835AC
:103A60000A490022284632F0A1FE4FF4A472002336
:103A70002846CDE9002319F029FC002003B0F0BD51
:103A80006FF01200FAE700BF7FE7010041E7010095
:103A90002DE9F74F4568EC681834804600270194FB
:103AA0004FF0010B6B68BB4204DC2B7D002B69D10E
:103AB000002048E00C23D5F808A003FB07F60AEB2A
:103AC00006095AF8060032F084FC00286DD0B9F8D7
:103AD00006305AF8060099F8041043F48032D0F802
:103AE00010C0D0F8089013F0010FDCF800300BFA8A
:103AF00001FE14BF4EEA030323EA0E03CCF80030A4
:103B0000D9F800309847F0B944F8188C2969204654
:103B100032F02EFD2B7D13B101374834C2E7D5F8C2
:103B20000890234A09EB060AA4F114019AF804301C
:103B30000BFA03F344E9042359F806008368DB69B0
:103B400023B96FF0570003B0BDE8F08F012298470A
:103B50000028F8DB9AF8041059F806001AF07CFEE9
:103B600004F8080C59F806009AF8041083689E6956
:103B7000002EE6D04FF0C0634FF0A072B04700288F
:103B8000CADAE0E72D684FF4004440F2E730002144
:103B90004FF47A720023E5FB0401FCF701FB0246B7
:103BA0000B46019818F068FD82E76FF01200CAE733
:103BB00081E801007FB50346044653F8185D696843
:103BC000CA689B1A114ADB1053438A68D618D0582A
:103BD00031791AF041FE031E15DB14F9082C9A42C4
:103BE00011D004F8083C4FF0FF304FF0FF3132891C
:103BF000003BCDE902014FF00101009118BF012304
:103C00002846FFF73FF904B070BD00BFACAAAAAACE
:103C1000036803F01F025B09026004D0012B034814
:103C200018BF002070474FF0A040704700030050BD
:103C30002DE9F04FDFF89491DFF894A185B0154697
:103C4000834600EB810140F2FF18594503D1002063
:103C500005B0BDE8F08FDBF800305E04C3F3C3228B
:103C6000C3F3080400F1AC801B0E19F80270444540
:103C700008BF4FF0FF34222B00F2A580DFE803F0ED
:103C800012191F22252B22A3A3A3A33B68A3A3A33E
:103C9000A3A3A3A3A3A36B818487A3A3A38A9194C3
:103CA000979A9D00C5F80C45601C5ED10BF1040B82
:103CB000CBE7C5F81445621CF8D000265FE0C5F8D4
:103CC0000845F1E7C5F81045F5E7631CC5F8084558
:103CD000ECD0002604E0661CC5F80C45E6D00126B1
:103CE00003A80394FFF794FF039B012202FA03F356
:103CF000C0F80C3508E0C5F80845002FDBD1631C7F
:103D0000D4D0002632460627DBF80030019303F4B6
:103D10000040002818BF002203A8009218BF012607
:103D20000394FFF775FF039C019B009A00EB84004E
:103D3000C3F3412CD0F800473B0243EA8C03134302
:103D400004EA0A04234343EA4603C0F80037ADE718
:103D5000C5F80C45D1E7C5F86045601CDBF80030BC
:103D6000A4D0C3F30043002BB9D003A80394FFF7FA
:103D70004FFF039B012606FA03F3C0F808353246CD
:103D8000C2E7C5F86445E8E7C5F86845E5E7C5F862
:103D90006C45E2E7C5F82445621C87D00022012665
:103DA000B2E7C5F828457FE7C5F83045F4E7C5F820
:103DB0003445F1E7C5F83845EEE7C5F83C4573E70B
:103DC0006FF0150044E76FF0850041E79F330B006B
:103DD000F0F8FCFF036803F01F025B09026004D0E7
:103DE000012B034818BF002070474FF0A0407047D8
:103DF0000003005073B50446002201211C20FEF789
:103E0000C1FD60682369244A00F1080101F066FEE3
:103E1000224B98423CD16568AE6B01AA0021304626
:103E20001AF073FD002805DB019B326819791868C8
:103E3000FFF7FEFE002631462B6801F5AC7253F801
:103E40002230002B0EDB01A80193FFF7C3FF019A7C
:103E5000D0F80435D34013F001031CBF01238B407D
:103E60003343DEB201310429E6D100230120626828
:103E7000916A00FA03F232420CBF01220022D203FF
:103E800021F813200133042BF1D1002002B070BDC2
:103E90006FF00F00FAE700BF31E901000000AD0B41
:103EA0002DE9F041044647680D4632F06DFB4FF0B6
:103EB000200888B9264B1B7873B1642660681AF015
:103EC000F0FDF0B901201BF0B4F8013EF6D100215D
:103ED000212032F0DDFBF0E7EFF31186314688F365
:103EE0001288BFF36F8F60681AF0DBFDA8B986F304
:103EF0001188BFF36F8FEFE786F31188BFF36F8FE1
:103F0000E5E7EFF31186314688F31288BFF36F8F30
:103F100060681AF0C6FD0028EED0BB691D706368AA
:103F2000BA691B680020C3F844250122C3F848255C
:103F3000C3F82001D3F82041C3F85801D3F8580141
:103F40009A6081F31188BFF36F8FBDE8F08100BFE5
:103F500053CE0220F7B50546002201210220FEF7CC
:103F600011FD0220FEF7DEFC6A6811681369C1F8D2
:103F70002435137D507D927D03431343C1F86C3586
:103F80006E68D6E9004313F0010348D02F6907F1AA
:103F900008001BF05AF8304B98425AD1387A04F195
:103FA0000C0204F590711BF046F8387A012707FAE5
:103FB00000F000F0E3FF0823C4F80035B369C4F84B
:103FC00044350023C4F84835A760D4F85831002B95
:103FD000FBD00021C4F800156B68DC6801AA2046FC
:103FE0001AF093FC002805DB019B226819791868F8
:103FF000FFF71EFE6A6813680821C3F80015117ADE
:1040000051B9D269C3F834250122C3F83825C3F861
:104010001011D3F810111A60002003B0F0BD08226F
:10402000C4F80025B269C4F84425C4F84835012312
:10403000A360D4F82031002BFBD00023C4F820313A
:10404000D4F820310123E3604FF48073C4F80433C3
:10405000BBE76FF00400E0E70000AD0B7FB505465D
:10406000406829698A6C0B6D0ABBABB14C6C8B65DF
:1040700016461A46C96C0291CDE9004611B3002BD1
:1040800018BF134600226946039301F021FF0E4B2F
:1040900098420AD06FF004032C69236304F12000D6
:1040A00018F0CAF8002384F85C3004B070BD4C6C82
:1040B00013B19A4228BF1A46002C8A6514BF1646CF
:1040C0000026D7E70B46DDE70000AD0B2DE9F04FEA
:1040D00089B004690093436801938B88074698046C
:1040E0000E4691462AD44FF0FF324FF0FF3304F1D1
:1040F000100018F0D5F86660D7F81080D7F804A043
:1041000098F85D3023B1D8F800309E4200F0B280BC
:10411000B6F804C01CF4006F17D06FF08505236853
:1041200013B19B889B0405D40023636004F1100045
:1041300018F082F8284609B0BDE8F08FA369002B7B
:10414000D1D163689942CED1D6E71CF0090F02D0D5
:104150006FF01505E3E7CCF34513082BF8D135686C
:10416000A34B9D42F4D90AF1080BBBE80F000DF1F7
:104170000C0EAEE80F00DBF80030CEF800309D4B9F
:104180009D4250D99C4B9D4250D99C4B9D4250D949
:104190009B4B9D4250D99B4B9D4250D99A4B9D427F
:1041A0002CBF4FF000454FF080451CF0020F0595E5
:1041B0000CF0040346D0002B14BF032302238DF818
:1041C0001830CCF300138DF81930DAF80030D3F83A
:1041D0000835591C12D01CF0020F03F01F00CCF35D
:1041E00040014FEA53134FF0010232D173B39342AF
:1041F00040F0F680854B8240C3F80C2598F85D307E
:104200002BB1504601F02CFE002388F85D30434668
:104210007F4A03A9504601F0EFFD7E4B984224D01F
:104220006FF004057BE74FF00075BEE74FF0806547
:10423000BBE74FF00065B8E74FF08055B5E74FF0AA
:104240000055B2E7003B18BF0123B8E74FF0A04389
:10425000D1E73BB1012B40F0C6806C4B8240C3F8E4
:104260000825CBE74FF0A043F8E7012388F85D303D
:10427000C8F80060012384F85C30019B596A4A1C2D
:1042800003D003F128001AF044FDB9F1000F40F00B
:104290008780C4F834900023A36304F1480204F13A
:1042A000380104F134001AF032FC009B6064002BEA
:1042B0007FD1E3630023236404F1500204F1400141
:1042C00004F13C001AF023FCE0642068002323631F
:1042D00048B183683BB1012108301AF02BFC2368F8
:1042E000186932F071F83846FFF7B8FE0023A06B6A
:1042F0001A46824266D10022256C1146A94268D135
:104300009342264638BF13464FF4FA5202FB03F598
:1043100056F8203B4FF000081B68B5FBF3F54FF44F
:10432000004CC835414640F2E7304FF47A72002322
:10433000E5FB0C01FBF734FF02460B46304617F055
:10434000AFFF18B9256B15F1740F13D10198C4F89C
:10435000588001F085FD84F85D803F696FF073053A
:104360003D6307F1200017F067FF87F85C80304657
:1043700017F0BCFF2368002B3FF4D1AE9A68002AE7
:104380003FF4CDAE998811F480567FF4C8AE186919
:1043900032F01AF82068314608301AF0CBFBBEE63E
:1043A000D9F800306363002B3FF475AFD9F80430BF
:1043B00072E7009B1B68E363002B3FF47BAF009B1D
:1043C0005B6878E7616B01EBC201013249680B441D
:1043D0008FE7E06B00EBC1000131406802448DE7DC
:1043E000C1F80C15FFDE0023C3F80835FAE700BF5B
:1043F00047E801008FD003001FA107003F420F00D4
:104400007F841E00FF083D0000127A000003005068
:1044100077EC01000000AD0B00F01F0240090DD049
:1044200001280ED10A4B03EB82030A4AD3F8000796
:10443000024042EA8102C3F8002770474FF0A043D0
:10444000F1E702F5E072002353F82230FFDE00BFEF
:1044500000030050F0F8FCFFF0B587B001238DF8A1
:10446000023002238DF804306B4403930F4601ABF6
:104470000DF103010024049305460291059401F017
:104480004DF90C4B984206460FD103AA39462846EF
:1044900000F0A8FFB0420BD09DF80310284601F0B1
:1044A00037F96FF0040007B0F0BD6FF01200FAE7C3
:1044B0002046F8E70000AD0B2DE9FF410569D0F873
:1044C00004802B6D0646A86C002835D1002B53D0F4
:1044D000B8F838406A6CEF6C9C4228BF1C46EB6C05
:1044E00053B1296D41B107F06041B1F1005F03D0D4
:1044F000082C6F6E28BF082400926A6CAC651AB154
:10450000AA6C002A18BF2246CDE901271BB12B6DEA
:10451000002B18BF2346002269464046039301F052
:10452000C9FF184B984229D06FF00401304604B0FF
:10453000BDE8F0411AF002BD696CEF6CB8F8384084
:104540000A46ABB1834228BF03469C4228BF1C46A3
:104550000029C4D001F06043B3F1005FBFD0082C44
:1045600028BF08242246286E32F034F92A6EB6E7B6
:10457000844228BF0446EBE71946D7E704B0BDE8FC
:10458000F08100BF0000AD0B2DE9F04F8FB0046942
:104590000193436802938B880746980488469146A6
:1045A0002ED44FF0FF324FF0FF3304F1100017F01C
:1045B00077FEC4F80480D7F804B0D7F810A0DBF871
:1045C000083003939AF85D3023B1DAF8003098454B
:1045D00000F0B580B8F804E01EF4006F17D06FF05B
:1045E0008505236813B19B889B0405D40023636071
:1045F00004F1100017F020FE28460FB0BDE8F08F40
:10460000A369002BCDD163689942CAD1D3E71EF0CC
:10461000090F02D06FF01505E3E7CEF34513082B21
:10462000F8D1D8F800C0984B9C45F3D90BF10C0693
:104630000FCE04AD0FC50FCE0FC5039B634528BF3A
:1046400063469C4696E80300904B9C4585E8030032
:1046500017D28F4B9C4514D28E4B9C4511D28E4B5A
:104660009C454CD88D4B9C454BD88D4B9C454AD88E
:104670008C4B9C4549D88C498C4B8D4A8C4588BFC6
:1046800013461EF0020F09930EF004033FD0002BD7
:1046900014BF032302238DF82830CEF300138DF8C6
:1046A0002930DBF80030D3F80835591C12D01EF041
:1046B000020F03F01F00CEF340014FEA53134FF0F7
:1046C00001022BD13BB3934240F0D680794B82401C
:1046D000C3F80C259AF85D302BB1584601F09CFECA
:1046E00000238AF85D303B46734A04A9584601F01E
:1046F0005FFE724B98421DD06FF0040571E7704B5E
:10470000BFE7704BBDE7704BBBE7704BB9E7003BB1
:1047100018BF0123BFE74FF0A043D8E73BB1012BFF
:1047200040F0AD80634B8240C3F80825D2E74FF0DC
:10473000A043F8E701238AF85D30CAF8008001231E
:1047400084F85C30029B196C4A1C03D003F14400CE
:104750001AF0DFFAB9F1000F68D1C4F834900023E1
:10476000A36304F1480204F1380104F134001AF0A3
:10477000FDFA019B6064002B60D1E3630023236496
:1047800004F1500204F1400104F13C001AF0EEFA89
:1047900000252A46E0640121204625631AF02EFBFD
:1047A0003846FFF789FEA06B2A462B4683424DD13F
:1047B0000023256C1946A9424FD19A42264638BF9C
:1047C0001A464FF4FA5303FB02F556F8203B4FF01C
:1047D00000081B68B5FBF3F54FF4004CC8354146A3
:1047E00040F2E7304FF47A720023E5FB0C01FBF74F
:1047F000D7FC02460B46304617F052FD024618B968
:10480000256B15F1740F2FD10298C4F8588001F070
:1048100003FE84F85D806FF0730138461AF08EFB5A
:10482000304617F063FD6FF07305DAE6D9F8003013
:104830006363002B93D0D9F8043091E7019B1B6888
:10484000E363002B9AD0019B5B6898E7616B01EBF7
:10485000C301013349680A44A8E7E06B00EBC100DB
:10486000013140680344A6E7002D3FF4BAAE01468B
:1048700038691AF0C3FAB4E6C1F80C15FFDE00235C
:10488000C3F80835FAE700BF47E801000048E8012F
:104890000024F40000127A00FF083D007F841E000F
:1048A0003F420F001FA107008FD0030048E801001E
:1048B00090D00300000300505FEF01000000AD0B3B
:1048C00000093D0080841E0040420F0020A1070027
:1048D00070B5012383400E4ABFF35B8FDC4352E87F
:1048E000001F01EA040542E80056002EF7D1BFF38D
:1048F0005B8F4FF4803282400648C0F80823BFF334
:104900005F8FBFF36F8F0B4214BF0120002070BD7B
:10491000EC8900200010014070B40E49D1E9003448
:10492000D01AC31844F1000422F07F46C1E90034D4
:10493000A6F50013B3F5400F09D2074B1B681A0AFE
:104940001B069C19054B42F10005C3E9004570BCEC
:1049500018F0BCBBA0040020F0890020A8040020AF
:1049600011B3BFF35B8F0123104A834052E800CF9D
:104970004CEA030C42E800C10029F7D1BFF35B8F7A
:104980000B4A4FF480338340C2F80433094BBFF322
:104990005B8F1B68BFF35B8FC340DB0742BF064BD7
:1049A0004FF40032C3F80021704700BFEC890020AB
:1049B00000100140E889002000E100E00D4B18687C
:1049C000010A0006BFF35F8F0B4BD3F804351818AC
:1049D00041F10001B3F5801F0AD2084BD3E900234F
:1049E000904271EB030303D210F1807041F100019A
:1049F000704700BFF089002000100140A80400208B
:104A00002DE9F04F85B016461F469DF840A004469C
:104A1000FFF75EFF0190FFF7D1FFB04271EB070394
:104A200054D23E4B301A67EB0101984271F10001FC
:104A30004FD23B4B03EB0413D3E902239F4208BF41
:104A400096425ED037494FF4803804F1500508FA99
:104A500004F8AD00C1F848832046ADB21AF0D8FA88
:104A600026F07F4B05F1804504F5A87305F58835E0
:104A7000DC464FF003090293029A2CF07F4341F881
:104A80002230C1F84483D1F80435274A6FF0020080
:104A9000C01A604420F07F40904232D9286868B143
:104AA000D1F804350393A3EB0B0020F07F40B0F561
:104AB000000F26D920461AF0ABFA039BBAF1000F7B
:104AC00007D109EB030C09F10109D5E7BAF1000F91
:104AD00009D06FF0150520460199FFF741FF2846E0
:104AE00005B0BDE8F08F0123104ABFF35B8FA340F0
:104AF00052E8000F184342E800010029F8D1BFF343
:104B00005B8F07490E98230101EB0412C8500F9BDD
:104B10005360C2E902670025DDE700BF01008000A5
:104B20009004002000100140FDFF7F00E889002074
:104B30007FB51C4C1C4BC4F80833C4F848331B4BDE
:104B400000254FF0FF304FF0FF31C4F80855C3E99E
:104B500002014FF48033C4F80433154B02264FF49E
:104B600000320121C4F804631120C3F880212A46D1
:104B7000FDF708FF1120FDF7D5FE0E4A0123A360C3
:104B8000236013600C4B0D4A0093CDE901550023BF
:104B90002846FFF735FF3046FEF7ACFA284604B04A
:104BA00070BD00BF0010014003000F009004002002
:104BB00000E100E0EC89002019490000FFFF7F00C0
:104BC0002DE9F7432F4CD4F8043399070BD5D4F8CB
:104BD000043143B12C4A0023C4F80431D4F8043121
:104BE000136801331360D4F80433DA0329D5BFF313
:104BF0005B8F264B53E8002F22F0010143E80010A1
:104C00000028F7D1BFF35B8FD30702D4D4F840312B
:104C1000BBB10025C4F84051D4F84031FFF7CEFEB7
:104C2000EFF31182202383F31288BFF36F8F184BA9
:104C3000D3E90267B042B94106D282F31188BFF3CB
:104C40006F8F03B0BDE8F0834FF0FF384FF0FF39AE
:104C5000C3E90289D3E900101D604FF48033C4F822
:104C60004833C4F84051D4F8403182F31188BFF37F
:104C70006F8F0029E5D0009032463B462846884792
:104C8000DFE700BF00100140F0890020E889002024
:104C90009004002030B5431C124C85B005D08442EE
:104CA000A8BF0446012CB8BF0124FFF787FE0E4BB6
:104CB0000C4DD3E90013401AB0F5000F10D22218A2
:104CC000AA4228BF2A4652184FF000000749009117
:104CD000CDE9010043F10003FFF792FE05B030BDBE
:104CE0002A46F0E7FFFF7F00A004002019490000DA
:104CF00008B5FFF763FE024B1B68C01A08BD00BF72
:104D0000A00400204FF08053D3F83021082A06D1A8
:104D1000D3F83431052B02D8024AD05C704700200A
:104D2000704700BFE2330B00024AD2F80034002B78
:104D3000FBD0704700E0014010B54FF08053D3F82E
:104D40003021082A4ED14FF080420021C2F80C11C8
:104D5000C2F81011C2F8381502F54042D3F8041415
:104D6000C2F82015D3F80814C2F82415D3F80C148F
:104D7000C2F82815D3F81014C2F82C15D3F814145F
:104D8000C2F83015D3F81814C2F83415D3F81C142F
:104D9000C2F84015D3F82014C2F84415D3F82414EF
:104DA000C2F84815D3F82814C2F84C15D3F82C14BF
:104DB000C2F85015D3F83014C2F85415D3F834148F
:104DC000C2F86015D3F83814C2F86415D3F83C144F
:104DD000C2F86815D3F84014C2F86C15D3F84434FF
:104DE000C2F87035FFF78EFF18B13A4B3A4AC3F854
:104DF0008C26FFF787FF18B1384BFB22C3F8182524
:104E0000FFF780FF70B14FF080414FF08053D1F831
:104E1000E42ED3F8583222F00F0203F00F031343AD
:104E2000C1F8E43EFFF76EFF20B12D4B4FF4007246
:104E3000C3F840264FF08053D3F83031082B1AD1F5
:104E40004FF08043D3F80024D20744BF6FF0010233
:104E5000C3F800244FF08053D3F83431052B02D827
:104E6000204AD35C3BB14FF01023D3F808224FF017
:104E70008043C3F858254FF01023D3F80022002AAE
:104E800003DBD3F80432002B22DA174901234FF059
:104E90001020C1F804351224FFF746FFC0F8004285
:104EA000FFF742FFC0F80442FFF73EFF0023C1F8BE
:104EB0000435FFF739FFBFF34F8F0C490C4BCA681D
:104EC00002F4E0621343CB60BFF34F8F00BFFDE7F6
:104ED00010BD00BF005000404881030000F00040BA
:104EE00000900240DC330B0000E0014000ED00E0E8
:104EF0000400FA0530B50468CCB1BFF35B8FB4FA97
:104F000084F3C3F11F03DBB201229A4024EA0202B8
:104F100050E8005FA54204D140E8002CBCF1000F2E
:104F2000F6D1BFF35B8FE6D102480B7030BD02486B
:104F3000FCE700BF0000AD0B0200AD0B10B503682D
:104F4000CB40DB0714D401238B400268BFF35B8F97
:104F500043EA020150E8004F944204D140E8001CAB
:104F6000BCF1000FF6D1BFF35B8FEED1014810BD4D
:104F70000148FCE70000AD0B0400AD0B014BC3F88A
:104F80000405704700F00140F7B50546F8B1012867
:104F90001BD104224FF4807301464FF0804003443C
:104FA0000244C0F808130026012111601E608D42E2
:104FB0001B688DF8071008BF0DF1070642F2107448
:104FC0004FF0804745B1012D28D003B0F0BD0C2231
:104FD0004FF482730221E0E7D7F8183403F48033EA
:104FE0003EB9002BF1D001201AF023F8013CF3D197
:104FF000EBE7D7F8182402F003023260002BE4D06C
:105000009DF80700012803D11AF013F8013CD9D10B
:10501000012DDAD10C4B00225A71D6E7D7F80C34A7
:1050200003F480333EB9002BF4D001201AF001F8CC
:10503000013CF3D1EEE7D7F80C2402F00102327004
:10504000002BDDD1E6E700BFF4890020044B1A797C
:1050500022B9012218609A800248704702487047BE
:10506000F48900200000AD0B0C00AD0B08B5074B18
:105070001B682BB10020FDF777FC08B9FDF752FC47
:105080004FF080430022C3F8182508BDF4890020A2
:1050900010B510B1012843D010BD4FF08043D3F8B4
:1050A0001814D3F81824C80321D502F00303012BE8
:1050B00004D013B10020FFF767FF00234FF08042B8
:1050C0000220C2F8183508224FF4827303F180439E
:1050D0000021196002F180421C6801241460154A05
:1050E00012680AB34FF08043C3F80403D4E7D3F83F
:1050F0001424D107E1D5D3F81C249207DAD40D4A41
:1051000012681AB10222C3F80423C5E7D3F80421B8
:10511000002AFBD00022C3F80421D3F80431BBE7F6
:1051200000224FF48073D1E71A68002AFCD019607E
:105130001B68B1E7F4890020F8B54FF080431C4E9E
:10514000D3F804430125002704B9F8BDB4FA84F06C
:10515000C0F11F00830003F580739BB203F180430D
:1051600005FA00F2196892B224EA02040029EBD091
:105170001F601B684FF08043012AC3F8082305D045
:10518000022A08D03368C0B29847DDE77379002B54
:10519000DAD17271F6E7D3F81814D3F81814890726
:1051A000F0D1C3F81855C3F804239D60CCE700BFC5
:1051B000F4890020036803F01F025B09026004D039
:1051C000012B034818BF002070474FF0A0407047E4
:1051D00000030050034A430900F01F00D35C184449
:1051E000C0B27047E8330B0070B50546FFF7F2FF19
:1051F0000C4C08300E4634F81030DA0508D5C3F3ED
:10520000432304EBC302284654F8333052689847CE
:10521000A3682BB1E26831462846BDE870401847C4
:1052200070BD00BF1001002008B5FFF7D3FF034B8E
:10523000083033F81000400B08BD00BF10010020FB
:1052400008B5FFF7C7FF034B083033F81000C0F371
:10525000400008BD1001002008B5FFF7BBFF034B5D
:10526000083033F81000C0F3401008BD10010020D2
:10527000034611F0010010B5CCB20DD1A207C4F362
:10528000400012D5094AD2F820055860C2F820051E
:10529000003818BF012008E04FF0A041D1F82025C8
:1052A0001A60C1F82025002AE8D010BD0003005084
:1052B00010B5FFF78FFF124A083032F81030D905C9
:1052C0001CD5C3F3432123F4F85322F8103002F124
:1052D0000E04002034F8023F13F4807F03D0C3F3A0
:1052E000432399420AD001303028F3D1002342F8F9
:1052F00031300448BDE81040FFF720BE10BD00BFAC
:105300001001002088010020F0B505460020044669
:10531000012607468C420BD1114BD3F87C2132B1C8
:105320000022C3F87C21D3F87C3140F00040F0BD6E
:10533000E3B29B0003F580729B0806FA03F31D425B
:105340000BD002F1804202F5C042D2F800C0BCF19D
:10535000000F02D01760126818430134DAE700BF6B
:1053600000600040F7B506460846FFF733FF194FC7
:1053700000F108050C4637F81530DB0727D5304615
:1053800019F0D0FE2046FFF767FF40B12046FFF737
:105390004BFF316800F5A270002341F82030204611
:1053A000FFF786FF002301A827F815300194FFF7C7
:1053B00001FF019B00EB8300074BD0F8002713404F
:1053C00043F00203C0F80037044803B0F0BD0448BE
:1053D000FBE700BF10010020F0F8FCFF0000AD0B60
:1053E0000400AD0B2DE9FF41164680460846FFF745
:1053F000F1FE0D463168044609B32846FFF720FF49
:1054000018B12846FFF728FF10BB0023CDE9003371
:105410008DF80E308DF80F300DF10F020B46284637
:105420000DF10E0119F015FE474A04F1080132F89A
:10543000113023F0020343F0010322F811307368A6
:1054400063B328461F785968FFF7FAFE10B1D1B14F
:105450003E4826E03C4A04F1080032F8103023F0C0
:105460002003DB04DB0C22F8103061B1032FEFD8EE
:105470007168496891F800C0D8F80010A7B90CF518
:10548000A27C41F82C70304A04F1080132F8113046
:1054900023F01C0343EA870322F81130B3684BBBA7
:1054A0002B4804B0BDE8F08101EB8C0143EA4C339A
:1054B000D1F810E52EF0030EC1F810E5D8F8001071
:1054C00001EB8C0E43F02003DEF8101522F81030AB
:1054D00021F44F3121F44071CEF810152902DEF885
:1054E000108501F47C5141EA074141EA0801CEF8F8
:1054F0001015C8E7D3E900672846FFF7D9FE002E4C
:10550000CED0114DD5E90023964203D19F4201D15F
:10551000002209E00F480DF10F01FFF7EBFC0C4BE7
:105520009842BED19DF80F2045F8326005EBC203CA
:1055300008345F6035F8143043EA422343F4807343
:1055400025F81430ACE700BF100100200400AD0BBB
:105550000000AD0B880100202DE9F0430C4685B01A
:105560008046204611461E46FFF734FE054629B305
:105570002046FFF765FE18B92046FFF76DFE18BB01
:10558000314F05F1080937F8193013F01C0F02D01C
:105590004B78012B18D001238DF80F300023CDE973
:1055A00000134A1C8B1C20460DF10F0119F051FD10
:1055B00037F8193043F0030327F81930002E41D093
:1055C0002046FFF73DFE18B9204805B0BDE8F0833E
:1055D00096F800C0D8F800301B4F0CF5A2720021DD
:1055E00043F8221005F1080237F8121021F02001CB
:1055F000C904C90C27F8121075781DB3D8F800003B
:10560000B67800EB8C002D04D0F8103523F49913F4
:1056100023F4F853C0F81035230203F47C5305F447
:1056200040353605D0F810E52B4306F4801641EAE4
:105630004C31334341F0200143EA0E0327F81210A6
:10564000C0F810350248C0E7100100200400AD0B7F
:105650000000AD0B014BC3E902127047100100209E
:1056600010B508461446FFF7F7FD50B10846FFF79E
:10567000B1FD054B083033F8103004485B0B237044
:1056800010BD0348FCE700BF100100200000AD0B77
:105690000400AD0B70B5164D95F8804006462CBB46
:1056A0002146602205F1100031F0BCF830682E6F01
:1056B00021468E420ED10023C0F87C31D0F87C31D7
:1056C00040F30730FDF72EF901230A4885F88030B2
:1056D000AB6770BDCBB29B0003F580727C2B08BF1B
:1056E000845001F1010108BF8358E2E70248F0E766
:1056F000100100200000AD0B0C00AD0B034B93F824
:105700008000003818BF0120704700BF1001002042
:105710000148FFF713BC00BF840100200148FFF7D8
:10572000E9BB00BF8401002073B503681646D3F8B7
:105730000423002AA8BF4FF000420546A8BFC3F8C3
:10574000042308460C46FFF787FD00B30846FFF721
:1057500077FD0146D8B92046FFF766FD04B2A400E4
:1057600004F58072034628688150296882582144D4
:10577000D1F8102542F00102C1F810252EB1296898
:10578000012202FA03F3C1F8043302B070BD2046CF
:10579000FFF720FD0F4B083033F81030C3F38203BE
:1057A000042B12D0052B12D001A80194FFF702FDA3
:1057B000019AD0F81035D34003F00103991C20461C
:1057C00002B0BDE8704019F08DBC0321F7E702215B
:1057D000F5E700BF100100202DE9F04F694BDFF81D
:1057E000A891D3F80403D9F87010C0B289B040F082
:1057F0000040FFF789FD051E2EDACA4600235AF83D
:105800007C1F06A8CDE90633FFF732FD5F4B0193FD
:105810000DF118084FF0000B019A12F8013B0192AC
:10582000DA0803F007031AF8022022FA03F3DA0772
:105830001BD408F10408BBF1000F13D000214FF076
:105840000040FFF761FDD9F87C1006A8FFF710FDB6
:105850000028DBD125F000450124002D79D109B0C5
:10586000BDE8F08F4FF0010BD6E7494B5B44029344
:10587000D8F800100029DCD0029B91FAA1F11C7825
:10588000B1FA81F141EA44142046FFF7A3FC083045
:10589000059439F81070C808BB0818F80020039365
:1058A00001F00701012303FA01F122EA010208F8DD
:1058B000002005A8FFF77EFC059A039B02F5E07225
:1058C000C7F3820650F822205B073746C2F3014235
:1058D00024D520463946D6B2FFF786FC05A80594A4
:1058E000FFF768FC059B03F5E07350F82330C3F322
:1058F00001439E4207D10021204619F0F3FB3146B7
:10590000204619F0EFFB05A80594FFF753FC059B13
:10591000012202FA03F3C0F82035A9E7022A0CD1CC
:105920000321204619F0DEFB06F00503012BEAD126
:1059300039462046FFF758FCE5E70221204603924E
:1059400019F0D0FB032EF3D0039A032ADBD1022EE9
:10595000EDE795FAA5F3B3FA83F304FA03F29B009B
:1059600003F1804303F5C04325EA0205D3F810058F
:10597000D3F81015C0F30520C1F30141FFF734FC43
:105980006BE700BF0060004010010020F8330B00FF
:10599000F8330B0001460148FFF7ACBA9401002030
:1059A000036803F01F025B09026004D0012B034867
:1059B00018BF002070474FF0A04070470003005010
:1059C00070B505790A4C14236B43E618E35833B9D4
:1059D0000068022119F006FC08B101233372142378
:1059E00003FB0544207A023818BF012070BD00BFB8
:1059F000FC8900202DE9F3470B7F04466BBBDFF8E1
:105A0000D8900D1F01F1100601F10C08012755F87F
:105A100004AFBAF1FF3F1CD03378CDF804A001A841
:105A2000002B50D0FFF7BCFF019B07FA03F3C0F82F
:105A3000083501A8CDF804A0FFF7B2FF019B00EBE9
:105A40008300D0F8003703EA090343F00303C0F8EA
:105A50000037A84506F10106D9D191F81DC00D8B7C
:105A60004F7D8E7D8A7EC87E2368BCF1000F0BD1EE
:105A7000D1E9008ED1E902C1C3F86085C3F864E5BD
:105A8000C3F868C5C3F86C1542EA0022C3F80C7568
:105A9000C3F80465C3F80855C3F81025206800232F
:105AA000C0F81031D0F81021C0F80831D0F8082122
:105AB000C0F80C31D0F80C3140F3073002B0BDE82B
:105AC000F047FCF72FBFFFF76BFF019B07FA03F3CB
:105AD000C0F80C35ADE700BFF0F8FCFF2DE9F04150
