:1000000000EA0220D90E000019C70100C50E000049
:10001000C50E0000C50E0000C50E00000000000067
:100020000000000000000000000000009D0F000024
:10003000C50E0000000000003D0F0000C50E0000CE
:1000400069110000691100006911000069110000C8
:1000500069110000691100006911000069110000B8
:1000600069110000691100006911000069110000A8
:100070006911000069110000691100006911000098
:100080006911000069110000691100006911000088
:100090006911000069110000691100006911000078
:1000A0006911000069110000691100006911000068
:1000B0006911000069110000691100006911000058
:1000C0006911000069110000691100006911000048
:1000D0006911000069110000691100006911000038
:1000E0006911000069110000691100006911000028
:1000F0006911000069110000691100006911000018
:100100007BB972B90029BEBF00204FF0004106E064
:1001100008BF00281CBF6FF000414FF0FF3000F017
:1001200057B8ADF1080C6DE904CE002909DB002BAE
:100130001ADB00F057F8DDF804E0DDE9022304B033
:100140007047404261EB4101002B1BDB00F04AF895
:10015000DDF804E0DDE9022304B0404261EB410137
:10016000524263EB43037047524263EB430300F098
:1001700039F8DDF804E0DDE9022304B0404261EB28
:1001800041017047524263EB430300F02BF8DDF866
:1001900004E0DDE9022304B0524263EB43037047FD
:1001A00053B94AB9002908BF00281CBF4FF0FF31DE
:1001B0004FF0FF3000F00CB8ADF1080C6DE904CE43
:1001C00000F010F8DDF804E0DDE9022304B0704728
:1001D000704700BF034613F8012B002AFBD1181A01
:1001E000013870472DE9F04786468C460846089E40
:1001F000154674461946002B40F0C2808542B2FA7B
:1002000082F245D94AB1C2F1200300FA02FC2EFA6B
:1002100003F3954043EA0C0C94404FEA154EA8B204
:10022000BCFBFEF8230C0EFB18CC08FB00F943EADC
:100230000C43994528D9EB1808F1FF3704D29945AA
:1002400002D9A8F102072B44A3EB0903A4B2B3FB24
:10025000FEFC0EFB1C330CFB00F044EA0344A042FE
:1002600014D92C190CF1FF3304D2A04202D9ACF1FD
:1002700002032C44241A43EA07401EB1D440002351
:1002800034607360BDE8F0874746DDE76346F1E719
:1002900092BB431B01214FEA154EAFB2B3FBFEFCEC
:1002A000200C0EFB1C330CFB07F840EA0343984577
:1002B00062D9EB180CF1FF3004D2984502D9ACF1A9
:1002C00002002B44A3EB0803A4B2B3FBFEFC0EFB1D
:1002D0001C330CFB07F744EA0344A7424ED92C1900
:1002E0000CF1FF3304D2A74202D9ACF102032C4433
:1002F000E41B43EA0040C0E7C2F1200320FA03F107
:10030000954090402EFA03F303434FEA154EAFB2E7
:10031000B1FBFEFC0EFB1C10190C0CFB07F841EAAC
:100320000041884504FA02F422D969180CF1FF3023
:1003300004D2884502D9ACF102002944A1EB08019E
:100340009BB2B1FBFEFC0EFB1C110CFB07F743EA52
:1003500001439F420ED9EB180CF1FF3104D29F42AA
:1003600002D9ACF102012B44DB1B41EA004192E7C8
:100370006046E3E76146F7E76046A3E76346B7E711
:10038000834206D916B9002108467BE7C6E900E09A
:10039000F9E7B3FA83F78FB9834201D3724508D8DE
:1003A000BEEB020460EB030301209C461EB9002152
:1003B00068E73846FAE7C6E9004CF8E7C7F1200CD1
:1003C000BB4022FA0CF41C432EFA0CF120FA0CF379
:1003D000B84001434FEA14490EFA07F5B3FBF9F8A8
:1003E0001FFA84FE09FB18300B0C08FB0EFA43EAD7
:1003F00000439A4502FA07F240D9E31808F1FF30AA
:1004000004D29A4502D9A8F102002344A3EB0A03BF
:1004100089B2B3FBF9F809FB183308FB0EFE41EA79
:1004200003418E452CD9611808F1FF3304D28E4563
:1004300002D9A8F10203214443EA0040A0FB02983C
:10044000A1EB0E014145CE46434602D306D14D45B0
:1004500004D2B9EB020E68EB04030138002EA6D0DB
:10046000B5EB0E0261EB030101FA0CFC22FA07F373
:100470004CEA0303F940C6E9003198E74046C5E776
:100480004346D9E7014640F2E73080B500EBC13082
:100490004FF47A720023490CFFF782FE084E094F91
:1004A00005460C4633782BB1BB6806485B694FF4B0
:1004B000005198472846214634F0AAFBF2E700BFD6
:1004C000DCCB0220784F03002DE9F04F89B0364C89
:1004D000204634F03EFA70B12269A168136843F4F3
:1004E000005313600B68314A0D212046984710B91C
:1004F0002F4B01221A702F4834F02BFA28B92E48BE
:100500001BF031FFFA20FFF7BDFF07F08DFD002241
:10051000FF21054621F06FF828482DF0CEF8C0F3F2
:1005200007238DF81C00C0F307408DF81D308DF8AF
:100530001E0007990022284621F04EF820482DF091
:10054000BCF8C0F307238DF81800C0F307408DF8FE
:1005500019308DF81A0006990022284621F052F829
:1005600000220121284621F05CF80022114628468D
:1005700021F024F800221146284621F026F8002216
:100580001146284621F00CF800221146284621F099
:100590000EF8284615F052FC0446A8B909481BF08D
:1005A000E2FE4FF4FA70AEE7784F030001000A0054
:1005B000DCCB022078500300C86803002A0A06003A
:1005C0003B062A00E3680300C849DFF82483DFF80C
:1005D0002493DFF824A3DFF824B331F088FD02234D
:1005E0001946002220461FF032F9C5482DF065F863
:1005F000C0F307238DF81530C0F307438DF81400BE
:100600008DF8163005990022204621F01FF80026AB
:10061000284612F095FE0B23C6EB0622B2FBF3F23E
:1006200002EB4202520092B2FF23B2FBF3F10A4402
:10063000062904468BB202F0FF0200F03B81591CF0
:1006400089B25BF823005BF821101BF04CFC0746D5
:1006500028226FF07F4138461BF045FC3A2100907C
:1006600038461BF063FCAF21019038461BF05EFC5E
:100670000746002C92D04FF4045349F8043B48F845
:10068000043BD822162120464AF8044B1FF0B2F84A
:10069000192171431222083120461FF072F864229A
:1006A000002120462FF0BCFB0022212120462FF004
:1006B0004FFB00221146204620F0C1FF00220421FA
:1006C000204620F0D9FF0022B221204620F093FFDF
:1006D00038462CF0F2FFC0F307238DF81000C0F36A
:1006E00007408DF811308DF8120004990022204641
:1006F00020F072FF4FF400320421204620F0BCFFAE
:100700004FF40032FF21204620F075FF00982CF0B6
:10071000D4FFC0F307238DF80C00C0F307408DF819
:100720000D308DF80E0003994FF40032204620F072
:1007300053FF01982CF0C1FFC0F307238DF8080088
:10074000C0F307408DF809308DF80A0002994FF484
:100750000032204620F056FF01364FF400320121CE
:10076000204620F05EFF0C2E7FF452AF6548836870
:100770005B6803B1984734F0D7FA4FF47A73A0FB63
:10078000030503FB0155C70BDFF87CA147EA45478A
:10079000ED0B34F0C9FA4FF47A73A0FB030603FBA8
:1007A0000166C40B44EA4644BC424FEAD63676EBB7
:1007B000050378DBDAF800204D4DDFF85081FD218C
:1007C0004FF01E0E4FF0330C55F8040BC0F50453D8
:1007D0000EFB03F300EB23204D4B08FB023202F427
:1007E000707702F03F03B7F5407FA3F11F0306D3F4
:1007F00012F4806F0CBF6FF019071A273B440529CC
:100800009FBF0B275F430A2397FBF3F30CFB030304
:1008100023EAE3730131B3F5C84FC9B2A8BF4FF45F
:10082000C843092945F8043CCED1CAF80020304A13
:10083000DFF8C4802F4DD362002791464FF0B00BF4
:10084000BC4659F8040B55F8041B421A34D40BFB70
:1008500002F21212B2F5407FA8BF4FF44072552A3F
:10086000ACBF89185531884235DB45F8041C55F872
:10087000042C002A32DA45F804CC55F8041C58F848
:10088000040B013700220912FFB22FF061FA0C2F7E
:100890004FF0000CD5D107F0C7FB1FF0F3F914F1AE
:1008A0000A0746F100050FF01FFB0021A42034F0D9
:1008B000AFF96EE7174FCBE66FF02D035A431212D4
:1008C000B2F5807FA8BF4FF48072202AACBF891A8E
:1008D00020398842C9DD45F8040CC8E7B2F5C84F95
:1008E000C4BF4FF4C84245F8042CC6E7FB680300B8
:1008F000C8860020F886002028870020B85303000F
:100900006AD6FF0078500300000000200D66190031
:100910005FF36E3C00BAF600014B1B68184700BF3E
:1009200004000020014B1860704700BF0400002045
:1009300030B585B004460D4610220021684634F0DB
:1009400031FA02238DF802302A46044B01932146E6
:1009500068461BF06BF805B030BD00BF19090000F8
:1009600080B505460E46174698461AF0F5FC034634
:1009700034F084FADFF81890044649F80030424613
:1009800030463946A84754F8090000F0C1FA00BFC4
:10099000080000002DE9F047058B04462807904623
:1009A00011D4022905F0070540F0CC8020461BF049
:1009B000E7FC78B10138218B042811D8DFE800F07A
:1009C000C2106D85950001290CBF45F0100545F05A
:1009D0002005258388F31188BFF36F8FBDE8F0876A
:1009E00001F0070AAA4500F0A5800027B9463E4657
:1009F000A368002B00F0BC8041F00801218388F33C
:100A00001188BFF36F8FA168002900F0BA800D68CC
:100A1000002900F0B680D1F80480334652462046C3
:100A2000C047002D76D02B6829461D46F0E701F01F
:100A300007035A1F012A1BD8002221F00701062BA9
:100A4000276889B2C4E9002209D13B4603E0628BE2
:100A5000013262831B68002BF9D141F0020121832E
:100A600020461BF08DFC00287AD041F0200176E072
:100A7000042B0AD121F0070189B2218320461BF003
:100A80007FFC10B141F020012183218B01F0070A86
:100A9000AA454FD00027B946AAE7236921F00701EC
:100AA00041F00601062DD3F8009021832DD1B9F134
:100AB000000F3FD041F00801218388F31188BFF374
:100AC0006F8F3A492046C84729E021F00701236982
:100AD00041F0040189B2042DD3F804902183E6D0BB
:100AE00000273E464FF0040A82E721F00701236900
:100AF00041F0050189B2052DD3F808902183D6D0A5
:100B000000273E464FF0050A72E700273E464FF0A9
:100B1000060A6DE72B4687E7B9F1000FD1D1EFF355
:100B20001188202383F31288BFF36F8F238B23F068
:100B300008032383258BEA062ED525F01003238393
:100B400005F007056669218B002EBFF670AF002304
:100B50002768C4E9003321F0070141F00101218336
:100B6000218B01F0070AAA454FF000097FF440AF3E
:100B7000002F9CD041F00801218388F31188BFF336
:100B80006F8F002FC8D03D68394633465246204605
:100B90001BF022FC2F46F4E7AB067FF51BAF25F0D8
:100BA0002003238305F0070500E700BF05C401000B
:100BB000014B036000207047D453030030BFFFF7A0
:100BC000FDBF00BF2DE9F0410B4EDFF8308006EB92
:100BD0000807CC1B054632460949204634F0BAF8CE
:100BE000A01942460021083C34F0DCF82C6707F1DC
:100BF0000800BDE8F08100BF000000000400000014
:100C00007C530300054B5A699B689A421FBF044AF4
:100C1000536843F080535360704700BFA0CB02205D
:100C200000ED00E070B5264B15469A6A12F0100FE1
:100C30009A6A14BF1124102412F0080F9A6A18BF80
:100C40001224920706460AD5586B9A6A140634D5C0
:100C500019B19A6A22F080029A62132401E06FF0BF
:100C60001500174B9A6A12F0010F9A6A18BF1424E4
:100C700012F0200F9A6A18BF1524D20602D49B6A7C
:100C80009B070AD50E4B5B68190506D5314600F067
:100C900025FA10B180F309880224094B9A6A92065A
:100CA00042BF5A6A22F400525A629A6A42F0FF0224
:100CB0009A6200232B70204670BD6FF01500CCE7C0
:100CC00000ED00E0134B9A6A12F0007F9A6A14BF9D
:100CD0001E201D2012F0807F9A6A18BF1F2012F478
:100CE000002F9A6A18BF212012F4802F9A6A18BF29
:100CF000222012F4003F9A6A18BF232012F4803F8A
:100D00009A6A6FEA02426FEA12429A6218BF24207E
:100D1000704700BF00ED00E010B5194B0246986A1D
:100D20009C6A10F4805F14BF1720162014F4006F23
:100D30009C6A18BF1820A40509D5986B986A00040E
:100D400004D51AB19A6A22F400429A6219200C4B17
:100D50009A6A12F4806F9A6A18BF1A20D2050CD4CE
:100D60009B6A13F4005F18BF1C20054A936A43F482
:100D70007F43936200230B7010BD1B20F5E700BF7B
:100D800000ED00E0F0B5484B5B688BB00446C3F360
:100D90000803002585F31188BFF36F8F02F07F40B1
:100DA000B0F17F4F11D102F00C0008280DD01007D0
:100DB0004CBF0C4601250022033B8DF80720032B76
:100DC00005D8DFE803F0246367602C46F3E70023CF
:100DD0009DF80720CAB902AE04F1200720686168B7
:100DE000324603C20834BC421646F7D1099A002D98
:100DF00054D0C2F3080121B96FEA52226FEA4222AD
:100E0000099202A918461BF07DFC0BB0F0BD264BE1
:100E1000DA6A9107DBD4DA6A002AD8DBDA6A520090
:100E2000D5D55A69A16942F480725A61BFF34F8FD8
:100E3000BFF36F8F5A6931F8021C22F480725A6135
:100E4000BFF34F8FBFF36F8F4DF6027291420AD0FE
:100E50009A6AD2B24AB10DF1070201212046FFF78A
:100E6000E1FE0346B4E72368B2E79A6A12F47F4FC3
:100E700005D00DF107010120FFF74EFFF1E79B6A56
:100E8000B3F5803FA3D3FFF71DFFEAE70DF107029B
:100E90000021E3E70DF107010020EDE722F4FF72E6
:100EA00022F00102ACE700BF00ED00E0044B5A69FC
:100EB00042F010025A615A6922F008025A617047E2
:100EC00000ED00E0EFF30880EFF3098101B5724611
:100ED000FFF758FF01BD00BF0B4880F3088802F000
:100EE00079FA202080F3118808484FF404614018F3
:100EF00080F30988EFF314800221084380F31488FB
:100F0000BFF36F8F00F0B2F800EA022040D0022059
:100F1000084B9B6883420BD1EFF3058343B1064B2B
:100F20005A6842F080525A605A6A22F400425A6269
:100F30001AF018BAA0CB022000ED00E014498A682C
:100F40004FF030001044EFF3098C80E8F01F2020B0
:100F500080F31288BFF36F8F0E4F4FF000664A691F
:100F60008A603E60106F0C4C2060506F0023536706
:100F700080F3118804B5104600F014F9BDE8044070
:100F800002F1300090E8F01F8CF3098870470000F0
:100F9000A0CB022004ED00E0708700201EF0040FBB
:100FA0000CBFEFF30880EFF30980816911F8021C90
:100FB0000229FFD001B572461BF0AAFB01BD00BF9C
:100FC00040B2002807DB044A4109012300F01F005A
:100FD000834042F82130704700E100E040B2002831
:100FE0000CDB4309064900F01F0020330122824038
:100FF00041F82320BFF34F8FBFF36F8F704700BFBF
:1010000000E100E0054B420900F01F0053F82220E8
:10101000012303FA00F01040704700BF00E100E038
:1010200040B20028A8BF00F1604001F10101B8BF43
:10103000064B4FEA4111ACBF00F5614000F00F00D4
:10104000C9B2B4BF195480F80013704714ED00E022
:10105000044B054A23F07F039360BFF34F8FBFF328
:101060006F8F70470000000000ED00E008B5FFF74B
:10107000EFFF0B4AD2F8883023F47003C2F88830AF
:10108000EFF3148323F0040383F31488BFF36F8F0B
:1010900019F0FEF91AF09AFA00F05AF819F03CFA31
:1010A00000ED00E042F8203C009B42F81C3C0A495D
:1010B000019B42F8183C029B42F8143C21F00101CC
:1010C0004FF0807342F8043C42F8081C0023203A99
:1010D00002654367704700BF61090000094A034683
:1010E000906870B113F1160F006E05D0A0F14002A8
:1010F0009A4205D8834203D2814228BF002070471C
:1011000000207047A0CB022008B515460B4A0C4BB7
:101110009060026F1A600E4600F044F82C4686F389
:1011200009880020034B9847204600210022002315
:10113000014C20472FC7010061090000A0CB02200D
:1011400070870020014B10221A61704700ED00E00B
:10115000044800232021C2180133302B82F80013E9
:10116000F9D1704700E100E008B5EFF30583064AC6
:10117000103B02EBC30152F8330049688847BDE8D1
:101180000840FFF73FBD00BFF8500300024B034A81
:101190000348012100F076B8000004200000002080
:1011A000EC530300026E054B403A1A60044A40219A
:1011B000C3E901121846012100F06EB874870020BF
:1011C00000000B15084AC2F898000B6823F01F03B3
:1011D000034343F01003C2F89C308B6843F00103D3
:1011E000C2F8A030704700BF00ED00E02DE9F043E9
:1011F000DFF8608085B00E461F4604464FF00009B8
:10120000B14523DA6068D8B13FB1411E08421BD115
:101210001F2819D92368194216D1236801931BF09E
:10122000A9FAA36803430393D8F89050C5F30725A0
:10123000D0B2013DA84207D801A9FFF7C3FF421C65
:1012400009F101090C34DBE76FF01502104605B017
:10125000BDE8F08300ED00E0044B0522C3F89420C4
:10126000BFF34F8FBFF36F8F704700BF00ED00E0FB
:10127000BFF35F8F024B0022C3F89420704700BF7A
:1012800000ED00E010B5034C01232278FFF7AEFF1C
:10129000207010BDDDCB022008B50B4A0023127868
:1012A000FFF7A4FF10F1160F07D0084A0021D2F86B
:1012B0009030C3F30723984200DB08BDC2F89800C2
:1012C000C2F8A0100130F2E7DDCB022000ED00E013
:1012D0002DE9F043534B544CD3F890302568C3F3B9
:1012E00007239D4285B000F29A80FFF7C1FF0020DE
:1012F0000C2685421AD14D4C4D4F25706846FFF79C
:1013000057FCDFF82081DFF82C9106460025AE421D
:1013100013D1237843490020D1F89020C2F307224B
:10132000934276DBFFF798FF002042E0616806FBFE
:101330000011FFF747FF0130DBE7009800EB0511D4
:101340004FEA051CCB683B40B3F5000F48D00AD8E4
:10135000B3F5001F30D0B3F5800F36D0B3F5801F42
:1013600010D00135D3E7B3F1807F42D0B3F1007FD5
:10137000F7D150F80C3088684A681BF0FBF940F44C
:10138000802009E050F80C3088684A681BF0F2F9B8
:1013900040F0885040F43020CDE901230390D8F884
:1013A00090302078C3F30723013B98422AD96FF08D
:1013B000150005B0BDE8F08350F80C3088684A6825
:1013C0001BF0D8F940EA0900E6E750F80C308868CD
:1013D0004A681BF0CFF940F0C06040F40030DBE712
:1013E00050F80C3088684A681BF0C4F940F08270ED
:1013F000D2E750F80C3088684A681BF0BBF940F01F
:101400008870C9E701A9FFF7DDFE23780133237057
:10141000A7E7C1F89830C1F8A00001337CE74FF08E
:10142000FF30C6E700ED00E0F8530300DDCB0220FB
:101430000000F0FF0000081108B5024B1B68984738
:10144000002008BD80870020034B044A1860937871
:1014500043F002039370704780870020080000204B
:1014600008B50649064821F00701C1F1005202F50E
:1014700080221AF039FF002008BD00BF4F71032001
:10148000848700200E4A0123C2F840354FF0804285
:101490004FF08051C2F87835D1F83001082808D1D2
:1014A000D1F83411052904D80648415C09B1C2F8C5
:1014B00038364FF080430122C3F880250020704762
:1014C00000E001403A69030020B1034B800143F082
:1014D00001031847704700BFB05303007FB50D4D9F
:1014E0000D4E4FF0FF324FF0FF3301A9284619F09F
:1014F000D3F80028F5D1094CB442F2D2236813B1D5
:10150000019A934203D1D4E9013101A898470C34E0
:10151000F2E700BF1C0200207C530300705303005D
:10152000F0B585B0DDE90C5417461E460190234600
:101530009DF828008DF808002C432A468DF80910E4
:10154000ADF80A7003960AD0094933F097FCD1F838
:101550008040084909588C4204BF002213460648BF
:1015600001A919F041F800EAE07005B0F0BD00BF34
:1015700088850020080000001C020020084B70B580
:10158000C31A0D4607499B1004465943064840229A
:101590001BF00EF92B4601462046BDE87040184767
:1015A000A4870020B76DDBB6384F030073B50C4C31
:1015B0000C4A4023041B00930D460B460A49A41015
:1015C0006143064609481BF01FF9011E05DA304643
:1015D0002B4602B0BDE87040184702B070BD00BF96
:1015E000A487002073C80100B76DDBB6384F030035
:1015F00010B5EFF31184202383F31288BFF36F8FAC
:10160000074A136823F00201DB07116002D40120AE
:101610001CF011F884F31188BFF36F8F10BD00BF69
:10162000F4870020002270B5012104461046FFF720
:10163000F7FC0F4802F058F80E4B984215D102F013
:1016400063F826690C4930461AF0E9FE00280BDBE6
:10165000012535642469084904F11C001AF0DFFEF5
:10166000002801DBE564002070BD6FF00400FBE79B
:10167000751700000000AD0B185403001FB50022C1
:101680000123CDE90223094ACDF800D06B46CDF8FD
:1016900004D01BF0E7F8002805DB4FF4804200235C
:1016A000684619F057F905B05DF804FB91C80100D0
:1016B00030B4104B0C2202FB003301460020D3E96A
:1016C0000E529863EFF31180202484F31288BFF345
:1016D0006F8F1C6C04F0C00444F002041C6480F39F
:1016E0001188BFF36F8F1DB12B46034830BC1847DC
:1016F00030BC7047A4870020384F030010B4EFF3CC
:101700001182202383F31288BFF36F8F174801687B
:1017100041F002040460C80707D482F31188BFF3C4
:101720006F8F012010BC02F001B84FF08041D1F85A
:101730000C04D1F80C14C907EFD5EFF3118083F333
:101740001288BFF36F8F0A490B6C03F0C00343F09C
:1017500002030B6480F31188BFF36F8F82F311884B
:10176000BFF36F8F002010BCFFF7A2BFF4870020EB
:10177000A487002010B1012804D07047034B1B6CD4
:101780005B0701D1FFF794BF704700BFA48700201B
:101790002DE9F0413849BFF35B8F0746012251E83C
:1017A000003F41E800200028F9D1BFF35B8F33B937
:1017B000324933484B60CB608A601AF043FE7B1E8F
:1017C000012B2BD8012F07D14FF08043D3F81C34C5
:1017D00003F00303012B21D033F096F90546F8B945
:1017E000284B1B78E3B14FF080430222C3F8082353
:1017F0000646DFF894804FF08044D4F81824D4F8DB
:101800001834D20315D503F00303012B01D0012FA7
:101810000FD155B386F31188BFF36F8FBDE8F08108
:10182000EFF31186202383F31288BFF36F8F012516
:10183000DFE7ADB130461AF08EFFD4F81835002B33
:10184000DBD1D4F80421002AD7D0C4F80431D4F86D
:1018500004310123C4F81835C8F88031A360CCE7FF
:101860000021212033F0D4F9E7E74FF08043022232
:10187000C3F80423D2E700BFA08700209087002090
:10188000C0870020F3CB022000E100E008B5074844
:1018900033F05FF838B10648FFF7D6FD0448FFF78C
:1018A00041F8002008BD6FF01200FBE7B84F0300BD
:1018B000B51800000A2838B5074D044604D1AB68B6
:1018C0000D215B6828469847AB6803485B68E1B226
:1018D0009847204638BD00BFB84F0300EFF3118290
:1018E000202383F31288BFF36F8F0A4BD3F80011C4
:1018F00061B10021D3F80805C3F80011D3F8003115
:10190000C0B282F31188BFF36F8F70476FF00A0087
:10191000F7E700BF00D00040F0B5034610469C78C2
:1019200093F803C0EFF31182202585F31288BFF3EB
:101930006F8F1F7893F801E0E41B04EA0C04A042C7
:1019400088BFA0B23E180CEA06063D461E7082F320
:101950001188BFF36F8F0A188A4216D177450CD1D0
:10196000EFF31182202181F31288BFF36F8F197872
:10197000597082F31188BFF36F8F1B79241AA34229
:1019800022BF064B01221A60F0BD5E19013576793F
:1019900001F8016B05EA0C05DEE700BF00D000404E
:1019A000DB432DE9F04713F001050E46144604D041
:1019B0002248FFF7B1FFBDE8F0879AB3EFF3118833
:1019C000202383F31288BFF36F8F0D20FFF71AFBDC
:1019D00007460D20FFF702FB88F31188BFF36F8FD6
:1019E000DFF85CA0DFF85C80CAF80051DAF800315B
:1019F0004FF400590123CAF800302546C8F88091F9
:101A0000DAF8003183B1FFF769FF031EC8F880914F
:101A1000F6DB013DADB27355002DF1D117B10D20AC
:101A2000FFF7CEFA2046C6E7EFF31180202383F3B9
:101A30001288BFF36F8F1AF08EFEE1E7188800203E
:101A400000D0004000E100E02DE9F041124F0D46CA
:101A5000144607F1350814B92046BDE8F0814FF06F
:101A6000FF334FF0FF32384618F074FF2246294604
:101A70004046FFF751FF0646384618F037FF3EB99B
:101A80004FF0FF324FF0FF33044818F063FFE6E7F2
:101A9000A41BA4B23544DEE7F887002008880020A4
:101AA00038B5184C01221146204632F0AAFF012217
:101AB000002104F1100032F0A4FF40F20743238715
:101AC0004FF0706323620C2384F8243000250E4B02
:101AD00084F83550E586D3F8042522F00102C3F8D6
:101AE00004250121C3F80051D3F80021C3F80413E1
:101AF0002A4619600D20FFF793FA0D20FFF760FAD0
:101B0000284638BDF887002000D0004010B5FFF708
:101B1000E5FE002820DB174B93F8222093F82140A4
:101B200093F82310141B31EA0404C0B20DD193F8CA
:101B3000372093F8364093F83810141B31EA040428
:101B40000BD10D4B01225A600EE09C18013211405E
:101B500084F8250083F8221010BD9C180132114032
:101B600084F83A0083F837100448BDE8104018F0B4
:101B7000BDBE00BFF887002000D0004008880020CC
:101B8000F0B516464268107B01F01F0444EA401489
:101B9000106987B0002872D0B6F5001F02F1100559
:101BA00006D1214628461BF0D7FD002007B0F0BD26
:101BB00001A80027B6F5800F0197476039D1B3F12E
:101BC000007F14BF052304238DF804300023CDE9E2
:101BD00004030393936823FA01F111F001010DF15D
:101BE00003073ED1B6F1A07F3BD104F01F03620989
:101BF00003F5E07328D0012A47D1254A52F8233053
:101C0000DB072ED43A462146284602F077F8214BCE
:101C100098421CD0029703AA2146284601F030FFC3
:101C20001D4B98422ED101222146284602F0CAF8C7
:101C3000BBE7B3F1C06F05D0B3F1007F14BF012340
:101C40000223C1E70323BFE74FF0A042D6E739469E
:101C5000284602F0B1F8104B9842DBD06FF00B0031
:101C6000A4E73A462146284602F048F80A4B984233
:101C7000D1D19DF80310284602F098F8CBE76FF019
:101C8000850093E76FF0150090E751F82330FFDEF1
:101C9000000300500400AD0B0000AD0B420970B50D
:101CA000034602D0012A17D070BD0D4E326951682B
:101CB0000029F9D003F01F0301250C689D4000297D
:101CC000F2D08A682A4002D04B68304698472CB13F
:101CD000236821461C46F2E7024EE7E72346F8E771
:101CE000784F0300584F030038B545682B69B3B1EE
:101CF0001035284602F050F8044680B901462846BF
:101D000002F016F8084B98420BD1084922462846A3
:101D100001F0EEFF224605210620FFF781F90020A1
:101D200038BD6FF00400FBE70000AD0B9D1C000008
:101D30002DE9F043466840F20635D006337B87B084
:101D400002EA050554BFC2F34010032001F01F074B
:101D5000B5F5837F144647EA43178DF8030045D055
:101D60000DD8062D16D005D8A5B1022D40D06FF0A4
:101D7000150038E0B5F5807FF9D101250AE040F281
:101D80000222954236D0B5F5407F35D0B5F5007FBB
:101D9000EDD102250123220303FA01F12ED5736848
:101DA000C3F80815326992BB07F01F037F092BD0D7
:101DB000012F79D13F4A02EB830284F48033D2F8B9
:101DC0000017C3F30043C4F3404444EA430421F43E
:101DD000E16144EA800421F0070144EA05230B4352
:101DE000C2F80037002007B0BDE8F0830725D1E72F
:101DF0000425CFE70525CDE70325CBE7630344BFE3
:101E00007368C3F80C15CDE74FF0A042D3E7103646
:101E10000DF102023946304601F070FF14F4403FE4
:101E200080460CD1394630461BF094FC224B984535
:101E3000D8D19DF80210304601F0B8FFD2E701ABCF
:101E40004FF0000903AA39463046CDE90439CDE9FF
:101E50000199CDF80C9001F013FE174B9842C1D1B7
:101E600014F4003315D09DF803308DF80E3084F44F
:101E70008034C4F300444B4603AA394630468DF8FB
:101E80000C508DF80D4001F0B5FE0B4B9842A9D1D6
:101E9000CCE7CDE9043303AA0DF1030339463046FC
:101EA000039301F0EDFDF0E703F5E07352F8233002
:101EB000FFDE00BF000300500000AD0B02780B698D
:101EC000012A08D0022A08D04AB9064A5A6203F108
:101ED000140018F00BBD044AF8E7044AF6E7044A78
:101EE000F4E700BF0000AD0B0100AE0B0200AE0B2B
:101EF0000100AD0B2DE9F04FD0F81090D0F8048020
:101F000085B005460C461746029309F1040A4FF0C6
:101F1000FF324FF0FF33504618F01CFD09F1140B4F
:101F200000230022584618F015FD404603F0A6F89D
:101F30007B1E00260393B74201D8002322E0039BB7
:101F4000217AB34283BF237D83F00403C3F380036C
:101F500000230193029B0093D4E90023284600F05C
:101F60004DF8034670B94FF480420023584618F0EC
:101F7000F1FC98B1404603F091F8284600F02CF8A7
:101F80006FF004034046029303F088F8504618F0BF
:101F9000ADFC029B184605B0BDE8F08FD9F824309F
:101FA000034A934204F10C04EAD10136C3E700BFAF
:101FB0000000AD0B08B503464068826900F10801D6
:101FC00003F018F8034B984214BF6FF00F00002085
:101FD00008BD00BF0000AD0B08B543681B68D3F80F
:101FE0000805D3F80C1503F05FF9034B984214BFB2
:101FF0006FF00F00002008BD0000AD0B2DE9F0418F
:1020000086B00C4647689DF83480154600211222A0
:102010000DF106001E4632F0C5FEBDF830208DF8E9
:10202000052004F0010314F008028DF80430029634
:10203000049519D1A10704D4B8F1000F12D19BB9AE
:10204000202201A9384603F045F80A4B98420ED0E9
:102050000B3398420CBF6FF00F006FF0040006B016
:10206000BDE8F0814022ECE76FF08500F7E7002043
:10207000F5E700BF0000AD0BF7B5446805690646FB
:10208000E06832F066FC002848D02846254940F830
:10209000046B32F001FD606900282ED0217E638B35
:1020A000D0F810C0D0F808E0DCF80060DA0754BFC0
:1020B00043F4D01383F4B013012723F480128F402C
:1020C000DB074CBF3E43BE43CCF80060DEF8003077
:1020D0009847002820DB0021A42032F099FD237EC0
:1020E00060690121994003691B68194283680CBF2C
:1020F0001B69DB68984700280EDB18350A49002267
:10210000284632F013FE4FF4A47200232846CDE98E
:10211000002319F035FC002003B0F0BD6FF0120071
:10212000FAE700BF67CD010029CD01002DE9F74F87
:102130004568EC6818348046002701944FF0010B85
:102140006B68BB4204DC2B7D002B69D1002048E08A
:102150000C23D5F808A003FB07F60AEB06095AF88A
:10216000060032F0F6FB00286DD0B9F806305AF8B8
:10217000060099F8041043F48032D0F810C0D0F86B
:10218000089013F0010FDCF800300BFA01FE14BFC9
:102190004EEA030323EA0E03CCF80030D9F80030EE
:1021A0009847F0B944F8188C2969204632F0A0FC11
:1021B0002B7D13B101374834C2E7D5F80890234A84
:1021C00009EB060AA4F114019AF804300BFA03F3A0
:1021D00044E9042359F806008368DB6923B96FF0EA
:1021E000570003B0BDE8F08F012298470028F8DBC4
:1021F0009AF8041059F806001AF022FE04F8080CA8
:1022000059F806009AF8041083689E69002EE6D0FB
:102210004FF0C0634FF0A072B0470028CADAE0E781
:102220002D684FF4004440F2E73000214FF47A72F9
:102230000023E5FB0401FDF7B3FF02460B460198BE
:1022400018F074FD82E76FF01200CAE769CE010052
:102250007FB50346044653F8185D6968CA689B1A3F
:10226000114ADB1053438A68D618D05831791AF0D6
:10227000E7FD031E15DB14F9082C9A4211D004F86F
:10228000083C4FF0FF304FF0FF313289003BCDE981
:1022900002014FF00101009118BF01232846FFF70A
:1022A0003FF904B070BD00BFACAAAAAA036803F04E
:1022B0001F025B09026004D0012B034818BF0020F5
:1022C00070474FF0A0407047000300502DE9F04FD9
:1022D000DFF89491DFF894A185B01546834600EBB2
:1022E000810140F2FF18594503D1002005B0BDE837
:1022F000F08FDBF800305E04C3F3C322C3F308049D
:1023000000F1AC801B0E19F80270444508BF4FF075
:10231000FF34222B00F2A580DFE803F012191F2200
:10232000252B22A3A3A3A33B68A3A3A3A3A3A3A397
:10233000A3A36B818487A3A3A38A9194979A9D00FA
:10234000C5F80C45601C5ED10BF1040BCBE7C5F85A
:102350001445621CF8D000265FE0C5F80845F1E797
:10236000C5F81045F5E7631CC5F80845ECD0002614
:1023700004E0661CC5F80C45E6D0012603A80394CA
:10238000FFF794FF039B012202FA03F3C0F80C3518
:1023900008E0C5F80845002FDBD1631CD4D0002627
:1023A00032460627DBF80030019303F40040002892
:1023B00018BF002203A8009218BF01260394FFF75C
:1023C00075FF039C019B009A00EB8400C3F3412C32
:1023D000D0F800473B0243EA8C03134304EA0A04A3
:1023E000234343EA4603C0F80037ADE7C5F80C4580
:1023F000D1E7C5F86045601CDBF80030A4D0C3F31A
:102400000043002BB9D003A80394FFF74FFF039BB1
:10241000012606FA03F3C0F808353246C2E7C5F8CC
:102420006445E8E7C5F86845E5E7C5F86C45E2E7C7
:10243000C5F82445621C87D000220126B2E7C5F802
:1024400028457FE7C5F83045F4E7C5F83445F1E79E
:10245000C5F83845EEE7C5F83C4573E76FF0150061
:1024600044E76FF0850041E7D5690300F0F8FCFF11
:10247000036803F01F025B09026004D0012B0348CC
:1024800018BF002070474FF0A04070470003005075
:1024900073B50446002201211C20FEF7C1FD6068CF
:1024A0002369244A00F1080101F066FE224B98429C
:1024B0003CD16568AE6B01AA002130461AF019FDC7
:1024C000002805DB019B326819791868FFF7FEFECA
:1024D000002631462B6801F5AC7253F82230002BF0
:1024E0000EDB01A80193FFF7C3FF019AD0F8043572
:1024F000D34013F001031CBF01238B403343DEB2F2
:1025000001310429E6D1002301206268916A00FAB2
:1025100003F232420CBF01220022D20321F8132021
:102520000133042BF1D1002002B070BD6FF00F0019
:10253000FAE700BF19CF01000000AD0B2DE9F04113
:10254000044647680D4632F0DFFA4FF0200888B99C
:10255000264B1B7873B1642660681AF096FDF0B9BB
:1025600001201BF05AF8013EF6D10021212032F063
:102570004FFBF0E7EFF31186314688F31288BFF383
:102580006F8F60681AF081FDA8B986F31188BFF3D8
:102590006F8FEFE786F31188BFF36F8FE5E7EFF3F7
:1025A0001186314688F31288BFF36F8F60681AF086
:1025B0006CFD0028EED0BB691D706368BA691B68AA
:1025C0000020C3F844250122C3F84825C3F82001A0
:1025D000D3F82041C3F85801D3F858019A6081F329
:1025E0001188BFF36F8FBDE8F08100BFF3CB0220ED
:1025F000F7B50546002201210220FEF711FD022059
:10260000FEF7DEFC6A6811681369C1F82435137D92
:10261000507D927D03431343C1F86C356E68D6E953
:10262000004313F0010348D02F6907F108001BF0A5
:1026300000F8304B98425AD1387A04F10C0204F574
:1026400090711AF0ECFF387A012707FA00F000F0D9
:10265000E3FF0823C4F80035B369C4F84435002308
:10266000C4F84835A760D4F85831002BFBD00021BE
:10267000C4F800156B68DC6801AA20461AF039FC22
:10268000002805DB019B226819791868FFF71EFEF8
:102690006A6813680821C3F80015117A51B9D26924
:1026A000C3F834250122C3F83825C3F81011D3F834
:1026B00010111A60002003B0F0BD0822C4F80025F4
:1026C000B269C4F84425C4F848350123A360D4F89E
:1026D0002031002BFBD00023C4F82031D4F8203166
:1026E0000123E3604FF48073C4F80433BBE76FF059
:1026F0000400E0E70000AD0B7FB50546406829699E
:102700008A6C0B6D0ABBABB14C6C8B6516461A46D6
:10271000C96C0291CDE9004611B3002B18BF1346D6
:1027200000226946039301F021FF0E4B98420AD024
:102730006FF004032C69236304F1200018F0D6F82D
:10274000002384F85C3004B070BD4C6C13B19A4225
:1027500028BF1A46002C8A6514BF16460026D7E704
:102760000B46DDE70000AD0B2DE9F04F89B00469A1
:102770000093436801938B88074698040E46914660
:102780002AD44FF0FF324FF0FF3304F1100018F05D
:10279000E1F86660D7F81080D7F804A098F85D30AB
:1027A00023B1D8F800309E4200F0B280B6F804C0E1
:1027B0001CF4006F17D06FF08505236813B19B8858
:1027C0009B0405D40023636004F1100018F08EF818
:1027D000284609B0BDE8F08FA369002BD1D163680A
:1027E0009942CED1D6E71CF0090F02D06FF0150543
:1027F000E3E7CCF34513082BF8D13568A34B9D4292
:10280000F4D90AF1080BBBE80F000DF10C0EAEE88D
:102810000F00DBF80030CEF800309D4B9D4250D9C0
:102820009C4B9D4250D99C4B9D4250D99B4B9D4205
:1028300050D99B4B9D4250D99A4B9D422CBF4FF093
:1028400000454FF080451CF0020F05950CF0040385
:1028500046D0002B14BF032302238DF81830CCF38D
:1028600000138DF81930DAF80030D3F80835591C08
:1028700012D01CF0020F03F01F00CCF340014FEA0E
:1028800053134FF0010232D173B3934240F0F680FC
:10289000854B8240C3F80C2598F85D302BB150462B
:1028A00001F02CFE002388F85D3043467F4A03A9DF
:1028B000504601F0EFFD7E4B984224D06FF00405A6
:1028C0007BE74FF00075BEE74FF08065BBE74FF048
:1028D0000065B8E74FF08055B5E74FF00055B2E717
:1028E000003B18BF0123B8E74FF0A043D1E73BB14D
:1028F000012B40F0C6806C4B8240C3F80825CBE723
:102900004FF0A043F8E7012388F85D30C8F8006075
:10291000012384F85C30019B596A4A1C03D003F1FF
:1029200028001AF0EAFCB9F1000F40F08780C4F8E3
:1029300034900023A36304F1480204F1380104F148
:1029400034001AF0D8FB009B6064002B7FD1E36356
:102950000023236404F1500204F1400104F13C001F
:102960001AF0C9FBE06420680023236348B1836840
:102970003BB1012108301AF0D1FB2368186931F00E
:10298000E3FF3846FFF7B8FE0023A06B1A468242E9
:1029900066D10022256C1146A94268D19342264691
:1029A00038BF13464FF4FA5202FB03F556F8203BAA
:1029B0004FF000081B68B5FBF3F54FF4004CC83529
:1029C000414640F2E7304FF47A720023E5FB0C01F8
:1029D000FDF7E6FB02460B46304617F0BBFF18B981
:1029E000256B15F1740F13D10198C4F8588001F0CC
:1029F00085FD84F85D803F696FF073053D6307F1E5
:102A0000200017F073FF87F85C80304617F0C8FF8E
:102A10002368002B3FF4D1AE9A68002A3FF4CDAE74
:102A2000998811F480567FF4C8AE186931F08CFF94
:102A30002068314608301AF071FBBEE6D9F8003044
:102A40006363002B3FF475AFD9F8043072E7009B45
:102A50001B68E363002B3FF47BAF009B5B6878E768
:102A6000616B01EBC201013249680B448FE7E06BF7
:102A700000EBC1000131406802448DE7C1F80C153C
:102A8000FFDE0023C3F80835FAE700BF47E801007E
:102A90008FD003001FA107003F420F007F841E005C
:102AA000FF083D0000127A00000300505FD20100D1
:102AB0000000AD0B00F01F0240090DD001280ED11F
:102AC0000A4B03EB82030A4AD3F80007024042EAAA
:102AD0008102C3F8002770474FF0A043F1E702F5E9
:102AE000E072002353F82230FFDE00BF00030050E5
:102AF000F0F8FCFFF0B587B001238DF80230022317
:102B00008DF804306B4403930F4601AB0DF10301C4
:102B10000024049305460291059401F04DF90C4BF5
:102B2000984206460FD103AA3946284600F0A8FF6E
:102B3000B0420BD09DF80310284601F037F96FF032
:102B4000040007B0F0BD6FF01200FAE72046F8E786
:102B50000000AD0B2DE9FF410569D0F804802B6D15
:102B60000646A86C002835D1002B53D0B8F8384061
:102B70006A6CEF6C9C4228BF1C46EB6C53B1296D0C
:102B800041B107F06041B1F1005F03D0082C6F6ED6
:102B900028BF082400926A6CAC651AB1AA6C002A9E
:102BA00018BF2246CDE901271BB12B6D002B18BFA2
:102BB0002346002269464046039301F0C9FF184BA3
:102BC000984229D06FF00401304604B0BDE8F041CE
:102BD0001AF0A8BC696CEF6CB8F838400A46ABB183
:102BE000834228BF03469C4228BF1C460029C4D00C
:102BF00001F06043B3F1005FBFD0082C28BF082468
:102C00002246286E32F0A6F82A6EB6E7844228BF24
:102C10000446EBE71946D7E704B0BDE8F08100BFF2
:102C20000000AD0B2DE9F04F8FB0046901934368AC
:102C300002938B8807469804884691462ED44FF01D
:102C4000FF324FF0FF3304F1100017F083FEC4F899
:102C50000480D7F804B0D7F810A0DBF8083003934D
:102C60009AF85D3023B1DAF80030984500F0B5806D
:102C7000B8F804E01EF4006F17D06FF085052368E4
:102C800013B19B889B0405D40023636004F11000FA
:102C900017F02CFE28460FB0BDE8F08FA369002B7B
:102CA000CDD163689942CAD1D3E71EF0090F02D093
:102CB0006FF01505E3E7CEF34513082BF8D1D8F8EC
:102CC00000C0984B9C45F3D90BF10C060FCE04AD18
:102CD0000FC50FCE0FC5039B634528BF63469C46B7
:102CE00096E80300904B9C4585E8030017D28F4B74
:102CF0009C4514D28E4B9C4511D28E4B9C454CD892
:102D00008D4B9C454BD88D4B9C454AD88C4B9C4554
:102D100049D88C498C4B8D4A8C4588BF13461EF090
:102D2000020F09930EF004033FD0002B14BF0323BE
:102D300002238DF82830CEF300138DF82930DBF80C
:102D40000030D3F80835591C12D01EF0020F03F0E2
:102D50001F00CEF340014FEA53134FF001022BD175
:102D60003BB3934240F0D680794B8240C3F80C25A8
:102D70009AF85D302BB1584601F09CFE00238AF88A
:102D80005D303B46734A04A9584601F05FFE724B22
:102D900098421DD06FF0040571E7704BBFE7704B90
:102DA000BDE7704BBBE7704BB9E7003B18BF012391
:102DB000BFE74FF0A043D8E73BB1012B40F0AD8017
:102DC000634B8240C3F80825D2E74FF0A043F8E7F1
:102DD00001238AF85D30CAF80080012384F85C3052
:102DE000029B196C4A1C03D003F144001AF085FAC7
:102DF000B9F1000F68D1C4F834900023A36304F143
:102E0000480204F1380104F134001AF0A3FA019BDE
:102E10006064002B60D1E3630023236404F150025B
:102E200004F1400104F13C001AF094FA00252A460E
:102E3000E0640121204625631AF0D4FA3846FFF7F2
:102E400089FEA06B2A462B4683424DD10023256C78
:102E50001946A9424FD19A42264638BF1A464FF426
:102E6000FA5303FB02F556F8203B4FF000081B68AD
:102E7000B5FBF3F54FF4004CC835414640F2E7305E
:102E80004FF47A720023E5FB0C01FDF789F9024645
:102E90000B46304617F05EFD024618B9256B15F15A
:102EA000740F2FD10298C4F8588001F003FE84F803
:102EB0005D806FF0730138461AF034FB304617F02E
:102EC0006FFD6FF07305DAE6D9F800306363002B0D
:102ED00093D0D9F8043091E7019B1B68E363002B82
:102EE0009AD0019B5B6898E7616B01EBC3010133EA
:102EF00049680A44A8E7E06B00EBC1000131406873
:102F00000344A6E7002D3FF4BAAE014638691AF033
:102F100069FAB4E6C1F80C15FFDE0023C3F80835E2
:102F2000FAE700BF47E801000048E8010024F40088
:102F300000127A00FF083D007F841E003F420F0010
:102F40001FA107008FD0030048E8010090D00300C4
:102F50000003005047D501000000AD0B00093D0003
:102F600080841E0040420F0020A1070070B501239D
:102F700083400E4ABFF35B8FDC4352E8001F01EA37
:102F8000040542E80056002EF7D1BFF35B8F4FF4E3
:102F9000803282400648C0F80823BFF35F8FBFF33A
:102FA0006F8F0B4214BF0120002070BD6C88002081
:102FB0000010014070B40E49D1E90034D01AC31892
:102FC00044F1000422F07F46C1E90034A6F5001365
:102FD000B3F5400F09D2074B1B681A0A1B069C1950
:102FE000054B42F10005C3E9004570BC18F0C8BBB1
:102FF00078040020708800208004002011B3BFF303
:103000005B8F0123104A834052E800CF4CEA030C47
:1030100042E800C10029F7D1BFF35B8F0B4A4FF4A0
:1030200080338340C2F80433094BBFF35B8F1B68C6
:10303000BFF35B8FC340DB0742BF064B4FF4003248
:10304000C3F80021704700BF6C88002000100140C9
:103050006888002000E100E00D4B1868010A0006B6
:10306000BFF35F8F0B4BD3F80435181841F1000103
:10307000B3F5801F0AD2084BD3E90023904271EBCD
:10308000030303D210F1807041F10001704700BFCB
:103090007088002000100140800400202DE9F04FCE
:1030A00085B016461F469DF840A00446FFF75EFF18
:1030B0000190FFF7D1FFB04271EB070354D23E4BB2
:1030C000301A67EB0101984271F100014FD23B4B7E
:1030D00003EB0413D3E902239F4208BF96425ED05C
:1030E00037494FF4803804F1500508FA04F8AD0070
:1030F000C1F848832046ADB21AF07EFA26F07F4B25
:1031000005F1804504F5A87305F58835DC464FF0D8
:1031100003090293029A2CF07F4341F82230C1F850
:103120004483D1F80435274A6FF00200C01A604486
:1031300020F07F40904232D9286868B1D1F8043538
:103140000393A3EB0B0020F07F40B0F5000F26D9CE
:1031500020461AF051FA039BBAF1000F07D109EB90
:10316000030C09F10109D5E7BAF1000F09D06FF09E
:10317000150520460199FFF741FF284605B0BDE837
:10318000F08F0123104ABFF35B8FA34052E8000F7A
:10319000184342E800010029F8D1BFF35B8F0749CB
:1031A0000E98230101EB0412C8500F9B5360C2E933
:1031B00002670025DDE700BF0100800068040020F1
:1031C00000100140FDFF7F00688800207FB51C4C87
:1031D0001C4BC4F80833C4F848331B4B00254FF090
:1031E000FF304FF0FF31C4F80855C3E902014FF436
:1031F0008033C4F80433154B02264FF4003201210A
:10320000C4F804631120C3F880212A46FDF708FFA3
:103210001120FDF7D5FE0E4A0123A3602360136041
:103220000C4B0D4A0093CDE9015500232846FFF7CA
:1032300035FF3046FEF7ACFA284604B070BD00BF3B
:103240000010014003000F006804002000E100E0CE
:103250006C880020B52F0000FFFF7F002DE9F743A9
:103260002F4CD4F8043399070BD5D4F8043143B16B
:103270002C4A0023C4F80431D4F804311368013314
:103280001360D4F80433DA0329D5BFF35B8F264BE0
:1032900053E8002F22F0010143E800100028F7D185
:1032A000BFF35B8FD30702D4D4F84031BBB1002504
:1032B000C4F84051D4F84031FFF7CEFEEFF311824D
:1032C000202383F31288BFF36F8F184BD3E9026773
:1032D000B042B94106D282F31188BFF36F8F03B0B9
:1032E000BDE8F0834FF0FF384FF0FF39C3E90289A2
:1032F000D3E900101D604FF48033C4F84833C4F89C
:103300004051D4F8403182F31188BFF36F8F002908
:10331000E5D0009032463B4628468847DFE700BFAD
:103320000010014070880020688800206804002098
:1033300030B5431C124C85B005D08442A8BF04466A
:10334000012CB8BF0124FFF787FE0E4B0C4DD3E9CB
:103350000013401AB0F5000F10D22218AA4228BF5D
:103360002A4652184FF0000007490091CDE90100AC
:1033700043F10003FFF792FE05B030BD2A46F0E7A7
:10338000FFFF7F0078040020B52F000008B5FFF78D
:1033900063FE024B1B68C01A08BD00BF7804002002
:1033A0004FF08053D3F83021082A06D1D3F83431B6
:1033B000052B02D8024AD05C70470020704700BF3E
:1033C000186A0300024AD2F80034002BFBD0704781
:1033D00000E0014010B54FF08053D3F83021082AA7
:1033E0004ED14FF080420021C2F80C11C2F81011EA
:1033F000C2F8381502F54042D3F80414C2F820157B
:10340000D3F80814C2F82415D3F80C14C2F8281500
:10341000D3F81014C2F82C15D3F81414C2F83015D0
:10342000D3F81814C2F83415D3F81C14C2F8401598
:10343000D3F82014C2F84415D3F82414C2F8481560
:10344000D3F82814C2F84C15D3F82C14C2F8501530
:10345000D3F83014C2F85415D3F83414C2F86015F8
:10346000D3F83814C2F86415D3F83C14C2F86815C0
:10347000D3F84014C2F86C15D3F84434C2F8703550
:10348000FFF78EFF18B13A4B3A4AC3F88C26FFF784
:1034900087FF18B1384BFB22C3F81825FFF780FFD0
:1034A00070B14FF080414FF08053D1F8E42ED3F843
:1034B000583222F00F0203F00F031343C1F8E43E29
:1034C000FFF76EFF20B12D4B4FF40072C3F840267A
:1034D0004FF08053D3F83031082B1AD14FF080438E
:1034E000D3F80024D20744BF6FF00102C3F80024D0
:1034F0004FF08053D3F83431052B02D8204AD35CE7
:103500003BB14FF01023D3F808224FF08043C3F8AB
:1035100058254FF01023D3F80022002A03DBD3F8FC
:103520000432002B22DA174901234FF01020C1F892
:1035300004351224FFF746FFC0F80042FFF742FFB0
:10354000C0F80442FFF73EFF0023C1F80435FFF73F
:1035500039FFBFF34F8F0C490C4BCA6802F4E0628D
:103560001343CB60BFF34F8F00BFFDE710BD00BF1B
:10357000005000404881030000F0004000900240ED
:10358000126A030000E0014000ED00E00400FA05CB
:1035900030B50468CCB1BFF35B8FB4FA84F3C3F1E8
:1035A0001F03DBB201229A4024EA020250E8005FC6
:1035B000A54204D140E8002CBCF1000FF6D1BFF3C6
:1035C0005B8FE6D102480B7030BD0248FCE700BFBC
:1035D0000000AD0B0200AD0B10B50368CB40DB075C
:1035E00014D401238B400268BFF35B8F43EA0201CE
:1035F00050E8004F944204D140E8001CBCF1000F99
:10360000F6D1BFF35B8FEED1014810BD0148FCE756
:103610000000AD0B0400AD0B014BC3F8040570476F
:1036200000F00140F7B50546F8B101281BD104228E
:103630004FF4807301464FF0804003440244C0F8C9
:1036400008130026012111601E608D421B688DF851
:10365000071008BF0DF1070642F210744FF08047C3
:1036600045B1012D28D003B0F0BD0C224FF4827378
:103670000221E0E7D7F8183403F480333EB9002B79
:10368000F1D0012019F0C9FF013CF3D1EBE7D7F8E5
:10369000182402F003023260002BE4D09DF80700EA
:1036A000012803D119F0B9FF013CD9D1012DDAD19C
:1036B0000C4B00225A71D6E7D7F80C3403F4803350
:1036C0003EB9002BF4D0012019F0A7FF013CF3D143
:1036D000EEE7D7F80C2402F001023270002BDDD1A6
:1036E000E6E700BF74880020044B1A7922B9012252
:1036F00018609A800248704702487047748800201A
:103700000000AD0B0C00AD0B08B5074B1B682BB1CF
:103710000020FDF777FC08B9FDF752FC4FF080431D
:103720000022C3F8182508BD7488002010B510B118
:10373000012843D010BD4FF08043D3F81814D3F8BC
:103740001824C80321D502F00303012B04D013B1C0
:103750000020FFF767FF00234FF080420220C2F8ED
:10376000183508224FF4827303F180430021196059
:1037700002F180421C6801241460154A12680AB3E1
:103780004FF08043C3F80403D4E7D3F81424D107DF
:10379000E1D5D3F81C249207DAD40D4A12681AB185
:1037A0000222C3F80423C5E7D3F80421002AFBD082
:1037B0000022C3F80421D3F80431BBE700224FF400
:1037C0008073D1E71A68002AFCD019601B68B1E742
:1037D00074880020F8B54FF080431C4ED3F80443A2
:1037E0000125002704B9F8BDB4FA84F0C0F11F0028
:1037F000830003F580739BB203F1804305FA00F266
:10380000196892B224EA02040029EBD01F601B68F9
:103810004FF08043012AC3F8082305D0022A08D0BC
:103820003368C0B29847DDE77379002BDAD1727143
:10383000F6E7D3F81814D3F818148907F0D1C3F8B1
:103840001855C3F804239D60CCE700BF748800209E
:10385000036803F01F025B09026004D0012B0348D8
:1038600018BF002070474FF0A04070470003005081
:10387000034A430900F01F00D35C1844C0B27047EC
:103880001E6A030070B50546FFF7F2FF0C4C0830C6
:103890000E4634F81030DA0508D5C3F3432304EBA1
:1038A000C302284654F8333052689847A3682BB1B6
:1038B000E26831462846BDE87040184770BD00BF39
:1038C0000801002008B5FFF7D3FF034B083033F899
:1038D0001000400B08BD00BF0801002008B5FFF72D
:1038E000C7FF034B083033F81000C0F3400008BD99
:1038F0000801002008B5FFF7BBFF034B083033F881
:103900001000C0F3401008BD08010020034611F06C
:10391000010010B5CCB20DD1A207C4F3400012D5FE
:10392000094AD2F820055860C2F82005003818BFAF
:10393000012008E04FF0A041D1F820251A60C1F81D
:103940002025002AE8D010BD0003005010B5FFF775
:103950008FFF124A083032F81030D9051CD5C3F356
:10396000432123F4F85322F8103002F10E04002012
:1039700034F8023F13F4807F03D0C3F3432399420A
:103980000AD001303028F3D1002342F83130044806
:10399000BDE81040FFF720BE10BD00BF08010020A9
:1039A00080010020F0B505460020044601260746A8
:1039B0008C420BD1114BD3F87C2132B10022C3F8D9
:1039C0007C21D3F87C3140F00040F0BDE3B29B0095
:1039D00003F580729B0806FA03F31D420BD002F137
:1039E000804202F5C042D2F800C0BCF1000F02D004
:1039F0001760126818430134DAE700BF0060004026
:103A0000F7B506460846FFF733FF194F00F10805E2
:103A10000C4637F81530DB0727D5304619F076FE0F
:103A20002046FFF767FF40B12046FFF74BFF3168A4
:103A300000F5A270002341F820302046FFF786FFF2
:103A4000002301A827F815300194FFF701FF019B1F
:103A500000EB8300074BD0F80027134043F002032C
:103A6000C0F80037044803B0F0BD0448FBE700BFCE
:103A700008010020F0F8FCFF0000AD0B0400AD0BC6
:103A80002DE9FF41164680460846FFF7F1FE0D4638
:103A90003168044609B32846FFF720FF18B12846CD
:103AA000FFF728FF10BB0023CDE900338DF80E305F
:103AB0008DF80F300DF10F020B4628460DF10E0167
:103AC00019F0BBFD474A04F1080132F8113023F028
:103AD000020343F0010322F81130736863B32846F0
:103AE0001F785968FFF7FAFE10B1D1B13E4826E0C1
:103AF0003C4A04F1080032F8103023F02003DB04C4
:103B0000DB0C22F8103061B1032FEFD871684968DF
:103B100091F800C0D8F80010A7B90CF5A27C41F8C4
:103B20002C70304A04F1080132F8113023F01C03E4
:103B300043EA870322F81130B3684BBB2B4804B02B
:103B4000BDE8F08101EB8C0143EA4C33D1F810E57C
:103B50002EF0030EC1F810E5D8F8001001EB8C0E22
:103B600043F02003DEF8101522F8103021F44F3115
:103B700021F44071CEF810152902DEF8108501F409
:103B80007C5141EA074141EA0801CEF81015C8E727
:103B9000D3E900672846FFF7D9FE002ECED0114D9D
:103BA000D5E90023964203D19F4201D1002209E0CA
:103BB0000F480DF10F01FFF7EBFC0C4B9842BED103
:103BC0009DF80F2045F8326005EBC20308345F60B2
:103BD00035F8143043EA422343F4807325F8143057
:103BE000ACE700BF080100200400AD0B0000AD0BE6
:103BF000800100202DE9F0430C4685B08046204628
:103C000011461E46FFF734FE054629B32046FFF74E
:103C100065FE18B92046FFF76DFE18BB314F05F160
:103C2000080937F8193013F01C0F02D04B78012B1C
:103C300018D001238DF80F300023CDE900134A1C62
:103C40008B1C20460DF10F0119F0F7FC37F81930E5
:103C500043F0030327F81930002E41D02046FFF728
:103C60003DFE18B9204805B0BDE8F08396F800C0C5
:103C7000D8F800301B4F0CF5A272002143F8221037
:103C800005F1080237F8121021F02001C904C90C0F
:103C900027F8121075781DB3D8F80000B67800EB3D
:103CA0008C002D04D0F8103523F4991323F4F85325
:103CB000C0F81035230203F47C5305F44035360573
:103CC000D0F810E52B4306F4801641EA4C3133431B
:103CD00041F0200143EA0E0327F81210C0F8103516
:103CE0000248C0E7080100200400AD0B0000AD0B46
:103CF000014BC3E9021270470801002010B50846C5
:103D00001446FFF7F7FD50B10846FFF7B1FD054B2C
:103D1000083033F8103004485B0B237010BD0348A3
:103D2000FCE700BF080100200000AD0B0400AD0B54
:103D300070B5164D95F8804006462CBB2146602292
:103D400005F1100031F02EF830682E6F21468E42BA
:103D50000ED10023C0F87C31D0F87C3140F307301D
:103D6000FDF72EF901230A4885F88030AB6770BD56
:103D7000CBB29B0003F580727C2B08BF845001F10D
:103D8000010108BF8358E2E70248F0E7080100207C
:103D90000000AD0B0C00AD0B034B93F88000003816
:103DA00018BF0120704700BF080100200148FFF73D
:103DB00013BC00BF7C0100200148FFF7E9BB00BF36
:103DC0007C01002073B503681646D3F80423002A4B
:103DD000A8BF4FF000420546A8BFC3F80423084619
:103DE0000C46FFF787FD00B30846FFF777FD014655
:103DF000D8B92046FFF766FD04B2A40004F580722E
:103E0000034628688150296882582144D1F810253A
:103E100042F00102C1F810252EB12968012202FAF0
:103E200003F3C1F8043302B070BD2046FFF720FD54
:103E30000F4B083033F81030C3F38203042B12D039
:103E4000052B12D001A80194FFF702FD019AD0F8CA
:103E50001035D34003F00103991C204602B0BDE8A1
:103E6000704019F033BC0321F7E70221F5E700BFEA
:103E7000080100202DE9F04F694BDFF8A891D3F835
:103E80000403D9F87010C0B289B040F00040FFF7C9
:103E900089FD051E2EDACA4600235AF87C1F06A8A3
:103EA000CDE90633FFF732FD5F4B01930DF11808A2
:103EB0004FF0000B019A12F8013B0192DA0803F06F
:103EC00007031AF8022022FA03F3DA071BD408F1D9
:103ED0000408BBF1000F13D000214FF00040FFF7A2
:103EE00061FDD9F87C1006A8FFF710FD0028DBD192
:103EF00025F000450124002D79D109B0BDE8F08FEF
:103F00004FF0010BD6E7494B5B440293D8F8001001
:103F10000029DCD0029B91FAA1F11C78B1FA81F161
:103F200041EA44142046FFF7A3FC0830059439F811
:103F30001070C808BB0818F80020039301F00701AF
:103F4000012303FA01F122EA010208F8002005A882
:103F5000FFF77EFC059A039B02F5E072C7F3820629
:103F600050F822205B073746C2F3014224D5204691
:103F70003946D6B2FFF786FC05A80594FFF768FC22
:103F8000059B03F5E07350F82330C3F301439E42D1
:103F900007D10021204619F099FB3146204619F03F
:103FA00095FB05A80594FFF753FC059B012202FA37
:103FB00003F3C0F82035A9E7022A0CD103212046DB
:103FC00019F084FB06F00503012BEAD1394620469F
:103FD000FFF758FCE5E702212046039219F076FB33
:103FE000032EF3D0039A032ADBD1022EEDE795FAD4
:103FF000A5F3B3FA83F304FA03F29B0003F18043C1
:1040000003F5C04325EA0205D3F81005D3F81015CF
:10401000C0F30520C1F30141FFF734FC6BE700BF9B
:1040200000600040080100202E6A03002E6A030091
:1040300001460148FFF7ACBA8C010020036803F089
:104040001F025B09026004D0012B034818BF002047
:1040500070474FF0A04070470003005070B50579DD
:104060000A4C14236B43E618E35833B90068022165
:1040700019F0ACFB08B101233372142303FB054490
:10408000207A023818BF012070BD00BF7C88002054
:104090002DE9F3470B7F04466BBBDFF8D8900D1F6B
:1040A00001F1100601F10C08012755F804AFBAF12F
:1040B000FF3F1CD03378CDF804A001A8002B50D0CE
:1040C000FFF7BCFF019B07FA03F3C0F8083501A80E
:1040D000CDF804A0FFF7B2FF019B00EB8300D0F8FE
:1040E000003703EA090343F00303C0F80037A8458B
:1040F00006F10106D9D191F81DC00D8B4F7D8E7D43
:104100008A7EC87E2368BCF1000F0BD1D1E9008EF6
:10411000D1E902C1C3F86085C3F864E5C3F868C596
:10412000C3F86C1542EA0022C3F80C75C3F80465A5
:10413000C3F80855C3F8102520680023C0F81031D3
:10414000D0F81021C0F80831D0F80821C0F80C319F
:10415000D0F80C3140F3073002B0BDE8F047FCF76F
:104160002FBFFFF76BFF019B07FA03F3C0F80C3575
:10417000ADE700BFF0F8FCFF2DE9F04190F80480B6
:104180000D4C142606FB08F6A71997F808C0BCF1D9
:10419000000F0ED1A2517B6019B10B7F3B74FFF76A
:1041A00077FF142303FB0844044801232372BDE86E
:1041B000F0810348FBE700BF7C8800200000AD0BC6
:1041C0000C00AD0B70B40C460179266815461A46F2
:1041D0001A4B01EB810103EB81010368C3F82065F1
:1041E000A688C3F82465A668C3F82865E668C3F8FE
:1041F0002C6503682668C3F84065A688C3F8446543
:10420000A668C3F84865E468C3F84C45046805F03F
:10421000010303EB5505C4F81455D4070CD412F070
:10422000020403D0002B14BF082404240568C5F839
:10423000004270BC19F095BA1024F7E77C88002082
:1042400038B5036805790022C3F80022036801220B
:1042500004465A6071B12046FFF700FF0028FAD0EB
:1042600023680022C3F80025054B142202FB053306
:1042700001221A722046BDE83840FFF7EFBE00BFAA
:104280007C88002010B5B2211A4819F09FFAC106A7
:10429000044608D5184BDA68520704D51A6812B1DB
:1042A000596801209047A00608D5134BDA6811071A
:1042B00004D51A6812B1596802209047220608D521
:1042C0000D4BD86810F0100003D11A680AB1596874
:1042D0009047A3070DD5074B0022C3F80025064BD6
:1042E00001221A721A6822B1BDE8104059680320F1
:1042F000104710BD00C001407C880020036803F017
:104300001F025B09026004D0012B034818BF002084
:1043100070474FF0A04070470003005007B5019070
:1043200001A8FFF7EBFF019B00EB8300054BD0F8E2
:104330000027134043F00303C0F8003703B05DF8D3
:1043400004FB00BFF0F8FCFF73B5CB7B0446002BE9
:1043500038D10B7B0878012B77D819F070FA0B78DD
:10436000019301A8FFF7CAFF019B00EB83003C4BC0
:10437000D0F80027134043F00103C0F80037487815
:10438000FF2804D019F05BFA4878FFF7C7FF8B7855
:10439000FF2B0FD001A88D7B0193FFF7AFFF019B8F
:1043A00000EB83002E4BD0F80027134043EA85032F
:1043B000C0F80037C878FF2804D019F033FAC8785D
:1043C000FFF7ACFF23792748CA78282505FB0303AC
:1043D0009A770B7C9BB94B7825680E78FF2B18BF1A
:1043E0001A468B78C5F8086508BF4FF0FF32FF2BDF
:1043F00008BF4FF0FF33C5F80C25C5F8103523680A
:104400008A68C3F824254B7B0A7B2568003B18BFCC
:104410000123022A1CD0032A1DD0012A01D143F016
:104420000203C5F8543523794979282202FB030396
:10443000D97723795343C35883B1206840F30730B9
:1044400002B0BDE87040FCF7BBBD19F0EBF986E7A0
:1044500043F00403E5E743F00603E2E702B070BD72
:10446000F0F8FCFF9088002007B5019001A8FFF745
:1044700045FF019B00EB8300054BD0F8002713405C
:1044800043F00203C0F8003703B05DF804FB00BF3F
:10449000F0F8FCFF2DE9F04190F80480144C4FF047
:1044A000280C0CFB08FC04EB0C06074696F81CE0F5
:1044B000BEF1000F19D144F80C20736041B1CB7BE1
:1044C00086F82530CB78B3774B79F377FFF73CFF4D
:1044D0003A6808480123C2F80035282202FB084444
:1044E000002262772377BDE8F0810348FBE700BF35
:1044F000908800200000AD0B0C00AD0B70B5067964
:10450000194C056828237343E35833B145F307304A
:10451000FCF764FD0423C5F808330023C5F8003513
:10452000282303FB064393F82530BBB9D5F80805CB
:10453000FFF79AFFD5F81005421C01D0FFF794FF52
:10454000D5F80C05431C01D0FFF78EFF282303FB91
:104550000643987FFF2801D0FFF786FF282303FB3F
:1045600006440023237770BD908800202DE9F8438E
:104570000779394C28237B439046E2180E46517F39
:104580008146002966D1E3580BB10123537796E8A1
:104590000F00282505FB074505F10C0C8CE80F00E2
:1045A000A87F0023FF2885F8243001D019F047F9AF
:1045B0002823B8F1000F06D003FB07430022274849
:1045C0005A77BDE8F883D9F8005003FB074304226B
:1045D000C5F80823C3F82080C5F80881D5F808215C
:1045E00072689AB133681B78C5F81C357368012B63
:1045F0000ED933685B78C5F81C3528237B43E65811
:1046000076B10423C5F804331548DAE7DB7FEBE71E
:10461000F368012BF1D9282303FB0743DB7FEAE78B
:1046200007EB870104EBC101D5F80831002BFBD063
:10463000C5F808612846D5F8083119F00DF90028A9
:10464000F2D1282303FB0744A07FFF28DCD019F018
:10465000E9F8D9E70348B4E7908800200300AD0BE0
:104660000000AD0B0B00AD0B10B54FF04020002348
:10467000C0F808310A49D0F8083119F0EDF868B9E6
:10468000887FFF2801D019F0CDF800234B770B72FB
:10469000BDE81040D1E900310248184710BD00BF05
:1046A0009088002098880020036803F01F025B09AF
:1046B000026004D0012B034818BF002070474FF060
:1046C000A040704700030050012370B504460D461A
:1046D0004361642600220221204619F005F920B921
:1046E000012018F09AFF013EF4D100236B774FF0C0
:1046F0008051D1E94C1208291AD1052A18D80E493F
:104700008A5CAAB14FF0FF32D4F80805D4F80C1532
:10471000C4F80035C4F80825C4F80C250922C4F8EB
:104720000025C4F80035C4F80805C4F80C1570BDA0
:104730000023C4F80035FAE7306A03000F4B9842B3
:1047400019D00DD80E4B984215D007D80D4B984272
:1047500011D00D4BC31A5842584170470B4BF9E723
:104760000B4B984207D004D80A4B984203D00A4B0F
:10477000F0E70A4BEEE70120704700BF80841E007F
:1047800020A1070048E8010090D0030040420F003C
:104790000024F40000093D0000127A000048E801FE
:1047A00073B51646421C1C460546069B18D00129C7
:1047B00002D1BBB119F0D6F801A80195FFF774FF3B
:1047C000019B00EB83002402D0F80027074B44EA4A
:1047D00086040C4313401C4344EA4101C0F800170F
:1047E00002B070BD19F0CBF8E6E700BFF0F8FCFFAF
:1047F0002DE9F04F91F8213090F804A085B00746DC
:104800000C46002B00F0B48091F8223003934FF057
:1048100001086569784B9D4200F0C48000F2B480C5
:10482000764B9D4200F0C18000F2A680744B9D4201
:1048300000F0BE80734B9D420CBF4FF080654FF07F
:104840008045DFF8C49194F82300242202FB0A93E8
:10485000997F60F3000199773B79217C02FB0393F8
:104860009A7F61F341029A7794F82360002E32D147
:104870006269664B9A420CBF4FF0030B4FF0000B7E
:10488000237E012B94BF00230123009320685B4605
:1048900032460121FFF784FF009660685B4632468E
:1048A0000121FFF77DFF0096A27EA0685B4631469E
:1048B000FFF776FF237C83F001030093E0685B46FB
:1048C00032460121FFF76CFF01210091E0695B4650
:1048D0003246FFF765FF2423B8F1000F71D003FBC8
:1048E0000A934FF0FF321A62A07C217E627EE66856
:1048F00094F8108094F824E094F820C03B68BEF14E
:10490000000F13D1D4E900BAD4F808E0E469C3F881
:1049100008B5C3F80CA5C3F810E5C3F86C45039CB3
:10492000C3F81465C3F86885C3F86445003A18BF36
:1049300001220229C3F8C005C3F8245553D0032926
:1049400054D0012901D142F00202C3F85425C3F822
:1049500060C53B792422534359F80330002B48D0DB
:10496000386840F3073005B0BDE8F04FFCF728BBCE
:104970009846022303934CE7254B9D420CBF4FF012
:1049800080554FF080455CE7224B9D4213D01F4B72
:104990009D4213D0204B9D420CBF4FF000454FF07D
:1049A00080454EE74FF000554BE74FF0006548E774
:1049B0004FF0007545E74FF0206542E74FF0A055F6
:1049C0003FE703FB0A9AE268CAF82020227C9AF8A3
:1049D0001E3062F341038AF81E30A07C217E627E85
:1049E0004FF0FF3686E742F00402AEE742F00602DF
:1049F000ABE705B0BDE8F08F80841E0020A1070062
:104A000048E8010090D00300BC8800200048E8017D
:104A100040420F000024F40000127A00431C07B546
:104A20000ED0019001A8FFF73FFE019B00EB830031
:104A3000054BD0F80027134043F00203C0F80037BD
:104A400003B05DF804FB00BFF0F8FCFF2DE9F8436C
:104A50000746144C97F80480242505FB08F504EB61
:104A600005091E4699F81C30C3B999B14869FFF78A
:104A700065FEA8B138466251C9F80460FFF7B8FE78
:104A8000242303FB0844002363770748012323778B
:104A9000BDE8F8836251C9F80460F1E70348F7E71D
:104AA0000348F5E7BC8800200000AD0B0C00AD0BFF
:104AB0000400AD0B2DE9F041044606790068214D54
:104AC00040F30730FCF78AFA24237343EB5853B1C1
:104AD00023681D4AC3F8082306EBC601206805EBCE
:104AE0008101FFF7F1FD2421236801FB0651D3F872
:104AF0000805D3F80C75D3F810858B7FDB0714D429
:104B0000FFF78CFF4046FFF789FF3846FFF786FF27
:104B1000086AFFF783FF2368D3F86C05D3F81415F0
:104B2000FFF77CFF0846FFF779FF2368074A9342A7
:104B300004BF01225A60242303FB065500232B7770
:104B4000BDE8F081BC8800205201080000F002405E
:104B50002DE9F0430779DFF8AC8124237B43164627
:104B600008EB03020D46517F85B08146002940F0D5
:104B7000C68058F8033023B116F0140F04BF012388
:104B8000537795E80F00242404FB078404F10C0CF0
:104B90008CE80F00206A431C04D0A37F99071AD524
:104BA00018F0E0FE2968D9F8004021B101F0604317
:104BB000B3F1005F06D1AB6883B103F06043B3F19A
:104BC000005F0BD0242303FB078300224E485A7753
:104BD00005B0BDE8F08318F0D2FEE3E74B4B9C42F2
:104BE00024D14FF080436A68D3F8000E484B186018
:104BF000E2B1484821F4FF5323F01F0383426ED8EB
:104C00005018DFF814C1C3F34F3101228A4000214C
:104C100003F50053984241EA02014FEA420201D9EA
:104C20006345F5D34FF08043C3F8001E16F001032F
:104C300018BF0123C4F8503516F0020318BF012332
:104C4000C4F8403595E80F00EC468CE80F00039B54
:104C5000C4F84405C4F84815C4F83425C4F83835F8
:104C60000023C4F81831D4F8183116F008054FF0B5
:104C70000703C4F800350FD124237B4358F80320E1
:104C80000123236142B9D4F81831002BFBD06246CE
:104C90004021204618F028FE24237B4358F8033097
:104CA0001BBB1A4B9C4201BF194B1A684FF0804343
:104CB000C3F8002E242303FB0783186A421C04D088
:104CC0009B7F9B070ED518F05AFE35B907EBC70737
:104CD00008EB87012046FFF7F7FC104878E74FF410
:104CE00080719FE718F03EFEEFE716F0040F4FF0DB
:104CF000400314BFC4F80833C4F80433EDE7084890
:104D000066E700BFBC8800200A00AD0B00F002403F
:104D1000B8880020FFFF0020002001200000AD0B1C
:104D20000B00AD0B10B5134A1348402118F0DCFD01
:104D3000F8B1124B124C1A684FF08043C3F8002EA2
:104D4000206A421C04D0A37F9B070FD518F017FEE2
:104D5000637F1BB10A490848FFF7B6FC00232372A2
:104D60000848D4E90031BDE81040184718F0FAFDB2
:104D7000EEE710BDC888002000F00240B88800208F
:104D8000BC880020C488002030B500F01F04400912
:104D900011D0012812D10C4800EB84001B02D0F87E
:104DA00000570A4C43EA82022C4042EA4101214367
:104DB000C0F8001730BD4FF0A040EDE704F5E074F7
:104DC000002353F82430FFDE00030050F0F8FCFF0E
:104DD000CB7B10B433B9D1E900420368C3F808456E
:104DE000C3F80C2503688A68C3F8242503793C229C
:104DF0005343054AD3582BB1006810BC40F3073029
:104E0000FCF7DEB810BC7047E088002013B53B4BC0
:104E100001930023C0F80431D0F80421C0F82431F4
:104E2000D0F82421C0F81C31D0F81C21C0F808317A
:104E3000D0F80821C0F800324B6381F82F300123ED
:104E4000036291F82D209A4218BF83604B6B8A6AE7
:104E5000934204460ED24A6AD35CC0F81C350B68F4
:104E600003B340F286238B608B682548C4F8043373
:104E700002B010BD91F82C3013B10123C361EEE7ED
:104E80000B6A13F0400F4FF0010316BFC36143617B
:104E900081F82D30E3E7204618F07EFD28B1019B14
:104EA000013B0193019B002BF5DC91F82F305BB99E
:104EB0001348019B002BDBDC0023C4F800350523DD
:104EC0001048C4F80035D3E7D4F8C434C4F8C43467
:104ED0008BB10D4A0B4813F0010F18BF104613F0A9
:104EE000020F02F1010218BF104613F0040F074B26
:104EF00018BF1846DDE70348DBE700BFA0860100C6
:104F00000000AD0B0100AD0B0000AE0B0200AE0BBC
:104F100013B5334B01930023C0F80431D0F80421BA
:104F2000C0F82431D0F82421C0F81C31D0F81C215D
:104F3000C0F80831D0F808214B6381F82F308B6A14
:104F4000012B044617D10B6A5B0614D40223C4F864
:104F500000320123236291F82D20022A18BF23601A
:104F60000B688BB140F286238B608B681D48C4F8B8
:104F7000043302B010BD0123E9E7204618F00CFD10
:104F800028B1019B013B0193019B002BF5DC91F8BB
:104F90002F305BB91348019B002BEADC0023C4F8D7
:104FA000003505231048C4F80035E2E7D4F8C434CE
:104FB000C4F8C4348BB10D4A0B4813F0010F18BF6D
:104FC000104613F0020F02F1010218BF104613F051
:104FD000040F074B18BF1846DDE70348DBE700BFA7
:104FE000A08601000000AD0B0100AD0B0000AE0B70
:104FF0000200AE0B2DE9F84390F804901C4E0746D2
:105000003C2000FB09F035180C4695F82E1061BBCA
:10501000A96032506B6085F82D1085F8311085F845
:105020003010CCB1637B85F8383094F80E8085F869
:105030003980B8F1000F0BD12068062303224146C6
:10504000FFF7A2FE6068062303224146FFF79CFE9D
:1050500021463846FFF7BCFE3C2303FB09660548A2
:10506000012386F82E30BDE8F8830348FBE700BF34
:10507000E08800200000AD0B0C00AD0B0368027946
:105080000521C3F80015044B3C2101FB0233022229
:1050900083F82E20704700BFE088002003680B4A89
:1050A0000179C3F80823D3F8002222F00302C3F8E1
:1050B00000220022C3F80025054B3C2000FB0133F1
:1050C000012183F82E1083F83020704786420400B7
:1050D000E08800202DE9F047314F0479D0F80090A6
:1050E0003C2303FB04730D4693F82D30012B9446AB
:1050F00004D10B78012B06D12A4811E0022B02D1F2
:105100000B78012BF8D13C26274BC9F8083306FB56
:10511000047696F830302BB1B3682448C9F80433CC
:10512000BDE8F0878CF00403C3F3800386F83030C9
:10513000C6F820C0A846B8E80F0006F10C0EAEE88D
:105140000F00D8F80030CEF800306B68B362EB681F
:1051500073626B78C9F888352B78C4EB041A012B7D
:1051600007EB8A0A17D09BB9CCF3401C3C2303FB06
:1051700004735146484683F82CC0FFF747FE3C2392
:105180005C433A193B59002BCAD182F83030C7E74B
:105190004FF0010CEAE751464846FFF7B9FEEEE74B
:1051A000E08800200500AD0B864204000B00AD0B2B
:1051B000F0B5324C324887B0214618F0EDFB00289C
:1051C00059D194F82F70FFB9227B931E012B1BD865
:1051D000606AA369984217D1E36963626369A36255
:1051E000236A274884F82D70C3F34013032A84F8F8
:1051F0002C3004D107B0BDE8F040FFF707BE07B080
:10520000BDE8F040FFF784BE1E4E0FCE01AD0FC5C6
:1052100033682B6047B31A4AD2F8C434C2F8C43496
:1052200013F0020106D001238DF80030002384F82A
:10523000303007E013F0040209D002238DF800306B
:1052400084F83010D4E900316846984713E013F031
:10525000010305D003238DF8003084F83020F1E7F6
:1052600004228DF80020E2E7236A8DF800705B07C6
:1052700084F83070E6D507B0F0BD00BFE0880020AC
:1052800000300040EC880020036803F01F025B0937
:10529000026004D0012B034818BF002070474FF074
:1052A000A040704700030050F7B5064618F00CFC0C
:1052B000084618F009FC01A80196FFF7E5FF019BDD
:1052C0002E4D00EB83000C46D0F80037019440F2DD
:1052D0000D612B400B43C0F8003701A8FFF7D4FF46
:1052E000019B00EB83000127D0F800372B400B43D4
:1052F000C0F80037042018F090F9092501A801949E
:10530000FFF7C2FF019AD0F81035D340DB0715D460
:1053100001A80196FFF7B8FF019B07FA03F3C0F855
:105320000C35042018F079F9304618F0CDFB013D1A
:10533000042018F072F915F0FF05DFD101A80194DF
:10534000FFF7A2FF019A01239340C0F80C35042017
:1053500018F063F9204618F0B7FB042018F05DF947
:1053600001A80194FFF790FF019AD0F81035044886
:10537000D34003F00103C01A03B0F0BDF0F8FCFF06
:105380000100AD0B0148202128F0ACBD5089002060
:10539000014B186C704700BF1C89002010B50446F3
:1053A000064A074918F0B9FB63692BB120B92046BA
:1053B0000121BDE81040184710BD00BF41E00200C8
:1053C00035E0020010B50749074A044618F0A5FB6E
:1053D0006369014623B118B92046BDE8104018475B
:1053E00010BD00BF3BE0020049E0020010B50146DD
:1053F000044800F009F8044608B119F0C6FA20463E
:1054000010BD00BFB45603002C4A70B506460D46C9
:1054100020B1036A1A4212D0C3F30F100BF09CF8AC
:10542000044648B1C0E900657DBB02F0F3FC0646C6
:1054300038B920460BF0A2F80024204670BD006861
:10544000E6E7D0F8BC0208B9C6F8D852D6F8D812A8
:10545000013189000BF09CF80028EAD0D6F8D83248
:10546000C6F8BC025A1C0025C6F8D82240F82340D2
:10547000C4E90555284602F0DDFC0138E061284604
:1054800002F0E8FC01382062D7E7AB6813B9284680
:1054900019F02BFAAA68138E01331386AE68318E89
:1054A000306889000BF074F83060AA68138E1268B7
:1054B00003F18043013B42F82340BEE7F0FF0F00B9
:1054C00030B589B0002864D00023CDE904329DF8BE
:1054D0001C300391CDE9010023F0070301A88DF8EA
:1054E0001C300AF00DFA06F0ABFC30B19DF81C3010
:1054F00013F0020446D1D80745D4019B9D6805B13D
:105500000835012201A9284628F0A4FA01280446FA
:1055100039D19DF81C0010F0020033D101A919F017
:1055200095FF012804462ED19DF81C2012F002029E
:1055300028D101A9284628F08DFA0128044622D155
:105540009DF81C3099071DD401981CF0E4F804461E
:10555000C0B19DF81C305A0714D4039B2B3B012B80
:105560000ED901984FF4804118F07DFF50B1039B94
:10557000163B1E2B04D8084A22FA03F3DB0701D49A
:105580000194B0E7012401A80AF0C2F9204609B04D
:1055900030BD0124FAE700BFF19F78588268531E9E
:1055A000032B05D9192A05D8034BD340DB0701D5B6
:1055B00028F0ECBA0020704700DF3B0337B50B49F9
:1055C000054618F056FF044610B1002003B030BD68
:1055D00028461CF0A0F80028F7D0162221461BF020
:1055E000FDFA80B2003818BF0120EFE70100060085
:1055F00007B5064B0022CDE9002334216A46FFF7A8
:105600005FFF009803B05DF804FB00BF010000E0FD
:1056100007B5064A0023CDE9002334216A46FFF787
:105620004FFF019803B05DF804FB00BF010000E0EC
:105630002DE9F04F87B08146FFF7C0FF05460028EF
:1056400040F0188148461CF066F808222946824638
:1056500048461BF0C3FA09220590044683462946B2
:1056600048461BF0BBFA064605900090BAF1000FC1
:1056700007D102462146484607B0BDE8F04F1AF070
:1056800018BB50461AF039F9804650461AF045F9D1
:1056900004F0C043B3F1005F07461FD124F0C044BB
:1056A0006FF060439C4219D00122294650461BF0FE
:1056B00095FA6FF040439842059000F09480B4F161
:1056C000805FA2BFC4F17F6404F57F2404F6FF74F9
:1056D00004FB08F44FF0640B94FBFBFB06F0C043A3
:1056E000B3F1005F1DD126F0C0446FF060439C42CF
:1056F00017D00222002150461BF070FA6FF0404391
:105700009842059071D0B4F1805F05DBC4F17F64ED
:1057100004F57F2404F6FF747C43642394FBF3F3C5
:1057200000936C22002148461BF058FA6D2200219C
:1057300005900390064648461BF050FA09F1140400
:10574000CDE901000590204627F0C4FE054620461D
:1057500027F0C5FE039B044603F0C040B0F1005F94
:10576000DDE9011212D123F0C0436FF060408342A3
:105770000CD0B3F1805FA2BFC3F17F6303F57F2339
:1057800003F6FF736B43642693FBF6F602F0C04307
:10579000B3F1005F12D122F0C0426FF060439A4231
:1057A0000CD0B2F1805FA2BFC2F17F6202F57F220E
:1057B00002F6FF726243642392FBF3F15E44DDF86C
:1057C00000B00A228B44484600211BF007FA0590DE
:1057D00010F0FF000BD1504619F09AFE012825D198
:1057E000A8EB050521E0AB4678E7002494E70238F2
:1057F00007281BD801A353F820F000BF1D58000054
:10580000E157000043580000335800004958000099
:10581000555800004F5800006558000005EBD5753D
:1058200008EBD8786D10C5EB68052E445A46314612
:1058300021E705EBD57508EBD8786D10C5EB680549
:105840002E443C1BA344F1E7A8EB0505F8E7A8EBC1
:1058500005052E4404EBD47407EBD7776410C4EB32
:105860006704EFE705EBD57508EBD8786D10C5EB4D
:105870006805EEE707B0BDE8F08F00BF2DE9F04FF7
:1058800090F82B3003F00C030C2B91B0044603D19D
:10589000002011B0BDE8F08F1BF03DFF0646002848
:1058A000F6D094F82B1004F1140311F008010193C1
:1058B00063D0184627F00EFE94F82B1011F0040167
:1058C000074600F0AF81019827F009FE05460198D0
:1058D00027F000FE874200F08A8220461AF0D2F9B3
:1058E00063690893A3690993E3690A930CA9236A7E
:1058F0000B9330461AF021F800220CA908A827F0D3
:1059000047FB804610B930461AF0E5FFA3691D44F5
:10591000013D2562204619F0FBFD01280BBFE3691C
:105920006369DB1BFF180BBF013307F1FF376361AE
:10593000E76108AA31212046FFF7C2FD22462A214D
:105940003046FFF7BDFD20461AF09CF994F82A3046
:10595000019843F0020384F82A3000220CA927F0B2
:1059600017FBB8F1000F00D110B130461AF0B3FFA9
:10597000204619F043FD01208BE7012220461BF051
:105980002DF900F0C043B3F1005F80460C9005464E
:10599000304605D128F0C0476FF060439F4234D1B4
:1059A00019F0ABFF6FF040439845029040F0A4809F
:1059B00020461AF099FBA36803900BB100221A62EB
:1059C000204619F096FE8046204619F0AAFD824630
:1059D0002046FFF70DFE0AEB000520461BF0D1FE26
:1059E0000490204619F094FD0128DFF830924544D8
:1059F0004FF0000B75D0049AA3685A4540F0A08080
:105A0000864A914574D0C8448EE019F076FF6FF055
:105A1000404845450290CBD096F82B1011F0080174
:105A200040F0DD80012230461BF0D8F840450C9054
:105A300040F0D580204619F074FD0546204619F047
:105A400058FE054458E01B68754953F82B703846DA
:105A500018F00FFD002842D13846FFF7AFFD014690
:105A600060B90A2238461BF0B9F80C90C0B2082879
:105A700009D840F24913C340DA0704D5E3697A69CB
:105A80009B1A013317E00822002138461BF0A6F8C4
:105A90000C90002844D1069007F1140027F01AFD5D
:105AA000069908EB00031A22384605931BF096F876
:105AB000059B0C9003441A220021384605931BF0E5
:105AC0008DF8059B0C901844484508DB1A220021EC
:105AD00038461BF083F8059B0C9003EB00090BF193
