:1000000040EA0220051300005BCB0100F112000062
:10001000F1120000F1120000F112000000000000D7
:10002000000000000000000000000000C9130000F4
:10003000F11200000000000069130000F11200003E
:100040009515000095150000951500009515000008
:1000500095150000951500009515000095150000F8
:1000600095150000951500009515000095150000E8
:1000700095150000951500009515000095150000D8
:1000800095150000951500009515000095150000C8
:1000900095150000951500009515000095150000B8
:1000A00095150000951500009515000095150000A8
:1000B0009515000095150000951500009515000098
:1000C0009515000095150000951500009515000088
:1000D0009515000095150000951500009515000078
:1000E0009515000095150000951500009515000068
:1000F0009515000095150000951500009515000058
:100100007BB972B90029BEBF00204FF0004106E064
:1001100008BF00281CBF6FF000414FF0FF3000F017
:1001200057B8ADF1080C6DE904CE002909DB002BAE
:100130001ADB00F057F8DDF804E0DDE9022304B033
:100140007047404261EB4101002B1BDB00F04AF895
:10015000DDF804E0DDE9022304B0404261EB410137
:10016000524263EB43037047524263EB430300F098
:1001700039F8DDF804E0DDE9022304B0404261EB28
:1001800041017047524263EB430300F02BF8DDF866
:1001900004E0DDE9022304B0524263EB43037047FD
:1001A00053B94AB9002908BF00281CBF4FF0FF31DE
:1001B0004FF0FF3000F00CB8ADF1080C6DE904CE43
:1001C00000F010F8DDF804E0DDE9022304B0704728
:1001D000704700BF034613F8012B002AFBD1181A01
:1001E000013870472DE9F04786468C460846089E40
:1001F000154674461946002B40F0C2808542B2FA7B
:1002000082F245D94AB1C2F1200300FA02FC2EFA6B
:1002100003F3954043EA0C0C94404FEA154EA8B204
:10022000BCFBFEF8230C0EFB18CC08FB00F943EADC
:100230000C43994528D9EB1808F1FF3704D29945AA
:1002400002D9A8F102072B44A3EB0903A4B2B3FB24
:10025000FEFC0EFB1C330CFB00F044EA0344A042FE
:1002600014D92C190CF1FF3304D2A04202D9ACF1FD
:1002700002032C44241A43EA07401EB1D440002351
:1002800034607360BDE8F0874746DDE76346F1E719
:1002900092BB431B01214FEA154EAFB2B3FBFEFCEC
:1002A000200C0EFB1C330CFB07F840EA0343984577
:1002B00062D9EB180CF1FF3004D2984502D9ACF1A9
:1002C00002002B44A3EB0803A4B2B3FBFEFC0EFB1D
:1002D0001C330CFB07F744EA0344A7424ED92C1900
:1002E0000CF1FF3304D2A74202D9ACF102032C4433
:1002F000E41B43EA0040C0E7C2F1200320FA03F107
:10030000954090402EFA03F303434FEA154EAFB2E7
:10031000B1FBFEFC0EFB1C10190C0CFB07F841EAAC
:100320000041884504FA02F422D969180CF1FF3023
:1003300004D2884502D9ACF102002944A1EB08019E
:100340009BB2B1FBFEFC0EFB1C110CFB07F743EA52
:1003500001439F420ED9EB180CF1FF3104D29F42AA
:1003600002D9ACF102012B44DB1B41EA004192E7C8
:100370006046E3E76146F7E76046A3E76346B7E711
:10038000834206D916B9002108467BE7C6E900E09A
:10039000F9E7B3FA83F78FB9834201D3724508D8DE
:1003A000BEEB020460EB030301209C461EB9002152
:1003B00068E73846FAE7C6E9004CF8E7C7F1200CD1
:1003C000BB4022FA0CF41C432EFA0CF120FA0CF379
:1003D000B84001434FEA14490EFA07F5B3FBF9F8A8
:1003E0001FFA84FE09FB18300B0C08FB0EFA43EAD7
:1003F00000439A4502FA07F240D9E31808F1FF30AA
:1004000004D29A4502D9A8F102002344A3EB0A03BF
:1004100089B2B3FBF9F809FB183308FB0EFE41EA79
:1004200003418E452CD9611808F1FF3304D28E4563
:1004300002D9A8F10203214443EA0040A0FB02983C
:10044000A1EB0E014145CE46434602D306D14D45B0
:1004500004D2B9EB020E68EB04030138002EA6D0DB
:10046000B5EB0E0261EB030101FA0CFC22FA07F373
:100470004CEA0303F940C6E9003198E74046C5E776
:100480004346D9E7014640F2E73080B500EBC13082
:100490004FF47A720023490CFFF782FE084E094F91
:1004A00005460C4633782BB1BB6806485B694FF4B0
:1004B000005198472846214634F0F1FDF2E700BF8D
:1004C000E8CB0220045403002DE9F04FA1B0104CFA
:1004D000204634F085FC70B12269A168136843F4AA
:1004E000005313600B680B4A0D212046984710B942
:1004F000094B01221A70094C204634F071FC03901C
:1005000080B907481CF050F9FA20FFF7BBFF00BF85
:100510000454030001000A00E8CB02200455030044
:10052000CC700300A368E14D06931CA920461B6A0A
:10053000DF4CE04F9847BDF870302B60BDF872304B
:10054000236007F087FFD5F8008023680193B8F196
:10055000780FA3F12C03C5BFA8F131010C224FF095
:10056000060BB1FBF2FB182BB8BF18230022FF21AA
:100570000646994621F065FACF482DF01AFBC0F3E4
:1005800007238DF86000C0F307408DF861308DF8C7
:10059000620000221899304621F044FA00213046CA
:1005A0001BF0E4FE304605F037F9019A4146044657
:1005B0001FF041FB0022114620461FF003FB0022E2
:1005C0001146204621F077FA00221146204621F0FC
:1005D000C8FA204600211BF0C9FE0022FF21204658
:1005E00021F02FFAB4482DF0E4FAC0F307238DF878
:1005F0006C00C0F307408DF86D308DF86E001B99CC
:100600000022204621F00EFAAC482DF0D2FAC0F3B9
:1006100007238DF86800C0F307408DF869308DF826
:100620006A001A992046002221F012FA0022204680
:10063000012121F01CFA102120461EF0E1F820468D
:1006400015F000FA3946054631F00DFEFA88B988F2
:1006500052082846490831F003FD4FF461712846DD
:1006600031F083FC28461FF088FE0022BE21284678
:1006700021F07EFA204605F0CFF8019A4146044663
:100680001FF0D9FA0022114620461FF09BFA0022E3
:100690001146204621F00FFA00221146204621F093
:1006A00060FA00225A21204621F0CBF984482DF02F
:1006B00080FAC0F307238DF86400C0F307408DF87B
:1006C00065308DF8660000222046199921F0AAF9BC
:1006D000102120461EF094F8304615F0B9FD05466D
:1006E000304615F0B5FD0746304605F095F804464E
:1006F000002D00F08082002F00F07D82002800F0A5
:100700007A82A8F10A0A6F49284631F037FF51462C
:1007100028461FF062FA0321284616F04DF96A496F
:100720000022284621F008FA00220121284621F063
:100730000AFA00220221284621F00CFA4FF6F57041
:100740002DF037FAC0F307238DF85C00C0F30740A3
:100750008DF85D308DF85E0017990022284621F053
:10076000D5F90022B421284621F0DFF90423012223
:10077000022128461FF08CFA5249384631F0FEFE1D
:10078000514638461FF029FA0321384616F014F96D
:100790004D490022384621F0CFF900220121384688
:1007A00021F0D1F900220221384621F0D3F96FF06F
:1007B0007F402DF0FEF9C0F307238DF85800C0F3F9
:1007C00007408DF859308DF85A00169900223846A6
:1007D00021F09CF903230022022138461FF058FA29
:1007E0000222A8F11E0120461FF025FA1A2300223A
:1007F000022120461FF04CFA00221146204621F02B
:100800005AF9002247F6FF71204621F0AAF900228A
:10081000B921204621F015F92C482DF0CAF9C0F372
:1008200007238DF85400C0F307408DF855308DF83C
:10083000560015990022204621F0F4F84DF2FF6091
:100840002DF0B7F9C0F307238DF85000C0F307402F
:100850008DF851308DF8520014990022204621F075
:100860003FF900220A21204621F02CF90022B42170
:10087000204621F044F9102120461DF0C1FF144B01
:1008800009EB4912C3F80090642392FBF3F30C9335
:100890000BF103030D930F4B05930F4B04930F4B79
:1008A0000793082302934FF0000A19E00400002088
:1008B00000000020645803001203050026071400FE
:1008C0000E060500E7700300E8600300FFFD2D0041
:1008D000D0860020D48600200487002034870020A2
:1008E000304604F099FF0B23BAFBF3F202EB42020D
:1008F000520092B2FF23B2FBF3F10A4406290546E7
:100900008BB202F0FF0200F07481591CBE4889B21C
:1009100050F8211050F823001BF0EFFC074620226E
:100920006FF07F4138461BF0E8FC622108903846A2
:100930001BF006FDEB21099038461BF001FDA521B7
:100940000A9038461BF0FCFC0B90002D00F0538100
:10095000284604F061FF0446002800F04C81079B04
:10096000049A43F8040B07934FF4045342F8043BF2
:100970000492059A42F8043B5946059228464A4695
:100980001FF059F90299242228461FF01BF9002272
:100990001146284621F08FF8012128461BF0E6FC7D
:1009A00000220321284621F0DCF80022B921284644
:1009B00021F047F80A982DF0FCF8C0F307238DF8D2
:1009C0004C00C0F307408DF84D308DF84E00139960
:1009D0000022284621F026F800220121284621F095
:1009E0006AF800227821284621F05EF80B982DF055
:1009F000E0F8C0F307238DF84800C0F307408DF8F6
:100A000049308DF84A0000221299284621F03DF81D
:100A1000102128461DF0F4FEABF1020120461FF024
:100A2000DCF80C9920461FF0EFF800231A46052148
:100A300020461FF02DF900221146204621F03BF8F8
:100A400000220321204621F08CF80022FF212046BD
:100A500020F0F7FF08982DF0ACF8C0F307238DF8CD
:100A60004400C0F307408DF845308DF846001199D9
:100A70000022204620F0D6FF09982DF09AF8C0F306
:100A800007238DF84000C0F307408DF841308DF802
:100A9000420010990022204620F0DAFF00220121B6
:100AA000204620F0E4FF38462DF083F8C0F30723FA
:100AB0008DF83C00C0F307408DF83D308DF83E00C6
:100AC0000F990022204621F00BF800220E2120462B
:100AD00020F0F8FF00220221204620F0FAFF002239
:100AE000E621204621F00BF8102120461DF088FE5B
:100AF000029B0D9A13440AF1FF0A029340F6F43365
:100B00009A457FF4EDAE304604F086FE0446002898
:100B100071D0019A41461FF08EF8002211462046FE
:100B20001FF050F800221146204620F0C4FF00229A
:100B30001146204621F015F82DF071F8C0F3072377
:100B40008DF83800C0F307408DF839308DF83A0041
:100B50000E990022204620F065FF00221146204613
:100B600020F06FFF102120461DF04AFE069B5B68B7
:100B7000002B46D134F01FFB4FF47A73A0FB030522
:100B800003FB0155C70BDFF8849047EA4547ED0B9F
:100B900034F011FB4FF47A73A0FB030603FB0166EC
:100BA000C40B44EA4644BC424FEAD63676EB050312
:100BB000C0F29B80164BD9F80010164D0C2000FB9C
:100BC0000130002310F8012B01331202B2F5C84F97
:100BD000DBB2A8BF4FF4C8420C2B45F8042BF1D16F
:100BE0000D48036805330360002543F64E770A4637
:100BF00022E00A4F93E60A481BF0D6FD4FF4FA7044
:100C000083E408489847B5E748580300CC8600209D
:100C10000D210800D4860020C886002000BAF60006
:100C2000F5700300045503000132BA42039DA3F19D
:100C300014034FF00001DAD8132BF5D815B1C9F819
:100C4000002003600027DFF8EC803B4DDFF8ECA0CC
:100C5000BB465AF8041B55F8042B8B1A4CD44FF49E
:100C6000A07043431B12B3F5006FA8BF4FF400639D
:100C7000802BACBFD218803291424CDB45F8042C5B
:100C800055F8043C002B49DA45F804BC55F8041C1F
:100C90002B4B09121B684BD4642947DC212909DD41
:100CA0007D22213951436422B1FBF2F1213191427D
:100CB000A8BF11465943C7293ADD642291FBF2F1DE
:100CC0009942A8BF1946D8F800001EF09DFF0137D1
:100CD000002358F8040B1A460521FFB21EF0D8FF76
:100CE0000C2FB6D1671D46F100050FF013FB002154
:100CF000422034F0D4F94BE76FF0A90043431B12B4
:100D0000B3F5407FA8BF4FF44073552BACBFD21A48
:100D1000553A9142B2DD45F8041CB1E7B3F5C84F2E
:100D2000C4BF4FF4C84345F8043CAFE76421B7E7BC
:100D30000221C5E73487002004870020D4860020E4
:100D4000D0860020014B1B68184700BF0800002018
:100D5000014B1860704700BF0800002030B585B017
:100D600004460D4610220021684634F062FA022340
:100D70008DF802302A46044B0193214668461BF049
:100D80005FF805B030BD00BF450D000080B50546D9
:100D90000E46174698461AF0E9FC034634F0B4FABA
:100DA000DFF81890044649F800304246304639468C
:100DB000A84754F8090000F0C1FA00BF080000007D
:100DC0002DE9F047058B04462807904611D40229E7
:100DD00005F0070540F0CC8020461BF0F2FC78B10E
:100DE0000138218B042811D8DFE800F0C2106D858E
:100DF000950001290CBF45F0100545F0200525831D
:100E000088F31188BFF36F8FBDE8F08701F0070A00
:100E1000AA4500F0A5800027B9463E46A368002BEE
:100E200000F0BC8041F00801218388F31188BFF3F2
:100E30006F8FA168002900F0BA800D68002900F0CA
:100E4000B680D1F80480334652462046C047002D74
:100E500076D02B6829461D46F0E701F007035A1F9C
:100E6000012A1BD8002221F00701062B276889B22E
:100E7000C4E9002209D13B4603E0628B0132628360
:100E80001B68002BF9D141F00201218320461BF0A1
:100E900098FC00287AD041F0200176E0042B0AD19A
:100EA00021F0070189B2218320461BF08AFC10B192
:100EB00041F020012183218B01F0070AAA454FD080
:100EC0000027B946AAE7236921F0070141F006018E
:100ED000062DD3F8009021832DD1B9F1000F3FD01A
:100EE00041F00801218388F31188BFF36F8F3A49DD
:100EF0002046C84729E021F00701236941F0040199
:100F000089B2042DD3F804902183E6D000273E4611
:100F10004FF0040A82E721F00701236941F005013F
:100F200089B2052DD3F808902183D6D000273E46FC
:100F30004FF0050A72E700273E464FF0060A6DE7BC
:100F40002B4687E7B9F1000FD1D1EFF311882023A9
:100F500083F31288BFF36F8F238B23F0080323835F
:100F6000258BEA062ED525F01003238305F007050F
:100F70006669218B002EBFF670AF00232768C4E995
:100F8000003321F0070141F001012183218B01F0A1
:100F9000070AAA454FF000097FF440AF002F9CD00C
:100FA00041F00801218388F31188BFF36F8F002F70
:100FB000C8D03D6839463346524620461BF02DFCCA
:100FC0002F46F4E7AB067FF51BAF25F02003238304
:100FD00005F0070500E700BF47C80100014B0360AB
:100FE000002070478058030030BFFFF7FDBF00BFEF
:100FF0002DE9F0410B4EDFF8308006EB0807CC1BE3
:10100000054632460949204634F0EBF8A01942461D
:101010000021083C34F00DF92C6707F10800BDE809
:10102000F08100BF00000000040000000C58030025
:10103000054B5A699B689A421FBF044A536843F0A4
:1010400080535360704700BFACCB022000ED00E03E
:1010500070B5264B15469A6A12F0100F9A6A14BFA3
:101060001124102412F0080F9A6A18BF1224920754
:1010700006460AD5586B9A6A140634D519B19A6A8D
:1010800022F080029A62132401E06FF01500174BE2
:101090009A6A12F0010F9A6A18BF142412F0200FF6
:1010A0009A6A18BF1524D20602D49B6A9B070AD5F8
:1010B0000E4B5B68190506D5314600F025FA10B1D4
:1010C00080F309880224094B9A6A920642BF5A6A41
:1010D00022F400525A629A6A42F0FF029A62002396
:1010E0002B70204670BD6FF01500CCE700ED00E0DE
:1010F000134B9A6A12F0007F9A6A14BF1E201D20BB
:1011000012F0807F9A6A18BF1F2012F4002F9A6A8B
:1011100018BF212012F4802F9A6A18BF222012F4DF
:10112000003F9A6A18BF232012F4803F9A6A6FEA40
:1011300002426FEA12429A6218BF2420704700BF31
:1011400000ED00E010B5194B0246986A9C6A10F455
:10115000805F14BF1720162014F4006F9C6A18BF1C
:101160001820A40509D5986B986A000404D51AB113
:101170009A6A22F400429A6219200C4B9A6A12F47D
:10118000806F9A6A18BF1A20D2050CD49B6A13F498
:10119000005F18BF1C20054A936A43F47F439362A3
:1011A00000230B7010BD1B20F5E700BF00ED00E031
:1011B000F0B5484B5B688BB00446C3F308030025C9
:1011C00085F31188BFF36F8F02F07F40B0F17F4F3E
:1011D00011D102F00C0008280DD010074CBF0C46AE
:1011E00001250022033B8DF80720032B05D8DFE8FB
:1011F00003F0246367602C46F3E700239DF8072083
:10120000CAB902AE04F1200720686168324603C201
:101210000834BC421646F7D1099A002D54D0C2F3C7
:10122000080121B96FEA52226FEA4222099202A90B
:1012300018461BF088FC0BB0F0BD264BDA6A91070C
:10124000DBD4DA6A002AD8DBDA6A5200D5D55A69CB
:10125000A16942F480725A61BFF34F8FBFF36F8F61
:101260005A6931F8021C22F480725A61BFF34F8F21
:10127000BFF36F8F4DF6027291420AD09A6AD2B2D2
:101280004AB10DF1070201212046FFF7E1FE0346B6
:10129000B4E72368B2E79A6A12F47F4F05D00DF1E4
:1012A00007010120FFF74EFFF1E79B6AB3F5803F8E
:1012B000A3D3FFF71DFFEAE70DF107020021E3E7E3
:1012C0000DF107010020EDE722F4FF7222F0010288
:1012D000ACE700BF00ED00E0044B5A6942F0100299
:1012E0005A615A6922F008025A61704700ED00E025
:1012F000EFF30880EFF3098101B57246FFF758FF5D
:1013000001BD00BF0B4880F3088802F079FA202065
:1013100080F3118808484FF40461401880F309886D
:10132000EFF314800221084380F31488BFF36F8F1A
:1013300000F0B2F840EA022080D00220084B9B68FF
:1013400083420BD1EFF3058343B1064B5A6842F059
:1013500080525A605A6A22F400425A621AF00CBA59
:10136000ACCB022000ED00E014498A684FF0300059
:101370001044EFF3098C80E8F01F202080F31288DE
:10138000BFF36F8F0E4F4FF000664A698A603E6070
:10139000106F0C4C2060506F0023536780F311884E
:1013A00004B5104600F014F9BDE8044002F1300025
:1013B00090E8F01F8CF3098870470000ACCB022046
:1013C00004ED00E07C8700201EF0040F0CBFEFF35B
:1013D0000880EFF30980816911F8021C0229FFD00F
:1013E00001B572461BF0B5FB01BD00BF40B200283D
:1013F00007DB044A4109012300F01F00834042F843
:101400002130704700E100E040B200280CDB4309C6
:10141000064900F01F0020330122824041F82320BA
:10142000BFF34F8FBFF36F8F704700BF00E100E045
:10143000054B420900F01F0053F82220012303FA54
:1014400000F01040704700BF00E100E040B200280B
:10145000A8BF00F1604001F10101B8BF064B4FEA9F
:101460004111ACBF00F5614000F00F00C9B2B4BF3C
:10147000195480F80013704714ED00E0044B054A3E
:1014800023F07F039360BFF34F8FBFF36F8F7047DD
:101490000000000000ED00E008B5FFF7EFFF0B4A89
:1014A000D2F8883023F47003C2F88830EFF3148345
:1014B00023F0040383F31488BFF36F8F19F0F2F95C
:1014C0001AF08EFA00F05AF819F030FA00ED00E048
:1014D00042F8203C009B42F81C3C0A49019B42F820
:1014E000183C029B42F8143C21F001014FF080733C
:1014F00042F8043C42F8081C0023203A0265436786
:10150000704700BF8D0D0000094A0346906870B116
:1015100013F1160F006E05D0A0F140029A4205D8D3
:10152000834203D2814228BF0020704700207047C9
:10153000ACCB022008B515460B4A0C4B9060026FED
:101540001A600E4600F044F82C4686F30988002005
:10155000034B98472046002100220023014C2047DE
:1015600071CB01008D0D0000ACCB02207C870020E8
:10157000014B10221A61704700ED00E0044800237F
:101580002021C2180133302B82F80013F9D17047A3
:1015900000E100E008B5EFF30583064A103B02EBDB
:1015A000C30152F8330049688847BDE80840FFF797
:1015B0003FBD00BF84550300024B034A034801218D
:1015C00000F076B8000004200000002098580300C6
:1015D000026E054B403A1A60044A4021C3E90112E9
:1015E0001846012100F06EB88087002000000B151E
:1015F000084AC2F898000B6823F01F03034343F026
:101600001003C2F89C308B6843F00103C2F8A0308D
:10161000704700BF00ED00E02DE9F043DFF8608087
:1016200085B00E461F4604464FF00009B14523DA47
:101630006068D8B13FB1411E08421BD11F2819D99B
:101640002368194216D1236801931BF0B4FAA368EA
:1016500003430393D8F89050C5F30725D0B2013D5A
:10166000A84207D801A9FFF7C3FF421C09F10109ED
:101670000C34DBE76FF01502104605B0BDE8F083CF
:1016800000ED00E0044B0522C3F89420BFF34F8F18
:10169000BFF36F8F704700BF00ED00E0BFF35F8FB7
:1016A000024B0022C3F89420704700BF00ED00E019
:1016B00010B5034C01232278FFF7AEFF207010BD58
:1016C000E9CB022008B50B4A00231278FFF7A4FFEC
:1016D00010F1160F07D0084A0021D2F89030C3F35A
:1016E0000723984200DB08BDC2F89800C2F8A0109A
:1016F0000130F2E7E9CB022000ED00E02DE9F043F4
:10170000534B544CD3F890302568C3F307239D42C4
:1017100085B000F29A80FFF7C1FF00200C268542B9
:101720001AD14D4C4D4F25706846FFF757FCDFF836
:101730002081DFF82C9106460025AE4213D1237894
:1017400043490020D1F89020C2F30722934276DB70
:10175000FFF798FF002042E0616806FB0011FFF7E9
:1017600047FF0130DBE7009800EB05114FEA051C4D
:10177000CB683B40B3F5000F48D00AD8B3F5001F43
:1017800030D0B3F5800F36D0B3F5801F10D00135BF
:10179000D3E7B3F1807F42D0B3F1007FF7D150F8A7
:1017A0000C3088684A681BF006FA40F4802009E093
:1017B00050F80C3088684A681BF0FDF940F08850FA
:1017C00040F43020CDE901230390D8F89030207800
:1017D000C3F30723013B98422AD96FF0150005B0E7
:1017E000BDE8F08350F80C3088684A681BF0E3F9D4
:1017F00040EA0900E6E750F80C3088684A681BF0B8
:10180000DAF940F0C06040F40030DBE750F80C300B
:1018100088684A681BF0CFF940F08270D2E750F830
:101820000C3088684A681BF0C6F940F08870C9E738
:1018300001A9FFF7DDFE237801332370A7E7C1F884
:101840009830C1F8A00001337CE74FF0FF30C6E7C5
:1018500000ED00E0A4580300E9CB02200000F0FFF7
:101860000000081108B5024B1B689847002008BD0E
:101870008C870020034B044A1860937843F00203DE
:10188000937070478C8700200C00002008B5064933
:10189000064821F00701C1F1005202F580221AF03A
:1018A00044FF002008BD00BF8F71032090870020F7
:1018B0000E4A0123C2F840354FF080424FF080516C
:1018C000C2F87835D1F83001082808D1D1F83411A0
:1018D000052904D80648415C09B1C2F838364FF0F2
:1018E00080430122C3F880250020704700E00140BA
:1018F000F3180B0020B1034B800143F0010318479C
:10190000704700BF405803007FB50D4D0D4E4FF09E
:10191000FF324FF0FF3301A9284619F0C7F800281D
:10192000F5D1094CB442F2D2236813B1019A934223
:1019300003D1D4E9013101A898470C34F2E700BF84
:10194000200200200C58030000580300F0B585B0B9
:10195000DDE90C5417461E46019023469DF82800E9
:101960008DF808002C432A468DF80910ADF80A704E
:1019700003960AD0094933F0C7FCD1F880400849E2
:1019800009588C4204BF00221346064801A919F0E9
:1019900035F800EAE07005B0F0BD00BF8885002092
:1019A0000800000020020020084B70B5C31A0D4645
:1019B00007499B1004465943064840221BF019F979
:1019C0002B4601462046BDE870401847B0870020EE
:1019D000B76DDBB6C453030073B50C4C0C4A4023FF
:1019E000041B00930D460B460A49A41061430646AA
:1019F00009481BF02AF9011E05DA30462B4602B0D1
:101A0000BDE87040184702B070BD00BFB08700202D
:101A1000B5CC0100B76DDBB6C453030010B5EFF3CE
:101A20001184202383F31288BFF36F8F074A136852
:101A300023F00201DB07116002D401201CF01CF826
:101A400084F31188BFF36F8F10BD00BF00880020A2
:101A5000002270B5012104461046FFF7F7FC0F483D
:101A600002F058F80E4B984215D102F063F826693F
:101A70000C4930461AF0F4FE00280BDB01253564D2
:101A80002469084904F11C001AF0EAFE002801DB71
:101A9000E564002070BD6FF00400FBE7A11B0000AF
:101AA0000000AD0BC45803001FB500220123CDE98F
:101AB0000223094ACDF800D06B46CDF804D01BF0C4
:101AC000F2F8002805DB4FF480420023684619F045
:101AD0004BF905B05DF804FBD3CC010030B4104BDA
:101AE0000C2202FB003301460020D3E90E5298631A
:101AF000EFF31180202484F31288BFF36F8F1C6CE6
:101B000004F0C00444F002041C6480F31188BFF3A5
:101B10006F8F1DB12B46034830BC184730BC70474F
:101B2000B0870020C453030010B4EFF311822023C8
:101B300083F31288BFF36F8F1748016841F00204E6
:101B40000460C80707D482F31188BFF36F8F0120A8
:101B500010BC02F001B84FF08041D1F80C04D1F86C
:101B60000C14C907EFD5EFF3118083F31288BFF38C
:101B70006F8F0A490B6C03F0C00343F002030B6440
:101B800080F31188BFF36F8F82F31188BFF36F8FDB
:101B9000002010BCFFF7A2BF00880020B087002003
:101BA00010B1012804D07047034B1B6C5B0701D1B7
:101BB000FFF794BF704700BFB08700202DE9F041C8
:101BC0003849BFF35B8F0746012251E8003F41E8E7
:101BD00000200028F9D1BFF35B8F33B93249334875
:101BE0004B60CB608A601AF04EFE7B1E012B2BD817
:101BF000012F07D14FF08043D3F81C3403F00303C7
:101C0000012B21D033F0C7F90546F8B9284B1B78D2
:101C1000E3B14FF080430222C3F808230646DFF801
:101C200094804FF08044D4F81824D4F81834D203A8
:101C300015D503F00303012B01D0012F0FD155B3AC
:101C400086F31188BFF36F8FBDE8F081EFF3118643
:101C5000202383F31288BFF36F8F0125DFE7ADB137
:101C600030461AF099FFD4F81835002BDBD1D4F8A0
:101C70000421002AD7D0C4F80431D4F80431012358
:101C8000C4F81835C8F88031A360CCE700212120C2
:101C900033F005FAE7E74FF080430222C3F804234C
:101CA000D2E700BFAC8700209C870020CC870020B3
:101CB000FFCB022000E100E008B5074833F090F8C0
:101CC00038B10648FFF7D6FD0448FFF741F8002079
:101CD00008BD6FF01200FBE744540300E11C000054
:101CE0000A2838B5074D044604D1AB680D215B685E
:101CF00028469847AB6803485B68E1B2984720469E
:101D000038BD00BF44540300EFF31182202383F356
:101D10001288BFF36F8F0A4BD3F8001161B1002115
:101D2000D3F80805C3F80011D3F80031C0B282F32C
:101D30001188BFF36F8F70476FF00A00F7E700BF9D
:101D400000D00040F0B5034610469C7893F803C0DD
:101D5000EFF31182202585F31288BFF36F8F1F7870
:101D600093F801E0E41B04EA0C04A04288BFA0B28F
:101D70003E180CEA06063D461E7082F31188BFF33A
:101D80006F8F0A188A4216D177450CD1EFF3118272
:101D9000202181F31288BFF36F8F1978597082F375
:101DA0001188BFF36F8F1B79241AA34222BF064B01
:101DB00001221A60F0BD5E190135767901F8016BD8
:101DC00005EA0C05DEE700BF00D00040DB432DE94B
:101DD000F04713F001050E46144604D02248FFF7E1
:101DE000B1FFBDE8F0879AB3EFF31188202383F3A6
:101DF0001288BFF36F8F0D20FFF71AFB07460D20E7
:101E0000FFF702FB88F31188BFF36F8FDFF85CA048
:101E1000DFF85C80CAF80051DAF800314FF400595D
:101E20000123CAF800302546C8F88091DAF800315D
:101E300083B1FFF769FF031EC8F88091F6DB013D0F
:101E4000ADB27355002DF1D117B10D20FFF7CEFAC9
:101E50002046C6E7EFF31180202383F31288BFF3F7
:101E60006F8F1AF099FEE1E72488002000D000402F
:101E700000E100E02DE9F041124F0D46144607F154
:101E8000350814B92046BDE8F0814FF0FF334FF01C
:101E9000FF32384618F068FF224629464046FFF7D1
:101EA00051FF0646384618F02BFF3EB94FF0FF327F
:101EB0004FF0FF33044818F057FFE6E7A41BA4B225
:101EC0003544DEE7048800201488002038B5184C1B
:101ED00001221146204632F0DBFF0122002104F1ED
:101EE000100032F0D5FF40F2074323874FF07063B4
:101EF00023620C2384F8243000250E4B84F83550DF
:101F0000E586D3F8042522F00102C3F80425012157
:101F1000C3F80051D3F80021C3F804132A4619600E
:101F20000D20FFF793FA0D20FFF760FA284638BD21
:101F30000488002000D0004010B5FFF7E5FE00281F
:101F400020DB174B93F8222093F8214093F82310BD
:101F5000141B31EA0404C0B20DD193F8372093F872
:101F6000364093F83810141B31EA04040BD10D4BA2
:101F700001225A600EE09C180132114084F82500BD
:101F800083F8221010BD9C180132114084F83A00E9
:101F900083F837100448BDE8104018F0B1BE00BF08
:101FA0000488002000D0004014880020F0B51646B8
:101FB0004268107B01F01F0444EA4014106987B0A6
:101FC000002872D0B6F5001F02F1100506D1214697
:101FD00028461BF0E2FD002007B0F0BD01A8002755
:101FE000B6F5800F0197476039D1B3F1007F14BF78
:101FF000052304238DF804300023CDE90403039363
:10200000936823FA01F111F001010DF103073ED1AC
:10201000B6F1A07F3BD104F01F03620903F5E07322
:1020200028D0012A47D1254A52F82330DB072ED485
:102030003A462146284602F077F8214B98421CD0B8
:10204000029703AA2146284601F030FF1D4B984213
:102050002ED101222146284602F0CAF8BBE7B3F18F
:10206000C06F05D0B3F1007F14BF01230223C1E785
:102070000323BFE74FF0A042D6E73946284602F0D7
:10208000B1F8104B9842DBD06FF00B00A4E73A4652
:102090002146284602F048F80A4B9842D1D19DF8D3
:1020A0000310284602F098F8CBE76FF0850093E71D
:1020B0006FF0150090E751F82330FFDE0003005069
:1020C0000400AD0B0000AD0B420970B5034602D011
:1020D000012A17D070BD0D4E326951680029F9D020
:1020E00003F01F0301250C689D400029F2D08A6887
:1020F0002A4002D04B68304698472CB123682146CD
:102100001C46F2E7024EE7E72346F8E704540300D3
:10211000E453030038B545682B69B3B11035284640
:1021200002F050F8044680B90146284602F016F83D
:10213000084B98420BD108492246284601F0EEFF91
:10214000224605210620FFF781F9002038BD6FF0F7
:102150000400FBE70000AD0BC92000002DE9F043AF
:10216000466840F20635D006337B87B002EA0505A3
:1021700054BFC2F34010032001F01F07B5F5837F61
:10218000144647EA43178DF8030045D00DD8062DB5
:1021900016D005D8A5B1022D40D06FF0150038E05B
:1021A000B5F5807FF9D101250AE040F2022295427F
:1021B00036D0B5F5407F35D0B5F5007FEDD102259D
:1021C0000123220303FA01F12ED57368C3F8081521
:1021D000326992BB07F01F037F092BD0012F79D101
:1021E0003F4A02EB830284F48033D2F80017C3F332
:1021F0000043C4F3404444EA430421F4E16144EA67
:10220000800421F0070144EA05230B43C2F800379C
:10221000002007B0BDE8F0830725D1E70425CFE70C
:102220000525CDE70325CBE7630344BF7368C3F8F7
:102230000C15CDE74FF0A042D3E710360DF10202A6
:102240003946304601F070FF14F4403F80460CD10F
:10225000394630461BF09FFC224B9845D8D19DF85B
:102260000210304601F0B8FFD2E701AB4FF0000991
:1022700003AA39463046CDE90439CDE90199CDF8B4
:102280000C9001F013FE174B9842C1D114F40033A7
:1022900015D09DF803308DF80E3084F48034C4F3EB
:1022A00000444B4603AA394630468DF80C508DF851
:1022B0000D4001F0B5FE0B4B9842A9D1CCE7CDE91A
:1022C000043303AA0DF1030339463046039301F0AA
:1022D000EDFDF0E703F5E07352F82330FFDE00BFB9
:1022E000000300500000AD0B02780B69012A08D0F2
:1022F000022A08D04AB9064A5A6203F1140018F0BB
:10230000FFBC044AF8E7044AF6E7044AF4E700BFD2
:102310000000AD0B0100AE0B0200AE0B0100AD0BD7
:102320002DE9F04FD0F81090D0F8048085B0054624
:102330000C461746029309F1040A4FF0FF324FF0A2
:10234000FF33504618F010FD09F1140B0023002252
:10235000584618F009FD404603F0A6F87B1E0026FB
:102360000393B74201D8002322E0039B217AB342B2
:1023700083BF237D83F00403C3F380030023019311
:10238000029B0093D4E90023284600F04DF8034651
:1023900070B94FF480420023584618F0E5FC98B11C
:1023A000404603F091F8284600F02CF86FF0040343
:1023B0004046029303F088F8504618F0A1FC029BB7
:1023C000184605B0BDE8F08FD9F82430034A93428F
:1023D00004F10C04EAD10136C3E700BF0000AD0BE5
:1023E00008B503464068826900F1080103F018F857
:1023F000034B984214BF6FF00F00002008BD00BFD0
:102400000000AD0B08B543681B68D3F80805D3F886
:102410000C1503F05FF9034B984214BF6FF00F00E7
:10242000002008BD0000AD0B2DE9F04186B00C4640
:1024300047689DF834801546002112220DF10600F0
:102440001E4632F0F6FEBDF830208DF8052004F06F
:10245000010314F008028DF804300296049519D196
:10246000A10704D4B8F1000F12D19BB9202201A911
:10247000384603F045F80A4B98420ED00B33984289
:102480000CBF6FF00F006FF0040006B0BDE8F081E4
:102490004022ECE76FF08500F7E70020F5E700BF8A
:1024A0000000AD0BF7B5446805690646E06832F0F8
:1024B00097FC002848D02846254940F8046B32F0A4
:1024C00032FD606900282ED0217E638BD0F810C0C9
:1024D000D0F808E0DCF80060DA0754BF43F4D0130A
:1024E00083F4B013012723F480128F40DB074CBF25
:1024F0003E43BE43CCF80060DEF800309847002829
:1025000020DB0021A42032F0CAFD237E6069012176
:10251000994003691B68194283680CBF1B69DB681B
:10252000984700280EDB18350A490022284632F069
:1025300044FE4FF4A47200232846CDE9002319F08D
:1025400029FC002003B0F0BD6FF01200FAE700BFD5
:10255000A9D101006BD101002DE9F74F4568EC6866
:1025600018348046002701944FF0010B6B68BB4282
:1025700004DC2B7D002B69D1002048E00C23D5F82A
:1025800008A003FB07F60AEB06095AF8060032F02A
:1025900027FC00286DD0B9F806305AF8060099F8E3
:1025A000041043F48032D0F810C0D0F8089013F033
:1025B000010FDCF800300BFA01FE14BF4EEA0303F2
:1025C00023EA0E03CCF80030D9F800309847F0B970
:1025D00044F8188C2969204632F0D1FC2B7D13B1C8
:1025E00001374834C2E7D5F80890234A09EB060AB8
:1025F000A4F114019AF804300BFA03F344E904231C
:1026000059F806008368DB6923B96FF0570003B0FF
:10261000BDE8F08F012298470028F8DB9AF80410F3
:1026200059F806001AF02DFE04F8080C59F80600B7
:102630009AF8041083689E69002EE6D04FF0C063BC
:102640004FF0A072B0470028CADAE0E72D684FF4D7
:10265000004440F2E73000214FF47A720023E5FB9A
:102660000401FDF79DFD02460B46019818F068FD38
:1026700082E76FF01200CAE7ABD201007FB50346D4
:10268000044653F8185D6968CA689B1A114ADB1042
:1026900053438A68D618D05831791AF0F2FD031ED8
:1026A00015DB14F9082C9A4211D004F8083C4FF0BD
:1026B000FF304FF0FF313289003BCDE902014FF08E
:1026C0000101009118BF01232846FFF73FF904B02C
:1026D00070BD00BFACAAAAAA036803F01F025B0981
:1026E000026004D0012B034818BF002070474FF050
:1026F000A0407047000300502DE9F04FDFF894919F
:10270000DFF894A185B01546834600EB810140F2C5
:10271000FF18594503D1002005B0BDE8F08FDBF864
:1027200000305E04C3F3C322C3F3080400F1AC809D
:102730001B0E19F80270444508BF4FF0FF34222BDE
:1027400000F2A580DFE803F012191F22252B22A337
:10275000A3A3A33B68A3A3A3A3A3A3A3A3A36B8146
:102760008487A3A3A38A9194979A9D00C5F80C45EA
:10277000601C5ED10BF1040BCBE7C5F81445621C5D
:10278000F8D000265FE0C5F80845F1E7C5F8104528
:10279000F5E7631CC5F80845ECD0002604E0661C8C
:1027A000C5F80C45E6D0012603A80394FFF794FF73
:1027B000039B012202FA03F3C0F80C3508E0C5F8C8
:1027C0000845002FDBD1631CD4D0002632460627F3
:1027D000DBF80030019303F40040002818BF00220A
:1027E00003A8009218BF01260394FFF775FF039C0E
:1027F000019B009A00EB8400C3F3412CD0F8004702
:102800003B0243EA8C03134304EA0A04234343EAEA
:102810004603C0F80037ADE7C5F80C45D1E7C5F869
:102820006045601CDBF80030A4D0C3F30043002BEC
:10283000B9D003A80394FFF74FFF039B012606FAC4
:1028400003F3C0F808353246C2E7C5F86445E8E747
:10285000C5F86845E5E7C5F86C45E2E7C5F82445E5
:10286000621C87D000220126B2E7C5F828457FE721
:10287000C5F83045F4E7C5F83445F1E7C5F8384503
:10288000EEE7C5F83C4573E76FF0150044E76FF0DD
:10289000850041E78E190B00F0F8FCFF036803F098
:1028A0001F025B09026004D0012B034818BF0020FF
:1028B00070474FF0A04070470003005073B50446C6
:1028C000002201211C20FEF7C1FD60682369244A13
:1028D00000F1080101F066FE224B98423CD1656888
:1028E000AE6B01AA002130461AF024FD002805DB5A
:1028F000019B326819791868FFF7FEFE0026314601
:102900002B6801F5AC7253F82230002B0EDB01A8C6
:102910000193FFF7C3FF019AD0F80435D34013F0B9
:1029200001031CBF01238B403343DEB20131042974
:10293000E6D1002301206268916A00FA03F2324274
:102940000CBF01220022D20321F813200133042BF3
:10295000F1D1002002B070BD6FF00F00FAE700BFA8
:102960005BD301000000AD0B2DE9F0410446476840
:102970000D4632F010FB4FF0200888B9264B1B782B
:1029800073B1642660681AF0A1FDF0B901201BF054
:1029900065F8013EF6D10021212032F080FBF0E7FE
:1029A000EFF31186314688F31288BFF36F8F6068AA
:1029B0001AF08CFDA8B986F31188BFF36F8FEFE78B
:1029C00086F31188BFF36F8FE5E7EFF31186314689
:1029D00088F31288BFF36F8F60681AF077FD0028C4
:1029E000EED0BB691D706368BA691B680020C3F82C
:1029F00044250122C3F84825C3F82001D3F820411B
:102A0000C3F85801D3F858019A6081F31188BFF3D5
:102A10006F8FBDE8F08100BFFFCB0220F7B5054600
:102A2000002201210220FEF711FD0220FEF7DEFC4C
:102A30006A6811681369C1F82435137D507D927D51
:102A400003431343C1F86C356E68D6E9004313F0B5
:102A5000010348D02F6907F108001BF00BF8304B39
:102A600098425AD1387A04F10C0204F590711AF0A8
:102A7000F7FF387A012707FA00F000F0E3FF082398
:102A8000C4F80035B369C4F844350023C4F84835A8
:102A9000A760D4F85831002BFBD00021C4F80015F2
:102AA0006B68DC6801AA20461AF044FC002805DBAC
:102AB000019B226819791868FFF71EFE6A6813687F
:102AC0000821C3F80015117A51B9D269C3F8342529
:102AD0000122C3F83825C3F81011D3F810111A6079
:102AE000002003B0F0BD0822C4F80025B269C4F884
:102AF0004425C4F848350123A360D4F82031002BC5
:102B0000FBD00023C4F82031D4F820310123E36046
:102B10004FF48073C4F80433BBE76FF00400E0E7C0
:102B20000000AD0B7FB50546406829698A6C0B6DC6
:102B30000ABBABB14C6C8B6516461A46C96C029148
:102B4000CDE9004611B3002B18BF13460022694699
:102B5000039301F021FF0E4B98420AD06FF004035B
:102B60002C69236304F1200018F0CAF8002384F8CC
:102B70005C3004B070BD4C6C13B19A4228BF1A4649
:102B8000002C8A6514BF16460026D7E70B46DDE702
:102B90000000AD0B2DE9F04F89B004690093436844
:102BA00001938B88074698040E4691462AD44FF02D
:102BB000FF324FF0FF3304F1100018F0D5F86660D3
:102BC000D7F81080D7F804A098F85D3023B1D8F872
:102BD00000309E4200F0B280B6F804C01CF4006FD2
:102BE00017D06FF08505236813B19B889B0405D42B
:102BF0000023636004F1100018F082F8284609B041
:102C0000BDE8F08FA369002BD1D163689942CED182
:102C1000D6E71CF0090F02D06FF01505E3E7CCF3FF
:102C20004513082BF8D13568A34B9D42F4D90AF11E
:102C3000080BBBE80F000DF10C0EAEE80F00DBF83F
:102C40000030CEF800309D4B9D4250D99C4B9D42A8
:102C500050D99C4B9D4250D99B4B9D4250D99B4B88
:102C60009D4250D99A4B9D422CBF4FF000454FF0EA
:102C700080451CF0020F05950CF0040346D0002B94
:102C800014BF032302238DF81830CCF300138DF802
:102C90001930DAF80030D3F80835591C12D01CF07E
:102CA000020F03F01F00CCF340014FEA53134FF023
:102CB000010232D173B3934240F0F680854B8240DB
:102CC000C3F80C2598F85D302BB1504601F02CFE6E
:102CD000002388F85D3043467F4A03A9504601F03F
:102CE000EFFD7E4B984224D06FF004057BE74FF058
:102CF0000075BEE74FF08065BBE74FF00065B8E7B1
:102D00004FF08055B5E74FF00055B2E7003B18BFD4
:102D10000123B8E74FF0A043D1E73BB1012B40F0CE
:102D2000C6806C4B8240C3F80825CBE74FF0A04328
:102D3000F8E7012388F85D30C8F80060012384F8C3
:102D40005C30019B596A4A1C03D003F128001AF039
:102D5000F5FCB9F1000F40F08780C4F834900023EF
:102D6000A36304F1480204F1380104F134001AF0BD
:102D7000E3FB009B6064002B7FD1E36300232364AB
:102D800004F1500204F1400104F13C001AF0D4FBBC
:102D9000E06420680023236348B183683BB10121CC
:102DA00008301AF0DCFB2368186932F014F8384652
:102DB000FFF7B8FE0023A06B1A46824266D10022BC
:102DC000256C1146A94268D19342264638BF134666
:102DD0004FF4FA5202FB03F556F8203B4FF000087F
:102DE0001B68B5FBF3F54FF4004CC835414640F283
:102DF000E7304FF47A720023E5FB0C01FDF7D0F9C0
:102E000002460B46304617F0AFFF18B9256B15F197
:102E1000740F13D10198C4F8588001F085FD84F82F
:102E20005D803F696FF073053D6307F1200017F087
:102E300067FF87F85C80304617F0BCFF2368002BE3
:102E40003FF4D1AE9A68002A3FF4CDAE998811F4D0
:102E500080567FF4C8AE186931F0BDFF2068314656
:102E600008301AF07CFBBEE6D9F800306363002B13
:102E70003FF475AFD9F8043072E7009B1B68E36339
:102E8000002B3FF47BAF009B5B6878E7616B01EB45
:102E9000C201013249680B448FE7E06B00EBC100CF
:102EA0000131406802448DE7C1F80C15FFDE0023B4
:102EB000C3F80835FAE700BF47E801008FD00300E8
:102EC0001FA107003F420F007F841E00FF083D0046
:102ED00000127A0000030050A1D601000000AD0BE3
:102EE00000F01F0240090DD001280ED10A4B03EB60
:102EF00082030A4AD3F80007024042EA8102C3F87B
:102F0000002770474FF0A043F1E702F5E07200237D
:102F100053F82230FFDE00BF00030050F0F8FCFF42
:102F2000F0B587B001238DF8023002238DF804300C
:102F30006B4403930F4601AB0DF10301002404938E
:102F400005460291059401F04DF90C4B9842064656
:102F50000FD103AA3946284600F0A8FFB0420BD093
:102F60009DF80310284601F037F96FF0040007B010
:102F7000F0BD6FF01200FAE72046F8E70000AD0B55
:102F80002DE9FF410569D0F804802B6D0646A86C39
:102F9000002835D1002B53D0B8F838406A6CEF6C5C
:102FA0009C4228BF1C46EB6C53B1296D41B107F020
:102FB0006041B1F1005F03D0082C6F6E28BF082478
:102FC00000926A6CAC651AB1AA6C002A18BF22463E
:102FD000CDE901271BB12B6D002B18BF2346002222
:102FE00069464046039301F0C9FF184B984229D027
:102FF0006FF00401304604B0BDE8F0411AF0B3BCF4
:10300000696CEF6CB8F838400A46ABB1834228BF10
:1030100003469C4228BF1C460029C4D001F06043EF
:10302000B3F1005FBFD0082C28BF08242246286EC9
:1030300032F0D7F82A6EB6E7844228BF0446EBE7A1
:103040001946D7E704B0BDE8F08100BF0000AD0B22
:103050002DE9F04F8FB004690193436802938B8888
:1030600007469804884691462ED44FF0FF324FF021
:10307000FF3304F1100017F077FEC4F80480D7F88E
:1030800004B0D7F810A0DBF8083003939AF85D304D
:1030900023B1DAF80030984500F0B580B8F804E0C4
:1030A0001EF4006F17D06FF08505236813B19B885D
:1030B0009B0405D40023636004F1100017F020FE88
:1030C00028460FB0BDE8F08FA369002BCDD163680F
:1030D0009942CAD1D3E71EF0090F02D06FF015054F
:1030E000E3E7CEF34513082BF8D1D8F800C0984B8E
:1030F0009C45F3D90BF10C060FCE04AD0FC50FCED6
:103100000FC5039B634528BF63469C4696E80300B2
:10311000904B9C4585E8030017D28F4B9C4514D2F9
:103120008E4B9C4511D28E4B9C454CD88D4B9C456B
:103130004BD88D4B9C454AD88C4B9C4549D88C49E3
:103140008C4B8D4A8C4588BF13461EF0020F0993A5
:103150000EF004033FD0002B14BF032302238DF88D
:103160002830CEF300138DF82930DBF80030D3F887
:103170000835591C12D01EF0020F03F01F00CEF3C9
:1031800040014FEA53134FF001022BD13BB393425E
:1031900040F0D680794B8240C3F80C259AF85D3018
:1031A0002BB1584601F09CFE00238AF85D303B4667
:1031B000734A04A9584601F05FFE724B98421DD035
:1031C0006FF0040571E7704BBFE7704BBDE7704BC4
:1031D000BBE7704BB9E7003B18BF0123BFE74FF0D7
:1031E000A043D8E73BB1012B40F0AD80634B824058
:1031F000C3F80825D2E74FF0A043F8E701238AF887
:103200005D30CAF80080012384F85C30029B196CA1
:103210004A1C03D003F144001AF090FAB9F1000FF0
:1032200068D1C4F834900023A36304F1480204F188
:10323000380104F134001AF0AEFA019B6064002BEF
:1032400060D1E3630023236404F1500204F14001E0
:1032500004F13C001AF09FFA00252A46E06401219F
:10326000204625631AF0DFFA3846FFF789FEA06B87
:103270002A462B4683424DD10023256C1946A9428C
:103280004FD19A42264638BF1A464FF4FA5303FBF1
:1032900002F556F8203B4FF000081B68B5FBF3F52C
:1032A0004FF4004CC835414640F2E7304FF47A7293
:1032B0000023E5FB0C01FCF773FF02460B4630468A
:1032C00017F052FD024618B9256B15F1740F2FD176
:1032D0000298C4F8588001F003FE84F85D806FF016
:1032E000730138461AF03FFB304617F063FD6FF06C
:1032F0007305DAE6D9F800306363002B93D0D9F870
:10330000043091E7019B1B68E363002B9AD0019B7B
:103310005B6898E7616B01EBC301013349680A44BC
:10332000A8E7E06B00EBC100013140680344A6E769
:10333000002D3FF4BAAE014638691AF074FAB4E6CB
:10334000C1F80C15FFDE0023C3F80835FAE700BF0B
:1033500047E801000048E8010024F40000127A0068
:10336000FF083D007F841E003F420F001FA10700A1
:103370008FD0030048E8010090D003000003005004
:1033800089D901000000AD0B00093D0080841E00BA
:1033900040420F0020A1070070B5012383400E4A70
:1033A000BFF35B8FDC4352E8001F01EA040542E8EB
:1033B0000056002EF7D1BFF35B8F4FF4803282406E
:1033C0000648C0F80823BFF35F8FBFF36F8F0B422F
:1033D00014BF0120002070BD78880020001001403B
:1033E00070B40E49D1E90034D01AC31844F1000476
:1033F00022F07F46C1E90034A6F50013B3F5400F73
:1034000009D2074B1B681A0A1B069C19054B42F18F
:103410000005C3E9004570BC18F0BCBB780400206F
:103420007C8800208004002011B3BFF35B8F012350
:10343000104A834052E800CF4CEA030C42E800C136
:103440000029F7D1BFF35B8F0B4A4FF480338340E1
:10345000C2F80433094BBFF35B8F1B68BFF35B8F6C
:10346000C340DB0742BF064B4FF40032C3F80021D4
:10347000704700BF78880020001001407488002049
:1034800000E100E00D4B1868010A0006BFF35F8FF2
:103490000B4BD3F80435181841F10001B3F5801F28
:1034A0000AD2084BD3E90023904271EB030303D205
:1034B00010F1807041F10001704700BF7C8800204E
:1034C00000100140800400202DE9F04F85B0164621
:1034D0001F469DF840A00446FFF75EFF0190FFF7EE
:1034E000D1FFB04271EB070354D23E4B301A67EB69
:1034F0000101984271F100014FD23B4B03EB0413E1
:10350000D3E902239F4208BF96425ED037494FF469
:10351000803804F1500508FA04F8AD00C1F848837A
:103520002046ADB21AF089FA26F07F4B05F18045AE
:1035300004F5A87305F58835DC464FF003090293BE
:10354000029A2CF07F4341F82230C1F84483D1F82D
:103550000435274A6FF00200C01A604420F07F4013
:10356000904232D9286868B1D1F804350393A3EBAF
:103570000B0020F07F40B0F5000F26D920461AF04E
:103580005CFA039BBAF1000F07D109EB030C09F1B8
:103590000109D5E7BAF1000F09D06FF015052046F3
:1035A0000199FFF741FF284605B0BDE8F08F0123E0
:1035B000104ABFF35B8FA34052E8000F184342E864
:1035C00000010029F8D1BFF35B8F07490E98230152
:1035D00001EB0412C8500F9B5360C2E9026700253B
:1035E000DDE700BF010080006804002000100140FA
:1035F000FDFF7F00748800207FB51C4C1C4BC4F875
:103600000833C4F848331B4B00254FF0FF304FF010
:10361000FF31C4F80855C3E902014FF48033C4F800
:103620000433154B02264FF400320121C4F8046321
:103630001120C3F880212A46FDF708FF1120FDF76D
:10364000D5FE0E4A0123A360236013600C4B0D4A84
:103650000093CDE9015500232846FFF735FF30469A
:10366000FEF7ACFA284604B070BD00BF0010014060
:1036700003000F006804002000E100E078880020CB
:10368000E1330000FFFF7F002DE9F7432F4CD4F812
:10369000043399070BD5D4F8043143B12C4A0023E5
:1036A000C4F80431D4F80431136801331360D4F83A
:1036B0000433DA0329D5BFF35B8F264B53E8002F81
:1036C00022F0010143E800100028F7D1BFF35B8F1F
:1036D000D30702D4D4F84031BBB10025C4F840511F
:1036E000D4F84031FFF7CEFEEFF31182202383F3AD
:1036F0001288BFF36F8F184BD3E90267B042B9410C
:1037000006D282F31188BFF36F8F03B0BDE8F08358
:103710004FF0FF384FF0FF39C3E90289D3E90010B9
:103720001D604FF48033C4F84833C4F84051D4F8D6
:10373000403182F31188BFF36F8F0029E5D00090EC
:1037400032463B4628468847DFE700BF001001406D
:103750007C880020748800206804002030B5431C59
:10376000124C85B005D08442A8BF0446012CB8BFD6
:103770000124FFF787FE0E4B0C4DD3E90013401ACE
:10378000B0F5000F10D22218AA4228BF2A465218BC
:103790004FF0000007490091CDE9010043F100031B
:1037A000FFF792FE05B030BD2A46F0E7FFFF7F002D
:1037B00078040020E133000008B5FFF763FE024BF8
:1037C0001B68C01A08BD00BF780400204FF080536A
:1037D000D3F83021082A06D1D3F83431052B02D88A
:1037E000024AD05C70470020704700BFD1190B001F
:1037F000024AD2F80034002BFBD0704700E00140B1
:1038000010B54FF08053D3F83021082A4ED14FF035
:1038100080420021C2F80C11C2F81011C2F838150C
:1038200002F54042D3F80414C2F82015D3F8081466
:10383000C2F82415D3F80C14C2F82815D3F81014C4
:10384000C2F82C15D3F81414C2F83015D3F8181494
:10385000C2F83415D3F81C14C2F84015D3F820145C
:10386000C2F84415D3F82414C2F84815D3F8281424
:10387000C2F84C15D3F82C14C2F85015D3F83014F4
:10388000C2F85415D3F83414C2F86015D3F83814BC
:10389000C2F86415D3F83C14C2F86815D3F8401484
:1038A000C2F86C15D3F84434C2F87035FFF78EFFB8
:1038B00018B13A4B3A4AC3F88C26FFF787FF18B184
:1038C000384BFB22C3F81825FFF780FF70B14FF08B
:1038D00080414FF08053D1F8E42ED3F8583222F0D3
:1038E0000F0203F00F031343C1F8E43EFFF76EFF2E
:1038F00020B12D4B4FF40072C3F840264FF0805397
:10390000D3F83031082B1AD14FF08043D3F800247C
:10391000D20744BF6FF00102C3F800244FF0805378
:10392000D3F83431052B02D8204AD35C3BB14FF099
:103930001023D3F808224FF08043C3F858254FF0E6
:103940001023D3F80022002A03DBD3F80432002B23
:1039500022DA174901234FF01020C1F80435122450
:10396000FFF746FFC0F80042FFF742FFC0F80442ED
:10397000FFF73EFF0023C1F80435FFF739FFBFF31F
:103980004F8F0C490C4BCA6802F4E0621343CB60C2
:10399000BFF34F8F00BFFDE710BD00BF00500040D8
:1039A0004881030000F0004000900240CB190B005A
:1039B00000E0014000ED00E00400FA0530B50468C5
:1039C000CCB1BFF35B8FB4FA84F3C3F11F03DBB256
:1039D00001229A4024EA020250E8005FA54204D185
:1039E00040E8002CBCF1000FF6D1BFF35B8FE6D1AD
:1039F00002480B7030BD0248FCE700BF0000AD0B71
:103A00000200AD0B10B50368CB40DB0714D40123D3
:103A10008B400268BFF35B8F43EA020150E8004F1E
:103A2000944204D140E8001CBCF1000FF6D1BFF372
:103A30005B8FEED1014810BD0148FCE70000AD0BE3
:103A40000400AD0B014BC3F80405704700F00140C2
:103A5000F7B50546F8B101281BD104224FF4807355
:103A600001464FF0804003440244C0F8081300268A
:103A7000012111601E608D421B688DF8071008BF80
:103A80000DF1070642F210744FF0804745B1012D49
:103A900028D003B0F0BD0C224FF482730221E0E77E
:103AA000D7F8183403F480333EB9002BF1D001204D
:103AB00019F0D4FF013CF3D1EBE7D7F8182402F05A
:103AC00003023260002BE4D09DF80700012803D1E7
:103AD00019F0C4FF013CD9D1012DDAD10C4B0022E1
:103AE0005A71D6E7D7F80C3403F480333EB9002B73
:103AF000F4D0012019F0B2FF013CF3D1EEE7D7F882
:103B00000C2402F001023270002BDDD1E6E700BF89
:103B100080880020044B1A7922B9012218609A800B
:103B20000248704702487047808800200000AD0BB3
:103B30000C00AD0B08B5074B1B682BB10020FDF73F
:103B400077FC08B9FDF752FC4FF080430022C3F820
:103B5000182508BD8088002010B510B1012843D079
:103B600010BD4FF08043D3F81814D3F81824C803BD
:103B700021D502F00303012B04D013B10020FFF77D
:103B800067FF00234FF080420220C2F81835082258
:103B90004FF4827303F180430021196002F18042E7
:103BA0001C6801241460154A12680AB34FF0804360
:103BB000C3F80403D4E7D3F81424D107E1D5D3F82C
:103BC0001C249207DAD40D4A12681AB10222C3F8F3
:103BD0000423C5E7D3F80421002AFBD00022C3F850
:103BE0000421D3F80431BBE700224FF48073D1E7FE
:103BF0001A68002AFCD019601B68B1E78088002091
:103C0000F8B54FF080431C4ED3F80443012500273C
:103C100004B9F8BDB4FA84F0C0F11F00830003F5C5
:103C200080739BB203F1804305FA00F2196892B2E7
:103C300024EA02040029EBD01F601B684FF0804388
:103C4000012AC3F8082305D0022A08D03368C0B27D
:103C50009847DDE77379002BDAD17271F6E7D3F874
:103C60001814D3F818148907F0D1C3F81855C3F8FD
:103C700004239D60CCE700BF80880020036803F028
:103C80001F025B09026004D0012B034818BF00200B
:103C900070474FF0A040704700030050034A4309AB
:103CA00000F01F00D35C1844C0B27047D7190B0056
:103CB00070B50546FFF7F2FF0C4C08300E4634F89D
:103CC0001030DA0508D5C3F3432304EBC3022846BA
:103CD00054F8333052689847A3682BB1E2683146F4
:103CE0002846BDE87040184770BD00BF0C01002099
:103CF00008B5FFF7D3FF034B083033F81000400B33
:103D000008BD00BF0C01002008B5FFF7C7FF034B3B
:103D1000083033F81000C0F3400008BD0C0100204B
:103D200008B5FFF7BBFF034B083033F81000C0F3B2
:103D3000401008BD0C010020034611F0010010B531
:103D4000CCB20DD1A207C4F3400012D5094AD2F873
:103D500020055860C2F82005003818BF012008E08F
:103D60004FF0A041D1F820251A60C1F82025002A83
:103D7000E8D010BD0003005010B5FFF78FFF124AC6
:103D8000083032F81030D9051CD5C3F3432123F491
:103D9000F85322F8103002F10E04002034F8023FEC
:103DA00013F4807F03D0C3F3432399420AD0013038
:103DB0003028F3D1002342F831300448BDE81040E8
:103DC000FFF720BE10BD00BF0C01002084010020C1
:103DD000F0B5054600200446012607468C420BD16B
:103DE000114BD3F87C2132B10022C3F87C21D3F8E7
:103DF0007C3140F00040F0BDE3B29B0003F58072DF
:103E00009B0806FA03F31D420BD002F1804202F533
:103E1000C042D2F800C0BCF1000F02D01760126897
:103E200018430134DAE700BF00600040F7B50646EA
:103E30000846FFF733FF194F00F108050C4637F825
:103E40001530DB0727D5304619F081FE2046FFF7F5
:103E500067FF40B12046FFF74BFF316800F5A270C5
:103E6000002341F820302046FFF786FF002301A8F9
:103E700027F815300194FFF701FF019B00EB830049
:103E8000074BD0F80027134043F00203C0F8003777
:103E9000044803B0F0BD0448FBE700BF0C0100205C
:103EA000F0F8FCFF0000AD0B0400AD0B2DE9FF4165
:103EB000164680460846FFF7F1FE0D463168044677
:103EC00009B32846FFF720FF18B12846FFF728FF5F
:103ED00010BB0023CDE900338DF80E308DF80F3084
:103EE0000DF10F020B4628460DF10E0119F0C6FD2B
:103EF000474A04F1080132F8113023F0020343F07D
:103F0000010322F81130736863B328461F7859689B
:103F1000FFF7FAFE10B1D1B13E4826E03C4A04F169
:103F2000080032F8103023F02003DB04DB0C22F809
:103F3000103061B1032FEFD87168496891F800C063
:103F4000D8F80010A7B90CF5A27C41F82C70304AC3
:103F500004F1080132F8113023F01C0343EA87030F
:103F600022F81130B3684BBB2B4804B0BDE8F08198
:103F700001EB8C0143EA4C33D1F810E52EF0030E2F
:103F8000C1F810E5D8F8001001EB8C0E43F02003C7
:103F9000DEF8101522F8103021F44F3121F4407171
:103FA000CEF810152902DEF8108501F47C5141EAA3
:103FB000074141EA0801CEF81015C8E7D3E90067C8
:103FC0002846FFF7D9FE002ECED0114DD5E90023AB
:103FD000964203D19F4201D1002209E00F480DF122
:103FE0000F01FFF7EBFC0C4B9842BED19DF80F2060
:103FF00045F8326005EBC20308345F6035F81430D1
:1040000043EA422343F4807325F81430ACE700BF41
:104010000C0100200400AD0B0000AD0B840100205A
:104020002DE9F0430C4685B08046204611461E46D9
:10403000FFF734FE054629B32046FFF765FE18B9A1
:104040002046FFF76DFE18BB314F05F1080937F820
:10405000193013F01C0F02D04B78012B18D001231C
:104060008DF80F300023CDE900134A1C8B1C20462D
:104070000DF10F0119F002FD37F8193043F0030379
:1040800027F81930002E41D02046FFF73DFE18B921
:10409000204805B0BDE8F08396F800C0D8F800309D
:1040A0001B4F0CF5A272002143F8221005F1080203
:1040B00037F8121021F02001C904C90C27F812109A
:1040C00075781DB3D8F80000B67800EB8C002D048D
:1040D000D0F8103523F4991323F4F853C0F81035B1
:1040E000230203F47C5305F440353605D0F810E57F
:1040F0002B4306F4801641EA4C31334341F0200152
:1041000043EA0E0327F81210C0F810350248C0E742
:104110000C0100200400AD0B0000AD0B014BC3E906
:10412000021270470C01002010B508461446FFF734
:10413000F7FD50B10846FFF7B1FD054B083033F8E5
:10414000103004485B0B237010BD0348FCE700BF30
:104150000C0100200000AD0B0400AD0B70B5164D36
:1041600095F8804006462CBB2146602205F11000E0
:1041700031F05FF830682E6F21468E420ED1002359
:10418000C0F87C31D0F87C3140F30730FDF72EF9D0
:1041900001230A4885F88030AB6770BDCBB29B0025
:1041A00003F580727C2B08BF845001F1010108BF28
:1041B0008358E2E70248F0E70C0100200000AD0B55
:1041C0000C00AD0B034B93F88000003818BF0120A2
:1041D000704700BF0C0100200148FFF713BC00BF6F
:1041E000800100200148FFF7E9BB00BF80010020EB
:1041F00073B503681646D3F80423002AA8BF4FF00E
:1042000000420546A8BFC3F8042308460C46FFF742
:1042100087FD00B30846FFF777FD0146D8B9204671
:10422000FFF766FD04B2A40004F580720346286817
:104230008150296882582144D1F8102542F00102AA
:10424000C1F810252EB12968012202FA03F3C1F842
:10425000043302B070BD2046FFF720FD0F4B08303D
:1042600033F81030C3F38203042B12D0052B12D085
:1042700001A80194FFF702FD019AD0F81035D34050
:1042800003F00103991C204602B0BDE8704019F00C
:104290003EBC0321F7E70221F5E700BF0C01002037
:1042A0002DE9F04F694BDFF8A891D3F80403D9F852
:1042B0007010C0B289B040F00040FFF789FD051EC4
:1042C0002EDACA4600235AF87C1F06A8CDE9063329
:1042D000FFF732FD5F4B01930DF118084FF0000B13
:1042E000019A12F8013B0192DA0803F007031AF869
:1042F000022022FA03F3DA071BD408F10408BBF109
:10430000000F13D000214FF00040FFF761FDD9F8F6
:104310007C1006A8FFF710FD0028DBD125F0004532
:104320000124002D79D109B0BDE8F08F4FF0010BC9
:10433000D6E7494B5B440293D8F800100029DCD043
:10434000029B91FAA1F11C78B1FA81F141EA44147F
:104350002046FFF7A3FC0830059439F81070C80810
:10436000BB0818F80020039301F00701012303FAAA
:1043700001F122EA010208F8002005A8FFF77EFCFF
:10438000059A039B02F5E072C7F3820650F82220DB
:104390005B073746C2F3014224D520463946D6B2E0
:1043A000FFF786FC05A80594FFF768FC059B03F55D
:1043B000E07350F82330C3F301439E4207D100213C
:1043C000204619F0A4FB3146204619F0A0FB05A8B1
:1043D0000594FFF753FC059B012202FA03F3C0F892
:1043E0002035A9E7022A0CD10321204619F08FFBC2
:1043F00006F00503012BEAD139462046FFF758FCA9
:10440000E5E702212046039219F081FB032EF3D049
:10441000039A032ADBD1022EEDE795FAA5F3B3FA4E
:1044200083F304FA03F29B0003F1804303F5C043D6
:1044300025EA0205D3F81005D3F81015C0F30520BE
:10444000C1F30141FFF734FC6BE700BF006000409F
:104450000C010020E7190B00E7190B000146014889
:10446000FFF7ACBA90010020036803F01F025B095C
:10447000026004D0012B034818BF002070474FF0A2
:10448000A04070470003005070B505790A4C142312
:104490006B43E618E35833B90068022119F0B7FB03
:1044A00008B101233372142303FB0544207A023838
:1044B00018BF012070BD00BF888800202DE9F34798
:1044C0000B7F04466BBBDFF8D8900D1F01F110067F
:1044D00001F10C08012755F804AFBAF1FF3F1CD0D9
:1044E0003378CDF804A001A8002B50D0FFF7BCFF13
:1044F000019B07FA03F3C0F8083501A8CDF804A022
:10450000FFF7B2FF019B00EB8300D0F8003703EA0E
:10451000090343F00303C0F80037A84506F101067C
:10452000D9D191F81DC00D8B4F7D8E7D8A7EC87EBE
:104530002368BCF1000F0BD1D1E9008ED1E902C193
:10454000C3F86085C3F864E5C3F868C5C3F86C15A3
:1045500042EA0022C3F80C75C3F80465C3F8085595
:10456000C3F8102520680023C0F81031D0F81021BE
:10457000C0F80831D0F80821C0F80C31D0F80C315F
:1045800040F3073002B0BDE8F047FCF72FBFFFF75C
:104590006BFF019B07FA03F3C0F80C35ADE700BFD2
:1045A000F0F8FCFF2DE9F04190F804800D4C142642
:1045B00006FB08F6A71997F808C0BCF1000F0ED14A
:1045C000A2517B6019B10B7F3B74FFF777FF142377
:1045D00003FB0844044801232372BDE8F08103482B
:1045E000FBE700BF888800200000AD0B0C00AD0B7E
:1045F00070B40C460179266815461A461A4B01EB31
:10460000810103EB81010368C3F82065A688C3F824
:104610002465A668C3F82865E668C3F82C650368B6
:104620002668C3F84065A688C3F84465A668C3F841
:104630004865E468C3F84C45046805F0010303EBE2
:104640005505C4F81455D4070CD412F0020403D055
:10465000002B14BF082404240568C5F8004270BC70
:1046600019F0A0BA1024F7E78888002038B503684D
:1046700005790022C3F800220368012204465A602B
:1046800071B12046FFF700FF0028FAD0236800220E
:10469000C3F80025054B142202FB053301221A72D0
:1046A0002046BDE83840FFF7EFBE00BF88880020F5
:1046B00010B5B2211A4819F0AAFAC106044608D565
:1046C000184BDA68520704D51A6812B159680120EC
:1046D0009047A00608D5134BDA68110704D51A686D
:1046E00012B1596802209047220608D50D4BD868B0
:1046F00010F0100003D11A680AB159689047A30757
:104700000DD5074B0022C3F80025064B01221A7273
:104710001A6822B1BDE8104059680320104710BD47
:1047200000C0014088880020036803F01F025B0975
:10473000026004D0012B034818BF002070474FF0DF
:10474000A04070470003005007B5019001A8FFF793
:10475000EBFF019B00EB8300054BD0F800271340D3
:1047600043F00303C0F8003703B05DF804FB00BF5B
:10477000F0F8FCFF73B5CB7B0446002B38D10B7BE4
:104780000878012B77D819F07BFA0B78019301A8F0
:10479000FFF7CAFF019B00EB83003C4BD0F80027DA
:1047A000134043F00103C0F800374878FF2804D0D5
:1047B00019F066FA4878FFF7C7FF8B78FF2B0FD008
:1047C00001A88D7B0193FFF7AFFF019B00EB8300F6
:1047D0002E4BD0F80027134043EA8503C0F800377A
:1047E000C878FF2804D019F03EFAC878FFF7ACFF6C
:1047F00023792748CA78282505FB03039A770B7C81
:104800009BB94B7825680E78FF2B18BF1A468B781A
:10481000C5F8086508BF4FF0FF32FF2B08BF4FF007
:10482000FF33C5F80C25C5F8103523688A68C3F82E
:1048300024254B7B0A7B2568003B18BF0123022AF5
:104840001CD0032A1DD0012A01D143F00203C5F870
:10485000543523794979282202FB0303D977237938
:104860005343C35883B1206840F3073002B0BDE81A
:104870007040FCF7BBBD19F0F6F986E743F004037E
:10488000E5E743F00603E2E702B070BDF0F8FCFF95
:104890009C88002007B5019001A8FFF745FF019B08
:1048A00000EB8300054BD0F80027134043F00203D0
:1048B000C0F8003703B05DF804FB00BFF0F8FCFF60
:1048C0002DE9F04190F80480144C4FF0280C0CFBBB
:1048D00008FC04EB0C06074696F81CE0BEF1000F3E
:1048E00019D144F80C20736041B1CB7B86F8253098
:1048F000CB78B3774B79F377FFF73CFF3A680848FA
:104900000123C2F80035282202FB08440022627706
:104910002377BDE8F0810348FBE700BF9C880020B7
:104920000000AD0B0C00AD0B70B50679194C056895
:1049300028237343E35833B145F30730FCF764FD94
:104940000423C5F808330023C5F80035282303FBEA
:10495000064393F82530BBB9D5F80805FFF79AFF51
:10496000D5F81005421C01D0FFF794FFD5F80C05CF
:10497000431C01D0FFF78EFF282303FB0643987FDB
:10498000FF2801D0FFF786FF282303FB06440023FE
:10499000237770BD9C8800202DE9F8430779394CB6
:1049A00028237B439046E2180E46517F814600291A
:1049B00066D1E3580BB10123537796E80F00282501
:1049C00005FB074505F10C0C8CE80F00A87F0023C0
:1049D000FF2885F8243001D019F052F92823B8F1C6
:1049E000000F06D003FB0743002227485A77BDE893
:1049F000F883D9F8005003FB07430422C5F80823C5
:104A0000C3F82080C5F80881D5F8082172689AB1EA
:104A100033681B78C5F81C357368012B0ED93368D1
:104A20005B78C5F81C3528237B43E65876B1042310
:104A3000C5F804331548DAE7DB7FEBE7F368012BB1
:104A4000F1D9282303FB0743DB7FEAE707EB870164
:104A500004EBC101D5F80831002BFBD0C5F8086183
:104A60002846D5F8083119F018F90028F2D1282382
:104A700003FB0744A07FFF28DCD019F0F4F8D9E746
:104A80000348B4E79C8800200300AD0B0000AD0B89
:104A90000B00AD0B10B54FF040200023C0F80831DB
:104AA0000A49D0F8083119F0F8F868B9887FFF286A
:104AB00001D019F0D8F800234B770B72BDE81040F5
:104AC000D1E900310248184710BD00BF9C88002082
:104AD000A4880020036803F01F025B09026004D071
:104AE000012B034818BF002070474FF0A0407047CB
:104AF00000030050012370B504460D46436164264F
:104B000000220221204619F010F920B9012018F0E6
:104B1000A5FF013EF4D100236B774FF08051D1E91E
:104B20004C1208291AD1052A18D80E498A5CAAB154
:104B30004FF0FF32D4F80805D4F80C15C4F800354E
:104B4000C4F80825C4F80C250922C4F80025C4F8C7
:104B50000035C4F80805C4F80C1570BD0023C4F86E
:104B60000035FAE7E9190B000F4B984219D00DD820
:104B70000E4B984215D007D80D4B984211D00D4BD3
:104B8000C31A5842584170470B4BF9E70B4B9842F8
:104B900007D004D80A4B984203D00A4BF0E70A4BDF
:104BA000EEE70120704700BF80841E0020A10700AF
:104BB00048E8010090D0030040420F000024F400B8
:104BC00000093D0000127A000048E80173B516465E
:104BD000421C1C460546069B18D0012902D1BBB1D8
:104BE00019F0E1F801A80195FFF774FF019B00EBB4
:104BF00083002402D0F80027074B44EA86040C43C4
:104C000013401C4344EA4101C0F8001702B070BDD4
:104C100019F0D6F8E6E700BFF0F8FCFF2DE9F04FF9
:104C200091F8213090F804A085B007460C46002B7F
:104C300000F0B48091F8223003934FF001086569C9
:104C4000784B9D4200F0C48000F2B480764B9D42C8
:104C500000F0C18000F2A680744B9D4200F0BE803F
:104C6000734B9D420CBF4FF080654FF08045DFF8DD
:104C7000C49194F82300242202FB0A93997F60F3E5
:104C8000000199773B79217C02FB03939A7F61F3C2
:104C900041029A7794F82360002E32D16269664B04
:104CA0009A420CBF4FF0030B4FF0000B237E012BF9
:104CB00094BF00230123009320685B463246012104
:104CC000FFF784FF009660685B4632460121FFF7DC
:104CD0007DFF0096A27EA0685B463146FFF776FF17
:104CE000237C83F001030093E0685B463246012198
:104CF000FFF76CFF01210091E0695B463246FFF748
:104D000065FF2423B8F1000F71D003FB0A934FF025
:104D1000FF321A62A07C217E627EE66894F81080E1
:104D200094F824E094F820C03B68BEF1000F13D142
:104D3000D4E900BAD4F808E0E469C3F808B5C3F8C8
:104D40000CA5C3F810E5C3F86C45039CC3F81465C3
:104D5000C3F86885C3F86445003A18BF01220229E8
:104D6000C3F8C005C3F8245553D0032954D00129F2
:104D700001D142F00202C3F85425C3F860C53B7963
:104D80002422534359F80330002B48D0386840F3AD
:104D9000073005B0BDE8F04FFCF728BB984602236A
:104DA00003934CE7254B9D420CBF4FF080554FF0CD
:104DB00080455CE7224B9D4213D01F4B9D4213D090
:104DC000204B9D420CBF4FF000454FF080454EE711
:104DD0004FF000554BE74FF0006548E74FF0007586
:104DE00045E74FF0206542E74FF0A0553FE703FB52
:104DF0000A9AE268CAF82020227C9AF81E3062F3F0
:104E000041038AF81E30A07C217E627E4FF0FF367F
:104E100086E742F00402AEE742F00602ABE705B0D7
:104E2000BDE8F08F80841E0020A1070048E8010043
:104E300090D00300C88800200048E80140420F00DD
:104E40000024F40000127A00431C07B50ED0019034
:104E500001A8FFF73FFE019B00EB8300054BD0F854
:104E60000027134043F00203C0F8003703B05DF899
:104E700004FB00BFF0F8FCFF2DE9F8430746144C93
:104E800097F80480242505FB08F504EB05091E4668
:104E900099F81C30C3B999B14869FFF765FEA8B10C
:104EA00038466251C9F80460FFF7B8FE242303FBBB
:104EB000084400236377074801232377BDE8F8837C
:104EC0006251C9F80460F1E70348F7E70348F5E7E2
:104ED000C88800200000AD0B0C00AD0B0400AD0B2A
:104EE0002DE9F041044606790068214D40F3073072
:104EF000FCF78AFA24237343EB5853B123681D4A05
:104F0000C3F8082306EBC601206805EB8101FFF713
:104F1000F1FD2421236801FB0651D3F80805D3F8DD
:104F20000C75D3F810858B7FDB0714D4FFF78CFF4B
:104F30004046FFF789FF3846FFF786FF086AFFF70C
:104F400083FF2368D3F86C05D3F81415FFF77CFFB3
:104F50000846FFF779FF2368074A934204BF0122FE
:104F60005A60242303FB065500232B77BDE8F0810C
:104F7000C88800205201080000F002402DE9F043EB
:104F80000779DFF8AC8124237B43164608EB030244
:104F90000D46517F85B08146002940F0C68058F803
:104FA000033023B116F0140F04BF0123537795E8A3
:104FB0000F00242404FB078404F10C0C8CE80F0080
:104FC000206A431C04D0A37F99071AD518F0EBFE82
:104FD0002968D9F8004021B101F06043B3F1005FC6
:104FE00006D1AB6883B103F06043B3F1005F0BD02F
:104FF000242303FB078300224E485A7705B0BDE8FF
:10500000F08318F0DDFEE3E74B4B9C4224D14FF0D8
:1050100080436A68D3F8000E484B1860E2B14848F4
:1050200021F4FF5323F01F0383426ED85018DFF89A
:1050300014C1C3F34F3101228A40002103F500530C
:10504000984241EA02014FEA420201D96345F5D391
:105050004FF08043C3F8001E16F0010318BF012370
:10506000C4F8503516F0020318BF0123C4F84035C8
:1050700095E80F00EC468CE80F00039BC4F844054C
:10508000C4F84815C4F83425C4F838350023C4F8EA
:105090001831D4F8183116F008054FF00703C4F89A
:1050A00000350FD124237B4358F8032001232361CB
:1050B00042B9D4F81831002BFBD06246402120467B
:1050C00018F033FE24237B4358F803301BBB1A4BE4
:1050D0009C4201BF194B1A684FF08043C3F8002E61
:1050E000242303FB0783186A421C04D09B7F9B0781
:1050F0000ED518F065FE35B907EBC70708EB870139
:105100002046FFF7F7FC104878E74FF480719FE7DF
:1051100018F049FEEFE716F0040F4FF0400314BFFC
:10512000C4F80833C4F80433EDE7084866E700BF65
:10513000C88800200A00AD0B00F00240C48800209F
:10514000FFFF0020002001200000AD0B0B00AD0B85
:1051500010B5134A1348402118F0E7FDF8B1124B7F
:10516000124C1A684FF08043C3F8002E206A421C8C
:1051700004D0A37F9B070FD518F022FE637F1BB1DD
:105180000A490848FFF7B6FC002323720848D4E90F
:105190000031BDE81040184718F005FEEEE710BDDD
:1051A000D488002000F00240C4880020C888002075
:1051B000D088002030B500F01F04400911D001282C
:1051C00012D10C4800EB84001B02D0F800570A4CA7
:1051D00043EA82022C4042EA41012143C0F8001711
:1051E00030BD4FF0A040EDE704F5E074002353F824
:1051F0002430FFDE00030050F0F8FCFFCB7B10B43E
:1052000033B9D1E900420368C3F80845C3F80C2557
:1052100003688A68C3F8242503793C225343054A6E
:10522000D3582BB1006810BC40F30730FCF7DEB850
:1052300010BC7047EC88002013B53B4B0193002352
:10524000C0F80431D0F80421C0F82431D0F824216A
:10525000C0F81C31D0F81C21C0F80831D0F8082162
:10526000C0F800324B6381F82F300123036291F8BC
:105270002D209A4218BF83604B6B8A6A9342044682
:105280000ED24A6AD35CC0F81C350B6803B340F2F7
:1052900086238B608B682548C4F8043302B010BDA8
:1052A00091F82C3013B10123C361EEE70B6A13F0C0
:1052B000400F4FF0010316BFC361436181F82D30E9
:1052C000E3E7204618F089FD28B1019B013B0193DB
:1052D000019B002BF5DC91F82F305BB91348019B43
:1052E000002BDBDC0023C4F8003505231048C4F88C
:1052F0000035D3E7D4F8C434C4F8C4348BB10D4AB4
:105300000B4813F0010F18BF104613F0020F02F103
:10531000010218BF104613F0040F074B18BF1846C0
:10532000DDE70348DBE700BFA08601000000AD0B0E
:105330000100AD0B0000AE0B0200AE0B13B5334BFA
:1053400001930023C0F80431D0F80421C0F82431BF
:10535000D0F82421C0F81C31D0F81C21C0F8083145
:10536000D0F808214B6381F82F308B6A012B04465B
:1053700017D10B6A5B0614D40223C4F80032012350
:10538000236291F82D20022A18BF23600B688BB18D
:1053900040F286238B608B681D48C4F8043302B04A
:1053A00010BD0123E9E7204618F017FD28B1019B45
:1053B000013B0193019B002BF5DC91F82F305BB989
:1053C0001348019B002BEADC0023C4F800350523B9
:1053D0001048C4F80035E2E7D4F8C434C4F8C43443
:1053E0008BB10D4A0B4813F0010F18BF104613F094
:1053F000020F02F1010218BF104613F0040F074B11
:1054000018BF1846DDE70348DBE700BFA0860100B0
:105410000000AD0B0100AD0B0000AE0B0200AE0BA7
:105420002DE9F84390F804901C4E07463C2000FB01
:1054300009F035180C4695F82E1061BBA960325062
:105440006B6085F82D1085F8311085F83010CCB1DF
:10545000637B85F8383094F80E8085F83980B8F190
:10546000000F0BD12068062303224146FFF7A2FE5E
:105470006068062303224146FFF79CFE214638461A
:10548000FFF7BCFE3C2303FB09660548012386F8B1
:105490002E30BDE8F8830348FBE700BFEC8800200E
:1054A0000000AD0B0C00AD0B036802790521C3F8B9
:1054B0000015044B3C2101FB0233022283F82E200D
:1054C000704700BFEC88002003680B4A0179C3F8DD
:1054D0000823D3F8002222F00302C3F8002200229E
:1054E000C3F80025054B3C2000FB0133012183F864
:1054F0002E1083F83020704786420400EC8800208C
:105500002DE9F047314F0479D0F800903C2303FB9C
:1055100004730D4693F82D30012B944604D10B787B
:10552000012B06D12A4811E0022B02D10B78012B66
:10553000F8D13C26274BC9F8083306FB047696F8C9
:1055400030302BB1B3682448C9F80433BDE8F08784
:105550008CF00403C3F3800386F83030C6F820C013
:10556000A846B8E80F0006F10C0EAEE80F00D8F818
:105570000030CEF800306B68B362EB6873626B7812
:10558000C9F888352B78C4EB041A012B07EB8A0A7B
:1055900017D09BB9CCF3401C3C2303FB047351464A
:1055A000484683F82CC0FFF747FE3C235C433A197A
:1055B0003B59002BCAD182F83030C7E74FF0010CBD
:1055C000EAE751464846FFF7B9FEEEE7EC880020CF
:1055D0000500AD0B864204000B00AD0BF0B5324C5C
:1055E000324887B0214618F0F8FB002859D194F8CA
:1055F0002F70FFB9227B931E012B1BD8606AA36911
:10560000984217D1E36963626369A362236A2748FA
:1056100084F82D70C3F34013032A84F82C3004D18E
:1056200007B0BDE8F040FFF707BE07B0BDE8F040A7
:10563000FFF784BE1E4E0FCE01AD0FC533682B6041
:1056400047B31A4AD2F8C434C2F8C43413F0020182
:1056500006D001238DF80030002384F8303007E0B5
:1056600013F0040209D002238DF8003084F83010C2
:10567000D4E900316846984713E013F0010305D0E0
:1056800003238DF8003084F83020F1E704228DF8F0
:105690000020E2E7236A8DF800705B0784F8307021
:1056A000E6D507B0F0BD00BFEC8800200030004018
:1056B000F8880020036803F01F025B09026004D031
:1056C000012B034818BF002070474FF0A0407047DF
:1056D00000030050F7B5064618F017FC084618F00E
:1056E00014FC01A80196FFF7E5FF019B2E4D00EB8E
:1056F00083000C46D0F80037019440F20D612B4036
:105700000B43C0F8003701A8FFF7D4FF019B00EB63
:1057100083000127D0F800372B400B43C0F8003737
:10572000042018F09BF9092501A80194FFF7C2FF96
:10573000019AD0F81035D340DB0715D401A80196A3
:10574000FFF7B8FF019B07FA03F3C0F80C350420FC
:1057500018F084F9304618F0D8FB013D042018F009
:105760007DF915F0FF05DFD101A80194FFF7A2FF35
:10577000019A01239340C0F80C35042018F06EF90B
:10578000204618F0C2FB042018F068F901A8019423
:10579000FFF790FF019AD0F810350448D34003F08A
:1057A0000103C01A03B0F0BDF0F8FCFF0100AD0B1F
:1057B0000148202128F012BE5C890020014B186CA2
:1057C000704700BF2889002010B50446064A0749E3
:1057D00018F0C4FB63692BB120B920460121BDE854
:1057E0001040184710BD00BF39E502002DE502004A
:1057F00010B50749074A044618F0B0FB6369014633
:1058000023B118B92046BDE81040184710BD00BFAD
:1058100033E5020041E5020010B50146044800F0FE
:1058200009F8044608B119F0D1FA204610BD00BFAE
:10583000605B03002C4A70B506460D4620B1036A32
:105840001A4212D0C3F30F100BF09CF8044648B173
:10585000C0E900657DBB02F0F3FC064638B920467E
:105860000BF0A2F80024204670BD0068E6E7D0F8EF
:10587000BC0208B9C6F8D852D6F8D812013189004E
:105880000BF09CF80028EAD0D6F8D832C6F8BC0253
:105890005A1C0025C6F8D82240F82340C4E9055513
:1058A000284602F0DDFC0138E061284602F0E8FC01
:1058B00001382062D7E7AB6813B9284619F036FAE9
:1058C000AA68138E01331386AE68318E3068890062
:1058D0000BF074F83060AA68138E126803F18043ED
:1058E000013B42F82340BEE7F0FF0F0030B589B01E
:1058F000002864D00023CDE904329DF81C300391C8
:10590000CDE9010023F0070301A88DF81C300AF04F
:105910000DFA06F0ABFC30B19DF81C3013F0020418
:1059200046D1D80745D4019B9D6805B108350122B1
:1059300001A9284628F00AFB0128044639D19DF820
:105940001C0010F0020033D101A919F0A0FF0128BA
:1059500004462ED19DF81C2012F0020228D101A984
:10596000284628F0F3FA0128044622D19DF81C307D
:1059700099071DD401981CF04AF90446C0B19DF85E
:105980001C305A0714D4039B2B3B012B0ED90198D2
:105990004FF4804118F088FF50B1039B163B1E2B3B
:1059A00004D8084A22FA03F3DB0701D40194B0E7D4
:1059B000012401A80AF0C2F9204609B030BD012433
:1059C000FAE700BFF19F78588268531E032B05D970
:1059D000192A05D8034BD340DB0701D528F052BB69
:1059E0000020704700DF3B0337B50B49054618F030
:1059F00061FF044610B1002003B030BD28461CF002
:105A000006F90028F7D0162221461BF00DFB80B2C4
:105A1000003818BF0120EFE70100060007B5064B6C
:105A20000022CDE9002334216A46FFF75FFF00988A
:105A300003B05DF804FB00BF010000E007B5064AB3
:105A40000023CDE9002334216A46FFF74FFF019878
:105A500003B05DF804FB00BF010000E02DE9F04F4A
:105A600087B08146FFF7C0FF0546002840F0188147
:105A700048461CF0CCF808222946824648461BF0CE
:105A8000D3FA0922059004468346294648461BF06E
:105A9000CBFA064605900090BAF1000F07D10246F6
:105AA0002146484607B0BDE8F04F1AF023BB5046E8
:105AB0001AF044F9804650461AF050F904F0C043F9
:105AC000B3F1005F07461FD124F0C0446FF060437C
:105AD0009C4219D00122294650461BF0A5FA6FF0CE
